{
	"contract/SpotExchange_flattened.sol": {
		"AssetVault": {
			"abi": [
				{
					"inputs": [],
					"stateMutability": "nonpayable",
					"type": "constructor"
				},
				{
					"inputs": [
						{
							"internalType": "address",
							"name": "owner",
							"type": "address"
						}
					],
					"name": "OwnableInvalidOwner",
					"type": "error"
				},
				{
					"inputs": [
						{
							"internalType": "address",
							"name": "account",
							"type": "address"
						}
					],
					"name": "OwnableUnauthorizedAccount",
					"type": "error"
				},
				{
					"inputs": [],
					"name": "ReentrancyGuardReentrantCall",
					"type": "error"
				},
				{
					"anonymous": false,
					"inputs": [
						{
							"indexed": true,
							"internalType": "address",
							"name": "contractAddress",
							"type": "address"
						},
						{
							"indexed": false,
							"internalType": "bool",
							"name": "isAuthorized",
							"type": "bool"
						}
					],
					"name": "AuthorizedContractChanged",
					"type": "event"
				},
				{
					"anonymous": false,
					"inputs": [
						{
							"indexed": true,
							"internalType": "address",
							"name": "user",
							"type": "address"
						},
						{
							"indexed": true,
							"internalType": "address",
							"name": "token",
							"type": "address"
						},
						{
							"indexed": false,
							"internalType": "uint256",
							"name": "amount",
							"type": "uint256"
						}
					],
					"name": "Deposited",
					"type": "event"
				},
				{
					"anonymous": false,
					"inputs": [
						{
							"indexed": true,
							"internalType": "address",
							"name": "previousOwner",
							"type": "address"
						},
						{
							"indexed": true,
							"internalType": "address",
							"name": "newOwner",
							"type": "address"
						}
					],
					"name": "OwnershipTransferred",
					"type": "event"
				},
				{
					"anonymous": false,
					"inputs": [
						{
							"indexed": true,
							"internalType": "address",
							"name": "user",
							"type": "address"
						},
						{
							"indexed": true,
							"internalType": "address",
							"name": "token",
							"type": "address"
						},
						{
							"indexed": false,
							"internalType": "uint256",
							"name": "amount",
							"type": "uint256"
						}
					],
					"name": "Withdrawn",
					"type": "event"
				},
				{
					"inputs": [
						{
							"internalType": "address",
							"name": "",
							"type": "address"
						}
					],
					"name": "authorizedContracts",
					"outputs": [
						{
							"internalType": "bool",
							"name": "",
							"type": "bool"
						}
					],
					"stateMutability": "view",
					"type": "function"
				},
				{
					"inputs": [
						{
							"internalType": "address",
							"name": "",
							"type": "address"
						},
						{
							"internalType": "address",
							"name": "",
							"type": "address"
						}
					],
					"name": "balances",
					"outputs": [
						{
							"internalType": "uint256",
							"name": "",
							"type": "uint256"
						}
					],
					"stateMutability": "view",
					"type": "function"
				},
				{
					"inputs": [
						{
							"internalType": "address",
							"name": "_token",
							"type": "address"
						},
						{
							"internalType": "uint256",
							"name": "_amount",
							"type": "uint256"
						}
					],
					"name": "deposit",
					"outputs": [],
					"stateMutability": "nonpayable",
					"type": "function"
				},
				{
					"inputs": [
						{
							"internalType": "address",
							"name": "_token",
							"type": "address"
						},
						{
							"internalType": "address",
							"name": "_from",
							"type": "address"
						},
						{
							"internalType": "address",
							"name": "_to",
							"type": "address"
						},
						{
							"internalType": "uint256",
							"name": "_amount",
							"type": "uint256"
						}
					],
					"name": "internalTransfer",
					"outputs": [],
					"stateMutability": "nonpayable",
					"type": "function"
				},
				{
					"inputs": [],
					"name": "owner",
					"outputs": [
						{
							"internalType": "address",
							"name": "",
							"type": "address"
						}
					],
					"stateMutability": "view",
					"type": "function"
				},
				{
					"inputs": [],
					"name": "renounceOwnership",
					"outputs": [],
					"stateMutability": "nonpayable",
					"type": "function"
				},
				{
					"inputs": [
						{
							"internalType": "address",
							"name": "_contract",
							"type": "address"
						},
						{
							"internalType": "bool",
							"name": "_isAuthorized",
							"type": "bool"
						}
					],
					"name": "setAuthorizedContract",
					"outputs": [],
					"stateMutability": "nonpayable",
					"type": "function"
				},
				{
					"inputs": [
						{
							"internalType": "address",
							"name": "newOwner",
							"type": "address"
						}
					],
					"name": "transferOwnership",
					"outputs": [],
					"stateMutability": "nonpayable",
					"type": "function"
				},
				{
					"inputs": [
						{
							"internalType": "address",
							"name": "_token",
							"type": "address"
						},
						{
							"internalType": "uint256",
							"name": "_amount",
							"type": "uint256"
						}
					],
					"name": "withdraw",
					"outputs": [],
					"stateMutability": "nonpayable",
					"type": "function"
				}
			],
			"devdoc": {
				"details": "Securely holds and manages user deposits of various ERC20 tokens. This contract is the central repository for all protocol assets.",
				"errors": {
					"OwnableInvalidOwner(address)": [
						{
							"details": "The owner is not a valid owner account. (eg. `address(0)`)"
						}
					],
					"OwnableUnauthorizedAccount(address)": [
						{
							"details": "The caller account is not authorized to perform an operation."
						}
					],
					"ReentrancyGuardReentrantCall()": [
						{
							"details": "Unauthorized reentrant call."
						}
					]
				},
				"kind": "dev",
				"methods": {
					"deposit(address,uint256)": {
						"details": "Allows a user to deposit an ERC20 token into the vault. The user must first approve this contract to spend their tokens."
					},
					"internalTransfer(address,address,address,uint256)": {
						"details": "Moves balances internally without an on-chain transfer. This is highly gas-efficient for trading within the protocol. Can only be called by authorized contracts (e.g., the SpotExchange)."
					},
					"owner()": {
						"details": "Returns the address of the current owner."
					},
					"renounceOwnership()": {
						"details": "Leaves the contract without owner. It will not be possible to call `onlyOwner` functions. Can only be called by the current owner. NOTE: Renouncing ownership will leave the contract without an owner, thereby disabling any functionality that is only available to the owner."
					},
					"transferOwnership(address)": {
						"details": "Transfers ownership of the contract to a new account (`newOwner`). Can only be called by the current owner."
					},
					"withdraw(address,uint256)": {
						"details": "Allows a user to withdraw their deposited ERC20 tokens."
					}
				},
				"title": "AssetVault",
				"version": 1
			},
			"evm": {
				"assembly": "    /* \"contract/SpotExchange_flattened.sol\":10522:13102  contract AssetVault is Ownable, ReentrancyGuard {... */\n  mstore(0x40, 0x80)\n    /* \"contract/SpotExchange_flattened.sol\":11092:11128  constructor() Ownable(msg.sender) {} */\n  callvalue\n  dup1\n  iszero\n  tag_1\n  jumpi\n  revert(0x00, 0x00)\ntag_1:\n  pop\n    /* \"contract/SpotExchange_flattened.sol\":11114:11124  msg.sender */\n  caller\n    /* \"contract/SpotExchange_flattened.sol\":5067:5068  0 */\n  0x00\n    /* \"contract/SpotExchange_flattened.sol\":5043:5069  initialOwner == address(0) */\n  0xffffffffffffffffffffffffffffffffffffffff\n  and\n    /* \"contract/SpotExchange_flattened.sol\":5043:5055  initialOwner */\n  dup2\n    /* \"contract/SpotExchange_flattened.sol\":5043:5069  initialOwner == address(0) */\n  0xffffffffffffffffffffffffffffffffffffffff\n  and\n  sub\n    /* \"contract/SpotExchange_flattened.sol\":5039:5134  if (initialOwner == address(0)) {... */\n  tag_6\n  jumpi\n    /* \"contract/SpotExchange_flattened.sol\":5120:5121  0 */\n  0x00\n    /* \"contract/SpotExchange_flattened.sol\":5092:5123  OwnableInvalidOwner(address(0)) */\n  mload(0x40)\n  0x1e4fbdf700000000000000000000000000000000000000000000000000000000\n  dup2\n  mstore\n  0x04\n  add\n  tag_7\n  swap2\n  swap1\n  tag_8\n  jump\t// in\ntag_7:\n  mload(0x40)\n  dup1\n  swap2\n  sub\n  swap1\n  revert\n    /* \"contract/SpotExchange_flattened.sol\":5039:5134  if (initialOwner == address(0)) {... */\ntag_6:\n    /* \"contract/SpotExchange_flattened.sol\":5143:5175  _transferOwnership(initialOwner) */\n  tag_9\n    /* \"contract/SpotExchange_flattened.sol\":5162:5174  initialOwner */\n  dup2\n    /* \"contract/SpotExchange_flattened.sol\":5143:5161  _transferOwnership */\n  shl(0x20, tag_10)\n    /* \"contract/SpotExchange_flattened.sol\":5143:5175  _transferOwnership(initialOwner) */\n  0x20\n  shr\n  jump\t// in\ntag_9:\n    /* \"contract/SpotExchange_flattened.sol\":4995:5182  constructor(address initialOwner) {... */\n  pop\n    /* \"contract/SpotExchange_flattened.sol\":8759:8760  1 */\n  0x01\n    /* \"contract/SpotExchange_flattened.sol\":8963:8970  _status */\n  dup1\n    /* \"contract/SpotExchange_flattened.sol\":8963:8984  _status = NOT_ENTERED */\n  dup2\n  swap1\n  sstore\n  pop\n    /* \"contract/SpotExchange_flattened.sol\":10522:13102  contract AssetVault is Ownable, ReentrancyGuard {... */\n  jump(tag_13)\n    /* \"contract/SpotExchange_flattened.sol\":6682:6869  function _transferOwnership(address newOwner) internal virtual {... */\ntag_10:\n    /* \"contract/SpotExchange_flattened.sol\":6755:6771  address oldOwner */\n  0x00\n    /* \"contract/SpotExchange_flattened.sol\":6774:6780  _owner */\n  0x00\n  0x00\n  swap1\n  sload\n  swap1\n  0x0100\n  exp\n  swap1\n  div\n  0xffffffffffffffffffffffffffffffffffffffff\n  and\n    /* \"contract/SpotExchange_flattened.sol\":6755:6780  address oldOwner = _owner */\n  swap1\n  pop\n    /* \"contract/SpotExchange_flattened.sol\":6799:6807  newOwner */\n  dup2\n    /* \"contract/SpotExchange_flattened.sol\":6790:6796  _owner */\n  0x00\n  0x00\n    /* \"contract/SpotExchange_flattened.sol\":6790:6807  _owner = newOwner */\n  0x0100\n  exp\n  dup2\n  sload\n  dup2\n  0xffffffffffffffffffffffffffffffffffffffff\n  mul\n  not\n  and\n  swap1\n  dup4\n  0xffffffffffffffffffffffffffffffffffffffff\n  and\n  mul\n  or\n  swap1\n  sstore\n  pop\n    /* \"contract/SpotExchange_flattened.sol\":6853:6861  newOwner */\n  dup2\n    /* \"contract/SpotExchange_flattened.sol\":6822:6862  OwnershipTransferred(oldOwner, newOwner) */\n  0xffffffffffffffffffffffffffffffffffffffff\n  and\n    /* \"contract/SpotExchange_flattened.sol\":6843:6851  oldOwner */\n  dup2\n    /* \"contract/SpotExchange_flattened.sol\":6822:6862  OwnershipTransferred(oldOwner, newOwner) */\n  0xffffffffffffffffffffffffffffffffffffffff\n  and\n  0x8be0079c531659141344cd1fd0a4f28419497f9722a3daafe3b4186f6b6457e0\n  mload(0x40)\n  mload(0x40)\n  dup1\n  swap2\n  sub\n  swap1\n  log3\n    /* \"contract/SpotExchange_flattened.sol\":6745:6869  {... */\n  pop\n    /* \"contract/SpotExchange_flattened.sol\":6682:6869  function _transferOwnership(address newOwner) internal virtual {... */\n  pop\n  jump\t// out\n    /* \"#utility.yul\":7:133   */\ntag_15:\n    /* \"#utility.yul\":44:51   */\n  0x00\n    /* \"#utility.yul\":84:126   */\n  0xffffffffffffffffffffffffffffffffffffffff\n    /* \"#utility.yul\":77:82   */\n  dup3\n    /* \"#utility.yul\":73:127   */\n  and\n    /* \"#utility.yul\":62:127   */\n  swap1\n  pop\n    /* \"#utility.yul\":7:133   */\n  swap2\n  swap1\n  pop\n  jump\t// out\n    /* \"#utility.yul\":139:235   */\ntag_16:\n    /* \"#utility.yul\":176:183   */\n  0x00\n    /* \"#utility.yul\":205:229   */\n  tag_21\n    /* \"#utility.yul\":223:228   */\n  dup3\n    /* \"#utility.yul\":205:229   */\n  tag_15\n  jump\t// in\ntag_21:\n    /* \"#utility.yul\":194:229   */\n  swap1\n  pop\n    /* \"#utility.yul\":139:235   */\n  swap2\n  swap1\n  pop\n  jump\t// out\n    /* \"#utility.yul\":241:359   */\ntag_17:\n    /* \"#utility.yul\":328:352   */\n  tag_23\n    /* \"#utility.yul\":346:351   */\n  dup2\n    /* \"#utility.yul\":328:352   */\n  tag_16\n  jump\t// in\ntag_23:\n    /* \"#utility.yul\":323:326   */\n  dup3\n    /* \"#utility.yul\":316:353   */\n  mstore\n    /* \"#utility.yul\":241:359   */\n  pop\n  pop\n  jump\t// out\n    /* \"#utility.yul\":365:587   */\ntag_8:\n    /* \"#utility.yul\":458:462   */\n  0x00\n    /* \"#utility.yul\":496:498   */\n  0x20\n    /* \"#utility.yul\":485:494   */\n  dup3\n    /* \"#utility.yul\":481:499   */\n  add\n    /* \"#utility.yul\":473:499   */\n  swap1\n  pop\n    /* \"#utility.yul\":509:580   */\n  tag_25\n    /* \"#utility.yul\":577:578   */\n  0x00\n    /* \"#utility.yul\":566:575   */\n  dup4\n    /* \"#utility.yul\":562:579   */\n  add\n    /* \"#utility.yul\":553:559   */\n  dup5\n    /* \"#utility.yul\":509:580   */\n  tag_17\n  jump\t// in\ntag_25:\n    /* \"#utility.yul\":365:587   */\n  swap3\n  swap2\n  pop\n  pop\n  jump\t// out\n    /* \"contract/SpotExchange_flattened.sol\":10522:13102  contract AssetVault is Ownable, ReentrancyGuard {... */\ntag_13:\n  dataSize(sub_0)\n  dup1\n  dataOffset(sub_0)\n  0x00\n  codecopy\n  0x00\n  return\nstop\n\nsub_0: assembly {\n        /* \"contract/SpotExchange_flattened.sol\":10522:13102  contract AssetVault is Ownable, ReentrancyGuard {... */\n      mstore(0x40, 0x80)\n      callvalue\n      dup1\n      iszero\n      tag_1\n      jumpi\n      revert(0x00, 0x00)\n    tag_1:\n      pop\n      jumpi(tag_2, lt(calldatasize, 0x04))\n      shr(0xe0, calldataload(0x00))\n      dup1\n      0xc23f001f\n      gt\n      tag_12\n      jumpi\n      dup1\n      0xc23f001f\n      eq\n      tag_7\n      jumpi\n      dup1\n      0xd5b9221b\n      eq\n      tag_8\n      jumpi\n      dup1\n      0xf2fa7392\n      eq\n      tag_9\n      jumpi\n      dup1\n      0xf2fde38b\n      eq\n      tag_10\n      jumpi\n      dup1\n      0xf3fef3a3\n      eq\n      tag_11\n      jumpi\n      jump(tag_2)\n    tag_12:\n      dup1\n      0x44a29e2a\n      eq\n      tag_3\n      jumpi\n      dup1\n      0x47e7ef24\n      eq\n      tag_4\n      jumpi\n      dup1\n      0x715018a6\n      eq\n      tag_5\n      jumpi\n      dup1\n      0x8da5cb5b\n      eq\n      tag_6\n      jumpi\n    tag_2:\n      revert(0x00, 0x00)\n        /* \"contract/SpotExchange_flattened.sol\":12500:12847  function internalTransfer(address _token, address _from, address _to, uint256 _amount) external onlyAuthorized {... */\n    tag_3:\n      tag_13\n      0x04\n      dup1\n      calldatasize\n      sub\n      dup2\n      add\n      swap1\n      tag_14\n      swap2\n      swap1\n      tag_15\n      jump\t// in\n    tag_14:\n      tag_16\n      jump\t// in\n    tag_13:\n      stop\n        /* \"contract/SpotExchange_flattened.sol\":11420:11737  function deposit(address _token, uint256 _amount) external nonReentrant {... */\n    tag_4:\n      tag_17\n      0x04\n      dup1\n      calldatasize\n      sub\n      dup2\n      add\n      swap1\n      tag_18\n      swap2\n      swap1\n      tag_19\n      jump\t// in\n    tag_18:\n      tag_20\n      jump\t// in\n    tag_17:\n      stop\n        /* \"contract/SpotExchange_flattened.sol\":6063:6164  function renounceOwnership() public virtual onlyOwner {... */\n    tag_5:\n      tag_21\n      tag_22\n      jump\t// in\n    tag_21:\n      stop\n        /* \"contract/SpotExchange_flattened.sol\":5408:5493  function owner() public view virtual returns (address) {... */\n    tag_6:\n      tag_23\n      tag_24\n      jump\t// in\n    tag_23:\n      mload(0x40)\n      tag_25\n      swap2\n      swap1\n      tag_26\n      jump\t// in\n    tag_25:\n      mload(0x40)\n      dup1\n      swap2\n      sub\n      swap1\n      return\n        /* \"contract/SpotExchange_flattened.sol\":10642:10705  mapping(address => mapping(address => uint256)) public balances */\n    tag_7:\n      tag_27\n      0x04\n      dup1\n      calldatasize\n      sub\n      dup2\n      add\n      swap1\n      tag_28\n      swap2\n      swap1\n      tag_29\n      jump\t// in\n    tag_28:\n      tag_30\n      jump\t// in\n    tag_27:\n      mload(0x40)\n      tag_31\n      swap2\n      swap1\n      tag_32\n      jump\t// in\n    tag_31:\n      mload(0x40)\n      dup1\n      swap2\n      sub\n      swap1\n      return\n        /* \"contract/SpotExchange_flattened.sol\":10780:10831  mapping(address => bool) public authorizedContracts */\n    tag_8:\n      tag_33\n      0x04\n      dup1\n      calldatasize\n      sub\n      dup2\n      add\n      swap1\n      tag_34\n      swap2\n      swap1\n      tag_35\n      jump\t// in\n    tag_34:\n      tag_36\n      jump\t// in\n    tag_33:\n      mload(0x40)\n      tag_37\n      swap2\n      swap1\n      tag_38\n      jump\t// in\n    tag_37:\n      mload(0x40)\n      dup1\n      swap2\n      sub\n      swap1\n      return\n        /* \"contract/SpotExchange_flattened.sol\":12884:13100  function setAuthorizedContract(address _contract, bool _isAuthorized) public onlyOwner {... */\n    tag_9:\n      tag_39\n      0x04\n      dup1\n      calldatasize\n      sub\n      dup2\n      add\n      swap1\n      tag_40\n      swap2\n      swap1\n      tag_41\n      jump\t// in\n    tag_40:\n      tag_42\n      jump\t// in\n    tag_39:\n      stop\n        /* \"contract/SpotExchange_flattened.sol\":6313:6528  function transferOwnership(address newOwner) public virtual onlyOwner {... */\n    tag_10:\n      tag_43\n      0x04\n      dup1\n      calldatasize\n      sub\n      dup2\n      add\n      swap1\n      tag_44\n      swap2\n      swap1\n      tag_35\n      jump\t// in\n    tag_44:\n      tag_45\n      jump\t// in\n    tag_43:\n      stop\n        /* \"contract/SpotExchange_flattened.sol\":11827:12265  function withdraw(address _token, uint256 _amount) external nonReentrant {... */\n    tag_11:\n      tag_46\n      0x04\n      dup1\n      calldatasize\n      sub\n      dup2\n      add\n      swap1\n      tag_47\n      swap2\n      swap1\n      tag_19\n      jump\t// in\n    tag_47:\n      tag_48\n      jump\t// in\n    tag_46:\n      stop\n        /* \"contract/SpotExchange_flattened.sol\":12500:12847  function internalTransfer(address _token, address _from, address _to, uint256 _amount) external onlyAuthorized {... */\n    tag_16:\n        /* \"contract/SpotExchange_flattened.sol\":11178:11197  authorizedContracts */\n      0x03\n        /* \"contract/SpotExchange_flattened.sol\":11178:11209  authorizedContracts[msg.sender] */\n      0x00\n        /* \"contract/SpotExchange_flattened.sol\":11198:11208  msg.sender */\n      caller\n        /* \"contract/SpotExchange_flattened.sol\":11178:11209  authorizedContracts[msg.sender] */\n      0xffffffffffffffffffffffffffffffffffffffff\n      and\n      0xffffffffffffffffffffffffffffffffffffffff\n      and\n      dup2\n      mstore\n      0x20\n      add\n      swap1\n      dup2\n      mstore\n      0x20\n      add\n      0x00\n      keccak256\n      0x00\n      swap1\n      sload\n      swap1\n      0x0100\n      exp\n      swap1\n      div\n      0xff\n      and\n        /* \"contract/SpotExchange_flattened.sol\":11170:11240  require(authorizedContracts[msg.sender], \"Not an authorized contract\") */\n      tag_50\n      jumpi\n      mload(0x40)\n      0x08c379a000000000000000000000000000000000000000000000000000000000\n      dup2\n      mstore\n      0x04\n      add\n      tag_51\n      swap1\n      tag_52\n      jump\t// in\n    tag_51:\n      mload(0x40)\n      dup1\n      swap2\n      sub\n      swap1\n      revert\n    tag_50:\n        /* \"contract/SpotExchange_flattened.sol\":12621:12640  uint256 fromBalance */\n      0x00\n        /* \"contract/SpotExchange_flattened.sol\":12643:12651  balances */\n      0x02\n        /* \"contract/SpotExchange_flattened.sol\":12643:12659  balances[_token] */\n      0x00\n        /* \"contract/SpotExchange_flattened.sol\":12652:12658  _token */\n      dup7\n        /* \"contract/SpotExchange_flattened.sol\":12643:12659  balances[_token] */\n      0xffffffffffffffffffffffffffffffffffffffff\n      and\n      0xffffffffffffffffffffffffffffffffffffffff\n      and\n      dup2\n      mstore\n      0x20\n      add\n      swap1\n      dup2\n      mstore\n      0x20\n      add\n      0x00\n      keccak256\n        /* \"contract/SpotExchange_flattened.sol\":12643:12666  balances[_token][_from] */\n      0x00\n        /* \"contract/SpotExchange_flattened.sol\":12660:12665  _from */\n      dup6\n        /* \"contract/SpotExchange_flattened.sol\":12643:12666  balances[_token][_from] */\n      0xffffffffffffffffffffffffffffffffffffffff\n      and\n      0xffffffffffffffffffffffffffffffffffffffff\n      and\n      dup2\n      mstore\n      0x20\n      add\n      swap1\n      dup2\n      mstore\n      0x20\n      add\n      0x00\n      keccak256\n      sload\n        /* \"contract/SpotExchange_flattened.sol\":12621:12666  uint256 fromBalance = balances[_token][_from] */\n      swap1\n      pop\n        /* \"contract/SpotExchange_flattened.sol\":12699:12706  _amount */\n      dup2\n        /* \"contract/SpotExchange_flattened.sol\":12684:12695  fromBalance */\n      dup2\n        /* \"contract/SpotExchange_flattened.sol\":12684:12706  fromBalance >= _amount */\n      lt\n      iszero\n        /* \"contract/SpotExchange_flattened.sol\":12676:12740  require(fromBalance >= _amount, \"Insufficient internal balance\") */\n      tag_54\n      jumpi\n      mload(0x40)\n      0x08c379a000000000000000000000000000000000000000000000000000000000\n      dup2\n      mstore\n      0x04\n      add\n      tag_55\n      swap1\n      tag_56\n      jump\t// in\n    tag_55:\n      mload(0x40)\n      dup1\n      swap2\n      sub\n      swap1\n      revert\n    tag_54:\n        /* \"contract/SpotExchange_flattened.sol\":12791:12798  _amount */\n      dup2\n        /* \"contract/SpotExchange_flattened.sol\":12777:12788  fromBalance */\n      dup2\n        /* \"contract/SpotExchange_flattened.sol\":12777:12798  fromBalance - _amount */\n      tag_57\n      swap2\n      swap1\n      tag_58\n      jump\t// in\n    tag_57:\n        /* \"contract/SpotExchange_flattened.sol\":12751:12759  balances */\n      0x02\n        /* \"contract/SpotExchange_flattened.sol\":12751:12767  balances[_token] */\n      0x00\n        /* \"contract/SpotExchange_flattened.sol\":12760:12766  _token */\n      dup8\n        /* \"contract/SpotExchange_flattened.sol\":12751:12767  balances[_token] */\n      0xffffffffffffffffffffffffffffffffffffffff\n      and\n      0xffffffffffffffffffffffffffffffffffffffff\n      and\n      dup2\n      mstore\n      0x20\n      add\n      swap1\n      dup2\n      mstore\n      0x20\n      add\n      0x00\n      keccak256\n        /* \"contract/SpotExchange_flattened.sol\":12751:12774  balances[_token][_from] */\n      0x00\n        /* \"contract/SpotExchange_flattened.sol\":12768:12773  _from */\n      dup7\n        /* \"contract/SpotExchange_flattened.sol\":12751:12774  balances[_token][_from] */\n      0xffffffffffffffffffffffffffffffffffffffff\n      and\n      0xffffffffffffffffffffffffffffffffffffffff\n      and\n      dup2\n      mstore\n      0x20\n      add\n      swap1\n      dup2\n      mstore\n      0x20\n      add\n      0x00\n      keccak256\n        /* \"contract/SpotExchange_flattened.sol\":12751:12798  balances[_token][_from] = fromBalance - _amount */\n      dup2\n      swap1\n      sstore\n      pop\n        /* \"contract/SpotExchange_flattened.sol\":12833:12840  _amount */\n      dup2\n        /* \"contract/SpotExchange_flattened.sol\":12808:12816  balances */\n      0x02\n        /* \"contract/SpotExchange_flattened.sol\":12808:12824  balances[_token] */\n      0x00\n        /* \"contract/SpotExchange_flattened.sol\":12817:12823  _token */\n      dup8\n        /* \"contract/SpotExchange_flattened.sol\":12808:12824  balances[_token] */\n      0xffffffffffffffffffffffffffffffffffffffff\n      and\n      0xffffffffffffffffffffffffffffffffffffffff\n      and\n      dup2\n      mstore\n      0x20\n      add\n      swap1\n      dup2\n      mstore\n      0x20\n      add\n      0x00\n      keccak256\n        /* \"contract/SpotExchange_flattened.sol\":12808:12829  balances[_token][_to] */\n      0x00\n        /* \"contract/SpotExchange_flattened.sol\":12825:12828  _to */\n      dup6\n        /* \"contract/SpotExchange_flattened.sol\":12808:12829  balances[_token][_to] */\n      0xffffffffffffffffffffffffffffffffffffffff\n      and\n      0xffffffffffffffffffffffffffffffffffffffff\n      and\n      dup2\n      mstore\n      0x20\n      add\n      swap1\n      dup2\n      mstore\n      0x20\n      add\n      0x00\n      keccak256\n      0x00\n        /* \"contract/SpotExchange_flattened.sol\":12808:12840  balances[_token][_to] += _amount */\n      dup3\n      dup3\n      sload\n      tag_59\n      swap2\n      swap1\n      tag_60\n      jump\t// in\n    tag_59:\n      swap3\n      pop\n      pop\n      dup2\n      swap1\n      sstore\n      pop\n        /* \"contract/SpotExchange_flattened.sol\":12611:12847  {... */\n      pop\n        /* \"contract/SpotExchange_flattened.sol\":12500:12847  function internalTransfer(address _token, address _from, address _to, uint256 _amount) external onlyAuthorized {... */\n      pop\n      pop\n      pop\n      pop\n      jump\t// out\n        /* \"contract/SpotExchange_flattened.sol\":11420:11737  function deposit(address _token, uint256 _amount) external nonReentrant {... */\n    tag_20:\n        /* \"contract/SpotExchange_flattened.sol\":9402:9423  _nonReentrantBefore() */\n      tag_62\n        /* \"contract/SpotExchange_flattened.sol\":9402:9421  _nonReentrantBefore */\n      tag_63\n        /* \"contract/SpotExchange_flattened.sol\":9402:9423  _nonReentrantBefore() */\n      jump\t// in\n    tag_62:\n        /* \"contract/SpotExchange_flattened.sol\":11520:11521  0 */\n      0x00\n        /* \"contract/SpotExchange_flattened.sol\":11510:11517  _amount */\n      dup2\n        /* \"contract/SpotExchange_flattened.sol\":11510:11521  _amount > 0 */\n      gt\n        /* \"contract/SpotExchange_flattened.sol\":11502:11555  require(_amount > 0, \"Amount must be greater than 0\") */\n      tag_65\n      jumpi\n      mload(0x40)\n      0x08c379a000000000000000000000000000000000000000000000000000000000\n      dup2\n      mstore\n      0x04\n      add\n      tag_66\n      swap1\n      tag_67\n      jump\t// in\n    tag_66:\n      mload(0x40)\n      dup1\n      swap2\n      sub\n      swap1\n      revert\n    tag_65:\n        /* \"contract/SpotExchange_flattened.sol\":11597:11604  _amount */\n      dup1\n        /* \"contract/SpotExchange_flattened.sol\":11565:11573  balances */\n      0x02\n        /* \"contract/SpotExchange_flattened.sol\":11565:11581  balances[_token] */\n      0x00\n        /* \"contract/SpotExchange_flattened.sol\":11574:11580  _token */\n      dup5\n        /* \"contract/SpotExchange_flattened.sol\":11565:11581  balances[_token] */\n      0xffffffffffffffffffffffffffffffffffffffff\n      and\n      0xffffffffffffffffffffffffffffffffffffffff\n      and\n      dup2\n      mstore\n      0x20\n      add\n      swap1\n      dup2\n      mstore\n      0x20\n      add\n      0x00\n      keccak256\n        /* \"contract/SpotExchange_flattened.sol\":11565:11593  balances[_token][msg.sender] */\n      0x00\n        /* \"contract/SpotExchange_flattened.sol\":11582:11592  msg.sender */\n      caller\n        /* \"contract/SpotExchange_flattened.sol\":11565:11593  balances[_token][msg.sender] */\n      0xffffffffffffffffffffffffffffffffffffffff\n      and\n      0xffffffffffffffffffffffffffffffffffffffff\n      and\n      dup2\n      mstore\n      0x20\n      add\n      swap1\n      dup2\n      mstore\n      0x20\n      add\n      0x00\n      keccak256\n      0x00\n        /* \"contract/SpotExchange_flattened.sol\":11565:11604  balances[_token][msg.sender] += _amount */\n      dup3\n      dup3\n      sload\n      tag_68\n      swap2\n      swap1\n      tag_60\n      jump\t// in\n    tag_68:\n      swap3\n      pop\n      pop\n      dup2\n      swap1\n      sstore\n      pop\n        /* \"contract/SpotExchange_flattened.sol\":11621:11627  _token */\n      dup2\n        /* \"contract/SpotExchange_flattened.sol\":11614:11641  IERC20(_token).transferFrom */\n      0xffffffffffffffffffffffffffffffffffffffff\n      and\n      0x23b872dd\n        /* \"contract/SpotExchange_flattened.sol\":11642:11652  msg.sender */\n      caller\n        /* \"contract/SpotExchange_flattened.sol\":11662:11666  this */\n      address\n        /* \"contract/SpotExchange_flattened.sol\":11669:11676  _amount */\n      dup5\n        /* \"contract/SpotExchange_flattened.sol\":11614:11677  IERC20(_token).transferFrom(msg.sender, address(this), _amount) */\n      mload(0x40)\n      dup5\n      0xffffffff\n      and\n      0xe0\n      shl\n      dup2\n      mstore\n      0x04\n      add\n      tag_69\n      swap4\n      swap3\n      swap2\n      swap1\n      tag_70\n      jump\t// in\n    tag_69:\n      0x20\n      mload(0x40)\n      dup1\n      dup4\n      sub\n      dup2\n      0x00\n      dup8\n      gas\n      call\n      iszero\n      dup1\n      iszero\n      tag_72\n      jumpi\n      returndatacopy(0x00, 0x00, returndatasize)\n      revert(0x00, returndatasize)\n    tag_72:\n      pop\n      pop\n      pop\n      pop\n      mload(0x40)\n      returndatasize\n      not(0x1f)\n      0x1f\n      dup3\n      add\n      and\n      dup3\n      add\n      dup1\n      0x40\n      mstore\n      pop\n      dup2\n      add\n      swap1\n      tag_73\n      swap2\n      swap1\n      tag_74\n      jump\t// in\n    tag_73:\n      pop\n        /* \"contract/SpotExchange_flattened.sol\":11714:11720  _token */\n      dup2\n        /* \"contract/SpotExchange_flattened.sol\":11692:11730  Deposited(msg.sender, _token, _amount) */\n      0xffffffffffffffffffffffffffffffffffffffff\n      and\n        /* \"contract/SpotExchange_flattened.sol\":11702:11712  msg.sender */\n      caller\n        /* \"contract/SpotExchange_flattened.sol\":11692:11730  Deposited(msg.sender, _token, _amount) */\n      0xffffffffffffffffffffffffffffffffffffffff\n      and\n      0x8752a472e571a816aea92eec8dae9baf628e840f4929fbcc2d155e6233ff68a7\n        /* \"contract/SpotExchange_flattened.sol\":11722:11729  _amount */\n      dup4\n        /* \"contract/SpotExchange_flattened.sol\":11692:11730  Deposited(msg.sender, _token, _amount) */\n      mload(0x40)\n      tag_75\n      swap2\n      swap1\n      tag_32\n      jump\t// in\n    tag_75:\n      mload(0x40)\n      dup1\n      swap2\n      sub\n      swap1\n      log3\n        /* \"contract/SpotExchange_flattened.sol\":9444:9464  _nonReentrantAfter() */\n      tag_76\n        /* \"contract/SpotExchange_flattened.sol\":9444:9462  _nonReentrantAfter */\n      tag_77\n        /* \"contract/SpotExchange_flattened.sol\":9444:9464  _nonReentrantAfter() */\n      jump\t// in\n    tag_76:\n        /* \"contract/SpotExchange_flattened.sol\":11420:11737  function deposit(address _token, uint256 _amount) external nonReentrant {... */\n      pop\n      pop\n      jump\t// out\n        /* \"contract/SpotExchange_flattened.sol\":6063:6164  function renounceOwnership() public virtual onlyOwner {... */\n    tag_22:\n        /* \"contract/SpotExchange_flattened.sol\":5301:5314  _checkOwner() */\n      tag_79\n        /* \"contract/SpotExchange_flattened.sol\":5301:5312  _checkOwner */\n      tag_80\n        /* \"contract/SpotExchange_flattened.sol\":5301:5314  _checkOwner() */\n      jump\t// in\n    tag_79:\n        /* \"contract/SpotExchange_flattened.sol\":6127:6157  _transferOwnership(address(0)) */\n      tag_82\n        /* \"contract/SpotExchange_flattened.sol\":6154:6155  0 */\n      0x00\n        /* \"contract/SpotExchange_flattened.sol\":6127:6145  _transferOwnership */\n      tag_83\n        /* \"contract/SpotExchange_flattened.sol\":6127:6157  _transferOwnership(address(0)) */\n      jump\t// in\n    tag_82:\n        /* \"contract/SpotExchange_flattened.sol\":6063:6164  function renounceOwnership() public virtual onlyOwner {... */\n      jump\t// out\n        /* \"contract/SpotExchange_flattened.sol\":5408:5493  function owner() public view virtual returns (address) {... */\n    tag_24:\n        /* \"contract/SpotExchange_flattened.sol\":5454:5461  address */\n      0x00\n        /* \"contract/SpotExchange_flattened.sol\":5480:5486  _owner */\n      0x00\n      0x00\n      swap1\n      sload\n      swap1\n      0x0100\n      exp\n      swap1\n      div\n      0xffffffffffffffffffffffffffffffffffffffff\n      and\n        /* \"contract/SpotExchange_flattened.sol\":5473:5486  return _owner */\n      swap1\n      pop\n        /* \"contract/SpotExchange_flattened.sol\":5408:5493  function owner() public view virtual returns (address) {... */\n      swap1\n      jump\t// out\n        /* \"contract/SpotExchange_flattened.sol\":10642:10705  mapping(address => mapping(address => uint256)) public balances */\n    tag_30:\n      mstore(0x20, 0x02)\n      dup2\n      0x00\n      mstore\n      mstore(0x20, keccak256(0x00, 0x40))\n      dup1\n      0x00\n      mstore\n      keccak256(0x00, 0x40)\n      0x00\n      swap2\n      pop\n      swap2\n      pop\n      pop\n      sload\n      dup2\n      jump\t// out\n        /* \"contract/SpotExchange_flattened.sol\":10780:10831  mapping(address => bool) public authorizedContracts */\n    tag_36:\n      mstore(0x20, 0x03)\n      dup1\n      0x00\n      mstore\n      keccak256(0x00, 0x40)\n      0x00\n      swap2\n      pop\n      sload\n      swap1\n      0x0100\n      exp\n      swap1\n      div\n      0xff\n      and\n      dup2\n      jump\t// out\n        /* \"contract/SpotExchange_flattened.sol\":12884:13100  function setAuthorizedContract(address _contract, bool _isAuthorized) public onlyOwner {... */\n    tag_42:\n        /* \"contract/SpotExchange_flattened.sol\":5301:5314  _checkOwner() */\n      tag_86\n        /* \"contract/SpotExchange_flattened.sol\":5301:5312  _checkOwner */\n      tag_80\n        /* \"contract/SpotExchange_flattened.sol\":5301:5314  _checkOwner() */\n      jump\t// in\n    tag_86:\n        /* \"contract/SpotExchange_flattened.sol\":13014:13027  _isAuthorized */\n      dup1\n        /* \"contract/SpotExchange_flattened.sol\":12981:13000  authorizedContracts */\n      0x03\n        /* \"contract/SpotExchange_flattened.sol\":12981:13011  authorizedContracts[_contract] */\n      0x00\n        /* \"contract/SpotExchange_flattened.sol\":13001:13010  _contract */\n      dup5\n        /* \"contract/SpotExchange_flattened.sol\":12981:13011  authorizedContracts[_contract] */\n      0xffffffffffffffffffffffffffffffffffffffff\n      and\n      0xffffffffffffffffffffffffffffffffffffffff\n      and\n      dup2\n      mstore\n      0x20\n      add\n      swap1\n      dup2\n      mstore\n      0x20\n      add\n      0x00\n      keccak256\n      0x00\n        /* \"contract/SpotExchange_flattened.sol\":12981:13027  authorizedContracts[_contract] = _isAuthorized */\n      0x0100\n      exp\n      dup2\n      sload\n      dup2\n      0xff\n      mul\n      not\n      and\n      swap1\n      dup4\n      iszero\n      iszero\n      mul\n      or\n      swap1\n      sstore\n      pop\n        /* \"contract/SpotExchange_flattened.sol\":13068:13077  _contract */\n      dup2\n        /* \"contract/SpotExchange_flattened.sol\":13042:13093  AuthorizedContractChanged(_contract, _isAuthorized) */\n      0xffffffffffffffffffffffffffffffffffffffff\n      and\n      0x7109ebc5424980770410d6b76de5165aed9a328bca745f09e7f7e18deffa682c\n        /* \"contract/SpotExchange_flattened.sol\":13079:13092  _isAuthorized */\n      dup3\n        /* \"contract/SpotExchange_flattened.sol\":13042:13093  AuthorizedContractChanged(_contract, _isAuthorized) */\n      mload(0x40)\n      tag_88\n      swap2\n      swap1\n      tag_38\n      jump\t// in\n    tag_88:\n      mload(0x40)\n      dup1\n      swap2\n      sub\n      swap1\n      log2\n        /* \"contract/SpotExchange_flattened.sol\":12884:13100  function setAuthorizedContract(address _contract, bool _isAuthorized) public onlyOwner {... */\n      pop\n      pop\n      jump\t// out\n        /* \"contract/SpotExchange_flattened.sol\":6313:6528  function transferOwnership(address newOwner) public virtual onlyOwner {... */\n    tag_45:\n        /* \"contract/SpotExchange_flattened.sol\":5301:5314  _checkOwner() */\n      tag_90\n        /* \"contract/SpotExchange_flattened.sol\":5301:5312  _checkOwner */\n      tag_80\n        /* \"contract/SpotExchange_flattened.sol\":5301:5314  _checkOwner() */\n      jump\t// in\n    tag_90:\n        /* \"contract/SpotExchange_flattened.sol\":6417:6418  0 */\n      0x00\n        /* \"contract/SpotExchange_flattened.sol\":6397:6419  newOwner == address(0) */\n      0xffffffffffffffffffffffffffffffffffffffff\n      and\n        /* \"contract/SpotExchange_flattened.sol\":6397:6405  newOwner */\n      dup2\n        /* \"contract/SpotExchange_flattened.sol\":6397:6419  newOwner == address(0) */\n      0xffffffffffffffffffffffffffffffffffffffff\n      and\n      sub\n        /* \"contract/SpotExchange_flattened.sol\":6393:6484  if (newOwner == address(0)) {... */\n      tag_92\n      jumpi\n        /* \"contract/SpotExchange_flattened.sol\":6470:6471  0 */\n      0x00\n        /* \"contract/SpotExchange_flattened.sol\":6442:6473  OwnableInvalidOwner(address(0)) */\n      mload(0x40)\n      0x1e4fbdf700000000000000000000000000000000000000000000000000000000\n      dup2\n      mstore\n      0x04\n      add\n      tag_93\n      swap2\n      swap1\n      tag_26\n      jump\t// in\n    tag_93:\n      mload(0x40)\n      dup1\n      swap2\n      sub\n      swap1\n      revert\n        /* \"contract/SpotExchange_flattened.sol\":6393:6484  if (newOwner == address(0)) {... */\n    tag_92:\n        /* \"contract/SpotExchange_flattened.sol\":6493:6521  _transferOwnership(newOwner) */\n      tag_94\n        /* \"contract/SpotExchange_flattened.sol\":6512:6520  newOwner */\n      dup2\n        /* \"contract/SpotExchange_flattened.sol\":6493:6511  _transferOwnership */\n      tag_83\n        /* \"contract/SpotExchange_flattened.sol\":6493:6521  _transferOwnership(newOwner) */\n      jump\t// in\n    tag_94:\n        /* \"contract/SpotExchange_flattened.sol\":6313:6528  function transferOwnership(address newOwner) public virtual onlyOwner {... */\n      pop\n      jump\t// out\n        /* \"contract/SpotExchange_flattened.sol\":11827:12265  function withdraw(address _token, uint256 _amount) external nonReentrant {... */\n    tag_48:\n        /* \"contract/SpotExchange_flattened.sol\":9402:9423  _nonReentrantBefore() */\n      tag_96\n        /* \"contract/SpotExchange_flattened.sol\":9402:9421  _nonReentrantBefore */\n      tag_63\n        /* \"contract/SpotExchange_flattened.sol\":9402:9423  _nonReentrantBefore() */\n      jump\t// in\n    tag_96:\n        /* \"contract/SpotExchange_flattened.sol\":11928:11929  0 */\n      0x00\n        /* \"contract/SpotExchange_flattened.sol\":11918:11925  _amount */\n      dup2\n        /* \"contract/SpotExchange_flattened.sol\":11918:11929  _amount > 0 */\n      gt\n        /* \"contract/SpotExchange_flattened.sol\":11910:11963  require(_amount > 0, \"Amount must be greater than 0\") */\n      tag_98\n      jumpi\n      mload(0x40)\n      0x08c379a000000000000000000000000000000000000000000000000000000000\n      dup2\n      mstore\n      0x04\n      add\n      tag_99\n      swap1\n      tag_67\n      jump\t// in\n    tag_99:\n      mload(0x40)\n      dup1\n      swap2\n      sub\n      swap1\n      revert\n    tag_98:\n        /* \"contract/SpotExchange_flattened.sol\":11973:11992  uint256 userBalance */\n      0x00\n        /* \"contract/SpotExchange_flattened.sol\":11995:12003  balances */\n      0x02\n        /* \"contract/SpotExchange_flattened.sol\":11995:12011  balances[_token] */\n      0x00\n        /* \"contract/SpotExchange_flattened.sol\":12004:12010  _token */\n      dup5\n        /* \"contract/SpotExchange_flattened.sol\":11995:12011  balances[_token] */\n      0xffffffffffffffffffffffffffffffffffffffff\n      and\n      0xffffffffffffffffffffffffffffffffffffffff\n      and\n      dup2\n      mstore\n      0x20\n      add\n      swap1\n      dup2\n      mstore\n      0x20\n      add\n      0x00\n      keccak256\n        /* \"contract/SpotExchange_flattened.sol\":11995:12023  balances[_token][msg.sender] */\n      0x00\n        /* \"contract/SpotExchange_flattened.sol\":12012:12022  msg.sender */\n      caller\n        /* \"contract/SpotExchange_flattened.sol\":11995:12023  balances[_token][msg.sender] */\n      0xffffffffffffffffffffffffffffffffffffffff\n      and\n      0xffffffffffffffffffffffffffffffffffffffff\n      and\n      dup2\n      mstore\n      0x20\n      add\n      swap1\n      dup2\n      mstore\n      0x20\n      add\n      0x00\n      keccak256\n      sload\n        /* \"contract/SpotExchange_flattened.sol\":11973:12023  uint256 userBalance = balances[_token][msg.sender] */\n      swap1\n      pop\n        /* \"contract/SpotExchange_flattened.sol\":12056:12063  _amount */\n      dup2\n        /* \"contract/SpotExchange_flattened.sol\":12041:12052  userBalance */\n      dup2\n        /* \"contract/SpotExchange_flattened.sol\":12041:12063  userBalance >= _amount */\n      lt\n      iszero\n        /* \"contract/SpotExchange_flattened.sol\":12033:12088  require(userBalance >= _amount, \"Insufficient balance\") */\n      tag_100\n      jumpi\n      mload(0x40)\n      0x08c379a000000000000000000000000000000000000000000000000000000000\n      dup2\n      mstore\n      0x04\n      add\n      tag_101\n      swap1\n      tag_102\n      jump\t// in\n    tag_101:\n      mload(0x40)\n      dup1\n      swap2\n      sub\n      swap1\n      revert\n    tag_100:\n        /* \"contract/SpotExchange_flattened.sol\":12144:12151  _amount */\n      dup2\n        /* \"contract/SpotExchange_flattened.sol\":12130:12141  userBalance */\n      dup2\n        /* \"contract/SpotExchange_flattened.sol\":12130:12151  userBalance - _amount */\n      tag_103\n      swap2\n      swap1\n      tag_58\n      jump\t// in\n    tag_103:\n        /* \"contract/SpotExchange_flattened.sol\":12099:12107  balances */\n      0x02\n        /* \"contract/SpotExchange_flattened.sol\":12099:12115  balances[_token] */\n      0x00\n        /* \"contract/SpotExchange_flattened.sol\":12108:12114  _token */\n      dup6\n        /* \"contract/SpotExchange_flattened.sol\":12099:12115  balances[_token] */\n      0xffffffffffffffffffffffffffffffffffffffff\n      and\n      0xffffffffffffffffffffffffffffffffffffffff\n      and\n      dup2\n      mstore\n      0x20\n      add\n      swap1\n      dup2\n      mstore\n      0x20\n      add\n      0x00\n      keccak256\n        /* \"contract/SpotExchange_flattened.sol\":12099:12127  balances[_token][msg.sender] */\n      0x00\n        /* \"contract/SpotExchange_flattened.sol\":12116:12126  msg.sender */\n      caller\n        /* \"contract/SpotExchange_flattened.sol\":12099:12127  balances[_token][msg.sender] */\n      0xffffffffffffffffffffffffffffffffffffffff\n      and\n      0xffffffffffffffffffffffffffffffffffffffff\n      and\n      dup2\n      mstore\n      0x20\n      add\n      swap1\n      dup2\n      mstore\n      0x20\n      add\n      0x00\n      keccak256\n        /* \"contract/SpotExchange_flattened.sol\":12099:12151  balances[_token][msg.sender] = userBalance - _amount */\n      dup2\n      swap1\n      sstore\n      pop\n        /* \"contract/SpotExchange_flattened.sol\":12168:12174  _token */\n      dup3\n        /* \"contract/SpotExchange_flattened.sol\":12161:12184  IERC20(_token).transfer */\n      0xffffffffffffffffffffffffffffffffffffffff\n      and\n      0xa9059cbb\n        /* \"contract/SpotExchange_flattened.sol\":12185:12195  msg.sender */\n      caller\n        /* \"contract/SpotExchange_flattened.sol\":12197:12204  _amount */\n      dup5\n        /* \"contract/SpotExchange_flattened.sol\":12161:12205  IERC20(_token).transfer(msg.sender, _amount) */\n      mload(0x40)\n      dup4\n      0xffffffff\n      and\n      0xe0\n      shl\n      dup2\n      mstore\n      0x04\n      add\n      tag_104\n      swap3\n      swap2\n      swap1\n      tag_105\n      jump\t// in\n    tag_104:\n      0x20\n      mload(0x40)\n      dup1\n      dup4\n      sub\n      dup2\n      0x00\n      dup8\n      gas\n      call\n      iszero\n      dup1\n      iszero\n      tag_107\n      jumpi\n      returndatacopy(0x00, 0x00, returndatasize)\n      revert(0x00, returndatasize)\n    tag_107:\n      pop\n      pop\n      pop\n      pop\n      mload(0x40)\n      returndatasize\n      not(0x1f)\n      0x1f\n      dup3\n      add\n      and\n      dup3\n      add\n      dup1\n      0x40\n      mstore\n      pop\n      dup2\n      add\n      swap1\n      tag_108\n      swap2\n      swap1\n      tag_74\n      jump\t// in\n    tag_108:\n      pop\n        /* \"contract/SpotExchange_flattened.sol\":12242:12248  _token */\n      dup3\n        /* \"contract/SpotExchange_flattened.sol\":12220:12258  Withdrawn(msg.sender, _token, _amount) */\n      0xffffffffffffffffffffffffffffffffffffffff\n      and\n        /* \"contract/SpotExchange_flattened.sol\":12230:12240  msg.sender */\n      caller\n        /* \"contract/SpotExchange_flattened.sol\":12220:12258  Withdrawn(msg.sender, _token, _amount) */\n      0xffffffffffffffffffffffffffffffffffffffff\n      and\n      0xd1c19fbcd4551a5edfb66d43d2e337c04837afda3482b42bdf569a8fccdae5fb\n        /* \"contract/SpotExchange_flattened.sol\":12250:12257  _amount */\n      dup5\n        /* \"contract/SpotExchange_flattened.sol\":12220:12258  Withdrawn(msg.sender, _token, _amount) */\n      mload(0x40)\n      tag_109\n      swap2\n      swap1\n      tag_32\n      jump\t// in\n    tag_109:\n      mload(0x40)\n      dup1\n      swap2\n      sub\n      swap1\n      log3\n        /* \"contract/SpotExchange_flattened.sol\":11900:12265  {... */\n      pop\n        /* \"contract/SpotExchange_flattened.sol\":9444:9464  _nonReentrantAfter() */\n      tag_110\n        /* \"contract/SpotExchange_flattened.sol\":9444:9462  _nonReentrantAfter */\n      tag_77\n        /* \"contract/SpotExchange_flattened.sol\":9444:9464  _nonReentrantAfter() */\n      jump\t// in\n    tag_110:\n        /* \"contract/SpotExchange_flattened.sol\":11827:12265  function withdraw(address _token, uint256 _amount) external nonReentrant {... */\n      pop\n      pop\n      jump\t// out\n        /* \"contract/SpotExchange_flattened.sol\":9477:9784  function _nonReentrantBefore() private {... */\n    tag_63:\n        /* \"contract/SpotExchange_flattened.sol\":8801:8802  2 */\n      0x02\n        /* \"contract/SpotExchange_flattened.sol\":9604:9611  _status */\n      sload(0x01)\n        /* \"contract/SpotExchange_flattened.sol\":9604:9622  _status == ENTERED */\n      sub\n        /* \"contract/SpotExchange_flattened.sol\":9600:9686  if (_status == ENTERED) {... */\n      tag_112\n      jumpi\n        /* \"contract/SpotExchange_flattened.sol\":9645:9675  ReentrancyGuardReentrantCall() */\n      mload(0x40)\n      0x3ee5aeb500000000000000000000000000000000000000000000000000000000\n      dup2\n      mstore\n      0x04\n      add\n      mload(0x40)\n      dup1\n      swap2\n      sub\n      swap1\n      revert\n        /* \"contract/SpotExchange_flattened.sol\":9600:9686  if (_status == ENTERED) {... */\n    tag_112:\n        /* \"contract/SpotExchange_flattened.sol\":8801:8802  2 */\n      0x02\n        /* \"contract/SpotExchange_flattened.sol\":9760:9767  _status */\n      0x01\n        /* \"contract/SpotExchange_flattened.sol\":9760:9777  _status = ENTERED */\n      dup2\n      swap1\n      sstore\n      pop\n        /* \"contract/SpotExchange_flattened.sol\":9477:9784  function _nonReentrantBefore() private {... */\n      jump\t// out\n        /* \"contract/SpotExchange_flattened.sol\":9790:9998  function _nonReentrantAfter() private {... */\n    tag_77:\n        /* \"contract/SpotExchange_flattened.sol\":8759:8760  1 */\n      0x01\n        /* \"contract/SpotExchange_flattened.sol\":9970:9977  _status */\n      dup1\n        /* \"contract/SpotExchange_flattened.sol\":9970:9991  _status = NOT_ENTERED */\n      dup2\n      swap1\n      sstore\n      pop\n        /* \"contract/SpotExchange_flattened.sol\":9790:9998  function _nonReentrantAfter() private {... */\n      jump\t// out\n        /* \"contract/SpotExchange_flattened.sol\":5566:5728  function _checkOwner() internal view virtual {... */\n    tag_80:\n        /* \"contract/SpotExchange_flattened.sol\":5636:5648  _msgSender() */\n      tag_115\n        /* \"contract/SpotExchange_flattened.sol\":5636:5646  _msgSender */\n      tag_116\n        /* \"contract/SpotExchange_flattened.sol\":5636:5648  _msgSender() */\n      jump\t// in\n    tag_115:\n        /* \"contract/SpotExchange_flattened.sol\":5625:5648  owner() != _msgSender() */\n      0xffffffffffffffffffffffffffffffffffffffff\n      and\n        /* \"contract/SpotExchange_flattened.sol\":5625:5632  owner() */\n      tag_117\n        /* \"contract/SpotExchange_flattened.sol\":5625:5630  owner */\n      tag_24\n        /* \"contract/SpotExchange_flattened.sol\":5625:5632  owner() */\n      jump\t// in\n    tag_117:\n        /* \"contract/SpotExchange_flattened.sol\":5625:5648  owner() != _msgSender() */\n      0xffffffffffffffffffffffffffffffffffffffff\n      and\n      eq\n        /* \"contract/SpotExchange_flattened.sol\":5621:5722  if (owner() != _msgSender()) {... */\n      tag_118\n      jumpi\n        /* \"contract/SpotExchange_flattened.sol\":5698:5710  _msgSender() */\n      tag_119\n        /* \"contract/SpotExchange_flattened.sol\":5698:5708  _msgSender */\n      tag_116\n        /* \"contract/SpotExchange_flattened.sol\":5698:5710  _msgSender() */\n      jump\t// in\n    tag_119:\n        /* \"contract/SpotExchange_flattened.sol\":5671:5711  OwnableUnauthorizedAccount(_msgSender()) */\n      mload(0x40)\n      0x118cdaa700000000000000000000000000000000000000000000000000000000\n      dup2\n      mstore\n      0x04\n      add\n      tag_120\n      swap2\n      swap1\n      tag_26\n      jump\t// in\n    tag_120:\n      mload(0x40)\n      dup1\n      swap2\n      sub\n      swap1\n      revert\n        /* \"contract/SpotExchange_flattened.sol\":5621:5722  if (owner() != _msgSender()) {... */\n    tag_118:\n        /* \"contract/SpotExchange_flattened.sol\":5566:5728  function _checkOwner() internal view virtual {... */\n      jump\t// out\n        /* \"contract/SpotExchange_flattened.sol\":6682:6869  function _transferOwnership(address newOwner) internal virtual {... */\n    tag_83:\n        /* \"contract/SpotExchange_flattened.sol\":6755:6771  address oldOwner */\n      0x00\n        /* \"contract/SpotExchange_flattened.sol\":6774:6780  _owner */\n      0x00\n      0x00\n      swap1\n      sload\n      swap1\n      0x0100\n      exp\n      swap1\n      div\n      0xffffffffffffffffffffffffffffffffffffffff\n      and\n        /* \"contract/SpotExchange_flattened.sol\":6755:6780  address oldOwner = _owner */\n      swap1\n      pop\n        /* \"contract/SpotExchange_flattened.sol\":6799:6807  newOwner */\n      dup2\n        /* \"contract/SpotExchange_flattened.sol\":6790:6796  _owner */\n      0x00\n      0x00\n        /* \"contract/SpotExchange_flattened.sol\":6790:6807  _owner = newOwner */\n      0x0100\n      exp\n      dup2\n      sload\n      dup2\n      0xffffffffffffffffffffffffffffffffffffffff\n      mul\n      not\n      and\n      swap1\n      dup4\n      0xffffffffffffffffffffffffffffffffffffffff\n      and\n      mul\n      or\n      swap1\n      sstore\n      pop\n        /* \"contract/SpotExchange_flattened.sol\":6853:6861  newOwner */\n      dup2\n        /* \"contract/SpotExchange_flattened.sol\":6822:6862  OwnershipTransferred(oldOwner, newOwner) */\n      0xffffffffffffffffffffffffffffffffffffffff\n      and\n        /* \"contract/SpotExchange_flattened.sol\":6843:6851  oldOwner */\n      dup2\n        /* \"contract/SpotExchange_flattened.sol\":6822:6862  OwnershipTransferred(oldOwner, newOwner) */\n      0xffffffffffffffffffffffffffffffffffffffff\n      and\n      0x8be0079c531659141344cd1fd0a4f28419497f9722a3daafe3b4186f6b6457e0\n      mload(0x40)\n      mload(0x40)\n      dup1\n      swap2\n      sub\n      swap1\n      log3\n        /* \"contract/SpotExchange_flattened.sol\":6745:6869  {... */\n      pop\n        /* \"contract/SpotExchange_flattened.sol\":6682:6869  function _transferOwnership(address newOwner) internal virtual {... */\n      pop\n      jump\t// out\n        /* \"contract/SpotExchange_flattened.sol\":3486:3582  function _msgSender() internal view virtual returns (address) {... */\n    tag_116:\n        /* \"contract/SpotExchange_flattened.sol\":3539:3546  address */\n      0x00\n        /* \"contract/SpotExchange_flattened.sol\":3565:3575  msg.sender */\n      caller\n        /* \"contract/SpotExchange_flattened.sol\":3558:3575  return msg.sender */\n      swap1\n      pop\n        /* \"contract/SpotExchange_flattened.sol\":3486:3582  function _msgSender() internal view virtual returns (address) {... */\n      swap1\n      jump\t// out\n        /* \"#utility.yul\":88:205   */\n    tag_124:\n        /* \"#utility.yul\":197:198   */\n      0x00\n        /* \"#utility.yul\":194:195   */\n      0x00\n        /* \"#utility.yul\":187:199   */\n      revert\n        /* \"#utility.yul\":334:460   */\n    tag_126:\n        /* \"#utility.yul\":371:378   */\n      0x00\n        /* \"#utility.yul\":411:453   */\n      0xffffffffffffffffffffffffffffffffffffffff\n        /* \"#utility.yul\":404:409   */\n      dup3\n        /* \"#utility.yul\":400:454   */\n      and\n        /* \"#utility.yul\":389:454   */\n      swap1\n      pop\n        /* \"#utility.yul\":334:460   */\n      swap2\n      swap1\n      pop\n      jump\t// out\n        /* \"#utility.yul\":466:562   */\n    tag_127:\n        /* \"#utility.yul\":503:510   */\n      0x00\n        /* \"#utility.yul\":532:556   */\n      tag_156\n        /* \"#utility.yul\":550:555   */\n      dup3\n        /* \"#utility.yul\":532:556   */\n      tag_126\n      jump\t// in\n    tag_156:\n        /* \"#utility.yul\":521:556   */\n      swap1\n      pop\n        /* \"#utility.yul\":466:562   */\n      swap2\n      swap1\n      pop\n      jump\t// out\n        /* \"#utility.yul\":568:690   */\n    tag_128:\n        /* \"#utility.yul\":641:665   */\n      tag_158\n        /* \"#utility.yul\":659:664   */\n      dup2\n        /* \"#utility.yul\":641:665   */\n      tag_127\n      jump\t// in\n    tag_158:\n        /* \"#utility.yul\":634:639   */\n      dup2\n        /* \"#utility.yul\":631:666   */\n      eq\n        /* \"#utility.yul\":621:684   */\n      tag_159\n      jumpi\n        /* \"#utility.yul\":680:681   */\n      0x00\n        /* \"#utility.yul\":677:678   */\n      0x00\n        /* \"#utility.yul\":670:682   */\n      revert\n        /* \"#utility.yul\":621:684   */\n    tag_159:\n        /* \"#utility.yul\":568:690   */\n      pop\n      jump\t// out\n        /* \"#utility.yul\":696:835   */\n    tag_129:\n        /* \"#utility.yul\":742:747   */\n      0x00\n        /* \"#utility.yul\":780:786   */\n      dup2\n        /* \"#utility.yul\":767:787   */\n      calldataload\n        /* \"#utility.yul\":758:787   */\n      swap1\n      pop\n        /* \"#utility.yul\":796:829   */\n      tag_161\n        /* \"#utility.yul\":823:828   */\n      dup2\n        /* \"#utility.yul\":796:829   */\n      tag_128\n      jump\t// in\n    tag_161:\n        /* \"#utility.yul\":696:835   */\n      swap3\n      swap2\n      pop\n      pop\n      jump\t// out\n        /* \"#utility.yul\":841:918   */\n    tag_130:\n        /* \"#utility.yul\":878:885   */\n      0x00\n        /* \"#utility.yul\":907:912   */\n      dup2\n        /* \"#utility.yul\":896:912   */\n      swap1\n      pop\n        /* \"#utility.yul\":841:918   */\n      swap2\n      swap1\n      pop\n      jump\t// out\n        /* \"#utility.yul\":924:1046   */\n    tag_131:\n        /* \"#utility.yul\":997:1021   */\n      tag_164\n        /* \"#utility.yul\":1015:1020   */\n      dup2\n        /* \"#utility.yul\":997:1021   */\n      tag_130\n      jump\t// in\n    tag_164:\n        /* \"#utility.yul\":990:995   */\n      dup2\n        /* \"#utility.yul\":987:1022   */\n      eq\n        /* \"#utility.yul\":977:1040   */\n      tag_165\n      jumpi\n        /* \"#utility.yul\":1036:1037   */\n      0x00\n        /* \"#utility.yul\":1033:1034   */\n      0x00\n        /* \"#utility.yul\":1026:1038   */\n      revert\n        /* \"#utility.yul\":977:1040   */\n    tag_165:\n        /* \"#utility.yul\":924:1046   */\n      pop\n      jump\t// out\n        /* \"#utility.yul\":1052:1191   */\n    tag_132:\n        /* \"#utility.yul\":1098:1103   */\n      0x00\n        /* \"#utility.yul\":1136:1142   */\n      dup2\n        /* \"#utility.yul\":1123:1143   */\n      calldataload\n        /* \"#utility.yul\":1114:1143   */\n      swap1\n      pop\n        /* \"#utility.yul\":1152:1185   */\n      tag_167\n        /* \"#utility.yul\":1179:1184   */\n      dup2\n        /* \"#utility.yul\":1152:1185   */\n      tag_131\n      jump\t// in\n    tag_167:\n        /* \"#utility.yul\":1052:1191   */\n      swap3\n      swap2\n      pop\n      pop\n      jump\t// out\n        /* \"#utility.yul\":1197:1962   */\n    tag_15:\n        /* \"#utility.yul\":1283:1289   */\n      0x00\n        /* \"#utility.yul\":1291:1297   */\n      0x00\n        /* \"#utility.yul\":1299:1305   */\n      0x00\n        /* \"#utility.yul\":1307:1313   */\n      0x00\n        /* \"#utility.yul\":1356:1359   */\n      0x80\n        /* \"#utility.yul\":1344:1353   */\n      dup6\n        /* \"#utility.yul\":1335:1342   */\n      dup8\n        /* \"#utility.yul\":1331:1354   */\n      sub\n        /* \"#utility.yul\":1327:1360   */\n      slt\n        /* \"#utility.yul\":1324:1444   */\n      iszero\n      tag_169\n      jumpi\n        /* \"#utility.yul\":1363:1442   */\n      tag_170\n      tag_124\n      jump\t// in\n    tag_170:\n        /* \"#utility.yul\":1324:1444   */\n    tag_169:\n        /* \"#utility.yul\":1483:1484   */\n      0x00\n        /* \"#utility.yul\":1508:1561   */\n      tag_171\n        /* \"#utility.yul\":1553:1560   */\n      dup8\n        /* \"#utility.yul\":1544:1550   */\n      dup3\n        /* \"#utility.yul\":1533:1542   */\n      dup9\n        /* \"#utility.yul\":1529:1551   */\n      add\n        /* \"#utility.yul\":1508:1561   */\n      tag_129\n      jump\t// in\n    tag_171:\n        /* \"#utility.yul\":1498:1561   */\n      swap5\n      pop\n        /* \"#utility.yul\":1454:1571   */\n      pop\n        /* \"#utility.yul\":1610:1612   */\n      0x20\n        /* \"#utility.yul\":1636:1689   */\n      tag_172\n        /* \"#utility.yul\":1681:1688   */\n      dup8\n        /* \"#utility.yul\":1672:1678   */\n      dup3\n        /* \"#utility.yul\":1661:1670   */\n      dup9\n        /* \"#utility.yul\":1657:1679   */\n      add\n        /* \"#utility.yul\":1636:1689   */\n      tag_129\n      jump\t// in\n    tag_172:\n        /* \"#utility.yul\":1626:1689   */\n      swap4\n      pop\n        /* \"#utility.yul\":1581:1699   */\n      pop\n        /* \"#utility.yul\":1738:1740   */\n      0x40\n        /* \"#utility.yul\":1764:1817   */\n      tag_173\n        /* \"#utility.yul\":1809:1816   */\n      dup8\n        /* \"#utility.yul\":1800:1806   */\n      dup3\n        /* \"#utility.yul\":1789:1798   */\n      dup9\n        /* \"#utility.yul\":1785:1807   */\n      add\n        /* \"#utility.yul\":1764:1817   */\n      tag_129\n      jump\t// in\n    tag_173:\n        /* \"#utility.yul\":1754:1817   */\n      swap3\n      pop\n        /* \"#utility.yul\":1709:1827   */\n      pop\n        /* \"#utility.yul\":1866:1868   */\n      0x60\n        /* \"#utility.yul\":1892:1945   */\n      tag_174\n        /* \"#utility.yul\":1937:1944   */\n      dup8\n        /* \"#utility.yul\":1928:1934   */\n      dup3\n        /* \"#utility.yul\":1917:1926   */\n      dup9\n        /* \"#utility.yul\":1913:1935   */\n      add\n        /* \"#utility.yul\":1892:1945   */\n      tag_132\n      jump\t// in\n    tag_174:\n        /* \"#utility.yul\":1882:1945   */\n      swap2\n      pop\n        /* \"#utility.yul\":1837:1955   */\n      pop\n        /* \"#utility.yul\":1197:1962   */\n      swap3\n      swap6\n      swap2\n      swap5\n      pop\n      swap3\n      pop\n      jump\t// out\n        /* \"#utility.yul\":1968:2442   */\n    tag_19:\n        /* \"#utility.yul\":2036:2042   */\n      0x00\n        /* \"#utility.yul\":2044:2050   */\n      0x00\n        /* \"#utility.yul\":2093:2095   */\n      0x40\n        /* \"#utility.yul\":2081:2090   */\n      dup4\n        /* \"#utility.yul\":2072:2079   */\n      dup6\n        /* \"#utility.yul\":2068:2091   */\n      sub\n        /* \"#utility.yul\":2064:2096   */\n      slt\n        /* \"#utility.yul\":2061:2180   */\n      iszero\n      tag_176\n      jumpi\n        /* \"#utility.yul\":2099:2178   */\n      tag_177\n      tag_124\n      jump\t// in\n    tag_177:\n        /* \"#utility.yul\":2061:2180   */\n    tag_176:\n        /* \"#utility.yul\":2219:2220   */\n      0x00\n        /* \"#utility.yul\":2244:2297   */\n      tag_178\n        /* \"#utility.yul\":2289:2296   */\n      dup6\n        /* \"#utility.yul\":2280:2286   */\n      dup3\n        /* \"#utility.yul\":2269:2278   */\n      dup7\n        /* \"#utility.yul\":2265:2287   */\n      add\n        /* \"#utility.yul\":2244:2297   */\n      tag_129\n      jump\t// in\n    tag_178:\n        /* \"#utility.yul\":2234:2297   */\n      swap3\n      pop\n        /* \"#utility.yul\":2190:2307   */\n      pop\n        /* \"#utility.yul\":2346:2348   */\n      0x20\n        /* \"#utility.yul\":2372:2425   */\n      tag_179\n        /* \"#utility.yul\":2417:2424   */\n      dup6\n        /* \"#utility.yul\":2408:2414   */\n      dup3\n        /* \"#utility.yul\":2397:2406   */\n      dup7\n        /* \"#utility.yul\":2393:2415   */\n      add\n        /* \"#utility.yul\":2372:2425   */\n      tag_132\n      jump\t// in\n    tag_179:\n        /* \"#utility.yul\":2362:2425   */\n      swap2\n      pop\n        /* \"#utility.yul\":2317:2435   */\n      pop\n        /* \"#utility.yul\":1968:2442   */\n      swap3\n      pop\n      swap3\n      swap1\n      pop\n      jump\t// out\n        /* \"#utility.yul\":2448:2566   */\n    tag_133:\n        /* \"#utility.yul\":2535:2559   */\n      tag_181\n        /* \"#utility.yul\":2553:2558   */\n      dup2\n        /* \"#utility.yul\":2535:2559   */\n      tag_127\n      jump\t// in\n    tag_181:\n        /* \"#utility.yul\":2530:2533   */\n      dup3\n        /* \"#utility.yul\":2523:2560   */\n      mstore\n        /* \"#utility.yul\":2448:2566   */\n      pop\n      pop\n      jump\t// out\n        /* \"#utility.yul\":2572:2794   */\n    tag_26:\n        /* \"#utility.yul\":2665:2669   */\n      0x00\n        /* \"#utility.yul\":2703:2705   */\n      0x20\n        /* \"#utility.yul\":2692:2701   */\n      dup3\n        /* \"#utility.yul\":2688:2706   */\n      add\n        /* \"#utility.yul\":2680:2706   */\n      swap1\n      pop\n        /* \"#utility.yul\":2716:2787   */\n      tag_183\n        /* \"#utility.yul\":2784:2785   */\n      0x00\n        /* \"#utility.yul\":2773:2782   */\n      dup4\n        /* \"#utility.yul\":2769:2786   */\n      add\n        /* \"#utility.yul\":2760:2766   */\n      dup5\n        /* \"#utility.yul\":2716:2787   */\n      tag_133\n      jump\t// in\n    tag_183:\n        /* \"#utility.yul\":2572:2794   */\n      swap3\n      swap2\n      pop\n      pop\n      jump\t// out\n        /* \"#utility.yul\":2800:3274   */\n    tag_29:\n        /* \"#utility.yul\":2868:2874   */\n      0x00\n        /* \"#utility.yul\":2876:2882   */\n      0x00\n        /* \"#utility.yul\":2925:2927   */\n      0x40\n        /* \"#utility.yul\":2913:2922   */\n      dup4\n        /* \"#utility.yul\":2904:2911   */\n      dup6\n        /* \"#utility.yul\":2900:2923   */\n      sub\n        /* \"#utility.yul\":2896:2928   */\n      slt\n        /* \"#utility.yul\":2893:3012   */\n      iszero\n      tag_185\n      jumpi\n        /* \"#utility.yul\":2931:3010   */\n      tag_186\n      tag_124\n      jump\t// in\n    tag_186:\n        /* \"#utility.yul\":2893:3012   */\n    tag_185:\n        /* \"#utility.yul\":3051:3052   */\n      0x00\n        /* \"#utility.yul\":3076:3129   */\n      tag_187\n        /* \"#utility.yul\":3121:3128   */\n      dup6\n        /* \"#utility.yul\":3112:3118   */\n      dup3\n        /* \"#utility.yul\":3101:3110   */\n      dup7\n        /* \"#utility.yul\":3097:3119   */\n      add\n        /* \"#utility.yul\":3076:3129   */\n      tag_129\n      jump\t// in\n    tag_187:\n        /* \"#utility.yul\":3066:3129   */\n      swap3\n      pop\n        /* \"#utility.yul\":3022:3139   */\n      pop\n        /* \"#utility.yul\":3178:3180   */\n      0x20\n        /* \"#utility.yul\":3204:3257   */\n      tag_188\n        /* \"#utility.yul\":3249:3256   */\n      dup6\n        /* \"#utility.yul\":3240:3246   */\n      dup3\n        /* \"#utility.yul\":3229:3238   */\n      dup7\n        /* \"#utility.yul\":3225:3247   */\n      add\n        /* \"#utility.yul\":3204:3257   */\n      tag_129\n      jump\t// in\n    tag_188:\n        /* \"#utility.yul\":3194:3257   */\n      swap2\n      pop\n        /* \"#utility.yul\":3149:3267   */\n      pop\n        /* \"#utility.yul\":2800:3274   */\n      swap3\n      pop\n      swap3\n      swap1\n      pop\n      jump\t// out\n        /* \"#utility.yul\":3280:3398   */\n    tag_134:\n        /* \"#utility.yul\":3367:3391   */\n      tag_190\n        /* \"#utility.yul\":3385:3390   */\n      dup2\n        /* \"#utility.yul\":3367:3391   */\n      tag_130\n      jump\t// in\n    tag_190:\n        /* \"#utility.yul\":3362:3365   */\n      dup3\n        /* \"#utility.yul\":3355:3392   */\n      mstore\n        /* \"#utility.yul\":3280:3398   */\n      pop\n      pop\n      jump\t// out\n        /* \"#utility.yul\":3404:3626   */\n    tag_32:\n        /* \"#utility.yul\":3497:3501   */\n      0x00\n        /* \"#utility.yul\":3535:3537   */\n      0x20\n        /* \"#utility.yul\":3524:3533   */\n      dup3\n        /* \"#utility.yul\":3520:3538   */\n      add\n        /* \"#utility.yul\":3512:3538   */\n      swap1\n      pop\n        /* \"#utility.yul\":3548:3619   */\n      tag_192\n        /* \"#utility.yul\":3616:3617   */\n      0x00\n        /* \"#utility.yul\":3605:3614   */\n      dup4\n        /* \"#utility.yul\":3601:3618   */\n      add\n        /* \"#utility.yul\":3592:3598   */\n      dup5\n        /* \"#utility.yul\":3548:3619   */\n      tag_134\n      jump\t// in\n    tag_192:\n        /* \"#utility.yul\":3404:3626   */\n      swap3\n      swap2\n      pop\n      pop\n      jump\t// out\n        /* \"#utility.yul\":3632:3961   */\n    tag_35:\n        /* \"#utility.yul\":3691:3697   */\n      0x00\n        /* \"#utility.yul\":3740:3742   */\n      0x20\n        /* \"#utility.yul\":3728:3737   */\n      dup3\n        /* \"#utility.yul\":3719:3726   */\n      dup5\n        /* \"#utility.yul\":3715:3738   */\n      sub\n        /* \"#utility.yul\":3711:3743   */\n      slt\n        /* \"#utility.yul\":3708:3827   */\n      iszero\n      tag_194\n      jumpi\n        /* \"#utility.yul\":3746:3825   */\n      tag_195\n      tag_124\n      jump\t// in\n    tag_195:\n        /* \"#utility.yul\":3708:3827   */\n    tag_194:\n        /* \"#utility.yul\":3866:3867   */\n      0x00\n        /* \"#utility.yul\":3891:3944   */\n      tag_196\n        /* \"#utility.yul\":3936:3943   */\n      dup5\n        /* \"#utility.yul\":3927:3933   */\n      dup3\n        /* \"#utility.yul\":3916:3925   */\n      dup6\n        /* \"#utility.yul\":3912:3934   */\n      add\n        /* \"#utility.yul\":3891:3944   */\n      tag_129\n      jump\t// in\n    tag_196:\n        /* \"#utility.yul\":3881:3944   */\n      swap2\n      pop\n        /* \"#utility.yul\":3837:3954   */\n      pop\n        /* \"#utility.yul\":3632:3961   */\n      swap3\n      swap2\n      pop\n      pop\n      jump\t// out\n        /* \"#utility.yul\":3967:4057   */\n    tag_135:\n        /* \"#utility.yul\":4001:4008   */\n      0x00\n        /* \"#utility.yul\":4044:4049   */\n      dup2\n        /* \"#utility.yul\":4037:4050   */\n      iszero\n        /* \"#utility.yul\":4030:4051   */\n      iszero\n        /* \"#utility.yul\":4019:4051   */\n      swap1\n      pop\n        /* \"#utility.yul\":3967:4057   */\n      swap2\n      swap1\n      pop\n      jump\t// out\n        /* \"#utility.yul\":4063:4172   */\n    tag_136:\n        /* \"#utility.yul\":4144:4165   */\n      tag_199\n        /* \"#utility.yul\":4159:4164   */\n      dup2\n        /* \"#utility.yul\":4144:4165   */\n      tag_135\n      jump\t// in\n    tag_199:\n        /* \"#utility.yul\":4139:4142   */\n      dup3\n        /* \"#utility.yul\":4132:4166   */\n      mstore\n        /* \"#utility.yul\":4063:4172   */\n      pop\n      pop\n      jump\t// out\n        /* \"#utility.yul\":4178:4388   */\n    tag_38:\n        /* \"#utility.yul\":4265:4269   */\n      0x00\n        /* \"#utility.yul\":4303:4305   */\n      0x20\n        /* \"#utility.yul\":4292:4301   */\n      dup3\n        /* \"#utility.yul\":4288:4306   */\n      add\n        /* \"#utility.yul\":4280:4306   */\n      swap1\n      pop\n        /* \"#utility.yul\":4316:4381   */\n      tag_201\n        /* \"#utility.yul\":4378:4379   */\n      0x00\n        /* \"#utility.yul\":4367:4376   */\n      dup4\n        /* \"#utility.yul\":4363:4380   */\n      add\n        /* \"#utility.yul\":4354:4360   */\n      dup5\n        /* \"#utility.yul\":4316:4381   */\n      tag_136\n      jump\t// in\n    tag_201:\n        /* \"#utility.yul\":4178:4388   */\n      swap3\n      swap2\n      pop\n      pop\n      jump\t// out\n        /* \"#utility.yul\":4394:4510   */\n    tag_137:\n        /* \"#utility.yul\":4464:4485   */\n      tag_203\n        /* \"#utility.yul\":4479:4484   */\n      dup2\n        /* \"#utility.yul\":4464:4485   */\n      tag_135\n      jump\t// in\n    tag_203:\n        /* \"#utility.yul\":4457:4462   */\n      dup2\n        /* \"#utility.yul\":4454:4486   */\n      eq\n        /* \"#utility.yul\":4444:4504   */\n      tag_204\n      jumpi\n        /* \"#utility.yul\":4500:4501   */\n      0x00\n        /* \"#utility.yul\":4497:4498   */\n      0x00\n        /* \"#utility.yul\":4490:4502   */\n      revert\n        /* \"#utility.yul\":4444:4504   */\n    tag_204:\n        /* \"#utility.yul\":4394:4510   */\n      pop\n      jump\t// out\n        /* \"#utility.yul\":4516:4649   */\n    tag_138:\n        /* \"#utility.yul\":4559:4564   */\n      0x00\n        /* \"#utility.yul\":4597:4603   */\n      dup2\n        /* \"#utility.yul\":4584:4604   */\n      calldataload\n        /* \"#utility.yul\":4575:4604   */\n      swap1\n      pop\n        /* \"#utility.yul\":4613:4643   */\n      tag_206\n        /* \"#utility.yul\":4637:4642   */\n      dup2\n        /* \"#utility.yul\":4613:4643   */\n      tag_137\n      jump\t// in\n    tag_206:\n        /* \"#utility.yul\":4516:4649   */\n      swap3\n      swap2\n      pop\n      pop\n      jump\t// out\n        /* \"#utility.yul\":4655:5123   */\n    tag_41:\n        /* \"#utility.yul\":4720:4726   */\n      0x00\n        /* \"#utility.yul\":4728:4734   */\n      0x00\n        /* \"#utility.yul\":4777:4779   */\n      0x40\n        /* \"#utility.yul\":4765:4774   */\n      dup4\n        /* \"#utility.yul\":4756:4763   */\n      dup6\n        /* \"#utility.yul\":4752:4775   */\n      sub\n        /* \"#utility.yul\":4748:4780   */\n      slt\n        /* \"#utility.yul\":4745:4864   */\n      iszero\n      tag_208\n      jumpi\n        /* \"#utility.yul\":4783:4862   */\n      tag_209\n      tag_124\n      jump\t// in\n    tag_209:\n        /* \"#utility.yul\":4745:4864   */\n    tag_208:\n        /* \"#utility.yul\":4903:4904   */\n      0x00\n        /* \"#utility.yul\":4928:4981   */\n      tag_210\n        /* \"#utility.yul\":4973:4980   */\n      dup6\n        /* \"#utility.yul\":4964:4970   */\n      dup3\n        /* \"#utility.yul\":4953:4962   */\n      dup7\n        /* \"#utility.yul\":4949:4971   */\n      add\n        /* \"#utility.yul\":4928:4981   */\n      tag_129\n      jump\t// in\n    tag_210:\n        /* \"#utility.yul\":4918:4981   */\n      swap3\n      pop\n        /* \"#utility.yul\":4874:4991   */\n      pop\n        /* \"#utility.yul\":5030:5032   */\n      0x20\n        /* \"#utility.yul\":5056:5106   */\n      tag_211\n        /* \"#utility.yul\":5098:5105   */\n      dup6\n        /* \"#utility.yul\":5089:5095   */\n      dup3\n        /* \"#utility.yul\":5078:5087   */\n      dup7\n        /* \"#utility.yul\":5074:5096   */\n      add\n        /* \"#utility.yul\":5056:5106   */\n      tag_138\n      jump\t// in\n    tag_211:\n        /* \"#utility.yul\":5046:5106   */\n      swap2\n      pop\n        /* \"#utility.yul\":5001:5116   */\n      pop\n        /* \"#utility.yul\":4655:5123   */\n      swap3\n      pop\n      swap3\n      swap1\n      pop\n      jump\t// out\n        /* \"#utility.yul\":5129:5298   */\n    tag_139:\n        /* \"#utility.yul\":5213:5224   */\n      0x00\n        /* \"#utility.yul\":5247:5253   */\n      dup3\n        /* \"#utility.yul\":5242:5245   */\n      dup3\n        /* \"#utility.yul\":5235:5254   */\n      mstore\n        /* \"#utility.yul\":5287:5291   */\n      0x20\n        /* \"#utility.yul\":5282:5285   */\n      dup3\n        /* \"#utility.yul\":5278:5292   */\n      add\n        /* \"#utility.yul\":5263:5292   */\n      swap1\n      pop\n        /* \"#utility.yul\":5129:5298   */\n      swap3\n      swap2\n      pop\n      pop\n      jump\t// out\n        /* \"#utility.yul\":5304:5480   */\n    tag_140:\n        /* \"#utility.yul\":5444:5472   */\n      0x4e6f7420616e20617574686f72697a656420636f6e7472616374000000000000\n        /* \"#utility.yul\":5440:5441   */\n      0x00\n        /* \"#utility.yul\":5432:5438   */\n      dup3\n        /* \"#utility.yul\":5428:5442   */\n      add\n        /* \"#utility.yul\":5421:5473   */\n      mstore\n        /* \"#utility.yul\":5304:5480   */\n      pop\n      jump\t// out\n        /* \"#utility.yul\":5486:5852   */\n    tag_141:\n        /* \"#utility.yul\":5628:5631   */\n      0x00\n        /* \"#utility.yul\":5649:5716   */\n      tag_215\n        /* \"#utility.yul\":5713:5715   */\n      0x1a\n        /* \"#utility.yul\":5708:5711   */\n      dup4\n        /* \"#utility.yul\":5649:5716   */\n      tag_139\n      jump\t// in\n    tag_215:\n        /* \"#utility.yul\":5642:5716   */\n      swap2\n      pop\n        /* \"#utility.yul\":5725:5818   */\n      tag_216\n        /* \"#utility.yul\":5814:5817   */\n      dup3\n        /* \"#utility.yul\":5725:5818   */\n      tag_140\n      jump\t// in\n    tag_216:\n        /* \"#utility.yul\":5843:5845   */\n      0x20\n        /* \"#utility.yul\":5838:5841   */\n      dup3\n        /* \"#utility.yul\":5834:5846   */\n      add\n        /* \"#utility.yul\":5827:5846   */\n      swap1\n      pop\n        /* \"#utility.yul\":5486:5852   */\n      swap2\n      swap1\n      pop\n      jump\t// out\n        /* \"#utility.yul\":5858:6277   */\n    tag_52:\n        /* \"#utility.yul\":6024:6028   */\n      0x00\n        /* \"#utility.yul\":6062:6064   */\n      0x20\n        /* \"#utility.yul\":6051:6060   */\n      dup3\n        /* \"#utility.yul\":6047:6065   */\n      add\n        /* \"#utility.yul\":6039:6065   */\n      swap1\n      pop\n        /* \"#utility.yul\":6111:6120   */\n      dup2\n        /* \"#utility.yul\":6105:6109   */\n      dup2\n        /* \"#utility.yul\":6101:6121   */\n      sub\n        /* \"#utility.yul\":6097:6098   */\n      0x00\n        /* \"#utility.yul\":6086:6095   */\n      dup4\n        /* \"#utility.yul\":6082:6099   */\n      add\n        /* \"#utility.yul\":6075:6122   */\n      mstore\n        /* \"#utility.yul\":6139:6270   */\n      tag_218\n        /* \"#utility.yul\":6265:6269   */\n      dup2\n        /* \"#utility.yul\":6139:6270   */\n      tag_141\n      jump\t// in\n    tag_218:\n        /* \"#utility.yul\":6131:6270   */\n      swap1\n      pop\n        /* \"#utility.yul\":5858:6277   */\n      swap2\n      swap1\n      pop\n      jump\t// out\n        /* \"#utility.yul\":6283:6462   */\n    tag_142:\n        /* \"#utility.yul\":6423:6454   */\n      0x496e73756666696369656e7420696e7465726e616c2062616c616e6365000000\n        /* \"#utility.yul\":6419:6420   */\n      0x00\n        /* \"#utility.yul\":6411:6417   */\n      dup3\n        /* \"#utility.yul\":6407:6421   */\n      add\n        /* \"#utility.yul\":6400:6455   */\n      mstore\n        /* \"#utility.yul\":6283:6462   */\n      pop\n      jump\t// out\n        /* \"#utility.yul\":6468:6834   */\n    tag_143:\n        /* \"#utility.yul\":6610:6613   */\n      0x00\n        /* \"#utility.yul\":6631:6698   */\n      tag_221\n        /* \"#utility.yul\":6695:6697   */\n      0x1d\n        /* \"#utility.yul\":6690:6693   */\n      dup4\n        /* \"#utility.yul\":6631:6698   */\n      tag_139\n      jump\t// in\n    tag_221:\n        /* \"#utility.yul\":6624:6698   */\n      swap2\n      pop\n        /* \"#utility.yul\":6707:6800   */\n      tag_222\n        /* \"#utility.yul\":6796:6799   */\n      dup3\n        /* \"#utility.yul\":6707:6800   */\n      tag_142\n      jump\t// in\n    tag_222:\n        /* \"#utility.yul\":6825:6827   */\n      0x20\n        /* \"#utility.yul\":6820:6823   */\n      dup3\n        /* \"#utility.yul\":6816:6828   */\n      add\n        /* \"#utility.yul\":6809:6828   */\n      swap1\n      pop\n        /* \"#utility.yul\":6468:6834   */\n      swap2\n      swap1\n      pop\n      jump\t// out\n        /* \"#utility.yul\":6840:7259   */\n    tag_56:\n        /* \"#utility.yul\":7006:7010   */\n      0x00\n        /* \"#utility.yul\":7044:7046   */\n      0x20\n        /* \"#utility.yul\":7033:7042   */\n      dup3\n        /* \"#utility.yul\":7029:7047   */\n      add\n        /* \"#utility.yul\":7021:7047   */\n      swap1\n      pop\n        /* \"#utility.yul\":7093:7102   */\n      dup2\n        /* \"#utility.yul\":7087:7091   */\n      dup2\n        /* \"#utility.yul\":7083:7103   */\n      sub\n        /* \"#utility.yul\":7079:7080   */\n      0x00\n        /* \"#utility.yul\":7068:7077   */\n      dup4\n        /* \"#utility.yul\":7064:7081   */\n      add\n        /* \"#utility.yul\":7057:7104   */\n      mstore\n        /* \"#utility.yul\":7121:7252   */\n      tag_224\n        /* \"#utility.yul\":7247:7251   */\n      dup2\n        /* \"#utility.yul\":7121:7252   */\n      tag_143\n      jump\t// in\n    tag_224:\n        /* \"#utility.yul\":7113:7252   */\n      swap1\n      pop\n        /* \"#utility.yul\":6840:7259   */\n      swap2\n      swap1\n      pop\n      jump\t// out\n        /* \"#utility.yul\":7265:7445   */\n    tag_144:\n        /* \"#utility.yul\":7313:7390   */\n      0x4e487b7100000000000000000000000000000000000000000000000000000000\n        /* \"#utility.yul\":7310:7311   */\n      0x00\n        /* \"#utility.yul\":7303:7391   */\n      mstore\n        /* \"#utility.yul\":7410:7414   */\n      0x11\n        /* \"#utility.yul\":7407:7408   */\n      0x04\n        /* \"#utility.yul\":7400:7415   */\n      mstore\n        /* \"#utility.yul\":7434:7438   */\n      0x24\n        /* \"#utility.yul\":7431:7432   */\n      0x00\n        /* \"#utility.yul\":7424:7439   */\n      revert\n        /* \"#utility.yul\":7451:7645   */\n    tag_58:\n        /* \"#utility.yul\":7491:7495   */\n      0x00\n        /* \"#utility.yul\":7511:7531   */\n      tag_227\n        /* \"#utility.yul\":7529:7530   */\n      dup3\n        /* \"#utility.yul\":7511:7531   */\n      tag_130\n      jump\t// in\n    tag_227:\n        /* \"#utility.yul\":7506:7531   */\n      swap2\n      pop\n        /* \"#utility.yul\":7545:7565   */\n      tag_228\n        /* \"#utility.yul\":7563:7564   */\n      dup4\n        /* \"#utility.yul\":7545:7565   */\n      tag_130\n      jump\t// in\n    tag_228:\n        /* \"#utility.yul\":7540:7565   */\n      swap3\n      pop\n        /* \"#utility.yul\":7589:7590   */\n      dup3\n        /* \"#utility.yul\":7586:7587   */\n      dup3\n        /* \"#utility.yul\":7582:7591   */\n      sub\n        /* \"#utility.yul\":7574:7591   */\n      swap1\n      pop\n        /* \"#utility.yul\":7613:7614   */\n      dup2\n        /* \"#utility.yul\":7607:7611   */\n      dup2\n        /* \"#utility.yul\":7604:7615   */\n      gt\n        /* \"#utility.yul\":7601:7638   */\n      iszero\n      tag_229\n      jumpi\n        /* \"#utility.yul\":7618:7636   */\n      tag_230\n      tag_144\n      jump\t// in\n    tag_230:\n        /* \"#utility.yul\":7601:7638   */\n    tag_229:\n        /* \"#utility.yul\":7451:7645   */\n      swap3\n      swap2\n      pop\n      pop\n      jump\t// out\n        /* \"#utility.yul\":7651:7842   */\n    tag_60:\n        /* \"#utility.yul\":7691:7694   */\n      0x00\n        /* \"#utility.yul\":7710:7730   */\n      tag_232\n        /* \"#utility.yul\":7728:7729   */\n      dup3\n        /* \"#utility.yul\":7710:7730   */\n      tag_130\n      jump\t// in\n    tag_232:\n        /* \"#utility.yul\":7705:7730   */\n      swap2\n      pop\n        /* \"#utility.yul\":7744:7764   */\n      tag_233\n        /* \"#utility.yul\":7762:7763   */\n      dup4\n        /* \"#utility.yul\":7744:7764   */\n      tag_130\n      jump\t// in\n    tag_233:\n        /* \"#utility.yul\":7739:7764   */\n      swap3\n      pop\n        /* \"#utility.yul\":7787:7788   */\n      dup3\n        /* \"#utility.yul\":7784:7785   */\n      dup3\n        /* \"#utility.yul\":7780:7789   */\n      add\n        /* \"#utility.yul\":7773:7789   */\n      swap1\n      pop\n        /* \"#utility.yul\":7808:7811   */\n      dup1\n        /* \"#utility.yul\":7805:7806   */\n      dup3\n        /* \"#utility.yul\":7802:7812   */\n      gt\n        /* \"#utility.yul\":7799:7835   */\n      iszero\n      tag_234\n      jumpi\n        /* \"#utility.yul\":7815:7833   */\n      tag_235\n      tag_144\n      jump\t// in\n    tag_235:\n        /* \"#utility.yul\":7799:7835   */\n    tag_234:\n        /* \"#utility.yul\":7651:7842   */\n      swap3\n      swap2\n      pop\n      pop\n      jump\t// out\n        /* \"#utility.yul\":7848:8027   */\n    tag_145:\n        /* \"#utility.yul\":7988:8019   */\n      0x416d6f756e74206d7573742062652067726561746572207468616e2030000000\n        /* \"#utility.yul\":7984:7985   */\n      0x00\n        /* \"#utility.yul\":7976:7982   */\n      dup3\n        /* \"#utility.yul\":7972:7986   */\n      add\n        /* \"#utility.yul\":7965:8020   */\n      mstore\n        /* \"#utility.yul\":7848:8027   */\n      pop\n      jump\t// out\n        /* \"#utility.yul\":8033:8399   */\n    tag_146:\n        /* \"#utility.yul\":8175:8178   */\n      0x00\n        /* \"#utility.yul\":8196:8263   */\n      tag_238\n        /* \"#utility.yul\":8260:8262   */\n      0x1d\n        /* \"#utility.yul\":8255:8258   */\n      dup4\n        /* \"#utility.yul\":8196:8263   */\n      tag_139\n      jump\t// in\n    tag_238:\n        /* \"#utility.yul\":8189:8263   */\n      swap2\n      pop\n        /* \"#utility.yul\":8272:8365   */\n      tag_239\n        /* \"#utility.yul\":8361:8364   */\n      dup3\n        /* \"#utility.yul\":8272:8365   */\n      tag_145\n      jump\t// in\n    tag_239:\n        /* \"#utility.yul\":8390:8392   */\n      0x20\n        /* \"#utility.yul\":8385:8388   */\n      dup3\n        /* \"#utility.yul\":8381:8393   */\n      add\n        /* \"#utility.yul\":8374:8393   */\n      swap1\n      pop\n        /* \"#utility.yul\":8033:8399   */\n      swap2\n      swap1\n      pop\n      jump\t// out\n        /* \"#utility.yul\":8405:8824   */\n    tag_67:\n        /* \"#utility.yul\":8571:8575   */\n      0x00\n        /* \"#utility.yul\":8609:8611   */\n      0x20\n        /* \"#utility.yul\":8598:8607   */\n      dup3\n        /* \"#utility.yul\":8594:8612   */\n      add\n        /* \"#utility.yul\":8586:8612   */\n      swap1\n      pop\n        /* \"#utility.yul\":8658:8667   */\n      dup2\n        /* \"#utility.yul\":8652:8656   */\n      dup2\n        /* \"#utility.yul\":8648:8668   */\n      sub\n        /* \"#utility.yul\":8644:8645   */\n      0x00\n        /* \"#utility.yul\":8633:8642   */\n      dup4\n        /* \"#utility.yul\":8629:8646   */\n      add\n        /* \"#utility.yul\":8622:8669   */\n      mstore\n        /* \"#utility.yul\":8686:8817   */\n      tag_241\n        /* \"#utility.yul\":8812:8816   */\n      dup2\n        /* \"#utility.yul\":8686:8817   */\n      tag_146\n      jump\t// in\n    tag_241:\n        /* \"#utility.yul\":8678:8817   */\n      swap1\n      pop\n        /* \"#utility.yul\":8405:8824   */\n      swap2\n      swap1\n      pop\n      jump\t// out\n        /* \"#utility.yul\":8830:9272   */\n    tag_70:\n        /* \"#utility.yul\":8979:8983   */\n      0x00\n        /* \"#utility.yul\":9017:9019   */\n      0x60\n        /* \"#utility.yul\":9006:9015   */\n      dup3\n        /* \"#utility.yul\":9002:9020   */\n      add\n        /* \"#utility.yul\":8994:9020   */\n      swap1\n      pop\n        /* \"#utility.yul\":9030:9101   */\n      tag_243\n        /* \"#utility.yul\":9098:9099   */\n      0x00\n        /* \"#utility.yul\":9087:9096   */\n      dup4\n        /* \"#utility.yul\":9083:9100   */\n      add\n        /* \"#utility.yul\":9074:9080   */\n      dup7\n        /* \"#utility.yul\":9030:9101   */\n      tag_133\n      jump\t// in\n    tag_243:\n        /* \"#utility.yul\":9111:9183   */\n      tag_244\n        /* \"#utility.yul\":9179:9181   */\n      0x20\n        /* \"#utility.yul\":9168:9177   */\n      dup4\n        /* \"#utility.yul\":9164:9182   */\n      add\n        /* \"#utility.yul\":9155:9161   */\n      dup6\n        /* \"#utility.yul\":9111:9183   */\n      tag_133\n      jump\t// in\n    tag_244:\n        /* \"#utility.yul\":9193:9265   */\n      tag_245\n        /* \"#utility.yul\":9261:9263   */\n      0x40\n        /* \"#utility.yul\":9250:9259   */\n      dup4\n        /* \"#utility.yul\":9246:9264   */\n      add\n        /* \"#utility.yul\":9237:9243   */\n      dup5\n        /* \"#utility.yul\":9193:9265   */\n      tag_134\n      jump\t// in\n    tag_245:\n        /* \"#utility.yul\":8830:9272   */\n      swap5\n      swap4\n      pop\n      pop\n      pop\n      pop\n      jump\t// out\n        /* \"#utility.yul\":9278:9415   */\n    tag_147:\n        /* \"#utility.yul\":9332:9337   */\n      0x00\n        /* \"#utility.yul\":9363:9369   */\n      dup2\n        /* \"#utility.yul\":9357:9370   */\n      mload\n        /* \"#utility.yul\":9348:9370   */\n      swap1\n      pop\n        /* \"#utility.yul\":9379:9409   */\n      tag_247\n        /* \"#utility.yul\":9403:9408   */\n      dup2\n        /* \"#utility.yul\":9379:9409   */\n      tag_137\n      jump\t// in\n    tag_247:\n        /* \"#utility.yul\":9278:9415   */\n      swap3\n      swap2\n      pop\n      pop\n      jump\t// out\n        /* \"#utility.yul\":9421:9766   */\n    tag_74:\n        /* \"#utility.yul\":9488:9494   */\n      0x00\n        /* \"#utility.yul\":9537:9539   */\n      0x20\n        /* \"#utility.yul\":9525:9534   */\n      dup3\n        /* \"#utility.yul\":9516:9523   */\n      dup5\n        /* \"#utility.yul\":9512:9535   */\n      sub\n        /* \"#utility.yul\":9508:9540   */\n      slt\n        /* \"#utility.yul\":9505:9624   */\n      iszero\n      tag_249\n      jumpi\n        /* \"#utility.yul\":9543:9622   */\n      tag_250\n      tag_124\n      jump\t// in\n    tag_250:\n        /* \"#utility.yul\":9505:9624   */\n    tag_249:\n        /* \"#utility.yul\":9663:9664   */\n      0x00\n        /* \"#utility.yul\":9688:9749   */\n      tag_251\n        /* \"#utility.yul\":9741:9748   */\n      dup5\n        /* \"#utility.yul\":9732:9738   */\n      dup3\n        /* \"#utility.yul\":9721:9730   */\n      dup6\n        /* \"#utility.yul\":9717:9739   */\n      add\n        /* \"#utility.yul\":9688:9749   */\n      tag_147\n      jump\t// in\n    tag_251:\n        /* \"#utility.yul\":9678:9749   */\n      swap2\n      pop\n        /* \"#utility.yul\":9634:9759   */\n      pop\n        /* \"#utility.yul\":9421:9766   */\n      swap3\n      swap2\n      pop\n      pop\n      jump\t// out\n        /* \"#utility.yul\":9772:9942   */\n    tag_148:\n        /* \"#utility.yul\":9912:9934   */\n      0x496e73756666696369656e742062616c616e6365000000000000000000000000\n        /* \"#utility.yul\":9908:9909   */\n      0x00\n        /* \"#utility.yul\":9900:9906   */\n      dup3\n        /* \"#utility.yul\":9896:9910   */\n      add\n        /* \"#utility.yul\":9889:9935   */\n      mstore\n        /* \"#utility.yul\":9772:9942   */\n      pop\n      jump\t// out\n        /* \"#utility.yul\":9948:10314   */\n    tag_149:\n        /* \"#utility.yul\":10090:10093   */\n      0x00\n        /* \"#utility.yul\":10111:10178   */\n      tag_254\n        /* \"#utility.yul\":10175:10177   */\n      0x14\n        /* \"#utility.yul\":10170:10173   */\n      dup4\n        /* \"#utility.yul\":10111:10178   */\n      tag_139\n      jump\t// in\n    tag_254:\n        /* \"#utility.yul\":10104:10178   */\n      swap2\n      pop\n        /* \"#utility.yul\":10187:10280   */\n      tag_255\n        /* \"#utility.yul\":10276:10279   */\n      dup3\n        /* \"#utility.yul\":10187:10280   */\n      tag_148\n      jump\t// in\n    tag_255:\n        /* \"#utility.yul\":10305:10307   */\n      0x20\n        /* \"#utility.yul\":10300:10303   */\n      dup3\n        /* \"#utility.yul\":10296:10308   */\n      add\n        /* \"#utility.yul\":10289:10308   */\n      swap1\n      pop\n        /* \"#utility.yul\":9948:10314   */\n      swap2\n      swap1\n      pop\n      jump\t// out\n        /* \"#utility.yul\":10320:10739   */\n    tag_102:\n        /* \"#utility.yul\":10486:10490   */\n      0x00\n        /* \"#utility.yul\":10524:10526   */\n      0x20\n        /* \"#utility.yul\":10513:10522   */\n      dup3\n        /* \"#utility.yul\":10509:10527   */\n      add\n        /* \"#utility.yul\":10501:10527   */\n      swap1\n      pop\n        /* \"#utility.yul\":10573:10582   */\n      dup2\n        /* \"#utility.yul\":10567:10571   */\n      dup2\n        /* \"#utility.yul\":10563:10583   */\n      sub\n        /* \"#utility.yul\":10559:10560   */\n      0x00\n        /* \"#utility.yul\":10548:10557   */\n      dup4\n        /* \"#utility.yul\":10544:10561   */\n      add\n        /* \"#utility.yul\":10537:10584   */\n      mstore\n        /* \"#utility.yul\":10601:10732   */\n      tag_257\n        /* \"#utility.yul\":10727:10731   */\n      dup2\n        /* \"#utility.yul\":10601:10732   */\n      tag_149\n      jump\t// in\n    tag_257:\n        /* \"#utility.yul\":10593:10732   */\n      swap1\n      pop\n        /* \"#utility.yul\":10320:10739   */\n      swap2\n      swap1\n      pop\n      jump\t// out\n        /* \"#utility.yul\":10745:11077   */\n    tag_105:\n        /* \"#utility.yul\":10866:10870   */\n      0x00\n        /* \"#utility.yul\":10904:10906   */\n      0x40\n        /* \"#utility.yul\":10893:10902   */\n      dup3\n        /* \"#utility.yul\":10889:10907   */\n      add\n        /* \"#utility.yul\":10881:10907   */\n      swap1\n      pop\n        /* \"#utility.yul\":10917:10988   */\n      tag_259\n        /* \"#utility.yul\":10985:10986   */\n      0x00\n        /* \"#utility.yul\":10974:10983   */\n      dup4\n        /* \"#utility.yul\":10970:10987   */\n      add\n        /* \"#utility.yul\":10961:10967   */\n      dup6\n        /* \"#utility.yul\":10917:10988   */\n      tag_133\n      jump\t// in\n    tag_259:\n        /* \"#utility.yul\":10998:11070   */\n      tag_260\n        /* \"#utility.yul\":11066:11068   */\n      0x20\n        /* \"#utility.yul\":11055:11064   */\n      dup4\n        /* \"#utility.yul\":11051:11069   */\n      add\n        /* \"#utility.yul\":11042:11048   */\n      dup5\n        /* \"#utility.yul\":10998:11070   */\n      tag_134\n      jump\t// in\n    tag_260:\n        /* \"#utility.yul\":10745:11077   */\n      swap4\n      swap3\n      pop\n      pop\n      pop\n      jump\t// out\n\n    auxdata: 0xa26469706673582212200109c6da180791aed4fd804bf69008c6a29df60f3749ea9ee1fcf3bb89ca6f5164736f6c634300081e0033\n}\n",
				"bytecode": {
					"linkReferences": {},
					"object": "608060405234801561000f575f5ffd5b50335f73ffffffffffffffffffffffffffffffffffffffff168173ffffffffffffffffffffffffffffffffffffffff1603610081575f6040517f1e4fbdf7000000000000000000000000000000000000000000000000000000008152600401610078919061019d565b60405180910390fd5b6100908161009d60201b60201c565b50600180819055506101b6565b5f5f5f9054906101000a900473ffffffffffffffffffffffffffffffffffffffff169050815f5f6101000a81548173ffffffffffffffffffffffffffffffffffffffff021916908373ffffffffffffffffffffffffffffffffffffffff1602179055508173ffffffffffffffffffffffffffffffffffffffff168173ffffffffffffffffffffffffffffffffffffffff167f8be0079c531659141344cd1fd0a4f28419497f9722a3daafe3b4186f6b6457e060405160405180910390a35050565b5f73ffffffffffffffffffffffffffffffffffffffff82169050919050565b5f6101878261015e565b9050919050565b6101978161017d565b82525050565b5f6020820190506101b05f83018461018e565b92915050565b611136806101c35f395ff3fe608060405234801561000f575f5ffd5b5060043610610091575f3560e01c8063c23f001f11610064578063c23f001f146100f5578063d5b9221b14610125578063f2fa739214610155578063f2fde38b14610171578063f3fef3a31461018d57610091565b806344a29e2a1461009557806347e7ef24146100b1578063715018a6146100cd5780638da5cb5b146100d7575b5f5ffd5b6100af60048036038101906100aa9190610c2c565b6101a9565b005b6100cb60048036038101906100c69190610c90565b61040e565b005b6100d56105d5565b005b6100df6105e8565b6040516100ec9190610cdd565b60405180910390f35b61010f600480360381019061010a9190610cf6565b61060f565b60405161011c9190610d43565b60405180910390f35b61013f600480360381019061013a9190610d5c565b61062f565b60405161014c9190610da1565b60405180910390f35b61016f600480360381019061016a9190610de4565b61064c565b005b61018b60048036038101906101869190610d5c565b6106fa565b005b6101a760048036038101906101a29190610c90565b61077e565b005b60035f3373ffffffffffffffffffffffffffffffffffffffff1673ffffffffffffffffffffffffffffffffffffffff1681526020019081526020015f205f9054906101000a900460ff16610232576040517f08c379a000000000000000000000000000000000000000000000000000000000815260040161022990610e7c565b60405180910390fd5b5f60025f8673ffffffffffffffffffffffffffffffffffffffff1673ffffffffffffffffffffffffffffffffffffffff1681526020019081526020015f205f8573ffffffffffffffffffffffffffffffffffffffff1673ffffffffffffffffffffffffffffffffffffffff1681526020019081526020015f20549050818110156102f1576040517f08c379a00000000000000000000000000000000000000000000000000000000081526004016102e890610ee4565b60405180910390fd5b81816102fd9190610f2f565b60025f8773ffffffffffffffffffffffffffffffffffffffff1673ffffffffffffffffffffffffffffffffffffffff1681526020019081526020015f205f8673ffffffffffffffffffffffffffffffffffffffff1673ffffffffffffffffffffffffffffffffffffffff1681526020019081526020015f20819055508160025f8773ffffffffffffffffffffffffffffffffffffffff1673ffffffffffffffffffffffffffffffffffffffff1681526020019081526020015f205f8573ffffffffffffffffffffffffffffffffffffffff1673ffffffffffffffffffffffffffffffffffffffff1681526020019081526020015f205f8282546104009190610f62565b925050819055505050505050565b6104166109fd565b5f8111610458576040517f08c379a000000000000000000000000000000000000000000000000000000000815260040161044f90610fdf565b60405180910390fd5b8060025f8473ffffffffffffffffffffffffffffffffffffffff1673ffffffffffffffffffffffffffffffffffffffff1681526020019081526020015f205f3373ffffffffffffffffffffffffffffffffffffffff1673ffffffffffffffffffffffffffffffffffffffff1681526020019081526020015f205f8282546104df9190610f62565b925050819055508173ffffffffffffffffffffffffffffffffffffffff166323b872dd3330846040518463ffffffff1660e01b815260040161052393929190610ffd565b6020604051808303815f875af115801561053f573d5f5f3e3d5ffd5b505050506040513d601f19601f820116820180604052508101906105639190611046565b508173ffffffffffffffffffffffffffffffffffffffff163373ffffffffffffffffffffffffffffffffffffffff167f8752a472e571a816aea92eec8dae9baf628e840f4929fbcc2d155e6233ff68a7836040516105c19190610d43565b60405180910390a36105d1610a43565b5050565b6105dd610a4c565b6105e65f610ad3565b565b5f5f5f9054906101000a900473ffffffffffffffffffffffffffffffffffffffff16905090565b6002602052815f5260405f20602052805f5260405f205f91509150505481565b6003602052805f5260405f205f915054906101000a900460ff1681565b610654610a4c565b8060035f8473ffffffffffffffffffffffffffffffffffffffff1673ffffffffffffffffffffffffffffffffffffffff1681526020019081526020015f205f6101000a81548160ff0219169083151502179055508173ffffffffffffffffffffffffffffffffffffffff167f7109ebc5424980770410d6b76de5165aed9a328bca745f09e7f7e18deffa682c826040516106ee9190610da1565b60405180910390a25050565b610702610a4c565b5f73ffffffffffffffffffffffffffffffffffffffff168173ffffffffffffffffffffffffffffffffffffffff1603610772575f6040517f1e4fbdf70000000000000000000000000000000000000000000000000000000081526004016107699190610cdd565b60405180910390fd5b61077b81610ad3565b50565b6107866109fd565b5f81116107c8576040517f08c379a00000000000000000000000000000000000000000000000000000000081526004016107bf90610fdf565b60405180910390fd5b5f60025f8473ffffffffffffffffffffffffffffffffffffffff1673ffffffffffffffffffffffffffffffffffffffff1681526020019081526020015f205f3373ffffffffffffffffffffffffffffffffffffffff1673ffffffffffffffffffffffffffffffffffffffff1681526020019081526020015f2054905081811015610887576040517f08c379a000000000000000000000000000000000000000000000000000000000815260040161087e906110bb565b60405180910390fd5b81816108939190610f2f565b60025f8573ffffffffffffffffffffffffffffffffffffffff1673ffffffffffffffffffffffffffffffffffffffff1681526020019081526020015f205f3373ffffffffffffffffffffffffffffffffffffffff1673ffffffffffffffffffffffffffffffffffffffff1681526020019081526020015f20819055508273ffffffffffffffffffffffffffffffffffffffff1663a9059cbb33846040518363ffffffff1660e01b815260040161094a9291906110d9565b6020604051808303815f875af1158015610966573d5f5f3e3d5ffd5b505050506040513d601f19601f8201168201806040525081019061098a9190611046565b508273ffffffffffffffffffffffffffffffffffffffff163373ffffffffffffffffffffffffffffffffffffffff167fd1c19fbcd4551a5edfb66d43d2e337c04837afda3482b42bdf569a8fccdae5fb846040516109e89190610d43565b60405180910390a3506109f9610a43565b5050565b600260015403610a39576040517f3ee5aeb500000000000000000000000000000000000000000000000000000000815260040160405180910390fd5b6002600181905550565b60018081905550565b610a54610b94565b73ffffffffffffffffffffffffffffffffffffffff16610a726105e8565b73ffffffffffffffffffffffffffffffffffffffff1614610ad157610a95610b94565b6040517f118cdaa7000000000000000000000000000000000000000000000000000000008152600401610ac89190610cdd565b60405180910390fd5b565b5f5f5f9054906101000a900473ffffffffffffffffffffffffffffffffffffffff169050815f5f6101000a81548173ffffffffffffffffffffffffffffffffffffffff021916908373ffffffffffffffffffffffffffffffffffffffff1602179055508173ffffffffffffffffffffffffffffffffffffffff168173ffffffffffffffffffffffffffffffffffffffff167f8be0079c531659141344cd1fd0a4f28419497f9722a3daafe3b4186f6b6457e060405160405180910390a35050565b5f33905090565b5f5ffd5b5f73ffffffffffffffffffffffffffffffffffffffff82169050919050565b5f610bc882610b9f565b9050919050565b610bd881610bbe565b8114610be2575f5ffd5b50565b5f81359050610bf381610bcf565b92915050565b5f819050919050565b610c0b81610bf9565b8114610c15575f5ffd5b50565b5f81359050610c2681610c02565b92915050565b5f5f5f5f60808587031215610c4457610c43610b9b565b5b5f610c5187828801610be5565b9450506020610c6287828801610be5565b9350506040610c7387828801610be5565b9250506060610c8487828801610c18565b91505092959194509250565b5f5f60408385031215610ca657610ca5610b9b565b5b5f610cb385828601610be5565b9250506020610cc485828601610c18565b9150509250929050565b610cd781610bbe565b82525050565b5f602082019050610cf05f830184610cce565b92915050565b5f5f60408385031215610d0c57610d0b610b9b565b5b5f610d1985828601610be5565b9250506020610d2a85828601610be5565b9150509250929050565b610d3d81610bf9565b82525050565b5f602082019050610d565f830184610d34565b92915050565b5f60208284031215610d7157610d70610b9b565b5b5f610d7e84828501610be5565b91505092915050565b5f8115159050919050565b610d9b81610d87565b82525050565b5f602082019050610db45f830184610d92565b92915050565b610dc381610d87565b8114610dcd575f5ffd5b50565b5f81359050610dde81610dba565b92915050565b5f5f60408385031215610dfa57610df9610b9b565b5b5f610e0785828601610be5565b9250506020610e1885828601610dd0565b9150509250929050565b5f82825260208201905092915050565b7f4e6f7420616e20617574686f72697a656420636f6e74726163740000000000005f82015250565b5f610e66601a83610e22565b9150610e7182610e32565b602082019050919050565b5f6020820190508181035f830152610e9381610e5a565b9050919050565b7f496e73756666696369656e7420696e7465726e616c2062616c616e63650000005f82015250565b5f610ece601d83610e22565b9150610ed982610e9a565b602082019050919050565b5f6020820190508181035f830152610efb81610ec2565b9050919050565b7f4e487b71000000000000000000000000000000000000000000000000000000005f52601160045260245ffd5b5f610f3982610bf9565b9150610f4483610bf9565b9250828203905081811115610f5c57610f5b610f02565b5b92915050565b5f610f6c82610bf9565b9150610f7783610bf9565b9250828201905080821115610f8f57610f8e610f02565b5b92915050565b7f416d6f756e74206d7573742062652067726561746572207468616e20300000005f82015250565b5f610fc9601d83610e22565b9150610fd482610f95565b602082019050919050565b5f6020820190508181035f830152610ff681610fbd565b9050919050565b5f6060820190506110105f830186610cce565b61101d6020830185610cce565b61102a6040830184610d34565b949350505050565b5f8151905061104081610dba565b92915050565b5f6020828403121561105b5761105a610b9b565b5b5f61106884828501611032565b91505092915050565b7f496e73756666696369656e742062616c616e63650000000000000000000000005f82015250565b5f6110a5601483610e22565b91506110b082611071565b602082019050919050565b5f6020820190508181035f8301526110d281611099565b9050919050565b5f6040820190506110ec5f830185610cce565b6110f96020830184610d34565b939250505056fea26469706673582212200109c6da180791aed4fd804bf69008c6a29df60f3749ea9ee1fcf3bb89ca6f5164736f6c634300081e0033",
					"opcodes": "PUSH1 0x80 PUSH1 0x40 MSTORE CALLVALUE DUP1 ISZERO PUSH2 0xF JUMPI PUSH0 PUSH0 REVERT JUMPDEST POP CALLER PUSH0 PUSH20 0xFFFFFFFFFFFFFFFFFFFFFFFFFFFFFFFFFFFFFFFF AND DUP2 PUSH20 0xFFFFFFFFFFFFFFFFFFFFFFFFFFFFFFFFFFFFFFFF AND SUB PUSH2 0x81 JUMPI PUSH0 PUSH1 0x40 MLOAD PUSH32 0x1E4FBDF700000000000000000000000000000000000000000000000000000000 DUP2 MSTORE PUSH1 0x4 ADD PUSH2 0x78 SWAP2 SWAP1 PUSH2 0x19D JUMP JUMPDEST PUSH1 0x40 MLOAD DUP1 SWAP2 SUB SWAP1 REVERT JUMPDEST PUSH2 0x90 DUP2 PUSH2 0x9D PUSH1 0x20 SHL PUSH1 0x20 SHR JUMP JUMPDEST POP PUSH1 0x1 DUP1 DUP2 SWAP1 SSTORE POP PUSH2 0x1B6 JUMP JUMPDEST PUSH0 PUSH0 PUSH0 SWAP1 SLOAD SWAP1 PUSH2 0x100 EXP SWAP1 DIV PUSH20 0xFFFFFFFFFFFFFFFFFFFFFFFFFFFFFFFFFFFFFFFF AND SWAP1 POP DUP2 PUSH0 PUSH0 PUSH2 0x100 EXP DUP2 SLOAD DUP2 PUSH20 0xFFFFFFFFFFFFFFFFFFFFFFFFFFFFFFFFFFFFFFFF MUL NOT AND SWAP1 DUP4 PUSH20 0xFFFFFFFFFFFFFFFFFFFFFFFFFFFFFFFFFFFFFFFF AND MUL OR SWAP1 SSTORE POP DUP2 PUSH20 0xFFFFFFFFFFFFFFFFFFFFFFFFFFFFFFFFFFFFFFFF AND DUP2 PUSH20 0xFFFFFFFFFFFFFFFFFFFFFFFFFFFFFFFFFFFFFFFF AND PUSH32 0x8BE0079C531659141344CD1FD0A4F28419497F9722A3DAAFE3B4186F6B6457E0 PUSH1 0x40 MLOAD PUSH1 0x40 MLOAD DUP1 SWAP2 SUB SWAP1 LOG3 POP POP JUMP JUMPDEST PUSH0 PUSH20 0xFFFFFFFFFFFFFFFFFFFFFFFFFFFFFFFFFFFFFFFF DUP3 AND SWAP1 POP SWAP2 SWAP1 POP JUMP JUMPDEST PUSH0 PUSH2 0x187 DUP3 PUSH2 0x15E JUMP JUMPDEST SWAP1 POP SWAP2 SWAP1 POP JUMP JUMPDEST PUSH2 0x197 DUP2 PUSH2 0x17D JUMP JUMPDEST DUP3 MSTORE POP POP JUMP JUMPDEST PUSH0 PUSH1 0x20 DUP3 ADD SWAP1 POP PUSH2 0x1B0 PUSH0 DUP4 ADD DUP5 PUSH2 0x18E JUMP JUMPDEST SWAP3 SWAP2 POP POP JUMP JUMPDEST PUSH2 0x1136 DUP1 PUSH2 0x1C3 PUSH0 CODECOPY PUSH0 RETURN INVALID PUSH1 0x80 PUSH1 0x40 MSTORE CALLVALUE DUP1 ISZERO PUSH2 0xF JUMPI PUSH0 PUSH0 REVERT JUMPDEST POP PUSH1 0x4 CALLDATASIZE LT PUSH2 0x91 JUMPI PUSH0 CALLDATALOAD PUSH1 0xE0 SHR DUP1 PUSH4 0xC23F001F GT PUSH2 0x64 JUMPI DUP1 PUSH4 0xC23F001F EQ PUSH2 0xF5 JUMPI DUP1 PUSH4 0xD5B9221B EQ PUSH2 0x125 JUMPI DUP1 PUSH4 0xF2FA7392 EQ PUSH2 0x155 JUMPI DUP1 PUSH4 0xF2FDE38B EQ PUSH2 0x171 JUMPI DUP1 PUSH4 0xF3FEF3A3 EQ PUSH2 0x18D JUMPI PUSH2 0x91 JUMP JUMPDEST DUP1 PUSH4 0x44A29E2A EQ PUSH2 0x95 JUMPI DUP1 PUSH4 0x47E7EF24 EQ PUSH2 0xB1 JUMPI DUP1 PUSH4 0x715018A6 EQ PUSH2 0xCD JUMPI DUP1 PUSH4 0x8DA5CB5B EQ PUSH2 0xD7 JUMPI JUMPDEST PUSH0 PUSH0 REVERT JUMPDEST PUSH2 0xAF PUSH1 0x4 DUP1 CALLDATASIZE SUB DUP2 ADD SWAP1 PUSH2 0xAA SWAP2 SWAP1 PUSH2 0xC2C JUMP JUMPDEST PUSH2 0x1A9 JUMP JUMPDEST STOP JUMPDEST PUSH2 0xCB PUSH1 0x4 DUP1 CALLDATASIZE SUB DUP2 ADD SWAP1 PUSH2 0xC6 SWAP2 SWAP1 PUSH2 0xC90 JUMP JUMPDEST PUSH2 0x40E JUMP JUMPDEST STOP JUMPDEST PUSH2 0xD5 PUSH2 0x5D5 JUMP JUMPDEST STOP JUMPDEST PUSH2 0xDF PUSH2 0x5E8 JUMP JUMPDEST PUSH1 0x40 MLOAD PUSH2 0xEC SWAP2 SWAP1 PUSH2 0xCDD JUMP JUMPDEST PUSH1 0x40 MLOAD DUP1 SWAP2 SUB SWAP1 RETURN JUMPDEST PUSH2 0x10F PUSH1 0x4 DUP1 CALLDATASIZE SUB DUP2 ADD SWAP1 PUSH2 0x10A SWAP2 SWAP1 PUSH2 0xCF6 JUMP JUMPDEST PUSH2 0x60F JUMP JUMPDEST PUSH1 0x40 MLOAD PUSH2 0x11C SWAP2 SWAP1 PUSH2 0xD43 JUMP JUMPDEST PUSH1 0x40 MLOAD DUP1 SWAP2 SUB SWAP1 RETURN JUMPDEST PUSH2 0x13F PUSH1 0x4 DUP1 CALLDATASIZE SUB DUP2 ADD SWAP1 PUSH2 0x13A SWAP2 SWAP1 PUSH2 0xD5C JUMP JUMPDEST PUSH2 0x62F JUMP JUMPDEST PUSH1 0x40 MLOAD PUSH2 0x14C SWAP2 SWAP1 PUSH2 0xDA1 JUMP JUMPDEST PUSH1 0x40 MLOAD DUP1 SWAP2 SUB SWAP1 RETURN JUMPDEST PUSH2 0x16F PUSH1 0x4 DUP1 CALLDATASIZE SUB DUP2 ADD SWAP1 PUSH2 0x16A SWAP2 SWAP1 PUSH2 0xDE4 JUMP JUMPDEST PUSH2 0x64C JUMP JUMPDEST STOP JUMPDEST PUSH2 0x18B PUSH1 0x4 DUP1 CALLDATASIZE SUB DUP2 ADD SWAP1 PUSH2 0x186 SWAP2 SWAP1 PUSH2 0xD5C JUMP JUMPDEST PUSH2 0x6FA JUMP JUMPDEST STOP JUMPDEST PUSH2 0x1A7 PUSH1 0x4 DUP1 CALLDATASIZE SUB DUP2 ADD SWAP1 PUSH2 0x1A2 SWAP2 SWAP1 PUSH2 0xC90 JUMP JUMPDEST PUSH2 0x77E JUMP JUMPDEST STOP JUMPDEST PUSH1 0x3 PUSH0 CALLER PUSH20 0xFFFFFFFFFFFFFFFFFFFFFFFFFFFFFFFFFFFFFFFF AND PUSH20 0xFFFFFFFFFFFFFFFFFFFFFFFFFFFFFFFFFFFFFFFF AND DUP2 MSTORE PUSH1 0x20 ADD SWAP1 DUP2 MSTORE PUSH1 0x20 ADD PUSH0 KECCAK256 PUSH0 SWAP1 SLOAD SWAP1 PUSH2 0x100 EXP SWAP1 DIV PUSH1 0xFF AND PUSH2 0x232 JUMPI PUSH1 0x40 MLOAD PUSH32 0x8C379A000000000000000000000000000000000000000000000000000000000 DUP2 MSTORE PUSH1 0x4 ADD PUSH2 0x229 SWAP1 PUSH2 0xE7C JUMP JUMPDEST PUSH1 0x40 MLOAD DUP1 SWAP2 SUB SWAP1 REVERT JUMPDEST PUSH0 PUSH1 0x2 PUSH0 DUP7 PUSH20 0xFFFFFFFFFFFFFFFFFFFFFFFFFFFFFFFFFFFFFFFF AND PUSH20 0xFFFFFFFFFFFFFFFFFFFFFFFFFFFFFFFFFFFFFFFF AND DUP2 MSTORE PUSH1 0x20 ADD SWAP1 DUP2 MSTORE PUSH1 0x20 ADD PUSH0 KECCAK256 PUSH0 DUP6 PUSH20 0xFFFFFFFFFFFFFFFFFFFFFFFFFFFFFFFFFFFFFFFF AND PUSH20 0xFFFFFFFFFFFFFFFFFFFFFFFFFFFFFFFFFFFFFFFF AND DUP2 MSTORE PUSH1 0x20 ADD SWAP1 DUP2 MSTORE PUSH1 0x20 ADD PUSH0 KECCAK256 SLOAD SWAP1 POP DUP2 DUP2 LT ISZERO PUSH2 0x2F1 JUMPI PUSH1 0x40 MLOAD PUSH32 0x8C379A000000000000000000000000000000000000000000000000000000000 DUP2 MSTORE PUSH1 0x4 ADD PUSH2 0x2E8 SWAP1 PUSH2 0xEE4 JUMP JUMPDEST PUSH1 0x40 MLOAD DUP1 SWAP2 SUB SWAP1 REVERT JUMPDEST DUP2 DUP2 PUSH2 0x2FD SWAP2 SWAP1 PUSH2 0xF2F JUMP JUMPDEST PUSH1 0x2 PUSH0 DUP8 PUSH20 0xFFFFFFFFFFFFFFFFFFFFFFFFFFFFFFFFFFFFFFFF AND PUSH20 0xFFFFFFFFFFFFFFFFFFFFFFFFFFFFFFFFFFFFFFFF AND DUP2 MSTORE PUSH1 0x20 ADD SWAP1 DUP2 MSTORE PUSH1 0x20 ADD PUSH0 KECCAK256 PUSH0 DUP7 PUSH20 0xFFFFFFFFFFFFFFFFFFFFFFFFFFFFFFFFFFFFFFFF AND PUSH20 0xFFFFFFFFFFFFFFFFFFFFFFFFFFFFFFFFFFFFFFFF AND DUP2 MSTORE PUSH1 0x20 ADD SWAP1 DUP2 MSTORE PUSH1 0x20 ADD PUSH0 KECCAK256 DUP2 SWAP1 SSTORE POP DUP2 PUSH1 0x2 PUSH0 DUP8 PUSH20 0xFFFFFFFFFFFFFFFFFFFFFFFFFFFFFFFFFFFFFFFF AND PUSH20 0xFFFFFFFFFFFFFFFFFFFFFFFFFFFFFFFFFFFFFFFF AND DUP2 MSTORE PUSH1 0x20 ADD SWAP1 DUP2 MSTORE PUSH1 0x20 ADD PUSH0 KECCAK256 PUSH0 DUP6 PUSH20 0xFFFFFFFFFFFFFFFFFFFFFFFFFFFFFFFFFFFFFFFF AND PUSH20 0xFFFFFFFFFFFFFFFFFFFFFFFFFFFFFFFFFFFFFFFF AND DUP2 MSTORE PUSH1 0x20 ADD SWAP1 DUP2 MSTORE PUSH1 0x20 ADD PUSH0 KECCAK256 PUSH0 DUP3 DUP3 SLOAD PUSH2 0x400 SWAP2 SWAP1 PUSH2 0xF62 JUMP JUMPDEST SWAP3 POP POP DUP2 SWAP1 SSTORE POP POP POP POP POP POP JUMP JUMPDEST PUSH2 0x416 PUSH2 0x9FD JUMP JUMPDEST PUSH0 DUP2 GT PUSH2 0x458 JUMPI PUSH1 0x40 MLOAD PUSH32 0x8C379A000000000000000000000000000000000000000000000000000000000 DUP2 MSTORE PUSH1 0x4 ADD PUSH2 0x44F SWAP1 PUSH2 0xFDF JUMP JUMPDEST PUSH1 0x40 MLOAD DUP1 SWAP2 SUB SWAP1 REVERT JUMPDEST DUP1 PUSH1 0x2 PUSH0 DUP5 PUSH20 0xFFFFFFFFFFFFFFFFFFFFFFFFFFFFFFFFFFFFFFFF AND PUSH20 0xFFFFFFFFFFFFFFFFFFFFFFFFFFFFFFFFFFFFFFFF AND DUP2 MSTORE PUSH1 0x20 ADD SWAP1 DUP2 MSTORE PUSH1 0x20 ADD PUSH0 KECCAK256 PUSH0 CALLER PUSH20 0xFFFFFFFFFFFFFFFFFFFFFFFFFFFFFFFFFFFFFFFF AND PUSH20 0xFFFFFFFFFFFFFFFFFFFFFFFFFFFFFFFFFFFFFFFF AND DUP2 MSTORE PUSH1 0x20 ADD SWAP1 DUP2 MSTORE PUSH1 0x20 ADD PUSH0 KECCAK256 PUSH0 DUP3 DUP3 SLOAD PUSH2 0x4DF SWAP2 SWAP1 PUSH2 0xF62 JUMP JUMPDEST SWAP3 POP POP DUP2 SWAP1 SSTORE POP DUP2 PUSH20 0xFFFFFFFFFFFFFFFFFFFFFFFFFFFFFFFFFFFFFFFF AND PUSH4 0x23B872DD CALLER ADDRESS DUP5 PUSH1 0x40 MLOAD DUP5 PUSH4 0xFFFFFFFF AND PUSH1 0xE0 SHL DUP2 MSTORE PUSH1 0x4 ADD PUSH2 0x523 SWAP4 SWAP3 SWAP2 SWAP1 PUSH2 0xFFD JUMP JUMPDEST PUSH1 0x20 PUSH1 0x40 MLOAD DUP1 DUP4 SUB DUP2 PUSH0 DUP8 GAS CALL ISZERO DUP1 ISZERO PUSH2 0x53F JUMPI RETURNDATASIZE PUSH0 PUSH0 RETURNDATACOPY RETURNDATASIZE PUSH0 REVERT JUMPDEST POP POP POP POP PUSH1 0x40 MLOAD RETURNDATASIZE PUSH1 0x1F NOT PUSH1 0x1F DUP3 ADD AND DUP3 ADD DUP1 PUSH1 0x40 MSTORE POP DUP2 ADD SWAP1 PUSH2 0x563 SWAP2 SWAP1 PUSH2 0x1046 JUMP JUMPDEST POP DUP2 PUSH20 0xFFFFFFFFFFFFFFFFFFFFFFFFFFFFFFFFFFFFFFFF AND CALLER PUSH20 0xFFFFFFFFFFFFFFFFFFFFFFFFFFFFFFFFFFFFFFFF AND PUSH32 0x8752A472E571A816AEA92EEC8DAE9BAF628E840F4929FBCC2D155E6233FF68A7 DUP4 PUSH1 0x40 MLOAD PUSH2 0x5C1 SWAP2 SWAP1 PUSH2 0xD43 JUMP JUMPDEST PUSH1 0x40 MLOAD DUP1 SWAP2 SUB SWAP1 LOG3 PUSH2 0x5D1 PUSH2 0xA43 JUMP JUMPDEST POP POP JUMP JUMPDEST PUSH2 0x5DD PUSH2 0xA4C JUMP JUMPDEST PUSH2 0x5E6 PUSH0 PUSH2 0xAD3 JUMP JUMPDEST JUMP JUMPDEST PUSH0 PUSH0 PUSH0 SWAP1 SLOAD SWAP1 PUSH2 0x100 EXP SWAP1 DIV PUSH20 0xFFFFFFFFFFFFFFFFFFFFFFFFFFFFFFFFFFFFFFFF AND SWAP1 POP SWAP1 JUMP JUMPDEST PUSH1 0x2 PUSH1 0x20 MSTORE DUP2 PUSH0 MSTORE PUSH1 0x40 PUSH0 KECCAK256 PUSH1 0x20 MSTORE DUP1 PUSH0 MSTORE PUSH1 0x40 PUSH0 KECCAK256 PUSH0 SWAP2 POP SWAP2 POP POP SLOAD DUP2 JUMP JUMPDEST PUSH1 0x3 PUSH1 0x20 MSTORE DUP1 PUSH0 MSTORE PUSH1 0x40 PUSH0 KECCAK256 PUSH0 SWAP2 POP SLOAD SWAP1 PUSH2 0x100 EXP SWAP1 DIV PUSH1 0xFF AND DUP2 JUMP JUMPDEST PUSH2 0x654 PUSH2 0xA4C JUMP JUMPDEST DUP1 PUSH1 0x3 PUSH0 DUP5 PUSH20 0xFFFFFFFFFFFFFFFFFFFFFFFFFFFFFFFFFFFFFFFF AND PUSH20 0xFFFFFFFFFFFFFFFFFFFFFFFFFFFFFFFFFFFFFFFF AND DUP2 MSTORE PUSH1 0x20 ADD SWAP1 DUP2 MSTORE PUSH1 0x20 ADD PUSH0 KECCAK256 PUSH0 PUSH2 0x100 EXP DUP2 SLOAD DUP2 PUSH1 0xFF MUL NOT AND SWAP1 DUP4 ISZERO ISZERO MUL OR SWAP1 SSTORE POP DUP2 PUSH20 0xFFFFFFFFFFFFFFFFFFFFFFFFFFFFFFFFFFFFFFFF AND PUSH32 0x7109EBC5424980770410D6B76DE5165AED9A328BCA745F09E7F7E18DEFFA682C DUP3 PUSH1 0x40 MLOAD PUSH2 0x6EE SWAP2 SWAP1 PUSH2 0xDA1 JUMP JUMPDEST PUSH1 0x40 MLOAD DUP1 SWAP2 SUB SWAP1 LOG2 POP POP JUMP JUMPDEST PUSH2 0x702 PUSH2 0xA4C JUMP JUMPDEST PUSH0 PUSH20 0xFFFFFFFFFFFFFFFFFFFFFFFFFFFFFFFFFFFFFFFF AND DUP2 PUSH20 0xFFFFFFFFFFFFFFFFFFFFFFFFFFFFFFFFFFFFFFFF AND SUB PUSH2 0x772 JUMPI PUSH0 PUSH1 0x40 MLOAD PUSH32 0x1E4FBDF700000000000000000000000000000000000000000000000000000000 DUP2 MSTORE PUSH1 0x4 ADD PUSH2 0x769 SWAP2 SWAP1 PUSH2 0xCDD JUMP JUMPDEST PUSH1 0x40 MLOAD DUP1 SWAP2 SUB SWAP1 REVERT JUMPDEST PUSH2 0x77B DUP2 PUSH2 0xAD3 JUMP JUMPDEST POP JUMP JUMPDEST PUSH2 0x786 PUSH2 0x9FD JUMP JUMPDEST PUSH0 DUP2 GT PUSH2 0x7C8 JUMPI PUSH1 0x40 MLOAD PUSH32 0x8C379A000000000000000000000000000000000000000000000000000000000 DUP2 MSTORE PUSH1 0x4 ADD PUSH2 0x7BF SWAP1 PUSH2 0xFDF JUMP JUMPDEST PUSH1 0x40 MLOAD DUP1 SWAP2 SUB SWAP1 REVERT JUMPDEST PUSH0 PUSH1 0x2 PUSH0 DUP5 PUSH20 0xFFFFFFFFFFFFFFFFFFFFFFFFFFFFFFFFFFFFFFFF AND PUSH20 0xFFFFFFFFFFFFFFFFFFFFFFFFFFFFFFFFFFFFFFFF AND DUP2 MSTORE PUSH1 0x20 ADD SWAP1 DUP2 MSTORE PUSH1 0x20 ADD PUSH0 KECCAK256 PUSH0 CALLER PUSH20 0xFFFFFFFFFFFFFFFFFFFFFFFFFFFFFFFFFFFFFFFF AND PUSH20 0xFFFFFFFFFFFFFFFFFFFFFFFFFFFFFFFFFFFFFFFF AND DUP2 MSTORE PUSH1 0x20 ADD SWAP1 DUP2 MSTORE PUSH1 0x20 ADD PUSH0 KECCAK256 SLOAD SWAP1 POP DUP2 DUP2 LT ISZERO PUSH2 0x887 JUMPI PUSH1 0x40 MLOAD PUSH32 0x8C379A000000000000000000000000000000000000000000000000000000000 DUP2 MSTORE PUSH1 0x4 ADD PUSH2 0x87E SWAP1 PUSH2 0x10BB JUMP JUMPDEST PUSH1 0x40 MLOAD DUP1 SWAP2 SUB SWAP1 REVERT JUMPDEST DUP2 DUP2 PUSH2 0x893 SWAP2 SWAP1 PUSH2 0xF2F JUMP JUMPDEST PUSH1 0x2 PUSH0 DUP6 PUSH20 0xFFFFFFFFFFFFFFFFFFFFFFFFFFFFFFFFFFFFFFFF AND PUSH20 0xFFFFFFFFFFFFFFFFFFFFFFFFFFFFFFFFFFFFFFFF AND DUP2 MSTORE PUSH1 0x20 ADD SWAP1 DUP2 MSTORE PUSH1 0x20 ADD PUSH0 KECCAK256 PUSH0 CALLER PUSH20 0xFFFFFFFFFFFFFFFFFFFFFFFFFFFFFFFFFFFFFFFF AND PUSH20 0xFFFFFFFFFFFFFFFFFFFFFFFFFFFFFFFFFFFFFFFF AND DUP2 MSTORE PUSH1 0x20 ADD SWAP1 DUP2 MSTORE PUSH1 0x20 ADD PUSH0 KECCAK256 DUP2 SWAP1 SSTORE POP DUP3 PUSH20 0xFFFFFFFFFFFFFFFFFFFFFFFFFFFFFFFFFFFFFFFF AND PUSH4 0xA9059CBB CALLER DUP5 PUSH1 0x40 MLOAD DUP4 PUSH4 0xFFFFFFFF AND PUSH1 0xE0 SHL DUP2 MSTORE PUSH1 0x4 ADD PUSH2 0x94A SWAP3 SWAP2 SWAP1 PUSH2 0x10D9 JUMP JUMPDEST PUSH1 0x20 PUSH1 0x40 MLOAD DUP1 DUP4 SUB DUP2 PUSH0 DUP8 GAS CALL ISZERO DUP1 ISZERO PUSH2 0x966 JUMPI RETURNDATASIZE PUSH0 PUSH0 RETURNDATACOPY RETURNDATASIZE PUSH0 REVERT JUMPDEST POP POP POP POP PUSH1 0x40 MLOAD RETURNDATASIZE PUSH1 0x1F NOT PUSH1 0x1F DUP3 ADD AND DUP3 ADD DUP1 PUSH1 0x40 MSTORE POP DUP2 ADD SWAP1 PUSH2 0x98A SWAP2 SWAP1 PUSH2 0x1046 JUMP JUMPDEST POP DUP3 PUSH20 0xFFFFFFFFFFFFFFFFFFFFFFFFFFFFFFFFFFFFFFFF AND CALLER PUSH20 0xFFFFFFFFFFFFFFFFFFFFFFFFFFFFFFFFFFFFFFFF AND PUSH32 0xD1C19FBCD4551A5EDFB66D43D2E337C04837AFDA3482B42BDF569A8FCCDAE5FB DUP5 PUSH1 0x40 MLOAD PUSH2 0x9E8 SWAP2 SWAP1 PUSH2 0xD43 JUMP JUMPDEST PUSH1 0x40 MLOAD DUP1 SWAP2 SUB SWAP1 LOG3 POP PUSH2 0x9F9 PUSH2 0xA43 JUMP JUMPDEST POP POP JUMP JUMPDEST PUSH1 0x2 PUSH1 0x1 SLOAD SUB PUSH2 0xA39 JUMPI PUSH1 0x40 MLOAD PUSH32 0x3EE5AEB500000000000000000000000000000000000000000000000000000000 DUP2 MSTORE PUSH1 0x4 ADD PUSH1 0x40 MLOAD DUP1 SWAP2 SUB SWAP1 REVERT JUMPDEST PUSH1 0x2 PUSH1 0x1 DUP2 SWAP1 SSTORE POP JUMP JUMPDEST PUSH1 0x1 DUP1 DUP2 SWAP1 SSTORE POP JUMP JUMPDEST PUSH2 0xA54 PUSH2 0xB94 JUMP JUMPDEST PUSH20 0xFFFFFFFFFFFFFFFFFFFFFFFFFFFFFFFFFFFFFFFF AND PUSH2 0xA72 PUSH2 0x5E8 JUMP JUMPDEST PUSH20 0xFFFFFFFFFFFFFFFFFFFFFFFFFFFFFFFFFFFFFFFF AND EQ PUSH2 0xAD1 JUMPI PUSH2 0xA95 PUSH2 0xB94 JUMP JUMPDEST PUSH1 0x40 MLOAD PUSH32 0x118CDAA700000000000000000000000000000000000000000000000000000000 DUP2 MSTORE PUSH1 0x4 ADD PUSH2 0xAC8 SWAP2 SWAP1 PUSH2 0xCDD JUMP JUMPDEST PUSH1 0x40 MLOAD DUP1 SWAP2 SUB SWAP1 REVERT JUMPDEST JUMP JUMPDEST PUSH0 PUSH0 PUSH0 SWAP1 SLOAD SWAP1 PUSH2 0x100 EXP SWAP1 DIV PUSH20 0xFFFFFFFFFFFFFFFFFFFFFFFFFFFFFFFFFFFFFFFF AND SWAP1 POP DUP2 PUSH0 PUSH0 PUSH2 0x100 EXP DUP2 SLOAD DUP2 PUSH20 0xFFFFFFFFFFFFFFFFFFFFFFFFFFFFFFFFFFFFFFFF MUL NOT AND SWAP1 DUP4 PUSH20 0xFFFFFFFFFFFFFFFFFFFFFFFFFFFFFFFFFFFFFFFF AND MUL OR SWAP1 SSTORE POP DUP2 PUSH20 0xFFFFFFFFFFFFFFFFFFFFFFFFFFFFFFFFFFFFFFFF AND DUP2 PUSH20 0xFFFFFFFFFFFFFFFFFFFFFFFFFFFFFFFFFFFFFFFF AND PUSH32 0x8BE0079C531659141344CD1FD0A4F28419497F9722A3DAAFE3B4186F6B6457E0 PUSH1 0x40 MLOAD PUSH1 0x40 MLOAD DUP1 SWAP2 SUB SWAP1 LOG3 POP POP JUMP JUMPDEST PUSH0 CALLER SWAP1 POP SWAP1 JUMP JUMPDEST PUSH0 PUSH0 REVERT JUMPDEST PUSH0 PUSH20 0xFFFFFFFFFFFFFFFFFFFFFFFFFFFFFFFFFFFFFFFF DUP3 AND SWAP1 POP SWAP2 SWAP1 POP JUMP JUMPDEST PUSH0 PUSH2 0xBC8 DUP3 PUSH2 0xB9F JUMP JUMPDEST SWAP1 POP SWAP2 SWAP1 POP JUMP JUMPDEST PUSH2 0xBD8 DUP2 PUSH2 0xBBE JUMP JUMPDEST DUP2 EQ PUSH2 0xBE2 JUMPI PUSH0 PUSH0 REVERT JUMPDEST POP JUMP JUMPDEST PUSH0 DUP2 CALLDATALOAD SWAP1 POP PUSH2 0xBF3 DUP2 PUSH2 0xBCF JUMP JUMPDEST SWAP3 SWAP2 POP POP JUMP JUMPDEST PUSH0 DUP2 SWAP1 POP SWAP2 SWAP1 POP JUMP JUMPDEST PUSH2 0xC0B DUP2 PUSH2 0xBF9 JUMP JUMPDEST DUP2 EQ PUSH2 0xC15 JUMPI PUSH0 PUSH0 REVERT JUMPDEST POP JUMP JUMPDEST PUSH0 DUP2 CALLDATALOAD SWAP1 POP PUSH2 0xC26 DUP2 PUSH2 0xC02 JUMP JUMPDEST SWAP3 SWAP2 POP POP JUMP JUMPDEST PUSH0 PUSH0 PUSH0 PUSH0 PUSH1 0x80 DUP6 DUP8 SUB SLT ISZERO PUSH2 0xC44 JUMPI PUSH2 0xC43 PUSH2 0xB9B JUMP JUMPDEST JUMPDEST PUSH0 PUSH2 0xC51 DUP8 DUP3 DUP9 ADD PUSH2 0xBE5 JUMP JUMPDEST SWAP5 POP POP PUSH1 0x20 PUSH2 0xC62 DUP8 DUP3 DUP9 ADD PUSH2 0xBE5 JUMP JUMPDEST SWAP4 POP POP PUSH1 0x40 PUSH2 0xC73 DUP8 DUP3 DUP9 ADD PUSH2 0xBE5 JUMP JUMPDEST SWAP3 POP POP PUSH1 0x60 PUSH2 0xC84 DUP8 DUP3 DUP9 ADD PUSH2 0xC18 JUMP JUMPDEST SWAP2 POP POP SWAP3 SWAP6 SWAP2 SWAP5 POP SWAP3 POP JUMP JUMPDEST PUSH0 PUSH0 PUSH1 0x40 DUP4 DUP6 SUB SLT ISZERO PUSH2 0xCA6 JUMPI PUSH2 0xCA5 PUSH2 0xB9B JUMP JUMPDEST JUMPDEST PUSH0 PUSH2 0xCB3 DUP6 DUP3 DUP7 ADD PUSH2 0xBE5 JUMP JUMPDEST SWAP3 POP POP PUSH1 0x20 PUSH2 0xCC4 DUP6 DUP3 DUP7 ADD PUSH2 0xC18 JUMP JUMPDEST SWAP2 POP POP SWAP3 POP SWAP3 SWAP1 POP JUMP JUMPDEST PUSH2 0xCD7 DUP2 PUSH2 0xBBE JUMP JUMPDEST DUP3 MSTORE POP POP JUMP JUMPDEST PUSH0 PUSH1 0x20 DUP3 ADD SWAP1 POP PUSH2 0xCF0 PUSH0 DUP4 ADD DUP5 PUSH2 0xCCE JUMP JUMPDEST SWAP3 SWAP2 POP POP JUMP JUMPDEST PUSH0 PUSH0 PUSH1 0x40 DUP4 DUP6 SUB SLT ISZERO PUSH2 0xD0C JUMPI PUSH2 0xD0B PUSH2 0xB9B JUMP JUMPDEST JUMPDEST PUSH0 PUSH2 0xD19 DUP6 DUP3 DUP7 ADD PUSH2 0xBE5 JUMP JUMPDEST SWAP3 POP POP PUSH1 0x20 PUSH2 0xD2A DUP6 DUP3 DUP7 ADD PUSH2 0xBE5 JUMP JUMPDEST SWAP2 POP POP SWAP3 POP SWAP3 SWAP1 POP JUMP JUMPDEST PUSH2 0xD3D DUP2 PUSH2 0xBF9 JUMP JUMPDEST DUP3 MSTORE POP POP JUMP JUMPDEST PUSH0 PUSH1 0x20 DUP3 ADD SWAP1 POP PUSH2 0xD56 PUSH0 DUP4 ADD DUP5 PUSH2 0xD34 JUMP JUMPDEST SWAP3 SWAP2 POP POP JUMP JUMPDEST PUSH0 PUSH1 0x20 DUP3 DUP5 SUB SLT ISZERO PUSH2 0xD71 JUMPI PUSH2 0xD70 PUSH2 0xB9B JUMP JUMPDEST JUMPDEST PUSH0 PUSH2 0xD7E DUP5 DUP3 DUP6 ADD PUSH2 0xBE5 JUMP JUMPDEST SWAP2 POP POP SWAP3 SWAP2 POP POP JUMP JUMPDEST PUSH0 DUP2 ISZERO ISZERO SWAP1 POP SWAP2 SWAP1 POP JUMP JUMPDEST PUSH2 0xD9B DUP2 PUSH2 0xD87 JUMP JUMPDEST DUP3 MSTORE POP POP JUMP JUMPDEST PUSH0 PUSH1 0x20 DUP3 ADD SWAP1 POP PUSH2 0xDB4 PUSH0 DUP4 ADD DUP5 PUSH2 0xD92 JUMP JUMPDEST SWAP3 SWAP2 POP POP JUMP JUMPDEST PUSH2 0xDC3 DUP2 PUSH2 0xD87 JUMP JUMPDEST DUP2 EQ PUSH2 0xDCD JUMPI PUSH0 PUSH0 REVERT JUMPDEST POP JUMP JUMPDEST PUSH0 DUP2 CALLDATALOAD SWAP1 POP PUSH2 0xDDE DUP2 PUSH2 0xDBA JUMP JUMPDEST SWAP3 SWAP2 POP POP JUMP JUMPDEST PUSH0 PUSH0 PUSH1 0x40 DUP4 DUP6 SUB SLT ISZERO PUSH2 0xDFA JUMPI PUSH2 0xDF9 PUSH2 0xB9B JUMP JUMPDEST JUMPDEST PUSH0 PUSH2 0xE07 DUP6 DUP3 DUP7 ADD PUSH2 0xBE5 JUMP JUMPDEST SWAP3 POP POP PUSH1 0x20 PUSH2 0xE18 DUP6 DUP3 DUP7 ADD PUSH2 0xDD0 JUMP JUMPDEST SWAP2 POP POP SWAP3 POP SWAP3 SWAP1 POP JUMP JUMPDEST PUSH0 DUP3 DUP3 MSTORE PUSH1 0x20 DUP3 ADD SWAP1 POP SWAP3 SWAP2 POP POP JUMP JUMPDEST PUSH32 0x4E6F7420616E20617574686F72697A656420636F6E7472616374000000000000 PUSH0 DUP3 ADD MSTORE POP JUMP JUMPDEST PUSH0 PUSH2 0xE66 PUSH1 0x1A DUP4 PUSH2 0xE22 JUMP JUMPDEST SWAP2 POP PUSH2 0xE71 DUP3 PUSH2 0xE32 JUMP JUMPDEST PUSH1 0x20 DUP3 ADD SWAP1 POP SWAP2 SWAP1 POP JUMP JUMPDEST PUSH0 PUSH1 0x20 DUP3 ADD SWAP1 POP DUP2 DUP2 SUB PUSH0 DUP4 ADD MSTORE PUSH2 0xE93 DUP2 PUSH2 0xE5A JUMP JUMPDEST SWAP1 POP SWAP2 SWAP1 POP JUMP JUMPDEST PUSH32 0x496E73756666696369656E7420696E7465726E616C2062616C616E6365000000 PUSH0 DUP3 ADD MSTORE POP JUMP JUMPDEST PUSH0 PUSH2 0xECE PUSH1 0x1D DUP4 PUSH2 0xE22 JUMP JUMPDEST SWAP2 POP PUSH2 0xED9 DUP3 PUSH2 0xE9A JUMP JUMPDEST PUSH1 0x20 DUP3 ADD SWAP1 POP SWAP2 SWAP1 POP JUMP JUMPDEST PUSH0 PUSH1 0x20 DUP3 ADD SWAP1 POP DUP2 DUP2 SUB PUSH0 DUP4 ADD MSTORE PUSH2 0xEFB DUP2 PUSH2 0xEC2 JUMP JUMPDEST SWAP1 POP SWAP2 SWAP1 POP JUMP JUMPDEST PUSH32 0x4E487B7100000000000000000000000000000000000000000000000000000000 PUSH0 MSTORE PUSH1 0x11 PUSH1 0x4 MSTORE PUSH1 0x24 PUSH0 REVERT JUMPDEST PUSH0 PUSH2 0xF39 DUP3 PUSH2 0xBF9 JUMP JUMPDEST SWAP2 POP PUSH2 0xF44 DUP4 PUSH2 0xBF9 JUMP JUMPDEST SWAP3 POP DUP3 DUP3 SUB SWAP1 POP DUP2 DUP2 GT ISZERO PUSH2 0xF5C JUMPI PUSH2 0xF5B PUSH2 0xF02 JUMP JUMPDEST JUMPDEST SWAP3 SWAP2 POP POP JUMP JUMPDEST PUSH0 PUSH2 0xF6C DUP3 PUSH2 0xBF9 JUMP JUMPDEST SWAP2 POP PUSH2 0xF77 DUP4 PUSH2 0xBF9 JUMP JUMPDEST SWAP3 POP DUP3 DUP3 ADD SWAP1 POP DUP1 DUP3 GT ISZERO PUSH2 0xF8F JUMPI PUSH2 0xF8E PUSH2 0xF02 JUMP JUMPDEST JUMPDEST SWAP3 SWAP2 POP POP JUMP JUMPDEST PUSH32 0x416D6F756E74206D7573742062652067726561746572207468616E2030000000 PUSH0 DUP3 ADD MSTORE POP JUMP JUMPDEST PUSH0 PUSH2 0xFC9 PUSH1 0x1D DUP4 PUSH2 0xE22 JUMP JUMPDEST SWAP2 POP PUSH2 0xFD4 DUP3 PUSH2 0xF95 JUMP JUMPDEST PUSH1 0x20 DUP3 ADD SWAP1 POP SWAP2 SWAP1 POP JUMP JUMPDEST PUSH0 PUSH1 0x20 DUP3 ADD SWAP1 POP DUP2 DUP2 SUB PUSH0 DUP4 ADD MSTORE PUSH2 0xFF6 DUP2 PUSH2 0xFBD JUMP JUMPDEST SWAP1 POP SWAP2 SWAP1 POP JUMP JUMPDEST PUSH0 PUSH1 0x60 DUP3 ADD SWAP1 POP PUSH2 0x1010 PUSH0 DUP4 ADD DUP7 PUSH2 0xCCE JUMP JUMPDEST PUSH2 0x101D PUSH1 0x20 DUP4 ADD DUP6 PUSH2 0xCCE JUMP JUMPDEST PUSH2 0x102A PUSH1 0x40 DUP4 ADD DUP5 PUSH2 0xD34 JUMP JUMPDEST SWAP5 SWAP4 POP POP POP POP JUMP JUMPDEST PUSH0 DUP2 MLOAD SWAP1 POP PUSH2 0x1040 DUP2 PUSH2 0xDBA JUMP JUMPDEST SWAP3 SWAP2 POP POP JUMP JUMPDEST PUSH0 PUSH1 0x20 DUP3 DUP5 SUB SLT ISZERO PUSH2 0x105B JUMPI PUSH2 0x105A PUSH2 0xB9B JUMP JUMPDEST JUMPDEST PUSH0 PUSH2 0x1068 DUP5 DUP3 DUP6 ADD PUSH2 0x1032 JUMP JUMPDEST SWAP2 POP POP SWAP3 SWAP2 POP POP JUMP JUMPDEST PUSH32 0x496E73756666696369656E742062616C616E6365000000000000000000000000 PUSH0 DUP3 ADD MSTORE POP JUMP JUMPDEST PUSH0 PUSH2 0x10A5 PUSH1 0x14 DUP4 PUSH2 0xE22 JUMP JUMPDEST SWAP2 POP PUSH2 0x10B0 DUP3 PUSH2 0x1071 JUMP JUMPDEST PUSH1 0x20 DUP3 ADD SWAP1 POP SWAP2 SWAP1 POP JUMP JUMPDEST PUSH0 PUSH1 0x20 DUP3 ADD SWAP1 POP DUP2 DUP2 SUB PUSH0 DUP4 ADD MSTORE PUSH2 0x10D2 DUP2 PUSH2 0x1099 JUMP JUMPDEST SWAP1 POP SWAP2 SWAP1 POP JUMP JUMPDEST PUSH0 PUSH1 0x40 DUP3 ADD SWAP1 POP PUSH2 0x10EC PUSH0 DUP4 ADD DUP6 PUSH2 0xCCE JUMP JUMPDEST PUSH2 0x10F9 PUSH1 0x20 DUP4 ADD DUP5 PUSH2 0xD34 JUMP JUMPDEST SWAP4 SWAP3 POP POP POP JUMP INVALID LOG2 PUSH5 0x6970667358 0x22 SLT KECCAK256 ADD MULMOD 0xC6 0xDA XOR SMOD SWAP2 0xAE 0xD4 REVERT DUP1 0x4B 0xF6 SWAP1 ADDMOD 0xC6 LOG2 SWAP14 0xF6 0xF CALLDATACOPY BLOBHASH 0xEA SWAP15 RJUMPI 0xFCF3 0xBB DUP10 0xCA PUSH16 0x5164736F6C634300081E003300000000 "
				},
				"gasEstimates": {
					"creation": {
						"codeDepositCost": "881200",
						"executionCost": "infinite",
						"totalCost": "infinite"
					},
					"external": {
						"authorizedContracts(address)": "2855",
						"balances(address,address)": "infinite",
						"deposit(address,uint256)": "infinite",
						"internalTransfer(address,address,address,uint256)": "infinite",
						"owner()": "2581",
						"renounceOwnership()": "infinite",
						"setAuthorizedContract(address,bool)": "infinite",
						"transferOwnership(address)": "infinite",
						"withdraw(address,uint256)": "infinite"
					}
				},
				"methodIdentifiers": {
					"authorizedContracts(address)": "d5b9221b",
					"balances(address,address)": "c23f001f",
					"deposit(address,uint256)": "47e7ef24",
					"internalTransfer(address,address,address,uint256)": "44a29e2a",
					"owner()": "8da5cb5b",
					"renounceOwnership()": "715018a6",
					"setAuthorizedContract(address,bool)": "f2fa7392",
					"transferOwnership(address)": "f2fde38b",
					"withdraw(address,uint256)": "f3fef3a3"
				}
			},
			"storageLayout": {
				"storage": [
					{
						"astId": 112,
						"contract": "contract/SpotExchange_flattened.sol:AssetVault",
						"label": "_owner",
						"offset": 0,
						"slot": "0",
						"type": "t_address"
					},
					{
						"astId": 261,
						"contract": "contract/SpotExchange_flattened.sol:AssetVault",
						"label": "_status",
						"offset": 0,
						"slot": "1",
						"type": "t_uint256"
					},
					{
						"astId": 331,
						"contract": "contract/SpotExchange_flattened.sol:AssetVault",
						"label": "balances",
						"offset": 0,
						"slot": "2",
						"type": "t_mapping(t_address,t_mapping(t_address,t_uint256))"
					},
					{
						"astId": 335,
						"contract": "contract/SpotExchange_flattened.sol:AssetVault",
						"label": "authorizedContracts",
						"offset": 0,
						"slot": "3",
						"type": "t_mapping(t_address,t_bool)"
					}
				],
				"types": {
					"t_address": {
						"encoding": "inplace",
						"label": "address",
						"numberOfBytes": "20"
					},
					"t_bool": {
						"encoding": "inplace",
						"label": "bool",
						"numberOfBytes": "1"
					},
					"t_mapping(t_address,t_bool)": {
						"encoding": "mapping",
						"key": "t_address",
						"label": "mapping(address => bool)",
						"numberOfBytes": "32",
						"value": "t_bool"
					},
					"t_mapping(t_address,t_mapping(t_address,t_uint256))": {
						"encoding": "mapping",
						"key": "t_address",
						"label": "mapping(address => mapping(address => uint256))",
						"numberOfBytes": "32",
						"value": "t_mapping(t_address,t_uint256)"
					},
					"t_mapping(t_address,t_uint256)": {
						"encoding": "mapping",
						"key": "t_address",
						"label": "mapping(address => uint256)",
						"numberOfBytes": "32",
						"value": "t_uint256"
					},
					"t_uint256": {
						"encoding": "inplace",
						"label": "uint256",
						"numberOfBytes": "32"
					}
				}
			},
			"userdoc": {
				"kind": "user",
				"methods": {},
				"version": 1
			}
		}
	}
}