{
	"contract/StakingRewards_flattened.sol": {
		"StakingRewards": {
			"abi": [
				{
					"inputs": [
						{
							"internalType": "address",
							"name": "_stakingToken",
							"type": "address"
						},
						{
							"internalType": "address",
							"name": "_rewardsToken",
							"type": "address"
						}
					],
					"stateMutability": "nonpayable",
					"type": "constructor"
				},
				{
					"inputs": [
						{
							"internalType": "address",
							"name": "owner",
							"type": "address"
						}
					],
					"name": "OwnableInvalidOwner",
					"type": "error"
				},
				{
					"inputs": [
						{
							"internalType": "address",
							"name": "account",
							"type": "address"
						}
					],
					"name": "OwnableUnauthorizedAccount",
					"type": "error"
				},
				{
					"inputs": [],
					"name": "ReentrancyGuardReentrantCall",
					"type": "error"
				},
				{
					"inputs": [
						{
							"internalType": "address",
							"name": "token",
							"type": "address"
						}
					],
					"name": "SafeERC20FailedOperation",
					"type": "error"
				},
				{
					"anonymous": false,
					"inputs": [
						{
							"indexed": true,
							"internalType": "address",
							"name": "previousOwner",
							"type": "address"
						},
						{
							"indexed": true,
							"internalType": "address",
							"name": "newOwner",
							"type": "address"
						}
					],
					"name": "OwnershipTransferred",
					"type": "event"
				},
				{
					"anonymous": false,
					"inputs": [
						{
							"indexed": true,
							"internalType": "address",
							"name": "user",
							"type": "address"
						},
						{
							"indexed": false,
							"internalType": "uint256",
							"name": "reward",
							"type": "uint256"
						}
					],
					"name": "RewardPaid",
					"type": "event"
				},
				{
					"anonymous": false,
					"inputs": [
						{
							"indexed": true,
							"internalType": "address",
							"name": "user",
							"type": "address"
						},
						{
							"indexed": false,
							"internalType": "uint256",
							"name": "amount",
							"type": "uint256"
						}
					],
					"name": "Staked",
					"type": "event"
				},
				{
					"anonymous": false,
					"inputs": [
						{
							"indexed": true,
							"internalType": "address",
							"name": "user",
							"type": "address"
						},
						{
							"indexed": false,
							"internalType": "uint256",
							"name": "amount",
							"type": "uint256"
						}
					],
					"name": "Withdrawn",
					"type": "event"
				},
				{
					"inputs": [
						{
							"internalType": "address",
							"name": "account",
							"type": "address"
						}
					],
					"name": "balanceOf",
					"outputs": [
						{
							"internalType": "uint256",
							"name": "",
							"type": "uint256"
						}
					],
					"stateMutability": "view",
					"type": "function"
				},
				{
					"inputs": [],
					"name": "claimReward",
					"outputs": [],
					"stateMutability": "nonpayable",
					"type": "function"
				},
				{
					"inputs": [
						{
							"internalType": "address",
							"name": "account",
							"type": "address"
						}
					],
					"name": "earned",
					"outputs": [
						{
							"internalType": "uint256",
							"name": "",
							"type": "uint256"
						}
					],
					"stateMutability": "view",
					"type": "function"
				},
				{
					"inputs": [],
					"name": "lastUpdateTime",
					"outputs": [
						{
							"internalType": "uint256",
							"name": "",
							"type": "uint256"
						}
					],
					"stateMutability": "view",
					"type": "function"
				},
				{
					"inputs": [
						{
							"internalType": "uint256",
							"name": "reward",
							"type": "uint256"
						}
					],
					"name": "notifyRewardAmount",
					"outputs": [],
					"stateMutability": "nonpayable",
					"type": "function"
				},
				{
					"inputs": [],
					"name": "owner",
					"outputs": [
						{
							"internalType": "address",
							"name": "",
							"type": "address"
						}
					],
					"stateMutability": "view",
					"type": "function"
				},
				{
					"inputs": [],
					"name": "periodFinish",
					"outputs": [
						{
							"internalType": "uint256",
							"name": "",
							"type": "uint256"
						}
					],
					"stateMutability": "view",
					"type": "function"
				},
				{
					"inputs": [],
					"name": "renounceOwnership",
					"outputs": [],
					"stateMutability": "nonpayable",
					"type": "function"
				},
				{
					"inputs": [],
					"name": "rewardPerTokenStored",
					"outputs": [
						{
							"internalType": "uint256",
							"name": "",
							"type": "uint256"
						}
					],
					"stateMutability": "view",
					"type": "function"
				},
				{
					"inputs": [],
					"name": "rewardRate",
					"outputs": [
						{
							"internalType": "uint256",
							"name": "",
							"type": "uint256"
						}
					],
					"stateMutability": "view",
					"type": "function"
				},
				{
					"inputs": [
						{
							"internalType": "address",
							"name": "",
							"type": "address"
						}
					],
					"name": "rewards",
					"outputs": [
						{
							"internalType": "uint256",
							"name": "",
							"type": "uint256"
						}
					],
					"stateMutability": "view",
					"type": "function"
				},
				{
					"inputs": [],
					"name": "rewardsDuration",
					"outputs": [
						{
							"internalType": "uint256",
							"name": "",
							"type": "uint256"
						}
					],
					"stateMutability": "view",
					"type": "function"
				},
				{
					"inputs": [],
					"name": "rewardsToken",
					"outputs": [
						{
							"internalType": "contract IERC20",
							"name": "",
							"type": "address"
						}
					],
					"stateMutability": "view",
					"type": "function"
				},
				{
					"inputs": [
						{
							"internalType": "uint256",
							"name": "amount",
							"type": "uint256"
						}
					],
					"name": "stake",
					"outputs": [],
					"stateMutability": "nonpayable",
					"type": "function"
				},
				{
					"inputs": [],
					"name": "stakingToken",
					"outputs": [
						{
							"internalType": "contract IERC20",
							"name": "",
							"type": "address"
						}
					],
					"stateMutability": "view",
					"type": "function"
				},
				{
					"inputs": [],
					"name": "totalSupply",
					"outputs": [
						{
							"internalType": "uint256",
							"name": "",
							"type": "uint256"
						}
					],
					"stateMutability": "view",
					"type": "function"
				},
				{
					"inputs": [
						{
							"internalType": "address",
							"name": "newOwner",
							"type": "address"
						}
					],
					"name": "transferOwnership",
					"outputs": [],
					"stateMutability": "nonpayable",
					"type": "function"
				},
				{
					"inputs": [
						{
							"internalType": "address",
							"name": "",
							"type": "address"
						}
					],
					"name": "userRewardPerTokenPaid",
					"outputs": [
						{
							"internalType": "uint256",
							"name": "",
							"type": "uint256"
						}
					],
					"stateMutability": "view",
					"type": "function"
				},
				{
					"inputs": [
						{
							"internalType": "uint256",
							"name": "amount",
							"type": "uint256"
						}
					],
					"name": "withdraw",
					"outputs": [],
					"stateMutability": "nonpayable",
					"type": "function"
				}
			],
			"devdoc": {
				"details": "Allows users to stake TradeFiToken (TFT) to earn rewards. Based on the Synthetix StakingRewards model.",
				"errors": {
					"OwnableInvalidOwner(address)": [
						{
							"details": "The owner is not a valid owner account. (eg. `address(0)`)"
						}
					],
					"OwnableUnauthorizedAccount(address)": [
						{
							"details": "The caller account is not authorized to perform an operation."
						}
					],
					"ReentrancyGuardReentrantCall()": [
						{
							"details": "Unauthorized reentrant call."
						}
					],
					"SafeERC20FailedOperation(address)": [
						{
							"details": "An operation with an ERC-20 token failed."
						}
					]
				},
				"kind": "dev",
				"methods": {
					"owner()": {
						"details": "Returns the address of the current owner."
					},
					"renounceOwnership()": {
						"details": "Leaves the contract without owner. It will not be possible to call `onlyOwner` functions. Can only be called by the current owner. NOTE: Renouncing ownership will leave the contract without an owner, thereby disabling any functionality that is only available to the owner."
					},
					"transferOwnership(address)": {
						"details": "Transfers ownership of the contract to a new account (`newOwner`). Can only be called by the current owner."
					}
				},
				"title": "StakingRewards",
				"version": 1
			},
			"evm": {
				"assembly": "    /* \"contract/StakingRewards_flattened.sol\":26150:29880  contract StakingRewards is ReentrancyGuard, Ownable {... */\n  mstore(0x40, 0x80)\n    /* \"contract/StakingRewards_flattened.sol\":26473:26479  7 days */\n  0x093a80\n    /* \"contract/StakingRewards_flattened.sol\":26440:26479  uint256 public rewardsDuration = 7 days */\n  0x06\n  sstore\n    /* \"contract/StakingRewards_flattened.sol\":26936:27113  constructor(address _stakingToken, address _rewardsToken) Ownable(msg.sender) {... */\n  callvalue\n  dup1\n  iszero\n  tag_1\n  jumpi\n  revert(0x00, 0x00)\ntag_1:\n  pop\n  mload(0x40)\n  sub(codesize, bytecodeSize)\n  dup1\n  bytecodeSize\n  dup4\n  codecopy\n  dup2\n  dup2\n  add\n  0x40\n  mstore\n  dup2\n  add\n  swap1\n  tag_2\n  swap2\n  swap1\n  tag_3\n  jump\t// in\ntag_2:\n    /* \"contract/StakingRewards_flattened.sol\":27002:27012  msg.sender */\n  caller\n    /* \"contract/StakingRewards_flattened.sol\":20342:20343  1 */\n  0x01\n    /* \"contract/StakingRewards_flattened.sol\":20546:20553  _status */\n  0x00\n    /* \"contract/StakingRewards_flattened.sol\":20546:20567  _status = NOT_ENTERED */\n  dup2\n  swap1\n  sstore\n  pop\n    /* \"contract/StakingRewards_flattened.sol\":24128:24129  0 */\n  0x00\n    /* \"contract/StakingRewards_flattened.sol\":24104:24130  initialOwner == address(0) */\n  0xffffffffffffffffffffffffffffffffffffffff\n  and\n    /* \"contract/StakingRewards_flattened.sol\":24104:24116  initialOwner */\n  dup2\n    /* \"contract/StakingRewards_flattened.sol\":24104:24130  initialOwner == address(0) */\n  0xffffffffffffffffffffffffffffffffffffffff\n  and\n  sub\n    /* \"contract/StakingRewards_flattened.sol\":24100:24195  if (initialOwner == address(0)) {... */\n  tag_9\n  jumpi\n    /* \"contract/StakingRewards_flattened.sol\":24181:24182  0 */\n  0x00\n    /* \"contract/StakingRewards_flattened.sol\":24153:24184  OwnableInvalidOwner(address(0)) */\n  mload(0x40)\n  0x1e4fbdf700000000000000000000000000000000000000000000000000000000\n  dup2\n  mstore\n  0x04\n  add\n  tag_10\n  swap2\n  swap1\n  tag_11\n  jump\t// in\ntag_10:\n  mload(0x40)\n  dup1\n  swap2\n  sub\n  swap1\n  revert\n    /* \"contract/StakingRewards_flattened.sol\":24100:24195  if (initialOwner == address(0)) {... */\ntag_9:\n    /* \"contract/StakingRewards_flattened.sol\":24204:24236  _transferOwnership(initialOwner) */\n  tag_12\n    /* \"contract/StakingRewards_flattened.sol\":24223:24235  initialOwner */\n  dup2\n    /* \"contract/StakingRewards_flattened.sol\":24204:24222  _transferOwnership */\n  shl(0x20, tag_13)\n    /* \"contract/StakingRewards_flattened.sol\":24204:24236  _transferOwnership(initialOwner) */\n  0x20\n  shr\n  jump\t// in\ntag_12:\n    /* \"contract/StakingRewards_flattened.sol\":24056:24243  constructor(address initialOwner) {... */\n  pop\n    /* \"contract/StakingRewards_flattened.sol\":27046:27059  _stakingToken */\n  dup2\n    /* \"contract/StakingRewards_flattened.sol\":27024:27036  stakingToken */\n  0x02\n  0x00\n    /* \"contract/StakingRewards_flattened.sol\":27024:27060  stakingToken = IERC20(_stakingToken) */\n  0x0100\n  exp\n  dup2\n  sload\n  dup2\n  0xffffffffffffffffffffffffffffffffffffffff\n  mul\n  not\n  and\n  swap1\n  dup4\n  0xffffffffffffffffffffffffffffffffffffffff\n  and\n  mul\n  or\n  swap1\n  sstore\n  pop\n    /* \"contract/StakingRewards_flattened.sol\":27092:27105  _rewardsToken */\n  dup1\n    /* \"contract/StakingRewards_flattened.sol\":27070:27082  rewardsToken */\n  0x03\n  0x00\n    /* \"contract/StakingRewards_flattened.sol\":27070:27106  rewardsToken = IERC20(_rewardsToken) */\n  0x0100\n  exp\n  dup2\n  sload\n  dup2\n  0xffffffffffffffffffffffffffffffffffffffff\n  mul\n  not\n  and\n  swap1\n  dup4\n  0xffffffffffffffffffffffffffffffffffffffff\n  and\n  mul\n  or\n  swap1\n  sstore\n  pop\n    /* \"contract/StakingRewards_flattened.sol\":26936:27113  constructor(address _stakingToken, address _rewardsToken) Ownable(msg.sender) {... */\n  pop\n  pop\n    /* \"contract/StakingRewards_flattened.sol\":26150:29880  contract StakingRewards is ReentrancyGuard, Ownable {... */\n  jump(tag_15)\n    /* \"contract/StakingRewards_flattened.sol\":25743:25930  function _transferOwnership(address newOwner) internal virtual {... */\ntag_13:\n    /* \"contract/StakingRewards_flattened.sol\":25816:25832  address oldOwner */\n  0x00\n    /* \"contract/StakingRewards_flattened.sol\":25835:25841  _owner */\n  0x01\n  0x00\n  swap1\n  sload\n  swap1\n  0x0100\n  exp\n  swap1\n  div\n  0xffffffffffffffffffffffffffffffffffffffff\n  and\n    /* \"contract/StakingRewards_flattened.sol\":25816:25841  address oldOwner = _owner */\n  swap1\n  pop\n    /* \"contract/StakingRewards_flattened.sol\":25860:25868  newOwner */\n  dup2\n    /* \"contract/StakingRewards_flattened.sol\":25851:25857  _owner */\n  0x01\n  0x00\n    /* \"contract/StakingRewards_flattened.sol\":25851:25868  _owner = newOwner */\n  0x0100\n  exp\n  dup2\n  sload\n  dup2\n  0xffffffffffffffffffffffffffffffffffffffff\n  mul\n  not\n  and\n  swap1\n  dup4\n  0xffffffffffffffffffffffffffffffffffffffff\n  and\n  mul\n  or\n  swap1\n  sstore\n  pop\n    /* \"contract/StakingRewards_flattened.sol\":25914:25922  newOwner */\n  dup2\n    /* \"contract/StakingRewards_flattened.sol\":25883:25923  OwnershipTransferred(oldOwner, newOwner) */\n  0xffffffffffffffffffffffffffffffffffffffff\n  and\n    /* \"contract/StakingRewards_flattened.sol\":25904:25912  oldOwner */\n  dup2\n    /* \"contract/StakingRewards_flattened.sol\":25883:25923  OwnershipTransferred(oldOwner, newOwner) */\n  0xffffffffffffffffffffffffffffffffffffffff\n  and\n  0x8be0079c531659141344cd1fd0a4f28419497f9722a3daafe3b4186f6b6457e0\n  mload(0x40)\n  mload(0x40)\n  dup1\n  swap2\n  sub\n  swap1\n  log3\n    /* \"contract/StakingRewards_flattened.sol\":25806:25930  {... */\n  pop\n    /* \"contract/StakingRewards_flattened.sol\":25743:25930  function _transferOwnership(address newOwner) internal virtual {... */\n  pop\n  jump\t// out\n    /* \"#utility.yul\":88:205   */\ntag_18:\n    /* \"#utility.yul\":197:198   */\n  0x00\n    /* \"#utility.yul\":194:195   */\n  0x00\n    /* \"#utility.yul\":187:199   */\n  revert\n    /* \"#utility.yul\":334:460   */\ntag_20:\n    /* \"#utility.yul\":371:378   */\n  0x00\n    /* \"#utility.yul\":411:453   */\n  0xffffffffffffffffffffffffffffffffffffffff\n    /* \"#utility.yul\":404:409   */\n  dup3\n    /* \"#utility.yul\":400:454   */\n  and\n    /* \"#utility.yul\":389:454   */\n  swap1\n  pop\n    /* \"#utility.yul\":334:460   */\n  swap2\n  swap1\n  pop\n  jump\t// out\n    /* \"#utility.yul\":466:562   */\ntag_21:\n    /* \"#utility.yul\":503:510   */\n  0x00\n    /* \"#utility.yul\":532:556   */\n  tag_31\n    /* \"#utility.yul\":550:555   */\n  dup3\n    /* \"#utility.yul\":532:556   */\n  tag_20\n  jump\t// in\ntag_31:\n    /* \"#utility.yul\":521:556   */\n  swap1\n  pop\n    /* \"#utility.yul\":466:562   */\n  swap2\n  swap1\n  pop\n  jump\t// out\n    /* \"#utility.yul\":568:690   */\ntag_22:\n    /* \"#utility.yul\":641:665   */\n  tag_33\n    /* \"#utility.yul\":659:664   */\n  dup2\n    /* \"#utility.yul\":641:665   */\n  tag_21\n  jump\t// in\ntag_33:\n    /* \"#utility.yul\":634:639   */\n  dup2\n    /* \"#utility.yul\":631:666   */\n  eq\n    /* \"#utility.yul\":621:684   */\n  tag_34\n  jumpi\n    /* \"#utility.yul\":680:681   */\n  0x00\n    /* \"#utility.yul\":677:678   */\n  0x00\n    /* \"#utility.yul\":670:682   */\n  revert\n    /* \"#utility.yul\":621:684   */\ntag_34:\n    /* \"#utility.yul\":568:690   */\n  pop\n  jump\t// out\n    /* \"#utility.yul\":696:839   */\ntag_23:\n    /* \"#utility.yul\":753:758   */\n  0x00\n    /* \"#utility.yul\":784:790   */\n  dup2\n    /* \"#utility.yul\":778:791   */\n  mload\n    /* \"#utility.yul\":769:791   */\n  swap1\n  pop\n    /* \"#utility.yul\":800:833   */\n  tag_36\n    /* \"#utility.yul\":827:832   */\n  dup2\n    /* \"#utility.yul\":800:833   */\n  tag_22\n  jump\t// in\ntag_36:\n    /* \"#utility.yul\":696:839   */\n  swap3\n  swap2\n  pop\n  pop\n  jump\t// out\n    /* \"#utility.yul\":845:1352   */\ntag_3:\n    /* \"#utility.yul\":924:930   */\n  0x00\n    /* \"#utility.yul\":932:938   */\n  0x00\n    /* \"#utility.yul\":981:983   */\n  0x40\n    /* \"#utility.yul\":969:978   */\n  dup4\n    /* \"#utility.yul\":960:967   */\n  dup6\n    /* \"#utility.yul\":956:979   */\n  sub\n    /* \"#utility.yul\":952:984   */\n  slt\n    /* \"#utility.yul\":949:1068   */\n  iszero\n  tag_38\n  jumpi\n    /* \"#utility.yul\":987:1066   */\n  tag_39\n  tag_18\n  jump\t// in\ntag_39:\n    /* \"#utility.yul\":949:1068   */\ntag_38:\n    /* \"#utility.yul\":1107:1108   */\n  0x00\n    /* \"#utility.yul\":1132:1196   */\n  tag_40\n    /* \"#utility.yul\":1188:1195   */\n  dup6\n    /* \"#utility.yul\":1179:1185   */\n  dup3\n    /* \"#utility.yul\":1168:1177   */\n  dup7\n    /* \"#utility.yul\":1164:1186   */\n  add\n    /* \"#utility.yul\":1132:1196   */\n  tag_23\n  jump\t// in\ntag_40:\n    /* \"#utility.yul\":1122:1196   */\n  swap3\n  pop\n    /* \"#utility.yul\":1078:1206   */\n  pop\n    /* \"#utility.yul\":1245:1247   */\n  0x20\n    /* \"#utility.yul\":1271:1335   */\n  tag_41\n    /* \"#utility.yul\":1327:1334   */\n  dup6\n    /* \"#utility.yul\":1318:1324   */\n  dup3\n    /* \"#utility.yul\":1307:1316   */\n  dup7\n    /* \"#utility.yul\":1303:1325   */\n  add\n    /* \"#utility.yul\":1271:1335   */\n  tag_23\n  jump\t// in\ntag_41:\n    /* \"#utility.yul\":1261:1335   */\n  swap2\n  pop\n    /* \"#utility.yul\":1216:1345   */\n  pop\n    /* \"#utility.yul\":845:1352   */\n  swap3\n  pop\n  swap3\n  swap1\n  pop\n  jump\t// out\n    /* \"#utility.yul\":1358:1476   */\ntag_24:\n    /* \"#utility.yul\":1445:1469   */\n  tag_43\n    /* \"#utility.yul\":1463:1468   */\n  dup2\n    /* \"#utility.yul\":1445:1469   */\n  tag_21\n  jump\t// in\ntag_43:\n    /* \"#utility.yul\":1440:1443   */\n  dup3\n    /* \"#utility.yul\":1433:1470   */\n  mstore\n    /* \"#utility.yul\":1358:1476   */\n  pop\n  pop\n  jump\t// out\n    /* \"#utility.yul\":1482:1704   */\ntag_11:\n    /* \"#utility.yul\":1575:1579   */\n  0x00\n    /* \"#utility.yul\":1613:1615   */\n  0x20\n    /* \"#utility.yul\":1602:1611   */\n  dup3\n    /* \"#utility.yul\":1598:1616   */\n  add\n    /* \"#utility.yul\":1590:1616   */\n  swap1\n  pop\n    /* \"#utility.yul\":1626:1697   */\n  tag_45\n    /* \"#utility.yul\":1694:1695   */\n  0x00\n    /* \"#utility.yul\":1683:1692   */\n  dup4\n    /* \"#utility.yul\":1679:1696   */\n  add\n    /* \"#utility.yul\":1670:1676   */\n  dup5\n    /* \"#utility.yul\":1626:1697   */\n  tag_24\n  jump\t// in\ntag_45:\n    /* \"#utility.yul\":1482:1704   */\n  swap3\n  swap2\n  pop\n  pop\n  jump\t// out\n    /* \"contract/StakingRewards_flattened.sol\":26150:29880  contract StakingRewards is ReentrancyGuard, Ownable {... */\ntag_15:\n  dataSize(sub_0)\n  dup1\n  dataOffset(sub_0)\n  0x00\n  codecopy\n  0x00\n  return\nstop\n\nsub_0: assembly {\n        /* \"contract/StakingRewards_flattened.sol\":26150:29880  contract StakingRewards is ReentrancyGuard, Ownable {... */\n      mstore(0x40, 0x80)\n      callvalue\n      dup1\n      iszero\n      tag_1\n      jumpi\n      revert(0x00, 0x00)\n    tag_1:\n      pop\n      jumpi(tag_2, lt(calldatasize, 0x04))\n      shr(0xe0, calldataload(0x00))\n      dup1\n      0x7b0a47ee\n      gt\n      tag_22\n      jumpi\n      dup1\n      0xc8f33c91\n      gt\n      tag_23\n      jumpi\n      dup1\n      0xc8f33c91\n      eq\n      tag_17\n      jumpi\n      dup1\n      0xd1af0c7d\n      eq\n      tag_18\n      jumpi\n      dup1\n      0xdf136d65\n      eq\n      tag_19\n      jumpi\n      dup1\n      0xebe2b12b\n      eq\n      tag_20\n      jumpi\n      dup1\n      0xf2fde38b\n      eq\n      tag_21\n      jumpi\n      jump(tag_2)\n    tag_23:\n      dup1\n      0x7b0a47ee\n      eq\n      tag_12\n      jumpi\n      dup1\n      0x8b876347\n      eq\n      tag_13\n      jumpi\n      dup1\n      0x8da5cb5b\n      eq\n      tag_14\n      jumpi\n      dup1\n      0xa694fc3a\n      eq\n      tag_15\n      jumpi\n      dup1\n      0xb88a802f\n      eq\n      tag_16\n      jumpi\n      jump(tag_2)\n    tag_22:\n      dup1\n      0x386a9525\n      gt\n      tag_24\n      jumpi\n      dup1\n      0x386a9525\n      eq\n      tag_7\n      jumpi\n      dup1\n      0x3c6b16ab\n      eq\n      tag_8\n      jumpi\n      dup1\n      0x70a08231\n      eq\n      tag_9\n      jumpi\n      dup1\n      0x715018a6\n      eq\n      tag_10\n      jumpi\n      dup1\n      0x72f702f3\n      eq\n      tag_11\n      jumpi\n      jump(tag_2)\n    tag_24:\n      dup1\n      0x8cc262\n      eq\n      tag_3\n      jumpi\n      dup1\n      0x0700037d\n      eq\n      tag_4\n      jumpi\n      dup1\n      0x18160ddd\n      eq\n      tag_5\n      jumpi\n      dup1\n      0x2e1a7d4d\n      eq\n      tag_6\n      jumpi\n    tag_2:\n      revert(0x00, 0x00)\n        /* \"contract/StakingRewards_flattened.sol\":27366:27554  function earned(address account) public view returns (uint256) {... */\n    tag_3:\n      tag_25\n      0x04\n      dup1\n      calldatasize\n      sub\n      dup2\n      add\n      swap1\n      tag_26\n      swap2\n      swap1\n      tag_27\n      jump\t// in\n    tag_26:\n      tag_28\n      jump\t// in\n    tag_25:\n      mload(0x40)\n      tag_29\n      swap2\n      swap1\n      tag_30\n      jump\t// in\n    tag_29:\n      mload(0x40)\n      dup1\n      swap2\n      sub\n      swap1\n      return\n        /* \"contract/StakingRewards_flattened.sol\":26625:26667  mapping(address => uint256) public rewards */\n    tag_4:\n      tag_31\n      0x04\n      dup1\n      calldatasize\n      sub\n      dup2\n      add\n      swap1\n      tag_32\n      swap2\n      swap1\n      tag_27\n      jump\t// in\n    tag_32:\n      tag_33\n      jump\t// in\n    tag_31:\n      mload(0x40)\n      tag_34\n      swap2\n      swap1\n      tag_30\n      jump\t// in\n    tag_34:\n      mload(0x40)\n      dup1\n      swap2\n      sub\n      swap1\n      return\n        /* \"contract/StakingRewards_flattened.sol\":27149:27240  function totalSupply() external view returns (uint256) {... */\n    tag_5:\n      tag_35\n      tag_36\n      jump\t// in\n    tag_35:\n      mload(0x40)\n      tag_37\n      swap2\n      swap1\n      tag_30\n      jump\t// in\n    tag_37:\n      mload(0x40)\n      dup1\n      swap2\n      sub\n      swap1\n      return\n        /* \"contract/StakingRewards_flattened.sol\":28240:28548  function withdraw(uint256 amount) public nonReentrant updateReward(msg.sender) {... */\n    tag_6:\n      tag_38\n      0x04\n      dup1\n      calldatasize\n      sub\n      dup2\n      add\n      swap1\n      tag_39\n      swap2\n      swap1\n      tag_40\n      jump\t// in\n    tag_39:\n      tag_41\n      jump\t// in\n    tag_38:\n      stop\n        /* \"contract/StakingRewards_flattened.sol\":26440:26479  uint256 public rewardsDuration = 7 days */\n    tag_7:\n      tag_42\n      tag_43\n      jump\t// in\n    tag_42:\n      mload(0x40)\n      tag_44\n      swap2\n      swap1\n      tag_30\n      jump\t// in\n    tag_44:\n      mload(0x40)\n      dup1\n      swap2\n      sub\n      swap1\n      return\n        /* \"contract/StakingRewards_flattened.sol\":28892:29395  function notifyRewardAmount(uint256 reward) external onlyOwner updateReward(address(0)) {... */\n    tag_8:\n      tag_45\n      0x04\n      dup1\n      calldatasize\n      sub\n      dup2\n      add\n      swap1\n      tag_46\n      swap2\n      swap1\n      tag_40\n      jump\t// in\n    tag_46:\n      tag_47\n      jump\t// in\n    tag_45:\n      stop\n        /* \"contract/StakingRewards_flattened.sol\":27246:27356  function balanceOf(address account) external view returns (uint256) {... */\n    tag_9:\n      tag_48\n      0x04\n      dup1\n      calldatasize\n      sub\n      dup2\n      add\n      swap1\n      tag_49\n      swap2\n      swap1\n      tag_27\n      jump\t// in\n    tag_49:\n      tag_50\n      jump\t// in\n    tag_48:\n      mload(0x40)\n      tag_51\n      swap2\n      swap1\n      tag_30\n      jump\t// in\n    tag_51:\n      mload(0x40)\n      dup1\n      swap2\n      sub\n      swap1\n      return\n        /* \"contract/StakingRewards_flattened.sol\":25124:25225  function renounceOwnership() public virtual onlyOwner {... */\n    tag_10:\n      tag_52\n      tag_53\n      jump\t// in\n    tag_52:\n      stop\n        /* \"contract/StakingRewards_flattened.sol\":26241:26267  IERC20 public stakingToken */\n    tag_11:\n      tag_54\n      tag_55\n      jump\t// in\n    tag_54:\n      mload(0x40)\n      tag_56\n      swap2\n      swap1\n      tag_57\n      jump\t// in\n    tag_56:\n      mload(0x40)\n      dup1\n      swap2\n      sub\n      swap1\n      return\n        /* \"contract/StakingRewards_flattened.sol\":26409:26434  uint256 public rewardRate */\n    tag_12:\n      tag_58\n      tag_59\n      jump\t// in\n    tag_58:\n      mload(0x40)\n      tag_60\n      swap2\n      swap1\n      tag_30\n      jump\t// in\n    tag_60:\n      mload(0x40)\n      dup1\n      swap2\n      sub\n      swap1\n      return\n        /* \"contract/StakingRewards_flattened.sol\":26562:26619  mapping(address => uint256) public userRewardPerTokenPaid */\n    tag_13:\n      tag_61\n      0x04\n      dup1\n      calldatasize\n      sub\n      dup2\n      add\n      swap1\n      tag_62\n      swap2\n      swap1\n      tag_27\n      jump\t// in\n    tag_62:\n      tag_63\n      jump\t// in\n    tag_61:\n      mload(0x40)\n      tag_64\n      swap2\n      swap1\n      tag_30\n      jump\t// in\n    tag_64:\n      mload(0x40)\n      dup1\n      swap2\n      sub\n      swap1\n      return\n        /* \"contract/StakingRewards_flattened.sol\":24469:24554  function owner() public view virtual returns (address) {... */\n    tag_14:\n      tag_65\n      tag_66\n      jump\t// in\n    tag_65:\n      mload(0x40)\n      tag_67\n      swap2\n      swap1\n      tag_68\n      jump\t// in\n    tag_67:\n      mload(0x40)\n      dup1\n      swap2\n      sub\n      swap1\n      return\n        /* \"contract/StakingRewards_flattened.sol\":27914:28234  function stake(uint256 amount) external nonReentrant updateReward(msg.sender) {... */\n    tag_15:\n      tag_69\n      0x04\n      dup1\n      calldatasize\n      sub\n      dup2\n      add\n      swap1\n      tag_70\n      swap2\n      swap1\n      tag_40\n      jump\t// in\n    tag_70:\n      tag_71\n      jump\t// in\n    tag_69:\n      stop\n        /* \"contract/StakingRewards_flattened.sol\":28554:28856  function claimReward() public nonReentrant updateReward(msg.sender) {... */\n    tag_16:\n      tag_72\n      tag_73\n      jump\t// in\n    tag_72:\n      stop\n        /* \"contract/StakingRewards_flattened.sol\":26485:26514  uint256 public lastUpdateTime */\n    tag_17:\n      tag_74\n      tag_75\n      jump\t// in\n    tag_74:\n      mload(0x40)\n      tag_76\n      swap2\n      swap1\n      tag_30\n      jump\t// in\n    tag_76:\n      mload(0x40)\n      dup1\n      swap2\n      sub\n      swap1\n      return\n        /* \"contract/StakingRewards_flattened.sol\":26304:26330  IERC20 public rewardsToken */\n    tag_18:\n      tag_77\n      tag_78\n      jump\t// in\n    tag_77:\n      mload(0x40)\n      tag_79\n      swap2\n      swap1\n      tag_57\n      jump\t// in\n    tag_79:\n      mload(0x40)\n      dup1\n      swap2\n      sub\n      swap1\n      return\n        /* \"contract/StakingRewards_flattened.sol\":26520:26555  uint256 public rewardPerTokenStored */\n    tag_19:\n      tag_80\n      tag_81\n      jump\t// in\n    tag_80:\n      mload(0x40)\n      tag_82\n      swap2\n      swap1\n      tag_30\n      jump\t// in\n    tag_82:\n      mload(0x40)\n      dup1\n      swap2\n      sub\n      swap1\n      return\n        /* \"contract/StakingRewards_flattened.sol\":26376:26403  uint256 public periodFinish */\n    tag_20:\n      tag_83\n      tag_84\n      jump\t// in\n    tag_83:\n      mload(0x40)\n      tag_85\n      swap2\n      swap1\n      tag_30\n      jump\t// in\n    tag_85:\n      mload(0x40)\n      dup1\n      swap2\n      sub\n      swap1\n      return\n        /* \"contract/StakingRewards_flattened.sol\":25374:25589  function transferOwnership(address newOwner) public virtual onlyOwner {... */\n    tag_21:\n      tag_86\n      0x04\n      dup1\n      calldatasize\n      sub\n      dup2\n      add\n      swap1\n      tag_87\n      swap2\n      swap1\n      tag_27\n      jump\t// in\n    tag_87:\n      tag_88\n      jump\t// in\n    tag_86:\n      stop\n        /* \"contract/StakingRewards_flattened.sol\":27366:27554  function earned(address account) public view returns (uint256) {... */\n    tag_28:\n        /* \"contract/StakingRewards_flattened.sol\":27420:27427  uint256 */\n      0x00\n        /* \"contract/StakingRewards_flattened.sol\":27531:27538  rewards */\n      0x0a\n        /* \"contract/StakingRewards_flattened.sol\":27531:27547  rewards[account] */\n      0x00\n        /* \"contract/StakingRewards_flattened.sol\":27539:27546  account */\n      dup4\n        /* \"contract/StakingRewards_flattened.sol\":27531:27547  rewards[account] */\n      0xffffffffffffffffffffffffffffffffffffffff\n      and\n      0xffffffffffffffffffffffffffffffffffffffff\n      and\n      dup2\n      mstore\n      0x20\n      add\n      swap1\n      dup2\n      mstore\n      0x20\n      add\n      0x00\n      keccak256\n      sload\n        /* \"contract/StakingRewards_flattened.sol\":27524:27528  1e18 */\n      0x0de0b6b3a7640000\n        /* \"contract/StakingRewards_flattened.sol\":27488:27510  userRewardPerTokenPaid */\n      0x09\n        /* \"contract/StakingRewards_flattened.sol\":27488:27519  userRewardPerTokenPaid[account] */\n      0x00\n        /* \"contract/StakingRewards_flattened.sol\":27511:27518  account */\n      dup6\n        /* \"contract/StakingRewards_flattened.sol\":27488:27519  userRewardPerTokenPaid[account] */\n      0xffffffffffffffffffffffffffffffffffffffff\n      and\n      0xffffffffffffffffffffffffffffffffffffffff\n      and\n      dup2\n      mstore\n      0x20\n      add\n      swap1\n      dup2\n      mstore\n      0x20\n      add\n      0x00\n      keccak256\n      sload\n        /* \"contract/StakingRewards_flattened.sol\":27469:27485  rewardPerToken() */\n      tag_90\n        /* \"contract/StakingRewards_flattened.sol\":27469:27483  rewardPerToken */\n      tag_91\n        /* \"contract/StakingRewards_flattened.sol\":27469:27485  rewardPerToken() */\n      jump\t// in\n    tag_90:\n        /* \"contract/StakingRewards_flattened.sol\":27469:27519  rewardPerToken() - userRewardPerTokenPaid[account] */\n      tag_92\n      swap2\n      swap1\n      tag_93\n      jump\t// in\n    tag_92:\n        /* \"contract/StakingRewards_flattened.sol\":27447:27456  _balances */\n      0x0c\n        /* \"contract/StakingRewards_flattened.sol\":27447:27465  _balances[account] */\n      0x00\n        /* \"contract/StakingRewards_flattened.sol\":27457:27464  account */\n      dup7\n        /* \"contract/StakingRewards_flattened.sol\":27447:27465  _balances[account] */\n      0xffffffffffffffffffffffffffffffffffffffff\n      and\n      0xffffffffffffffffffffffffffffffffffffffff\n      and\n      dup2\n      mstore\n      0x20\n      add\n      swap1\n      dup2\n      mstore\n      0x20\n      add\n      0x00\n      keccak256\n      sload\n        /* \"contract/StakingRewards_flattened.sol\":27447:27520  _balances[account] * (rewardPerToken() - userRewardPerTokenPaid[account]) */\n      tag_94\n      swap2\n      swap1\n      tag_95\n      jump\t// in\n    tag_94:\n        /* \"contract/StakingRewards_flattened.sol\":27446:27528  (_balances[account] * (rewardPerToken() - userRewardPerTokenPaid[account])) / 1e18 */\n      tag_96\n      swap2\n      swap1\n      tag_97\n      jump\t// in\n    tag_96:\n        /* \"contract/StakingRewards_flattened.sol\":27446:27547  (_balances[account] * (rewardPerToken() - userRewardPerTokenPaid[account])) / 1e18 + rewards[account] */\n      tag_98\n      swap2\n      swap1\n      tag_99\n      jump\t// in\n    tag_98:\n        /* \"contract/StakingRewards_flattened.sol\":27439:27547  return (_balances[account] * (rewardPerToken() - userRewardPerTokenPaid[account])) / 1e18 + rewards[account] */\n      swap1\n      pop\n        /* \"contract/StakingRewards_flattened.sol\":27366:27554  function earned(address account) public view returns (uint256) {... */\n      swap2\n      swap1\n      pop\n      jump\t// out\n        /* \"contract/StakingRewards_flattened.sol\":26625:26667  mapping(address => uint256) public rewards */\n    tag_33:\n      mstore(0x20, 0x0a)\n      dup1\n      0x00\n      mstore\n      keccak256(0x00, 0x40)\n      0x00\n      swap2\n      pop\n      swap1\n      pop\n      sload\n      dup2\n      jump\t// out\n        /* \"contract/StakingRewards_flattened.sol\":27149:27240  function totalSupply() external view returns (uint256) {... */\n    tag_36:\n        /* \"contract/StakingRewards_flattened.sol\":27195:27202  uint256 */\n      0x00\n        /* \"contract/StakingRewards_flattened.sol\":27221:27233  _totalSupply */\n      sload(0x0b)\n        /* \"contract/StakingRewards_flattened.sol\":27214:27233  return _totalSupply */\n      swap1\n      pop\n        /* \"contract/StakingRewards_flattened.sol\":27149:27240  function totalSupply() external view returns (uint256) {... */\n      swap1\n      jump\t// out\n        /* \"contract/StakingRewards_flattened.sol\":28240:28548  function withdraw(uint256 amount) public nonReentrant updateReward(msg.sender) {... */\n    tag_41:\n        /* \"contract/StakingRewards_flattened.sol\":20985:21006  _nonReentrantBefore() */\n      tag_102\n        /* \"contract/StakingRewards_flattened.sol\":20985:21004  _nonReentrantBefore */\n      tag_103\n        /* \"contract/StakingRewards_flattened.sol\":20985:21006  _nonReentrantBefore() */\n      jump\t// in\n    tag_102:\n        /* \"contract/StakingRewards_flattened.sol\":28307:28317  msg.sender */\n      caller\n        /* \"contract/StakingRewards_flattened.sol\":27658:27674  rewardPerToken() */\n      tag_105\n        /* \"contract/StakingRewards_flattened.sol\":27658:27672  rewardPerToken */\n      tag_91\n        /* \"contract/StakingRewards_flattened.sol\":27658:27674  rewardPerToken() */\n      jump\t// in\n    tag_105:\n        /* \"contract/StakingRewards_flattened.sol\":27635:27655  rewardPerTokenStored */\n      0x08\n        /* \"contract/StakingRewards_flattened.sol\":27635:27674  rewardPerTokenStored = rewardPerToken() */\n      dup2\n      swap1\n      sstore\n      pop\n        /* \"contract/StakingRewards_flattened.sol\":27701:27727  lastTimeRewardApplicable() */\n      tag_106\n        /* \"contract/StakingRewards_flattened.sol\":27701:27725  lastTimeRewardApplicable */\n      tag_107\n        /* \"contract/StakingRewards_flattened.sol\":27701:27727  lastTimeRewardApplicable() */\n      jump\t// in\n    tag_106:\n        /* \"contract/StakingRewards_flattened.sol\":27684:27698  lastUpdateTime */\n      0x07\n        /* \"contract/StakingRewards_flattened.sol\":27684:27727  lastUpdateTime = lastTimeRewardApplicable() */\n      dup2\n      swap1\n      sstore\n      pop\n        /* \"contract/StakingRewards_flattened.sol\":27760:27761  0 */\n      0x00\n        /* \"contract/StakingRewards_flattened.sol\":27741:27762  account != address(0) */\n      0xffffffffffffffffffffffffffffffffffffffff\n      and\n        /* \"contract/StakingRewards_flattened.sol\":27741:27748  account */\n      dup2\n        /* \"contract/StakingRewards_flattened.sol\":27741:27762  account != address(0) */\n      0xffffffffffffffffffffffffffffffffffffffff\n      and\n      eq\n        /* \"contract/StakingRewards_flattened.sol\":27737:27891  if (account != address(0)) {... */\n      tag_108\n      jumpi\n        /* \"contract/StakingRewards_flattened.sol\":27797:27812  earned(account) */\n      tag_109\n        /* \"contract/StakingRewards_flattened.sol\":27804:27811  account */\n      dup2\n        /* \"contract/StakingRewards_flattened.sol\":27797:27803  earned */\n      tag_28\n        /* \"contract/StakingRewards_flattened.sol\":27797:27812  earned(account) */\n      jump\t// in\n    tag_109:\n        /* \"contract/StakingRewards_flattened.sol\":27778:27785  rewards */\n      0x0a\n        /* \"contract/StakingRewards_flattened.sol\":27778:27794  rewards[account] */\n      0x00\n        /* \"contract/StakingRewards_flattened.sol\":27786:27793  account */\n      dup4\n        /* \"contract/StakingRewards_flattened.sol\":27778:27794  rewards[account] */\n      0xffffffffffffffffffffffffffffffffffffffff\n      and\n      0xffffffffffffffffffffffffffffffffffffffff\n      and\n      dup2\n      mstore\n      0x20\n      add\n      swap1\n      dup2\n      mstore\n      0x20\n      add\n      0x00\n      keccak256\n        /* \"contract/StakingRewards_flattened.sol\":27778:27812  rewards[account] = earned(account) */\n      dup2\n      swap1\n      sstore\n      pop\n        /* \"contract/StakingRewards_flattened.sol\":27860:27880  rewardPerTokenStored */\n      sload(0x08)\n        /* \"contract/StakingRewards_flattened.sol\":27826:27848  userRewardPerTokenPaid */\n      0x09\n        /* \"contract/StakingRewards_flattened.sol\":27826:27857  userRewardPerTokenPaid[account] */\n      0x00\n        /* \"contract/StakingRewards_flattened.sol\":27849:27856  account */\n      dup4\n        /* \"contract/StakingRewards_flattened.sol\":27826:27857  userRewardPerTokenPaid[account] */\n      0xffffffffffffffffffffffffffffffffffffffff\n      and\n      0xffffffffffffffffffffffffffffffffffffffff\n      and\n      dup2\n      mstore\n      0x20\n      add\n      swap1\n      dup2\n      mstore\n      0x20\n      add\n      0x00\n      keccak256\n        /* \"contract/StakingRewards_flattened.sol\":27826:27880  userRewardPerTokenPaid[account] = rewardPerTokenStored */\n      dup2\n      swap1\n      sstore\n      pop\n        /* \"contract/StakingRewards_flattened.sol\":27737:27891  if (account != address(0)) {... */\n    tag_108:\n        /* \"contract/StakingRewards_flattened.sol\":28346:28347  0 */\n      0x00\n        /* \"contract/StakingRewards_flattened.sol\":28337:28343  amount */\n      dup3\n        /* \"contract/StakingRewards_flattened.sol\":28337:28347  amount > 0 */\n      gt\n        /* \"contract/StakingRewards_flattened.sol\":28329:28369  require(amount > 0, \"Cannot withdraw 0\") */\n      tag_111\n      jumpi\n      mload(0x40)\n      0x08c379a000000000000000000000000000000000000000000000000000000000\n      dup2\n      mstore\n      0x04\n      add\n      tag_112\n      swap1\n      tag_113\n      jump\t// in\n    tag_112:\n      mload(0x40)\n      dup1\n      swap2\n      sub\n      swap1\n      revert\n    tag_111:\n        /* \"contract/StakingRewards_flattened.sol\":28395:28401  amount */\n      dup2\n        /* \"contract/StakingRewards_flattened.sol\":28379:28391  _totalSupply */\n      0x0b\n      0x00\n        /* \"contract/StakingRewards_flattened.sol\":28379:28401  _totalSupply -= amount */\n      dup3\n      dup3\n      sload\n      tag_114\n      swap2\n      swap1\n      tag_93\n      jump\t// in\n    tag_114:\n      swap3\n      pop\n      pop\n      dup2\n      swap1\n      sstore\n      pop\n        /* \"contract/StakingRewards_flattened.sol\":28436:28442  amount */\n      dup2\n        /* \"contract/StakingRewards_flattened.sol\":28411:28420  _balances */\n      0x0c\n        /* \"contract/StakingRewards_flattened.sol\":28411:28432  _balances[msg.sender] */\n      0x00\n        /* \"contract/StakingRewards_flattened.sol\":28421:28431  msg.sender */\n      caller\n        /* \"contract/StakingRewards_flattened.sol\":28411:28432  _balances[msg.sender] */\n      0xffffffffffffffffffffffffffffffffffffffff\n      and\n      0xffffffffffffffffffffffffffffffffffffffff\n      and\n      dup2\n      mstore\n      0x20\n      add\n      swap1\n      dup2\n      mstore\n      0x20\n      add\n      0x00\n      keccak256\n      0x00\n        /* \"contract/StakingRewards_flattened.sol\":28411:28442  _balances[msg.sender] -= amount */\n      dup3\n      dup3\n      sload\n      tag_115\n      swap2\n      swap1\n      tag_93\n      jump\t// in\n    tag_115:\n      swap3\n      pop\n      pop\n      dup2\n      swap1\n      sstore\n      pop\n        /* \"contract/StakingRewards_flattened.sol\":28452:28497  stakingToken.safeTransfer(msg.sender, amount) */\n      tag_116\n        /* \"contract/StakingRewards_flattened.sol\":28478:28488  msg.sender */\n      caller\n        /* \"contract/StakingRewards_flattened.sol\":28490:28496  amount */\n      dup4\n        /* \"contract/StakingRewards_flattened.sol\":28452:28464  stakingToken */\n      0x02\n      0x00\n      swap1\n      sload\n      swap1\n      0x0100\n      exp\n      swap1\n      div\n      0xffffffffffffffffffffffffffffffffffffffff\n      and\n        /* \"contract/StakingRewards_flattened.sol\":28452:28477  stakingToken.safeTransfer */\n      0xffffffffffffffffffffffffffffffffffffffff\n      and\n      tag_117\n      swap1\n        /* \"contract/StakingRewards_flattened.sol\":28452:28497  stakingToken.safeTransfer(msg.sender, amount) */\n      swap3\n      swap2\n      swap1\n      0xffffffff\n      and\n      jump\t// in\n    tag_116:\n        /* \"contract/StakingRewards_flattened.sol\":28522:28532  msg.sender */\n      caller\n        /* \"contract/StakingRewards_flattened.sol\":28512:28541  Withdrawn(msg.sender, amount) */\n      0xffffffffffffffffffffffffffffffffffffffff\n      and\n      0x7084f5476618d8e60b11ef0d7d3f06914655adb8793e28ff7f018d4c76d505d5\n        /* \"contract/StakingRewards_flattened.sol\":28534:28540  amount */\n      dup4\n        /* \"contract/StakingRewards_flattened.sol\":28512:28541  Withdrawn(msg.sender, amount) */\n      mload(0x40)\n      tag_118\n      swap2\n      swap1\n      tag_30\n      jump\t// in\n    tag_118:\n      mload(0x40)\n      dup1\n      swap2\n      sub\n      swap1\n      log2\n        /* \"contract/StakingRewards_flattened.sol\":21016:21017  _ */\n      pop\n        /* \"contract/StakingRewards_flattened.sol\":21027:21047  _nonReentrantAfter() */\n      tag_119\n        /* \"contract/StakingRewards_flattened.sol\":21027:21045  _nonReentrantAfter */\n      tag_120\n        /* \"contract/StakingRewards_flattened.sol\":21027:21047  _nonReentrantAfter() */\n      jump\t// in\n    tag_119:\n        /* \"contract/StakingRewards_flattened.sol\":28240:28548  function withdraw(uint256 amount) public nonReentrant updateReward(msg.sender) {... */\n      pop\n      jump\t// out\n        /* \"contract/StakingRewards_flattened.sol\":26440:26479  uint256 public rewardsDuration = 7 days */\n    tag_43:\n      sload(0x06)\n      dup2\n      jump\t// out\n        /* \"contract/StakingRewards_flattened.sol\":28892:29395  function notifyRewardAmount(uint256 reward) external onlyOwner updateReward(address(0)) {... */\n    tag_47:\n        /* \"contract/StakingRewards_flattened.sol\":24362:24375  _checkOwner() */\n      tag_122\n        /* \"contract/StakingRewards_flattened.sol\":24362:24373  _checkOwner */\n      tag_123\n        /* \"contract/StakingRewards_flattened.sol\":24362:24375  _checkOwner() */\n      jump\t// in\n    tag_122:\n        /* \"contract/StakingRewards_flattened.sol\":28976:28977  0 */\n      0x00\n        /* \"contract/StakingRewards_flattened.sol\":27658:27674  rewardPerToken() */\n      tag_125\n        /* \"contract/StakingRewards_flattened.sol\":27658:27672  rewardPerToken */\n      tag_91\n        /* \"contract/StakingRewards_flattened.sol\":27658:27674  rewardPerToken() */\n      jump\t// in\n    tag_125:\n        /* \"contract/StakingRewards_flattened.sol\":27635:27655  rewardPerTokenStored */\n      0x08\n        /* \"contract/StakingRewards_flattened.sol\":27635:27674  rewardPerTokenStored = rewardPerToken() */\n      dup2\n      swap1\n      sstore\n      pop\n        /* \"contract/StakingRewards_flattened.sol\":27701:27727  lastTimeRewardApplicable() */\n      tag_126\n        /* \"contract/StakingRewards_flattened.sol\":27701:27725  lastTimeRewardApplicable */\n      tag_107\n        /* \"contract/StakingRewards_flattened.sol\":27701:27727  lastTimeRewardApplicable() */\n      jump\t// in\n    tag_126:\n        /* \"contract/StakingRewards_flattened.sol\":27684:27698  lastUpdateTime */\n      0x07\n        /* \"contract/StakingRewards_flattened.sol\":27684:27727  lastUpdateTime = lastTimeRewardApplicable() */\n      dup2\n      swap1\n      sstore\n      pop\n        /* \"contract/StakingRewards_flattened.sol\":27760:27761  0 */\n      0x00\n        /* \"contract/StakingRewards_flattened.sol\":27741:27762  account != address(0) */\n      0xffffffffffffffffffffffffffffffffffffffff\n      and\n        /* \"contract/StakingRewards_flattened.sol\":27741:27748  account */\n      dup2\n        /* \"contract/StakingRewards_flattened.sol\":27741:27762  account != address(0) */\n      0xffffffffffffffffffffffffffffffffffffffff\n      and\n      eq\n        /* \"contract/StakingRewards_flattened.sol\":27737:27891  if (account != address(0)) {... */\n      tag_127\n      jumpi\n        /* \"contract/StakingRewards_flattened.sol\":27797:27812  earned(account) */\n      tag_128\n        /* \"contract/StakingRewards_flattened.sol\":27804:27811  account */\n      dup2\n        /* \"contract/StakingRewards_flattened.sol\":27797:27803  earned */\n      tag_28\n        /* \"contract/StakingRewards_flattened.sol\":27797:27812  earned(account) */\n      jump\t// in\n    tag_128:\n        /* \"contract/StakingRewards_flattened.sol\":27778:27785  rewards */\n      0x0a\n        /* \"contract/StakingRewards_flattened.sol\":27778:27794  rewards[account] */\n      0x00\n        /* \"contract/StakingRewards_flattened.sol\":27786:27793  account */\n      dup4\n        /* \"contract/StakingRewards_flattened.sol\":27778:27794  rewards[account] */\n      0xffffffffffffffffffffffffffffffffffffffff\n      and\n      0xffffffffffffffffffffffffffffffffffffffff\n      and\n      dup2\n      mstore\n      0x20\n      add\n      swap1\n      dup2\n      mstore\n      0x20\n      add\n      0x00\n      keccak256\n        /* \"contract/StakingRewards_flattened.sol\":27778:27812  rewards[account] = earned(account) */\n      dup2\n      swap1\n      sstore\n      pop\n        /* \"contract/StakingRewards_flattened.sol\":27860:27880  rewardPerTokenStored */\n      sload(0x08)\n        /* \"contract/StakingRewards_flattened.sol\":27826:27848  userRewardPerTokenPaid */\n      0x09\n        /* \"contract/StakingRewards_flattened.sol\":27826:27857  userRewardPerTokenPaid[account] */\n      0x00\n        /* \"contract/StakingRewards_flattened.sol\":27849:27856  account */\n      dup4\n        /* \"contract/StakingRewards_flattened.sol\":27826:27857  userRewardPerTokenPaid[account] */\n      0xffffffffffffffffffffffffffffffffffffffff\n      and\n      0xffffffffffffffffffffffffffffffffffffffff\n      and\n      dup2\n      mstore\n      0x20\n      add\n      swap1\n      dup2\n      mstore\n      0x20\n      add\n      0x00\n      keccak256\n        /* \"contract/StakingRewards_flattened.sol\":27826:27880  userRewardPerTokenPaid[account] = rewardPerTokenStored */\n      dup2\n      swap1\n      sstore\n      pop\n        /* \"contract/StakingRewards_flattened.sol\":27737:27891  if (account != address(0)) {... */\n    tag_127:\n        /* \"contract/StakingRewards_flattened.sol\":29013:29025  periodFinish */\n      sload(0x04)\n        /* \"contract/StakingRewards_flattened.sol\":28994:29009  block.timestamp */\n      timestamp\n        /* \"contract/StakingRewards_flattened.sol\":28994:29025  block.timestamp >= periodFinish */\n      lt\n        /* \"contract/StakingRewards_flattened.sol\":28990:29289  if (block.timestamp >= periodFinish) {... */\n      tag_130\n      jumpi\n        /* \"contract/StakingRewards_flattened.sol\":29063:29078  rewardsDuration */\n      sload(0x06)\n        /* \"contract/StakingRewards_flattened.sol\":29054:29060  reward */\n      dup3\n        /* \"contract/StakingRewards_flattened.sol\":29054:29078  reward / rewardsDuration */\n      tag_131\n      swap2\n      swap1\n      tag_97\n      jump\t// in\n    tag_131:\n        /* \"contract/StakingRewards_flattened.sol\":29041:29051  rewardRate */\n      0x05\n        /* \"contract/StakingRewards_flattened.sol\":29041:29078  rewardRate = reward / rewardsDuration */\n      dup2\n      swap1\n      sstore\n      pop\n        /* \"contract/StakingRewards_flattened.sol\":28990:29289  if (block.timestamp >= periodFinish) {... */\n      jump(tag_132)\n    tag_130:\n        /* \"contract/StakingRewards_flattened.sol\":29109:29126  uint256 remaining */\n      0x00\n        /* \"contract/StakingRewards_flattened.sol\":29144:29159  block.timestamp */\n      timestamp\n        /* \"contract/StakingRewards_flattened.sol\":29129:29141  periodFinish */\n      sload(0x04)\n        /* \"contract/StakingRewards_flattened.sol\":29129:29159  periodFinish - block.timestamp */\n      tag_133\n      swap2\n      swap1\n      tag_93\n      jump\t// in\n    tag_133:\n        /* \"contract/StakingRewards_flattened.sol\":29109:29159  uint256 remaining = periodFinish - block.timestamp */\n      swap1\n      pop\n        /* \"contract/StakingRewards_flattened.sol\":29173:29189  uint256 leftover */\n      0x00\n        /* \"contract/StakingRewards_flattened.sol\":29204:29214  rewardRate */\n      sload(0x05)\n        /* \"contract/StakingRewards_flattened.sol\":29192:29201  remaining */\n      dup3\n        /* \"contract/StakingRewards_flattened.sol\":29192:29214  remaining * rewardRate */\n      tag_134\n      swap2\n      swap1\n      tag_95\n      jump\t// in\n    tag_134:\n        /* \"contract/StakingRewards_flattened.sol\":29173:29214  uint256 leftover = remaining * rewardRate */\n      swap1\n      pop\n        /* \"contract/StakingRewards_flattened.sol\":29263:29278  rewardsDuration */\n      sload(0x06)\n        /* \"contract/StakingRewards_flattened.sol\":29251:29259  leftover */\n      dup2\n        /* \"contract/StakingRewards_flattened.sol\":29242:29248  reward */\n      dup6\n        /* \"contract/StakingRewards_flattened.sol\":29242:29259  reward + leftover */\n      tag_135\n      swap2\n      swap1\n      tag_99\n      jump\t// in\n    tag_135:\n        /* \"contract/StakingRewards_flattened.sol\":29241:29278  (reward + leftover) / rewardsDuration */\n      tag_136\n      swap2\n      swap1\n      tag_97\n      jump\t// in\n    tag_136:\n        /* \"contract/StakingRewards_flattened.sol\":29228:29238  rewardRate */\n      0x05\n        /* \"contract/StakingRewards_flattened.sol\":29228:29278  rewardRate = (reward + leftover) / rewardsDuration */\n      dup2\n      swap1\n      sstore\n      pop\n        /* \"contract/StakingRewards_flattened.sol\":29095:29289  {... */\n      pop\n      pop\n        /* \"contract/StakingRewards_flattened.sol\":28990:29289  if (block.timestamp >= periodFinish) {... */\n    tag_132:\n        /* \"contract/StakingRewards_flattened.sol\":29315:29330  block.timestamp */\n      timestamp\n        /* \"contract/StakingRewards_flattened.sol\":29298:29312  lastUpdateTime */\n      0x07\n        /* \"contract/StakingRewards_flattened.sol\":29298:29330  lastUpdateTime = block.timestamp */\n      dup2\n      swap1\n      sstore\n      pop\n        /* \"contract/StakingRewards_flattened.sol\":29373:29388  rewardsDuration */\n      sload(0x06)\n        /* \"contract/StakingRewards_flattened.sol\":29355:29370  block.timestamp */\n      timestamp\n        /* \"contract/StakingRewards_flattened.sol\":29355:29388  block.timestamp + rewardsDuration */\n      tag_137\n      swap2\n      swap1\n      tag_99\n      jump\t// in\n    tag_137:\n        /* \"contract/StakingRewards_flattened.sol\":29340:29352  periodFinish */\n      0x04\n        /* \"contract/StakingRewards_flattened.sol\":29340:29388  periodFinish = block.timestamp + rewardsDuration */\n      dup2\n      swap1\n      sstore\n      pop\n        /* \"contract/StakingRewards_flattened.sol\":24385:24386  _ */\n      pop\n        /* \"contract/StakingRewards_flattened.sol\":28892:29395  function notifyRewardAmount(uint256 reward) external onlyOwner updateReward(address(0)) {... */\n      pop\n      jump\t// out\n        /* \"contract/StakingRewards_flattened.sol\":27246:27356  function balanceOf(address account) external view returns (uint256) {... */\n    tag_50:\n        /* \"contract/StakingRewards_flattened.sol\":27305:27312  uint256 */\n      0x00\n        /* \"contract/StakingRewards_flattened.sol\":27331:27340  _balances */\n      0x0c\n        /* \"contract/StakingRewards_flattened.sol\":27331:27349  _balances[account] */\n      0x00\n        /* \"contract/StakingRewards_flattened.sol\":27341:27348  account */\n      dup4\n        /* \"contract/StakingRewards_flattened.sol\":27331:27349  _balances[account] */\n      0xffffffffffffffffffffffffffffffffffffffff\n      and\n      0xffffffffffffffffffffffffffffffffffffffff\n      and\n      dup2\n      mstore\n      0x20\n      add\n      swap1\n      dup2\n      mstore\n      0x20\n      add\n      0x00\n      keccak256\n      sload\n        /* \"contract/StakingRewards_flattened.sol\":27324:27349  return _balances[account] */\n      swap1\n      pop\n        /* \"contract/StakingRewards_flattened.sol\":27246:27356  function balanceOf(address account) external view returns (uint256) {... */\n      swap2\n      swap1\n      pop\n      jump\t// out\n        /* \"contract/StakingRewards_flattened.sol\":25124:25225  function renounceOwnership() public virtual onlyOwner {... */\n    tag_53:\n        /* \"contract/StakingRewards_flattened.sol\":24362:24375  _checkOwner() */\n      tag_140\n        /* \"contract/StakingRewards_flattened.sol\":24362:24373  _checkOwner */\n      tag_123\n        /* \"contract/StakingRewards_flattened.sol\":24362:24375  _checkOwner() */\n      jump\t// in\n    tag_140:\n        /* \"contract/StakingRewards_flattened.sol\":25188:25218  _transferOwnership(address(0)) */\n      tag_142\n        /* \"contract/StakingRewards_flattened.sol\":25215:25216  0 */\n      0x00\n        /* \"contract/StakingRewards_flattened.sol\":25188:25206  _transferOwnership */\n      tag_143\n        /* \"contract/StakingRewards_flattened.sol\":25188:25218  _transferOwnership(address(0)) */\n      jump\t// in\n    tag_142:\n        /* \"contract/StakingRewards_flattened.sol\":25124:25225  function renounceOwnership() public virtual onlyOwner {... */\n      jump\t// out\n        /* \"contract/StakingRewards_flattened.sol\":26241:26267  IERC20 public stakingToken */\n    tag_55:\n      0x02\n      0x00\n      swap1\n      sload\n      swap1\n      0x0100\n      exp\n      swap1\n      div\n      0xffffffffffffffffffffffffffffffffffffffff\n      and\n      dup2\n      jump\t// out\n        /* \"contract/StakingRewards_flattened.sol\":26409:26434  uint256 public rewardRate */\n    tag_59:\n      sload(0x05)\n      dup2\n      jump\t// out\n        /* \"contract/StakingRewards_flattened.sol\":26562:26619  mapping(address => uint256) public userRewardPerTokenPaid */\n    tag_63:\n      mstore(0x20, 0x09)\n      dup1\n      0x00\n      mstore\n      keccak256(0x00, 0x40)\n      0x00\n      swap2\n      pop\n      swap1\n      pop\n      sload\n      dup2\n      jump\t// out\n        /* \"contract/StakingRewards_flattened.sol\":24469:24554  function owner() public view virtual returns (address) {... */\n    tag_66:\n        /* \"contract/StakingRewards_flattened.sol\":24515:24522  address */\n      0x00\n        /* \"contract/StakingRewards_flattened.sol\":24541:24547  _owner */\n      0x01\n      0x00\n      swap1\n      sload\n      swap1\n      0x0100\n      exp\n      swap1\n      div\n      0xffffffffffffffffffffffffffffffffffffffff\n      and\n        /* \"contract/StakingRewards_flattened.sol\":24534:24547  return _owner */\n      swap1\n      pop\n        /* \"contract/StakingRewards_flattened.sol\":24469:24554  function owner() public view virtual returns (address) {... */\n      swap1\n      jump\t// out\n        /* \"contract/StakingRewards_flattened.sol\":27914:28234  function stake(uint256 amount) external nonReentrant updateReward(msg.sender) {... */\n    tag_71:\n        /* \"contract/StakingRewards_flattened.sol\":20985:21006  _nonReentrantBefore() */\n      tag_146\n        /* \"contract/StakingRewards_flattened.sol\":20985:21004  _nonReentrantBefore */\n      tag_103\n        /* \"contract/StakingRewards_flattened.sol\":20985:21006  _nonReentrantBefore() */\n      jump\t// in\n    tag_146:\n        /* \"contract/StakingRewards_flattened.sol\":27980:27990  msg.sender */\n      caller\n        /* \"contract/StakingRewards_flattened.sol\":27658:27674  rewardPerToken() */\n      tag_148\n        /* \"contract/StakingRewards_flattened.sol\":27658:27672  rewardPerToken */\n      tag_91\n        /* \"contract/StakingRewards_flattened.sol\":27658:27674  rewardPerToken() */\n      jump\t// in\n    tag_148:\n        /* \"contract/StakingRewards_flattened.sol\":27635:27655  rewardPerTokenStored */\n      0x08\n        /* \"contract/StakingRewards_flattened.sol\":27635:27674  rewardPerTokenStored = rewardPerToken() */\n      dup2\n      swap1\n      sstore\n      pop\n        /* \"contract/StakingRewards_flattened.sol\":27701:27727  lastTimeRewardApplicable() */\n      tag_149\n        /* \"contract/StakingRewards_flattened.sol\":27701:27725  lastTimeRewardApplicable */\n      tag_107\n        /* \"contract/StakingRewards_flattened.sol\":27701:27727  lastTimeRewardApplicable() */\n      jump\t// in\n    tag_149:\n        /* \"contract/StakingRewards_flattened.sol\":27684:27698  lastUpdateTime */\n      0x07\n        /* \"contract/StakingRewards_flattened.sol\":27684:27727  lastUpdateTime = lastTimeRewardApplicable() */\n      dup2\n      swap1\n      sstore\n      pop\n        /* \"contract/StakingRewards_flattened.sol\":27760:27761  0 */\n      0x00\n        /* \"contract/StakingRewards_flattened.sol\":27741:27762  account != address(0) */\n      0xffffffffffffffffffffffffffffffffffffffff\n      and\n        /* \"contract/StakingRewards_flattened.sol\":27741:27748  account */\n      dup2\n        /* \"contract/StakingRewards_flattened.sol\":27741:27762  account != address(0) */\n      0xffffffffffffffffffffffffffffffffffffffff\n      and\n      eq\n        /* \"contract/StakingRewards_flattened.sol\":27737:27891  if (account != address(0)) {... */\n      tag_150\n      jumpi\n        /* \"contract/StakingRewards_flattened.sol\":27797:27812  earned(account) */\n      tag_151\n        /* \"contract/StakingRewards_flattened.sol\":27804:27811  account */\n      dup2\n        /* \"contract/StakingRewards_flattened.sol\":27797:27803  earned */\n      tag_28\n        /* \"contract/StakingRewards_flattened.sol\":27797:27812  earned(account) */\n      jump\t// in\n    tag_151:\n        /* \"contract/StakingRewards_flattened.sol\":27778:27785  rewards */\n      0x0a\n        /* \"contract/StakingRewards_flattened.sol\":27778:27794  rewards[account] */\n      0x00\n        /* \"contract/StakingRewards_flattened.sol\":27786:27793  account */\n      dup4\n        /* \"contract/StakingRewards_flattened.sol\":27778:27794  rewards[account] */\n      0xffffffffffffffffffffffffffffffffffffffff\n      and\n      0xffffffffffffffffffffffffffffffffffffffff\n      and\n      dup2\n      mstore\n      0x20\n      add\n      swap1\n      dup2\n      mstore\n      0x20\n      add\n      0x00\n      keccak256\n        /* \"contract/StakingRewards_flattened.sol\":27778:27812  rewards[account] = earned(account) */\n      dup2\n      swap1\n      sstore\n      pop\n        /* \"contract/StakingRewards_flattened.sol\":27860:27880  rewardPerTokenStored */\n      sload(0x08)\n        /* \"contract/StakingRewards_flattened.sol\":27826:27848  userRewardPerTokenPaid */\n      0x09\n        /* \"contract/StakingRewards_flattened.sol\":27826:27857  userRewardPerTokenPaid[account] */\n      0x00\n        /* \"contract/StakingRewards_flattened.sol\":27849:27856  account */\n      dup4\n        /* \"contract/StakingRewards_flattened.sol\":27826:27857  userRewardPerTokenPaid[account] */\n      0xffffffffffffffffffffffffffffffffffffffff\n      and\n      0xffffffffffffffffffffffffffffffffffffffff\n      and\n      dup2\n      mstore\n      0x20\n      add\n      swap1\n      dup2\n      mstore\n      0x20\n      add\n      0x00\n      keccak256\n        /* \"contract/StakingRewards_flattened.sol\":27826:27880  userRewardPerTokenPaid[account] = rewardPerTokenStored */\n      dup2\n      swap1\n      sstore\n      pop\n        /* \"contract/StakingRewards_flattened.sol\":27737:27891  if (account != address(0)) {... */\n    tag_150:\n        /* \"contract/StakingRewards_flattened.sol\":28019:28020  0 */\n      0x00\n        /* \"contract/StakingRewards_flattened.sol\":28010:28016  amount */\n      dup3\n        /* \"contract/StakingRewards_flattened.sol\":28010:28020  amount > 0 */\n      gt\n        /* \"contract/StakingRewards_flattened.sol\":28002:28039  require(amount > 0, \"Cannot stake 0\") */\n      tag_153\n      jumpi\n      mload(0x40)\n      0x08c379a000000000000000000000000000000000000000000000000000000000\n      dup2\n      mstore\n      0x04\n      add\n      tag_154\n      swap1\n      tag_155\n      jump\t// in\n    tag_154:\n      mload(0x40)\n      dup1\n      swap2\n      sub\n      swap1\n      revert\n    tag_153:\n        /* \"contract/StakingRewards_flattened.sol\":28065:28071  amount */\n      dup2\n        /* \"contract/StakingRewards_flattened.sol\":28049:28061  _totalSupply */\n      0x0b\n      0x00\n        /* \"contract/StakingRewards_flattened.sol\":28049:28071  _totalSupply += amount */\n      dup3\n      dup3\n      sload\n      tag_156\n      swap2\n      swap1\n      tag_99\n      jump\t// in\n    tag_156:\n      swap3\n      pop\n      pop\n      dup2\n      swap1\n      sstore\n      pop\n        /* \"contract/StakingRewards_flattened.sol\":28106:28112  amount */\n      dup2\n        /* \"contract/StakingRewards_flattened.sol\":28081:28090  _balances */\n      0x0c\n        /* \"contract/StakingRewards_flattened.sol\":28081:28102  _balances[msg.sender] */\n      0x00\n        /* \"contract/StakingRewards_flattened.sol\":28091:28101  msg.sender */\n      caller\n        /* \"contract/StakingRewards_flattened.sol\":28081:28102  _balances[msg.sender] */\n      0xffffffffffffffffffffffffffffffffffffffff\n      and\n      0xffffffffffffffffffffffffffffffffffffffff\n      and\n      dup2\n      mstore\n      0x20\n      add\n      swap1\n      dup2\n      mstore\n      0x20\n      add\n      0x00\n      keccak256\n      0x00\n        /* \"contract/StakingRewards_flattened.sol\":28081:28112  _balances[msg.sender] += amount */\n      dup3\n      dup3\n      sload\n      tag_157\n      swap2\n      swap1\n      tag_99\n      jump\t// in\n    tag_157:\n      swap3\n      pop\n      pop\n      dup2\n      swap1\n      sstore\n      pop\n        /* \"contract/StakingRewards_flattened.sol\":28122:28186  stakingToken.safeTransferFrom(msg.sender, address(this), amount) */\n      tag_158\n        /* \"contract/StakingRewards_flattened.sol\":28152:28162  msg.sender */\n      caller\n        /* \"contract/StakingRewards_flattened.sol\":28172:28176  this */\n      address\n        /* \"contract/StakingRewards_flattened.sol\":28179:28185  amount */\n      dup5\n        /* \"contract/StakingRewards_flattened.sol\":28122:28134  stakingToken */\n      0x02\n      0x00\n      swap1\n      sload\n      swap1\n      0x0100\n      exp\n      swap1\n      div\n      0xffffffffffffffffffffffffffffffffffffffff\n      and\n        /* \"contract/StakingRewards_flattened.sol\":28122:28151  stakingToken.safeTransferFrom */\n      0xffffffffffffffffffffffffffffffffffffffff\n      and\n      tag_159\n      swap1\n        /* \"contract/StakingRewards_flattened.sol\":28122:28186  stakingToken.safeTransferFrom(msg.sender, address(this), amount) */\n      swap4\n      swap3\n      swap2\n      swap1\n      0xffffffff\n      and\n      jump\t// in\n    tag_158:\n        /* \"contract/StakingRewards_flattened.sol\":28208:28218  msg.sender */\n      caller\n        /* \"contract/StakingRewards_flattened.sol\":28201:28227  Staked(msg.sender, amount) */\n      0xffffffffffffffffffffffffffffffffffffffff\n      and\n      0x9e71bc8eea02a63969f509818f2dafb9254532904319f9dbda79b67bd34a5f3d\n        /* \"contract/StakingRewards_flattened.sol\":28220:28226  amount */\n      dup4\n        /* \"contract/StakingRewards_flattened.sol\":28201:28227  Staked(msg.sender, amount) */\n      mload(0x40)\n      tag_160\n      swap2\n      swap1\n      tag_30\n      jump\t// in\n    tag_160:\n      mload(0x40)\n      dup1\n      swap2\n      sub\n      swap1\n      log2\n        /* \"contract/StakingRewards_flattened.sol\":21016:21017  _ */\n      pop\n        /* \"contract/StakingRewards_flattened.sol\":21027:21047  _nonReentrantAfter() */\n      tag_161\n        /* \"contract/StakingRewards_flattened.sol\":21027:21045  _nonReentrantAfter */\n      tag_120\n        /* \"contract/StakingRewards_flattened.sol\":21027:21047  _nonReentrantAfter() */\n      jump\t// in\n    tag_161:\n        /* \"contract/StakingRewards_flattened.sol\":27914:28234  function stake(uint256 amount) external nonReentrant updateReward(msg.sender) {... */\n      pop\n      jump\t// out\n        /* \"contract/StakingRewards_flattened.sol\":28554:28856  function claimReward() public nonReentrant updateReward(msg.sender) {... */\n    tag_73:\n        /* \"contract/StakingRewards_flattened.sol\":20985:21006  _nonReentrantBefore() */\n      tag_163\n        /* \"contract/StakingRewards_flattened.sol\":20985:21004  _nonReentrantBefore */\n      tag_103\n        /* \"contract/StakingRewards_flattened.sol\":20985:21006  _nonReentrantBefore() */\n      jump\t// in\n    tag_163:\n        /* \"contract/StakingRewards_flattened.sol\":28610:28620  msg.sender */\n      caller\n        /* \"contract/StakingRewards_flattened.sol\":27658:27674  rewardPerToken() */\n      tag_165\n        /* \"contract/StakingRewards_flattened.sol\":27658:27672  rewardPerToken */\n      tag_91\n        /* \"contract/StakingRewards_flattened.sol\":27658:27674  rewardPerToken() */\n      jump\t// in\n    tag_165:\n        /* \"contract/StakingRewards_flattened.sol\":27635:27655  rewardPerTokenStored */\n      0x08\n        /* \"contract/StakingRewards_flattened.sol\":27635:27674  rewardPerTokenStored = rewardPerToken() */\n      dup2\n      swap1\n      sstore\n      pop\n        /* \"contract/StakingRewards_flattened.sol\":27701:27727  lastTimeRewardApplicable() */\n      tag_166\n        /* \"contract/StakingRewards_flattened.sol\":27701:27725  lastTimeRewardApplicable */\n      tag_107\n        /* \"contract/StakingRewards_flattened.sol\":27701:27727  lastTimeRewardApplicable() */\n      jump\t// in\n    tag_166:\n        /* \"contract/StakingRewards_flattened.sol\":27684:27698  lastUpdateTime */\n      0x07\n        /* \"contract/StakingRewards_flattened.sol\":27684:27727  lastUpdateTime = lastTimeRewardApplicable() */\n      dup2\n      swap1\n      sstore\n      pop\n        /* \"contract/StakingRewards_flattened.sol\":27760:27761  0 */\n      0x00\n        /* \"contract/StakingRewards_flattened.sol\":27741:27762  account != address(0) */\n      0xffffffffffffffffffffffffffffffffffffffff\n      and\n        /* \"contract/StakingRewards_flattened.sol\":27741:27748  account */\n      dup2\n        /* \"contract/StakingRewards_flattened.sol\":27741:27762  account != address(0) */\n      0xffffffffffffffffffffffffffffffffffffffff\n      and\n      eq\n        /* \"contract/StakingRewards_flattened.sol\":27737:27891  if (account != address(0)) {... */\n      tag_167\n      jumpi\n        /* \"contract/StakingRewards_flattened.sol\":27797:27812  earned(account) */\n      tag_168\n        /* \"contract/StakingRewards_flattened.sol\":27804:27811  account */\n      dup2\n        /* \"contract/StakingRewards_flattened.sol\":27797:27803  earned */\n      tag_28\n        /* \"contract/StakingRewards_flattened.sol\":27797:27812  earned(account) */\n      jump\t// in\n    tag_168:\n        /* \"contract/StakingRewards_flattened.sol\":27778:27785  rewards */\n      0x0a\n        /* \"contract/StakingRewards_flattened.sol\":27778:27794  rewards[account] */\n      0x00\n        /* \"contract/StakingRewards_flattened.sol\":27786:27793  account */\n      dup4\n        /* \"contract/StakingRewards_flattened.sol\":27778:27794  rewards[account] */\n      0xffffffffffffffffffffffffffffffffffffffff\n      and\n      0xffffffffffffffffffffffffffffffffffffffff\n      and\n      dup2\n      mstore\n      0x20\n      add\n      swap1\n      dup2\n      mstore\n      0x20\n      add\n      0x00\n      keccak256\n        /* \"contract/StakingRewards_flattened.sol\":27778:27812  rewards[account] = earned(account) */\n      dup2\n      swap1\n      sstore\n      pop\n        /* \"contract/StakingRewards_flattened.sol\":27860:27880  rewardPerTokenStored */\n      sload(0x08)\n        /* \"contract/StakingRewards_flattened.sol\":27826:27848  userRewardPerTokenPaid */\n      0x09\n        /* \"contract/StakingRewards_flattened.sol\":27826:27857  userRewardPerTokenPaid[account] */\n      0x00\n        /* \"contract/StakingRewards_flattened.sol\":27849:27856  account */\n      dup4\n        /* \"contract/StakingRewards_flattened.sol\":27826:27857  userRewardPerTokenPaid[account] */\n      0xffffffffffffffffffffffffffffffffffffffff\n      and\n      0xffffffffffffffffffffffffffffffffffffffff\n      and\n      dup2\n      mstore\n      0x20\n      add\n      swap1\n      dup2\n      mstore\n      0x20\n      add\n      0x00\n      keccak256\n        /* \"contract/StakingRewards_flattened.sol\":27826:27880  userRewardPerTokenPaid[account] = rewardPerTokenStored */\n      dup2\n      swap1\n      sstore\n      pop\n        /* \"contract/StakingRewards_flattened.sol\":27737:27891  if (account != address(0)) {... */\n    tag_167:\n        /* \"contract/StakingRewards_flattened.sol\":28632:28646  uint256 reward */\n      0x00\n        /* \"contract/StakingRewards_flattened.sol\":28649:28656  rewards */\n      0x0a\n        /* \"contract/StakingRewards_flattened.sol\":28649:28668  rewards[msg.sender] */\n      0x00\n        /* \"contract/StakingRewards_flattened.sol\":28657:28667  msg.sender */\n      caller\n        /* \"contract/StakingRewards_flattened.sol\":28649:28668  rewards[msg.sender] */\n      0xffffffffffffffffffffffffffffffffffffffff\n      and\n      0xffffffffffffffffffffffffffffffffffffffff\n      and\n      dup2\n      mstore\n      0x20\n      add\n      swap1\n      dup2\n      mstore\n      0x20\n      add\n      0x00\n      keccak256\n      sload\n        /* \"contract/StakingRewards_flattened.sol\":28632:28668  uint256 reward = rewards[msg.sender] */\n      swap1\n      pop\n        /* \"contract/StakingRewards_flattened.sol\":28691:28692  0 */\n      0x00\n        /* \"contract/StakingRewards_flattened.sol\":28682:28688  reward */\n      dup2\n        /* \"contract/StakingRewards_flattened.sol\":28682:28692  reward > 0 */\n      gt\n        /* \"contract/StakingRewards_flattened.sol\":28678:28850  if (reward > 0) {... */\n      iszero\n      tag_170\n      jumpi\n        /* \"contract/StakingRewards_flattened.sol\":28730:28731  0 */\n      0x00\n        /* \"contract/StakingRewards_flattened.sol\":28708:28715  rewards */\n      0x0a\n        /* \"contract/StakingRewards_flattened.sol\":28708:28727  rewards[msg.sender] */\n      0x00\n        /* \"contract/StakingRewards_flattened.sol\":28716:28726  msg.sender */\n      caller\n        /* \"contract/StakingRewards_flattened.sol\":28708:28727  rewards[msg.sender] */\n      0xffffffffffffffffffffffffffffffffffffffff\n      and\n      0xffffffffffffffffffffffffffffffffffffffff\n      and\n      dup2\n      mstore\n      0x20\n      add\n      swap1\n      dup2\n      mstore\n      0x20\n      add\n      0x00\n      keccak256\n        /* \"contract/StakingRewards_flattened.sol\":28708:28731  rewards[msg.sender] = 0 */\n      dup2\n      swap1\n      sstore\n      pop\n        /* \"contract/StakingRewards_flattened.sol\":28745:28790  rewardsToken.safeTransfer(msg.sender, reward) */\n      tag_171\n        /* \"contract/StakingRewards_flattened.sol\":28771:28781  msg.sender */\n      caller\n        /* \"contract/StakingRewards_flattened.sol\":28783:28789  reward */\n      dup3\n        /* \"contract/StakingRewards_flattened.sol\":28745:28757  rewardsToken */\n      0x03\n      0x00\n      swap1\n      sload\n      swap1\n      0x0100\n      exp\n      swap1\n      div\n      0xffffffffffffffffffffffffffffffffffffffff\n      and\n        /* \"contract/StakingRewards_flattened.sol\":28745:28770  rewardsToken.safeTransfer */\n      0xffffffffffffffffffffffffffffffffffffffff\n      and\n      tag_117\n      swap1\n        /* \"contract/StakingRewards_flattened.sol\":28745:28790  rewardsToken.safeTransfer(msg.sender, reward) */\n      swap3\n      swap2\n      swap1\n      0xffffffff\n      and\n      jump\t// in\n    tag_171:\n        /* \"contract/StakingRewards_flattened.sol\":28820:28830  msg.sender */\n      caller\n        /* \"contract/StakingRewards_flattened.sol\":28809:28839  RewardPaid(msg.sender, reward) */\n      0xffffffffffffffffffffffffffffffffffffffff\n      and\n      0xe2403640ba68fed3a2f88b7557551d1993f84b99bb10ff833f0cf8db0c5e0486\n        /* \"contract/StakingRewards_flattened.sol\":28832:28838  reward */\n      dup3\n        /* \"contract/StakingRewards_flattened.sol\":28809:28839  RewardPaid(msg.sender, reward) */\n      mload(0x40)\n      tag_172\n      swap2\n      swap1\n      tag_30\n      jump\t// in\n    tag_172:\n      mload(0x40)\n      dup1\n      swap2\n      sub\n      swap1\n      log2\n        /* \"contract/StakingRewards_flattened.sol\":28678:28850  if (reward > 0) {... */\n    tag_170:\n        /* \"contract/StakingRewards_flattened.sol\":28622:28856  {... */\n      pop\n        /* \"contract/StakingRewards_flattened.sol\":21016:21017  _ */\n      pop\n        /* \"contract/StakingRewards_flattened.sol\":21027:21047  _nonReentrantAfter() */\n      tag_173\n        /* \"contract/StakingRewards_flattened.sol\":21027:21045  _nonReentrantAfter */\n      tag_120\n        /* \"contract/StakingRewards_flattened.sol\":21027:21047  _nonReentrantAfter() */\n      jump\t// in\n    tag_173:\n        /* \"contract/StakingRewards_flattened.sol\":28554:28856  function claimReward() public nonReentrant updateReward(msg.sender) {... */\n      jump\t// out\n        /* \"contract/StakingRewards_flattened.sol\":26485:26514  uint256 public lastUpdateTime */\n    tag_75:\n      sload(0x07)\n      dup2\n      jump\t// out\n        /* \"contract/StakingRewards_flattened.sol\":26304:26330  IERC20 public rewardsToken */\n    tag_78:\n      0x03\n      0x00\n      swap1\n      sload\n      swap1\n      0x0100\n      exp\n      swap1\n      div\n      0xffffffffffffffffffffffffffffffffffffffff\n      and\n      dup2\n      jump\t// out\n        /* \"contract/StakingRewards_flattened.sol\":26520:26555  uint256 public rewardPerTokenStored */\n    tag_81:\n      sload(0x08)\n      dup2\n      jump\t// out\n        /* \"contract/StakingRewards_flattened.sol\":26376:26403  uint256 public periodFinish */\n    tag_84:\n      sload(0x04)\n      dup2\n      jump\t// out\n        /* \"contract/StakingRewards_flattened.sol\":25374:25589  function transferOwnership(address newOwner) public virtual onlyOwner {... */\n    tag_88:\n        /* \"contract/StakingRewards_flattened.sol\":24362:24375  _checkOwner() */\n      tag_175\n        /* \"contract/StakingRewards_flattened.sol\":24362:24373  _checkOwner */\n      tag_123\n        /* \"contract/StakingRewards_flattened.sol\":24362:24375  _checkOwner() */\n      jump\t// in\n    tag_175:\n        /* \"contract/StakingRewards_flattened.sol\":25478:25479  0 */\n      0x00\n        /* \"contract/StakingRewards_flattened.sol\":25458:25480  newOwner == address(0) */\n      0xffffffffffffffffffffffffffffffffffffffff\n      and\n        /* \"contract/StakingRewards_flattened.sol\":25458:25466  newOwner */\n      dup2\n        /* \"contract/StakingRewards_flattened.sol\":25458:25480  newOwner == address(0) */\n      0xffffffffffffffffffffffffffffffffffffffff\n      and\n      sub\n        /* \"contract/StakingRewards_flattened.sol\":25454:25545  if (newOwner == address(0)) {... */\n      tag_177\n      jumpi\n        /* \"contract/StakingRewards_flattened.sol\":25531:25532  0 */\n      0x00\n        /* \"contract/StakingRewards_flattened.sol\":25503:25534  OwnableInvalidOwner(address(0)) */\n      mload(0x40)\n      0x1e4fbdf700000000000000000000000000000000000000000000000000000000\n      dup2\n      mstore\n      0x04\n      add\n      tag_178\n      swap2\n      swap1\n      tag_68\n      jump\t// in\n    tag_178:\n      mload(0x40)\n      dup1\n      swap2\n      sub\n      swap1\n      revert\n        /* \"contract/StakingRewards_flattened.sol\":25454:25545  if (newOwner == address(0)) {... */\n    tag_177:\n        /* \"contract/StakingRewards_flattened.sol\":25554:25582  _transferOwnership(newOwner) */\n      tag_179\n        /* \"contract/StakingRewards_flattened.sol\":25573:25581  newOwner */\n      dup2\n        /* \"contract/StakingRewards_flattened.sol\":25554:25572  _transferOwnership */\n      tag_143\n        /* \"contract/StakingRewards_flattened.sol\":25554:25582  _transferOwnership(newOwner) */\n      jump\t// in\n    tag_179:\n        /* \"contract/StakingRewards_flattened.sol\":25374:25589  function transferOwnership(address newOwner) public virtual onlyOwner {... */\n      pop\n      jump\t// out\n        /* \"contract/StakingRewards_flattened.sol\":29446:29717  function rewardPerToken() internal view returns (uint256) {... */\n    tag_91:\n        /* \"contract/StakingRewards_flattened.sol\":29495:29502  uint256 */\n      0x00\n        /* \"contract/StakingRewards_flattened.sol\":29534:29535  0 */\n      0x00\n        /* \"contract/StakingRewards_flattened.sol\":29518:29530  _totalSupply */\n      sload(0x0b)\n        /* \"contract/StakingRewards_flattened.sol\":29518:29535  _totalSupply == 0 */\n      sub\n        /* \"contract/StakingRewards_flattened.sol\":29514:29589  if (_totalSupply == 0) {... */\n      tag_181\n      jumpi\n        /* \"contract/StakingRewards_flattened.sol\":29558:29578  rewardPerTokenStored */\n      sload(0x08)\n        /* \"contract/StakingRewards_flattened.sol\":29551:29578  return rewardPerTokenStored */\n      swap1\n      pop\n      jump(tag_180)\n        /* \"contract/StakingRewards_flattened.sol\":29514:29589  if (_totalSupply == 0) {... */\n    tag_181:\n        /* \"contract/StakingRewards_flattened.sol\":29698:29710  _totalSupply */\n      sload(0x0b)\n        /* \"contract/StakingRewards_flattened.sol\":29690:29694  1e18 */\n      0x0de0b6b3a7640000\n        /* \"contract/StakingRewards_flattened.sol\":29672:29686  lastUpdateTime */\n      sload(0x07)\n        /* \"contract/StakingRewards_flattened.sol\":29643:29669  lastTimeRewardApplicable() */\n      tag_182\n        /* \"contract/StakingRewards_flattened.sol\":29643:29667  lastTimeRewardApplicable */\n      tag_107\n        /* \"contract/StakingRewards_flattened.sol\":29643:29669  lastTimeRewardApplicable() */\n      jump\t// in\n    tag_182:\n        /* \"contract/StakingRewards_flattened.sol\":29643:29686  lastTimeRewardApplicable() - lastUpdateTime */\n      tag_183\n      swap2\n      swap1\n      tag_93\n      jump\t// in\n    tag_183:\n        /* \"contract/StakingRewards_flattened.sol\":29629:29639  rewardRate */\n      sload(0x05)\n        /* \"contract/StakingRewards_flattened.sol\":29629:29687  rewardRate * (lastTimeRewardApplicable() - lastUpdateTime) */\n      tag_184\n      swap2\n      swap1\n      tag_95\n      jump\t// in\n    tag_184:\n        /* \"contract/StakingRewards_flattened.sol\":29629:29694  rewardRate * (lastTimeRewardApplicable() - lastUpdateTime) * 1e18 */\n      tag_185\n      swap2\n      swap1\n      tag_95\n      jump\t// in\n    tag_185:\n        /* \"contract/StakingRewards_flattened.sol\":29628:29710  (rewardRate * (lastTimeRewardApplicable() - lastUpdateTime) * 1e18) / _totalSupply */\n      tag_186\n      swap2\n      swap1\n      tag_97\n      jump\t// in\n    tag_186:\n        /* \"contract/StakingRewards_flattened.sol\":29605:29625  rewardPerTokenStored */\n      sload(0x08)\n        /* \"contract/StakingRewards_flattened.sol\":29605:29710  rewardPerTokenStored + (rewardRate * (lastTimeRewardApplicable() - lastUpdateTime) * 1e18) / _totalSupply */\n      tag_187\n      swap2\n      swap1\n      tag_99\n      jump\t// in\n    tag_187:\n        /* \"contract/StakingRewards_flattened.sol\":29598:29710  return rewardPerTokenStored + (rewardRate * (lastTimeRewardApplicable() - lastUpdateTime) * 1e18) / _totalSupply */\n      swap1\n      pop\n        /* \"contract/StakingRewards_flattened.sol\":29446:29717  function rewardPerToken() internal view returns (uint256) {... */\n    tag_180:\n      swap1\n      jump\t// out\n        /* \"contract/StakingRewards_flattened.sol\":21060:21367  function _nonReentrantBefore() private {... */\n    tag_103:\n        /* \"contract/StakingRewards_flattened.sol\":20384:20385  2 */\n      0x02\n        /* \"contract/StakingRewards_flattened.sol\":21187:21194  _status */\n      sload(0x00)\n        /* \"contract/StakingRewards_flattened.sol\":21187:21205  _status == ENTERED */\n      sub\n        /* \"contract/StakingRewards_flattened.sol\":21183:21269  if (_status == ENTERED) {... */\n      tag_189\n      jumpi\n        /* \"contract/StakingRewards_flattened.sol\":21228:21258  ReentrancyGuardReentrantCall() */\n      mload(0x40)\n      0x3ee5aeb500000000000000000000000000000000000000000000000000000000\n      dup2\n      mstore\n      0x04\n      add\n      mload(0x40)\n      dup1\n      swap2\n      sub\n      swap1\n      revert\n        /* \"contract/StakingRewards_flattened.sol\":21183:21269  if (_status == ENTERED) {... */\n    tag_189:\n        /* \"contract/StakingRewards_flattened.sol\":20384:20385  2 */\n      0x02\n        /* \"contract/StakingRewards_flattened.sol\":21343:21350  _status */\n      0x00\n        /* \"contract/StakingRewards_flattened.sol\":21343:21360  _status = ENTERED */\n      dup2\n      swap1\n      sstore\n      pop\n        /* \"contract/StakingRewards_flattened.sol\":21060:21367  function _nonReentrantBefore() private {... */\n      jump\t// out\n        /* \"contract/StakingRewards_flattened.sol\":29723:29878  function lastTimeRewardApplicable() internal view returns (uint256) {... */\n    tag_107:\n        /* \"contract/StakingRewards_flattened.sol\":29782:29789  uint256 */\n      0x00\n        /* \"contract/StakingRewards_flattened.sol\":29826:29838  periodFinish */\n      sload(0x04)\n        /* \"contract/StakingRewards_flattened.sol\":29808:29823  block.timestamp */\n      timestamp\n        /* \"contract/StakingRewards_flattened.sol\":29808:29838  block.timestamp < periodFinish */\n      lt\n        /* \"contract/StakingRewards_flattened.sol\":29808:29871  block.timestamp < periodFinish ? block.timestamp : periodFinish */\n      tag_191\n      jumpi\n        /* \"contract/StakingRewards_flattened.sol\":29859:29871  periodFinish */\n      sload(0x04)\n        /* \"contract/StakingRewards_flattened.sol\":29808:29871  block.timestamp < periodFinish ? block.timestamp : periodFinish */\n      jump(tag_192)\n    tag_191:\n        /* \"contract/StakingRewards_flattened.sol\":29841:29856  block.timestamp */\n      timestamp\n        /* \"contract/StakingRewards_flattened.sol\":29808:29871  block.timestamp < periodFinish ? block.timestamp : periodFinish */\n    tag_192:\n        /* \"contract/StakingRewards_flattened.sol\":29801:29871  return block.timestamp < periodFinish ? block.timestamp : periodFinish */\n      swap1\n      pop\n        /* \"contract/StakingRewards_flattened.sol\":29723:29878  function lastTimeRewardApplicable() internal view returns (uint256) {... */\n      swap1\n      jump\t// out\n        /* \"contract/StakingRewards_flattened.sol\":9599:9759  function safeTransfer(IERC20 token, address to, uint256 value) internal {... */\n    tag_117:\n        /* \"contract/StakingRewards_flattened.sol\":9681:9752  _callOptionalReturn(token, abi.encodeCall(token.transfer, (to, value))) */\n      tag_194\n        /* \"contract/StakingRewards_flattened.sol\":9701:9706  token */\n      dup4\n        /* \"contract/StakingRewards_flattened.sol\":9723:9728  token */\n      dup5\n        /* \"contract/StakingRewards_flattened.sol\":9723:9737  token.transfer */\n      0xffffffffffffffffffffffffffffffffffffffff\n      and\n      0xa9059cbb\n        /* \"contract/StakingRewards_flattened.sol\":9740:9742  to */\n      dup6\n        /* \"contract/StakingRewards_flattened.sol\":9744:9749  value */\n      dup6\n        /* \"contract/StakingRewards_flattened.sol\":9708:9751  abi.encodeCall(token.transfer, (to, value)) */\n      add(0x24, mload(0x40))\n      tag_195\n      swap3\n      swap2\n      swap1\n      tag_196\n      jump\t// in\n    tag_195:\n      mload(0x40)\n      0x20\n      dup2\n      dup4\n      sub\n      sub\n      dup2\n      mstore\n      swap1\n      0x40\n      mstore\n      swap2\n      pop\n      0xe0\n      shl\n      0x20\n      dup3\n      add\n      dup1\n      mload\n      0xffffffffffffffffffffffffffffffffffffffffffffffffffffffff\n      dup4\n      dup2\n      dup4\n      and\n      or\n      dup4\n      mstore\n      pop\n      pop\n      pop\n      pop\n        /* \"contract/StakingRewards_flattened.sol\":9681:9700  _callOptionalReturn */\n      tag_197\n        /* \"contract/StakingRewards_flattened.sol\":9681:9752  _callOptionalReturn(token, abi.encodeCall(token.transfer, (to, value))) */\n      jump\t// in\n    tag_194:\n        /* \"contract/StakingRewards_flattened.sol\":9599:9759  function safeTransfer(IERC20 token, address to, uint256 value) internal {... */\n      pop\n      pop\n      pop\n      jump\t// out\n        /* \"contract/StakingRewards_flattened.sol\":21373:21581  function _nonReentrantAfter() private {... */\n    tag_120:\n        /* \"contract/StakingRewards_flattened.sol\":20342:20343  1 */\n      0x01\n        /* \"contract/StakingRewards_flattened.sol\":21553:21560  _status */\n      0x00\n        /* \"contract/StakingRewards_flattened.sol\":21553:21574  _status = NOT_ENTERED */\n      dup2\n      swap1\n      sstore\n      pop\n        /* \"contract/StakingRewards_flattened.sol\":21373:21581  function _nonReentrantAfter() private {... */\n      jump\t// out\n        /* \"contract/StakingRewards_flattened.sol\":24627:24789  function _checkOwner() internal view virtual {... */\n    tag_123:\n        /* \"contract/StakingRewards_flattened.sol\":24697:24709  _msgSender() */\n      tag_200\n        /* \"contract/StakingRewards_flattened.sol\":24697:24707  _msgSender */\n      tag_201\n        /* \"contract/StakingRewards_flattened.sol\":24697:24709  _msgSender() */\n      jump\t// in\n    tag_200:\n        /* \"contract/StakingRewards_flattened.sol\":24686:24709  owner() != _msgSender() */\n      0xffffffffffffffffffffffffffffffffffffffff\n      and\n        /* \"contract/StakingRewards_flattened.sol\":24686:24693  owner() */\n      tag_202\n        /* \"contract/StakingRewards_flattened.sol\":24686:24691  owner */\n      tag_66\n        /* \"contract/StakingRewards_flattened.sol\":24686:24693  owner() */\n      jump\t// in\n    tag_202:\n        /* \"contract/StakingRewards_flattened.sol\":24686:24709  owner() != _msgSender() */\n      0xffffffffffffffffffffffffffffffffffffffff\n      and\n      eq\n        /* \"contract/StakingRewards_flattened.sol\":24682:24783  if (owner() != _msgSender()) {... */\n      tag_203\n      jumpi\n        /* \"contract/StakingRewards_flattened.sol\":24759:24771  _msgSender() */\n      tag_204\n        /* \"contract/StakingRewards_flattened.sol\":24759:24769  _msgSender */\n      tag_201\n        /* \"contract/StakingRewards_flattened.sol\":24759:24771  _msgSender() */\n      jump\t// in\n    tag_204:\n        /* \"contract/StakingRewards_flattened.sol\":24732:24772  OwnableUnauthorizedAccount(_msgSender()) */\n      mload(0x40)\n      0x118cdaa700000000000000000000000000000000000000000000000000000000\n      dup2\n      mstore\n      0x04\n      add\n      tag_205\n      swap2\n      swap1\n      tag_68\n      jump\t// in\n    tag_205:\n      mload(0x40)\n      dup1\n      swap2\n      sub\n      swap1\n      revert\n        /* \"contract/StakingRewards_flattened.sol\":24682:24783  if (owner() != _msgSender()) {... */\n    tag_203:\n        /* \"contract/StakingRewards_flattened.sol\":24627:24789  function _checkOwner() internal view virtual {... */\n      jump\t// out\n        /* \"contract/StakingRewards_flattened.sol\":25743:25930  function _transferOwnership(address newOwner) internal virtual {... */\n    tag_143:\n        /* \"contract/StakingRewards_flattened.sol\":25816:25832  address oldOwner */\n      0x00\n        /* \"contract/StakingRewards_flattened.sol\":25835:25841  _owner */\n      0x01\n      0x00\n      swap1\n      sload\n      swap1\n      0x0100\n      exp\n      swap1\n      div\n      0xffffffffffffffffffffffffffffffffffffffff\n      and\n        /* \"contract/StakingRewards_flattened.sol\":25816:25841  address oldOwner = _owner */\n      swap1\n      pop\n        /* \"contract/StakingRewards_flattened.sol\":25860:25868  newOwner */\n      dup2\n        /* \"contract/StakingRewards_flattened.sol\":25851:25857  _owner */\n      0x01\n      0x00\n        /* \"contract/StakingRewards_flattened.sol\":25851:25868  _owner = newOwner */\n      0x0100\n      exp\n      dup2\n      sload\n      dup2\n      0xffffffffffffffffffffffffffffffffffffffff\n      mul\n      not\n      and\n      swap1\n      dup4\n      0xffffffffffffffffffffffffffffffffffffffff\n      and\n      mul\n      or\n      swap1\n      sstore\n      pop\n        /* \"contract/StakingRewards_flattened.sol\":25914:25922  newOwner */\n      dup2\n        /* \"contract/StakingRewards_flattened.sol\":25883:25923  OwnershipTransferred(oldOwner, newOwner) */\n      0xffffffffffffffffffffffffffffffffffffffff\n      and\n        /* \"contract/StakingRewards_flattened.sol\":25904:25912  oldOwner */\n      dup2\n        /* \"contract/StakingRewards_flattened.sol\":25883:25923  OwnershipTransferred(oldOwner, newOwner) */\n      0xffffffffffffffffffffffffffffffffffffffff\n      and\n      0x8be0079c531659141344cd1fd0a4f28419497f9722a3daafe3b4186f6b6457e0\n      mload(0x40)\n      mload(0x40)\n      dup1\n      swap2\n      sub\n      swap1\n      log3\n        /* \"contract/StakingRewards_flattened.sol\":25806:25930  {... */\n      pop\n        /* \"contract/StakingRewards_flattened.sol\":25743:25930  function _transferOwnership(address newOwner) internal virtual {... */\n      pop\n      jump\t// out\n        /* \"contract/StakingRewards_flattened.sol\":9998:10186  function safeTransferFrom(IERC20 token, address from, address to, uint256 value) internal {... */\n    tag_159:\n        /* \"contract/StakingRewards_flattened.sol\":10098:10179  _callOptionalReturn(token, abi.encodeCall(token.transferFrom, (from, to, value))) */\n      tag_208\n        /* \"contract/StakingRewards_flattened.sol\":10118:10123  token */\n      dup5\n        /* \"contract/StakingRewards_flattened.sol\":10140:10145  token */\n      dup6\n        /* \"contract/StakingRewards_flattened.sol\":10140:10158  token.transferFrom */\n      0xffffffffffffffffffffffffffffffffffffffff\n      and\n      0x23b872dd\n        /* \"contract/StakingRewards_flattened.sol\":10161:10165  from */\n      dup7\n        /* \"contract/StakingRewards_flattened.sol\":10167:10169  to */\n      dup7\n        /* \"contract/StakingRewards_flattened.sol\":10171:10176  value */\n      dup7\n        /* \"contract/StakingRewards_flattened.sol\":10125:10178  abi.encodeCall(token.transferFrom, (from, to, value)) */\n      add(0x24, mload(0x40))\n      tag_209\n      swap4\n      swap3\n      swap2\n      swap1\n      tag_210\n      jump\t// in\n    tag_209:\n      mload(0x40)\n      0x20\n      dup2\n      dup4\n      sub\n      sub\n      dup2\n      mstore\n      swap1\n      0x40\n      mstore\n      swap2\n      pop\n      0xe0\n      shl\n      0x20\n      dup3\n      add\n      dup1\n      mload\n      0xffffffffffffffffffffffffffffffffffffffffffffffffffffffff\n      dup4\n      dup2\n      dup4\n      and\n      or\n      dup4\n      mstore\n      pop\n      pop\n      pop\n      pop\n        /* \"contract/StakingRewards_flattened.sol\":10098:10117  _callOptionalReturn */\n      tag_197\n        /* \"contract/StakingRewards_flattened.sol\":10098:10179  _callOptionalReturn(token, abi.encodeCall(token.transferFrom, (from, to, value))) */\n      jump\t// in\n    tag_208:\n        /* \"contract/StakingRewards_flattened.sol\":9998:10186  function safeTransferFrom(IERC20 token, address from, address to, uint256 value) internal {... */\n      pop\n      pop\n      pop\n      pop\n      jump\t// out\n        /* \"contract/StakingRewards_flattened.sol\":16750:17470  function _callOptionalReturn(IERC20 token, bytes memory data) private {... */\n    tag_197:\n        /* \"contract/StakingRewards_flattened.sol\":16830:16848  uint256 returnSize */\n      0x00\n        /* \"contract/StakingRewards_flattened.sol\":16858:16877  uint256 returnValue */\n      0x00\n        /* \"contract/StakingRewards_flattened.sol\":16996:17000  0x20 */\n      0x20\n        /* \"contract/StakingRewards_flattened.sol\":16993:16994  0 */\n      0x00\n        /* \"contract/StakingRewards_flattened.sol\":16986:16990  data */\n      dup5\n        /* \"contract/StakingRewards_flattened.sol\":16980:16991  mload(data) */\n      mload\n        /* \"contract/StakingRewards_flattened.sol\":16973:16977  0x20 */\n      0x20\n        /* \"contract/StakingRewards_flattened.sol\":16967:16971  data */\n      dup7\n        /* \"contract/StakingRewards_flattened.sol\":16963:16978  add(data, 0x20) */\n      add\n        /* \"contract/StakingRewards_flattened.sol\":16960:16961  0 */\n      0x00\n        /* \"contract/StakingRewards_flattened.sol\":16953:16958  token */\n      dup9\n        /* \"contract/StakingRewards_flattened.sol\":16946:16951  gas() */\n      gas\n        /* \"contract/StakingRewards_flattened.sol\":16941:17001  call(gas(), token, 0, add(data, 0x20), mload(data), 0, 0x20) */\n      call\n        /* \"contract/StakingRewards_flattened.sol\":17053:17060  success */\n      dup1\n        /* \"contract/StakingRewards_flattened.sol\":17043:17219  if iszero(success) {... */\n      tag_212\n      jumpi\n        /* \"contract/StakingRewards_flattened.sol\":17097:17101  0x40 */\n      0x40\n        /* \"contract/StakingRewards_flattened.sol\":17091:17102  mload(0x40) */\n      mload\n        /* \"contract/StakingRewards_flattened.sol\":17142:17158  returndatasize() */\n      returndatasize\n        /* \"contract/StakingRewards_flattened.sol\":17139:17140  0 */\n      0x00\n        /* \"contract/StakingRewards_flattened.sol\":17134:17137  ptr */\n      dup3\n        /* \"contract/StakingRewards_flattened.sol\":17119:17159  returndatacopy(ptr, 0, returndatasize()) */\n      returndatacopy\n        /* \"contract/StakingRewards_flattened.sol\":17188:17204  returndatasize() */\n      returndatasize\n        /* \"contract/StakingRewards_flattened.sol\":17183:17186  ptr */\n      dup2\n        /* \"contract/StakingRewards_flattened.sol\":17176:17205  revert(ptr, returndatasize()) */\n      revert\n        /* \"contract/StakingRewards_flattened.sol\":17043:17219  if iszero(success) {... */\n    tag_212:\n        /* \"contract/StakingRewards_flattened.sol\":17246:17262  returndatasize() */\n      returndatasize\n        /* \"contract/StakingRewards_flattened.sol\":17232:17262  returnSize := returndatasize() */\n      swap3\n      pop\n        /* \"contract/StakingRewards_flattened.sol\":17296:17297  0 */\n      0x00\n        /* \"contract/StakingRewards_flattened.sol\":17290:17298  mload(0) */\n      mload\n        /* \"contract/StakingRewards_flattened.sol\":17275:17298  returnValue := mload(0) */\n      swap2\n      pop\n        /* \"contract/StakingRewards_flattened.sol\":16912:17308  {... */\n      pop\n        /* \"contract/StakingRewards_flattened.sol\":17336:17337  0 */\n      0x00\n        /* \"contract/StakingRewards_flattened.sol\":17322:17332  returnSize */\n      dup3\n        /* \"contract/StakingRewards_flattened.sol\":17322:17337  returnSize == 0 */\n      eq\n        /* \"contract/StakingRewards_flattened.sol\":17322:17390  returnSize == 0 ? address(token).code.length == 0 : returnValue != 1 */\n      tag_213\n      jumpi\n        /* \"contract/StakingRewards_flattened.sol\":17389:17390  1 */\n      0x01\n        /* \"contract/StakingRewards_flattened.sol\":17374:17385  returnValue */\n      dup2\n        /* \"contract/StakingRewards_flattened.sol\":17374:17390  returnValue != 1 */\n      eq\n      iszero\n        /* \"contract/StakingRewards_flattened.sol\":17322:17390  returnSize == 0 ? address(token).code.length == 0 : returnValue != 1 */\n      jump(tag_214)\n    tag_213:\n        /* \"contract/StakingRewards_flattened.sol\":17370:17371  0 */\n      0x00\n        /* \"contract/StakingRewards_flattened.sol\":17348:17353  token */\n      dup5\n        /* \"contract/StakingRewards_flattened.sol\":17340:17366  address(token).code.length */\n      0xffffffffffffffffffffffffffffffffffffffff\n      and\n      extcodesize\n        /* \"contract/StakingRewards_flattened.sol\":17340:17371  address(token).code.length == 0 */\n      eq\n        /* \"contract/StakingRewards_flattened.sol\":17322:17390  returnSize == 0 ? address(token).code.length == 0 : returnValue != 1 */\n    tag_214:\n        /* \"contract/StakingRewards_flattened.sol\":17318:17464  if (returnSize == 0 ? address(token).code.length == 0 : returnValue != 1) {... */\n      iszero\n      tag_215\n      jumpi\n        /* \"contract/StakingRewards_flattened.sol\":17446:17451  token */\n      dup4\n        /* \"contract/StakingRewards_flattened.sol\":17413:17453  SafeERC20FailedOperation(address(token)) */\n      mload(0x40)\n      0x5274afe700000000000000000000000000000000000000000000000000000000\n      dup2\n      mstore\n      0x04\n      add\n      tag_216\n      swap2\n      swap1\n      tag_68\n      jump\t// in\n    tag_216:\n      mload(0x40)\n      dup1\n      swap2\n      sub\n      swap1\n      revert\n        /* \"contract/StakingRewards_flattened.sol\":17318:17464  if (returnSize == 0 ? address(token).code.length == 0 : returnValue != 1) {... */\n    tag_215:\n        /* \"contract/StakingRewards_flattened.sol\":16820:17470  {... */\n      pop\n      pop\n        /* \"contract/StakingRewards_flattened.sol\":16750:17470  function _callOptionalReturn(IERC20 token, bytes memory data) private {... */\n      pop\n      pop\n      jump\t// out\n        /* \"contract/StakingRewards_flattened.sol\":22547:22643  function _msgSender() internal view virtual returns (address) {... */\n    tag_201:\n        /* \"contract/StakingRewards_flattened.sol\":22600:22607  address */\n      0x00\n        /* \"contract/StakingRewards_flattened.sol\":22626:22636  msg.sender */\n      caller\n        /* \"contract/StakingRewards_flattened.sol\":22619:22636  return msg.sender */\n      swap1\n      pop\n        /* \"contract/StakingRewards_flattened.sol\":22547:22643  function _msgSender() internal view virtual returns (address) {... */\n      swap1\n      jump\t// out\n        /* \"#utility.yul\":88:205   */\n    tag_219:\n        /* \"#utility.yul\":197:198   */\n      0x00\n        /* \"#utility.yul\":194:195   */\n      0x00\n        /* \"#utility.yul\":187:199   */\n      revert\n        /* \"#utility.yul\":334:460   */\n    tag_221:\n        /* \"#utility.yul\":371:378   */\n      0x00\n        /* \"#utility.yul\":411:453   */\n      0xffffffffffffffffffffffffffffffffffffffff\n        /* \"#utility.yul\":404:409   */\n      dup3\n        /* \"#utility.yul\":400:454   */\n      and\n        /* \"#utility.yul\":389:454   */\n      swap1\n      pop\n        /* \"#utility.yul\":334:460   */\n      swap2\n      swap1\n      pop\n      jump\t// out\n        /* \"#utility.yul\":466:562   */\n    tag_222:\n        /* \"#utility.yul\":503:510   */\n      0x00\n        /* \"#utility.yul\":532:556   */\n      tag_248\n        /* \"#utility.yul\":550:555   */\n      dup3\n        /* \"#utility.yul\":532:556   */\n      tag_221\n      jump\t// in\n    tag_248:\n        /* \"#utility.yul\":521:556   */\n      swap1\n      pop\n        /* \"#utility.yul\":466:562   */\n      swap2\n      swap1\n      pop\n      jump\t// out\n        /* \"#utility.yul\":568:690   */\n    tag_223:\n        /* \"#utility.yul\":641:665   */\n      tag_250\n        /* \"#utility.yul\":659:664   */\n      dup2\n        /* \"#utility.yul\":641:665   */\n      tag_222\n      jump\t// in\n    tag_250:\n        /* \"#utility.yul\":634:639   */\n      dup2\n        /* \"#utility.yul\":631:666   */\n      eq\n        /* \"#utility.yul\":621:684   */\n      tag_251\n      jumpi\n        /* \"#utility.yul\":680:681   */\n      0x00\n        /* \"#utility.yul\":677:678   */\n      0x00\n        /* \"#utility.yul\":670:682   */\n      revert\n        /* \"#utility.yul\":621:684   */\n    tag_251:\n        /* \"#utility.yul\":568:690   */\n      pop\n      jump\t// out\n        /* \"#utility.yul\":696:835   */\n    tag_224:\n        /* \"#utility.yul\":742:747   */\n      0x00\n        /* \"#utility.yul\":780:786   */\n      dup2\n        /* \"#utility.yul\":767:787   */\n      calldataload\n        /* \"#utility.yul\":758:787   */\n      swap1\n      pop\n        /* \"#utility.yul\":796:829   */\n      tag_253\n        /* \"#utility.yul\":823:828   */\n      dup2\n        /* \"#utility.yul\":796:829   */\n      tag_223\n      jump\t// in\n    tag_253:\n        /* \"#utility.yul\":696:835   */\n      swap3\n      swap2\n      pop\n      pop\n      jump\t// out\n        /* \"#utility.yul\":841:1170   */\n    tag_27:\n        /* \"#utility.yul\":900:906   */\n      0x00\n        /* \"#utility.yul\":949:951   */\n      0x20\n        /* \"#utility.yul\":937:946   */\n      dup3\n        /* \"#utility.yul\":928:935   */\n      dup5\n        /* \"#utility.yul\":924:947   */\n      sub\n        /* \"#utility.yul\":920:952   */\n      slt\n        /* \"#utility.yul\":917:1036   */\n      iszero\n      tag_255\n      jumpi\n        /* \"#utility.yul\":955:1034   */\n      tag_256\n      tag_219\n      jump\t// in\n    tag_256:\n        /* \"#utility.yul\":917:1036   */\n    tag_255:\n        /* \"#utility.yul\":1075:1076   */\n      0x00\n        /* \"#utility.yul\":1100:1153   */\n      tag_257\n        /* \"#utility.yul\":1145:1152   */\n      dup5\n        /* \"#utility.yul\":1136:1142   */\n      dup3\n        /* \"#utility.yul\":1125:1134   */\n      dup6\n        /* \"#utility.yul\":1121:1143   */\n      add\n        /* \"#utility.yul\":1100:1153   */\n      tag_224\n      jump\t// in\n    tag_257:\n        /* \"#utility.yul\":1090:1153   */\n      swap2\n      pop\n        /* \"#utility.yul\":1046:1163   */\n      pop\n        /* \"#utility.yul\":841:1170   */\n      swap3\n      swap2\n      pop\n      pop\n      jump\t// out\n        /* \"#utility.yul\":1176:1253   */\n    tag_225:\n        /* \"#utility.yul\":1213:1220   */\n      0x00\n        /* \"#utility.yul\":1242:1247   */\n      dup2\n        /* \"#utility.yul\":1231:1247   */\n      swap1\n      pop\n        /* \"#utility.yul\":1176:1253   */\n      swap2\n      swap1\n      pop\n      jump\t// out\n        /* \"#utility.yul\":1259:1377   */\n    tag_226:\n        /* \"#utility.yul\":1346:1370   */\n      tag_260\n        /* \"#utility.yul\":1364:1369   */\n      dup2\n        /* \"#utility.yul\":1346:1370   */\n      tag_225\n      jump\t// in\n    tag_260:\n        /* \"#utility.yul\":1341:1344   */\n      dup3\n        /* \"#utility.yul\":1334:1371   */\n      mstore\n        /* \"#utility.yul\":1259:1377   */\n      pop\n      pop\n      jump\t// out\n        /* \"#utility.yul\":1383:1605   */\n    tag_30:\n        /* \"#utility.yul\":1476:1480   */\n      0x00\n        /* \"#utility.yul\":1514:1516   */\n      0x20\n        /* \"#utility.yul\":1503:1512   */\n      dup3\n        /* \"#utility.yul\":1499:1517   */\n      add\n        /* \"#utility.yul\":1491:1517   */\n      swap1\n      pop\n        /* \"#utility.yul\":1527:1598   */\n      tag_262\n        /* \"#utility.yul\":1595:1596   */\n      0x00\n        /* \"#utility.yul\":1584:1593   */\n      dup4\n        /* \"#utility.yul\":1580:1597   */\n      add\n        /* \"#utility.yul\":1571:1577   */\n      dup5\n        /* \"#utility.yul\":1527:1598   */\n      tag_226\n      jump\t// in\n    tag_262:\n        /* \"#utility.yul\":1383:1605   */\n      swap3\n      swap2\n      pop\n      pop\n      jump\t// out\n        /* \"#utility.yul\":1611:1733   */\n    tag_227:\n        /* \"#utility.yul\":1684:1708   */\n      tag_264\n        /* \"#utility.yul\":1702:1707   */\n      dup2\n        /* \"#utility.yul\":1684:1708   */\n      tag_225\n      jump\t// in\n    tag_264:\n        /* \"#utility.yul\":1677:1682   */\n      dup2\n        /* \"#utility.yul\":1674:1709   */\n      eq\n        /* \"#utility.yul\":1664:1727   */\n      tag_265\n      jumpi\n        /* \"#utility.yul\":1723:1724   */\n      0x00\n        /* \"#utility.yul\":1720:1721   */\n      0x00\n        /* \"#utility.yul\":1713:1725   */\n      revert\n        /* \"#utility.yul\":1664:1727   */\n    tag_265:\n        /* \"#utility.yul\":1611:1733   */\n      pop\n      jump\t// out\n        /* \"#utility.yul\":1739:1878   */\n    tag_228:\n        /* \"#utility.yul\":1785:1790   */\n      0x00\n        /* \"#utility.yul\":1823:1829   */\n      dup2\n        /* \"#utility.yul\":1810:1830   */\n      calldataload\n        /* \"#utility.yul\":1801:1830   */\n      swap1\n      pop\n        /* \"#utility.yul\":1839:1872   */\n      tag_267\n        /* \"#utility.yul\":1866:1871   */\n      dup2\n        /* \"#utility.yul\":1839:1872   */\n      tag_227\n      jump\t// in\n    tag_267:\n        /* \"#utility.yul\":1739:1878   */\n      swap3\n      swap2\n      pop\n      pop\n      jump\t// out\n        /* \"#utility.yul\":1884:2213   */\n    tag_40:\n        /* \"#utility.yul\":1943:1949   */\n      0x00\n        /* \"#utility.yul\":1992:1994   */\n      0x20\n        /* \"#utility.yul\":1980:1989   */\n      dup3\n        /* \"#utility.yul\":1971:1978   */\n      dup5\n        /* \"#utility.yul\":1967:1990   */\n      sub\n        /* \"#utility.yul\":1963:1995   */\n      slt\n        /* \"#utility.yul\":1960:2079   */\n      iszero\n      tag_269\n      jumpi\n        /* \"#utility.yul\":1998:2077   */\n      tag_270\n      tag_219\n      jump\t// in\n    tag_270:\n        /* \"#utility.yul\":1960:2079   */\n    tag_269:\n        /* \"#utility.yul\":2118:2119   */\n      0x00\n        /* \"#utility.yul\":2143:2196   */\n      tag_271\n        /* \"#utility.yul\":2188:2195   */\n      dup5\n        /* \"#utility.yul\":2179:2185   */\n      dup3\n        /* \"#utility.yul\":2168:2177   */\n      dup6\n        /* \"#utility.yul\":2164:2186   */\n      add\n        /* \"#utility.yul\":2143:2196   */\n      tag_228\n      jump\t// in\n    tag_271:\n        /* \"#utility.yul\":2133:2196   */\n      swap2\n      pop\n        /* \"#utility.yul\":2089:2206   */\n      pop\n        /* \"#utility.yul\":1884:2213   */\n      swap3\n      swap2\n      pop\n      pop\n      jump\t// out\n        /* \"#utility.yul\":2219:2279   */\n    tag_229:\n        /* \"#utility.yul\":2247:2250   */\n      0x00\n        /* \"#utility.yul\":2268:2273   */\n      dup2\n        /* \"#utility.yul\":2261:2273   */\n      swap1\n      pop\n        /* \"#utility.yul\":2219:2279   */\n      swap2\n      swap1\n      pop\n      jump\t// out\n        /* \"#utility.yul\":2285:2427   */\n    tag_230:\n        /* \"#utility.yul\":2335:2344   */\n      0x00\n        /* \"#utility.yul\":2368:2421   */\n      tag_274\n        /* \"#utility.yul\":2386:2420   */\n      tag_275\n        /* \"#utility.yul\":2395:2419   */\n      tag_276\n        /* \"#utility.yul\":2413:2418   */\n      dup5\n        /* \"#utility.yul\":2395:2419   */\n      tag_221\n      jump\t// in\n    tag_276:\n        /* \"#utility.yul\":2386:2420   */\n      tag_229\n      jump\t// in\n    tag_275:\n        /* \"#utility.yul\":2368:2421   */\n      tag_221\n      jump\t// in\n    tag_274:\n        /* \"#utility.yul\":2355:2421   */\n      swap1\n      pop\n        /* \"#utility.yul\":2285:2427   */\n      swap2\n      swap1\n      pop\n      jump\t// out\n        /* \"#utility.yul\":2433:2559   */\n    tag_231:\n        /* \"#utility.yul\":2483:2492   */\n      0x00\n        /* \"#utility.yul\":2516:2553   */\n      tag_278\n        /* \"#utility.yul\":2547:2552   */\n      dup3\n        /* \"#utility.yul\":2516:2553   */\n      tag_230\n      jump\t// in\n    tag_278:\n        /* \"#utility.yul\":2503:2553   */\n      swap1\n      pop\n        /* \"#utility.yul\":2433:2559   */\n      swap2\n      swap1\n      pop\n      jump\t// out\n        /* \"#utility.yul\":2565:2704   */\n    tag_232:\n        /* \"#utility.yul\":2628:2637   */\n      0x00\n        /* \"#utility.yul\":2661:2698   */\n      tag_280\n        /* \"#utility.yul\":2692:2697   */\n      dup3\n        /* \"#utility.yul\":2661:2698   */\n      tag_231\n      jump\t// in\n    tag_280:\n        /* \"#utility.yul\":2648:2698   */\n      swap1\n      pop\n        /* \"#utility.yul\":2565:2704   */\n      swap2\n      swap1\n      pop\n      jump\t// out\n        /* \"#utility.yul\":2710:2867   */\n    tag_233:\n        /* \"#utility.yul\":2810:2860   */\n      tag_282\n        /* \"#utility.yul\":2854:2859   */\n      dup2\n        /* \"#utility.yul\":2810:2860   */\n      tag_232\n      jump\t// in\n    tag_282:\n        /* \"#utility.yul\":2805:2808   */\n      dup3\n        /* \"#utility.yul\":2798:2861   */\n      mstore\n        /* \"#utility.yul\":2710:2867   */\n      pop\n      pop\n      jump\t// out\n        /* \"#utility.yul\":2873:3121   */\n    tag_57:\n        /* \"#utility.yul\":2979:2983   */\n      0x00\n        /* \"#utility.yul\":3017:3019   */\n      0x20\n        /* \"#utility.yul\":3006:3015   */\n      dup3\n        /* \"#utility.yul\":3002:3020   */\n      add\n        /* \"#utility.yul\":2994:3020   */\n      swap1\n      pop\n        /* \"#utility.yul\":3030:3114   */\n      tag_284\n        /* \"#utility.yul\":3111:3112   */\n      0x00\n        /* \"#utility.yul\":3100:3109   */\n      dup4\n        /* \"#utility.yul\":3096:3113   */\n      add\n        /* \"#utility.yul\":3087:3093   */\n      dup5\n        /* \"#utility.yul\":3030:3114   */\n      tag_233\n      jump\t// in\n    tag_284:\n        /* \"#utility.yul\":2873:3121   */\n      swap3\n      swap2\n      pop\n      pop\n      jump\t// out\n        /* \"#utility.yul\":3127:3245   */\n    tag_234:\n        /* \"#utility.yul\":3214:3238   */\n      tag_286\n        /* \"#utility.yul\":3232:3237   */\n      dup2\n        /* \"#utility.yul\":3214:3238   */\n      tag_222\n      jump\t// in\n    tag_286:\n        /* \"#utility.yul\":3209:3212   */\n      dup3\n        /* \"#utility.yul\":3202:3239   */\n      mstore\n        /* \"#utility.yul\":3127:3245   */\n      pop\n      pop\n      jump\t// out\n        /* \"#utility.yul\":3251:3473   */\n    tag_68:\n        /* \"#utility.yul\":3344:3348   */\n      0x00\n        /* \"#utility.yul\":3382:3384   */\n      0x20\n        /* \"#utility.yul\":3371:3380   */\n      dup3\n        /* \"#utility.yul\":3367:3385   */\n      add\n        /* \"#utility.yul\":3359:3385   */\n      swap1\n      pop\n        /* \"#utility.yul\":3395:3466   */\n      tag_288\n        /* \"#utility.yul\":3463:3464   */\n      0x00\n        /* \"#utility.yul\":3452:3461   */\n      dup4\n        /* \"#utility.yul\":3448:3465   */\n      add\n        /* \"#utility.yul\":3439:3445   */\n      dup5\n        /* \"#utility.yul\":3395:3466   */\n      tag_234\n      jump\t// in\n    tag_288:\n        /* \"#utility.yul\":3251:3473   */\n      swap3\n      swap2\n      pop\n      pop\n      jump\t// out\n        /* \"#utility.yul\":3479:3659   */\n    tag_235:\n        /* \"#utility.yul\":3527:3604   */\n      0x4e487b7100000000000000000000000000000000000000000000000000000000\n        /* \"#utility.yul\":3524:3525   */\n      0x00\n        /* \"#utility.yul\":3517:3605   */\n      mstore\n        /* \"#utility.yul\":3624:3628   */\n      0x11\n        /* \"#utility.yul\":3621:3622   */\n      0x04\n        /* \"#utility.yul\":3614:3629   */\n      mstore\n        /* \"#utility.yul\":3648:3652   */\n      0x24\n        /* \"#utility.yul\":3645:3646   */\n      0x00\n        /* \"#utility.yul\":3638:3653   */\n      revert\n        /* \"#utility.yul\":3665:3859   */\n    tag_93:\n        /* \"#utility.yul\":3705:3709   */\n      0x00\n        /* \"#utility.yul\":3725:3745   */\n      tag_291\n        /* \"#utility.yul\":3743:3744   */\n      dup3\n        /* \"#utility.yul\":3725:3745   */\n      tag_225\n      jump\t// in\n    tag_291:\n        /* \"#utility.yul\":3720:3745   */\n      swap2\n      pop\n        /* \"#utility.yul\":3759:3779   */\n      tag_292\n        /* \"#utility.yul\":3777:3778   */\n      dup4\n        /* \"#utility.yul\":3759:3779   */\n      tag_225\n      jump\t// in\n    tag_292:\n        /* \"#utility.yul\":3754:3779   */\n      swap3\n      pop\n        /* \"#utility.yul\":3803:3804   */\n      dup3\n        /* \"#utility.yul\":3800:3801   */\n      dup3\n        /* \"#utility.yul\":3796:3805   */\n      sub\n        /* \"#utility.yul\":3788:3805   */\n      swap1\n      pop\n        /* \"#utility.yul\":3827:3828   */\n      dup2\n        /* \"#utility.yul\":3821:3825   */\n      dup2\n        /* \"#utility.yul\":3818:3829   */\n      gt\n        /* \"#utility.yul\":3815:3852   */\n      iszero\n      tag_293\n      jumpi\n        /* \"#utility.yul\":3832:3850   */\n      tag_294\n      tag_235\n      jump\t// in\n    tag_294:\n        /* \"#utility.yul\":3815:3852   */\n    tag_293:\n        /* \"#utility.yul\":3665:3859   */\n      swap3\n      swap2\n      pop\n      pop\n      jump\t// out\n        /* \"#utility.yul\":3865:4275   */\n    tag_95:\n        /* \"#utility.yul\":3905:3912   */\n      0x00\n        /* \"#utility.yul\":3928:3948   */\n      tag_296\n        /* \"#utility.yul\":3946:3947   */\n      dup3\n        /* \"#utility.yul\":3928:3948   */\n      tag_225\n      jump\t// in\n    tag_296:\n        /* \"#utility.yul\":3923:3948   */\n      swap2\n      pop\n        /* \"#utility.yul\":3962:3982   */\n      tag_297\n        /* \"#utility.yul\":3980:3981   */\n      dup4\n        /* \"#utility.yul\":3962:3982   */\n      tag_225\n      jump\t// in\n    tag_297:\n        /* \"#utility.yul\":3957:3982   */\n      swap3\n      pop\n        /* \"#utility.yul\":4017:4018   */\n      dup3\n        /* \"#utility.yul\":4014:4015   */\n      dup3\n        /* \"#utility.yul\":4010:4019   */\n      mul\n        /* \"#utility.yul\":4039:4069   */\n      tag_298\n        /* \"#utility.yul\":4057:4068   */\n      dup2\n        /* \"#utility.yul\":4039:4069   */\n      tag_225\n      jump\t// in\n    tag_298:\n        /* \"#utility.yul\":4028:4069   */\n      swap2\n      pop\n        /* \"#utility.yul\":4218:4219   */\n      dup3\n        /* \"#utility.yul\":4209:4216   */\n      dup3\n        /* \"#utility.yul\":4205:4220   */\n      div\n        /* \"#utility.yul\":4202:4203   */\n      dup5\n        /* \"#utility.yul\":4199:4221   */\n      eq\n        /* \"#utility.yul\":4179:4180   */\n      dup4\n        /* \"#utility.yul\":4172:4181   */\n      iszero\n        /* \"#utility.yul\":4152:4235   */\n      or\n        /* \"#utility.yul\":4129:4268   */\n      tag_299\n      jumpi\n        /* \"#utility.yul\":4248:4266   */\n      tag_300\n      tag_235\n      jump\t// in\n    tag_300:\n        /* \"#utility.yul\":4129:4268   */\n    tag_299:\n        /* \"#utility.yul\":3913:4275   */\n      pop\n        /* \"#utility.yul\":3865:4275   */\n      swap3\n      swap2\n      pop\n      pop\n      jump\t// out\n        /* \"#utility.yul\":4281:4461   */\n    tag_236:\n        /* \"#utility.yul\":4329:4406   */\n      0x4e487b7100000000000000000000000000000000000000000000000000000000\n        /* \"#utility.yul\":4326:4327   */\n      0x00\n        /* \"#utility.yul\":4319:4407   */\n      mstore\n        /* \"#utility.yul\":4426:4430   */\n      0x12\n        /* \"#utility.yul\":4423:4424   */\n      0x04\n        /* \"#utility.yul\":4416:4431   */\n      mstore\n        /* \"#utility.yul\":4450:4454   */\n      0x24\n        /* \"#utility.yul\":4447:4448   */\n      0x00\n        /* \"#utility.yul\":4440:4455   */\n      revert\n        /* \"#utility.yul\":4467:4652   */\n    tag_97:\n        /* \"#utility.yul\":4507:4508   */\n      0x00\n        /* \"#utility.yul\":4524:4544   */\n      tag_303\n        /* \"#utility.yul\":4542:4543   */\n      dup3\n        /* \"#utility.yul\":4524:4544   */\n      tag_225\n      jump\t// in\n    tag_303:\n        /* \"#utility.yul\":4519:4544   */\n      swap2\n      pop\n        /* \"#utility.yul\":4558:4578   */\n      tag_304\n        /* \"#utility.yul\":4576:4577   */\n      dup4\n        /* \"#utility.yul\":4558:4578   */\n      tag_225\n      jump\t// in\n    tag_304:\n        /* \"#utility.yul\":4553:4578   */\n      swap3\n      pop\n        /* \"#utility.yul\":4597:4598   */\n      dup3\n        /* \"#utility.yul\":4587:4622   */\n      tag_305\n      jumpi\n        /* \"#utility.yul\":4602:4620   */\n      tag_306\n      tag_236\n      jump\t// in\n    tag_306:\n        /* \"#utility.yul\":4587:4622   */\n    tag_305:\n        /* \"#utility.yul\":4644:4645   */\n      dup3\n        /* \"#utility.yul\":4641:4642   */\n      dup3\n        /* \"#utility.yul\":4637:4646   */\n      div\n        /* \"#utility.yul\":4632:4646   */\n      swap1\n      pop\n        /* \"#utility.yul\":4467:4652   */\n      swap3\n      swap2\n      pop\n      pop\n      jump\t// out\n        /* \"#utility.yul\":4658:4849   */\n    tag_99:\n        /* \"#utility.yul\":4698:4701   */\n      0x00\n        /* \"#utility.yul\":4717:4737   */\n      tag_308\n        /* \"#utility.yul\":4735:4736   */\n      dup3\n        /* \"#utility.yul\":4717:4737   */\n      tag_225\n      jump\t// in\n    tag_308:\n        /* \"#utility.yul\":4712:4737   */\n      swap2\n      pop\n        /* \"#utility.yul\":4751:4771   */\n      tag_309\n        /* \"#utility.yul\":4769:4770   */\n      dup4\n        /* \"#utility.yul\":4751:4771   */\n      tag_225\n      jump\t// in\n    tag_309:\n        /* \"#utility.yul\":4746:4771   */\n      swap3\n      pop\n        /* \"#utility.yul\":4794:4795   */\n      dup3\n        /* \"#utility.yul\":4791:4792   */\n      dup3\n        /* \"#utility.yul\":4787:4796   */\n      add\n        /* \"#utility.yul\":4780:4796   */\n      swap1\n      pop\n        /* \"#utility.yul\":4815:4818   */\n      dup1\n        /* \"#utility.yul\":4812:4813   */\n      dup3\n        /* \"#utility.yul\":4809:4819   */\n      gt\n        /* \"#utility.yul\":4806:4842   */\n      iszero\n      tag_310\n      jumpi\n        /* \"#utility.yul\":4822:4840   */\n      tag_311\n      tag_235\n      jump\t// in\n    tag_311:\n        /* \"#utility.yul\":4806:4842   */\n    tag_310:\n        /* \"#utility.yul\":4658:4849   */\n      swap3\n      swap2\n      pop\n      pop\n      jump\t// out\n        /* \"#utility.yul\":4855:5024   */\n    tag_237:\n        /* \"#utility.yul\":4939:4950   */\n      0x00\n        /* \"#utility.yul\":4973:4979   */\n      dup3\n        /* \"#utility.yul\":4968:4971   */\n      dup3\n        /* \"#utility.yul\":4961:4980   */\n      mstore\n        /* \"#utility.yul\":5013:5017   */\n      0x20\n        /* \"#utility.yul\":5008:5011   */\n      dup3\n        /* \"#utility.yul\":5004:5018   */\n      add\n        /* \"#utility.yul\":4989:5018   */\n      swap1\n      pop\n        /* \"#utility.yul\":4855:5024   */\n      swap3\n      swap2\n      pop\n      pop\n      jump\t// out\n        /* \"#utility.yul\":5030:5197   */\n    tag_238:\n        /* \"#utility.yul\":5170:5189   */\n      0x43616e6e6f742077697468647261772030000000000000000000000000000000\n        /* \"#utility.yul\":5166:5167   */\n      0x00\n        /* \"#utility.yul\":5158:5164   */\n      dup3\n        /* \"#utility.yul\":5154:5168   */\n      add\n        /* \"#utility.yul\":5147:5190   */\n      mstore\n        /* \"#utility.yul\":5030:5197   */\n      pop\n      jump\t// out\n        /* \"#utility.yul\":5203:5569   */\n    tag_239:\n        /* \"#utility.yul\":5345:5348   */\n      0x00\n        /* \"#utility.yul\":5366:5433   */\n      tag_315\n        /* \"#utility.yul\":5430:5432   */\n      0x11\n        /* \"#utility.yul\":5425:5428   */\n      dup4\n        /* \"#utility.yul\":5366:5433   */\n      tag_237\n      jump\t// in\n    tag_315:\n        /* \"#utility.yul\":5359:5433   */\n      swap2\n      pop\n        /* \"#utility.yul\":5442:5535   */\n      tag_316\n        /* \"#utility.yul\":5531:5534   */\n      dup3\n        /* \"#utility.yul\":5442:5535   */\n      tag_238\n      jump\t// in\n    tag_316:\n        /* \"#utility.yul\":5560:5562   */\n      0x20\n        /* \"#utility.yul\":5555:5558   */\n      dup3\n        /* \"#utility.yul\":5551:5563   */\n      add\n        /* \"#utility.yul\":5544:5563   */\n      swap1\n      pop\n        /* \"#utility.yul\":5203:5569   */\n      swap2\n      swap1\n      pop\n      jump\t// out\n        /* \"#utility.yul\":5575:5994   */\n    tag_113:\n        /* \"#utility.yul\":5741:5745   */\n      0x00\n        /* \"#utility.yul\":5779:5781   */\n      0x20\n        /* \"#utility.yul\":5768:5777   */\n      dup3\n        /* \"#utility.yul\":5764:5782   */\n      add\n        /* \"#utility.yul\":5756:5782   */\n      swap1\n      pop\n        /* \"#utility.yul\":5828:5837   */\n      dup2\n        /* \"#utility.yul\":5822:5826   */\n      dup2\n        /* \"#utility.yul\":5818:5838   */\n      sub\n        /* \"#utility.yul\":5814:5815   */\n      0x00\n        /* \"#utility.yul\":5803:5812   */\n      dup4\n        /* \"#utility.yul\":5799:5816   */\n      add\n        /* \"#utility.yul\":5792:5839   */\n      mstore\n        /* \"#utility.yul\":5856:5987   */\n      tag_318\n        /* \"#utility.yul\":5982:5986   */\n      dup2\n        /* \"#utility.yul\":5856:5987   */\n      tag_239\n      jump\t// in\n    tag_318:\n        /* \"#utility.yul\":5848:5987   */\n      swap1\n      pop\n        /* \"#utility.yul\":5575:5994   */\n      swap2\n      swap1\n      pop\n      jump\t// out\n        /* \"#utility.yul\":6000:6164   */\n    tag_240:\n        /* \"#utility.yul\":6140:6156   */\n      0x43616e6e6f74207374616b652030000000000000000000000000000000000000\n        /* \"#utility.yul\":6136:6137   */\n      0x00\n        /* \"#utility.yul\":6128:6134   */\n      dup3\n        /* \"#utility.yul\":6124:6138   */\n      add\n        /* \"#utility.yul\":6117:6157   */\n      mstore\n        /* \"#utility.yul\":6000:6164   */\n      pop\n      jump\t// out\n        /* \"#utility.yul\":6170:6536   */\n    tag_241:\n        /* \"#utility.yul\":6312:6315   */\n      0x00\n        /* \"#utility.yul\":6333:6400   */\n      tag_321\n        /* \"#utility.yul\":6397:6399   */\n      0x0e\n        /* \"#utility.yul\":6392:6395   */\n      dup4\n        /* \"#utility.yul\":6333:6400   */\n      tag_237\n      jump\t// in\n    tag_321:\n        /* \"#utility.yul\":6326:6400   */\n      swap2\n      pop\n        /* \"#utility.yul\":6409:6502   */\n      tag_322\n        /* \"#utility.yul\":6498:6501   */\n      dup3\n        /* \"#utility.yul\":6409:6502   */\n      tag_240\n      jump\t// in\n    tag_322:\n        /* \"#utility.yul\":6527:6529   */\n      0x20\n        /* \"#utility.yul\":6522:6525   */\n      dup3\n        /* \"#utility.yul\":6518:6530   */\n      add\n        /* \"#utility.yul\":6511:6530   */\n      swap1\n      pop\n        /* \"#utility.yul\":6170:6536   */\n      swap2\n      swap1\n      pop\n      jump\t// out\n        /* \"#utility.yul\":6542:6961   */\n    tag_155:\n        /* \"#utility.yul\":6708:6712   */\n      0x00\n        /* \"#utility.yul\":6746:6748   */\n      0x20\n        /* \"#utility.yul\":6735:6744   */\n      dup3\n        /* \"#utility.yul\":6731:6749   */\n      add\n        /* \"#utility.yul\":6723:6749   */\n      swap1\n      pop\n        /* \"#utility.yul\":6795:6804   */\n      dup2\n        /* \"#utility.yul\":6789:6793   */\n      dup2\n        /* \"#utility.yul\":6785:6805   */\n      sub\n        /* \"#utility.yul\":6781:6782   */\n      0x00\n        /* \"#utility.yul\":6770:6779   */\n      dup4\n        /* \"#utility.yul\":6766:6783   */\n      add\n        /* \"#utility.yul\":6759:6806   */\n      mstore\n        /* \"#utility.yul\":6823:6954   */\n      tag_324\n        /* \"#utility.yul\":6949:6953   */\n      dup2\n        /* \"#utility.yul\":6823:6954   */\n      tag_241\n      jump\t// in\n    tag_324:\n        /* \"#utility.yul\":6815:6954   */\n      swap1\n      pop\n        /* \"#utility.yul\":6542:6961   */\n      swap2\n      swap1\n      pop\n      jump\t// out\n        /* \"#utility.yul\":6967:7299   */\n    tag_196:\n        /* \"#utility.yul\":7088:7092   */\n      0x00\n        /* \"#utility.yul\":7126:7128   */\n      0x40\n        /* \"#utility.yul\":7115:7124   */\n      dup3\n        /* \"#utility.yul\":7111:7129   */\n      add\n        /* \"#utility.yul\":7103:7129   */\n      swap1\n      pop\n        /* \"#utility.yul\":7139:7210   */\n      tag_326\n        /* \"#utility.yul\":7207:7208   */\n      0x00\n        /* \"#utility.yul\":7196:7205   */\n      dup4\n        /* \"#utility.yul\":7192:7209   */\n      add\n        /* \"#utility.yul\":7183:7189   */\n      dup6\n        /* \"#utility.yul\":7139:7210   */\n      tag_234\n      jump\t// in\n    tag_326:\n        /* \"#utility.yul\":7220:7292   */\n      tag_327\n        /* \"#utility.yul\":7288:7290   */\n      0x20\n        /* \"#utility.yul\":7277:7286   */\n      dup4\n        /* \"#utility.yul\":7273:7291   */\n      add\n        /* \"#utility.yul\":7264:7270   */\n      dup5\n        /* \"#utility.yul\":7220:7292   */\n      tag_226\n      jump\t// in\n    tag_327:\n        /* \"#utility.yul\":6967:7299   */\n      swap4\n      swap3\n      pop\n      pop\n      pop\n      jump\t// out\n        /* \"#utility.yul\":7305:7747   */\n    tag_210:\n        /* \"#utility.yul\":7454:7458   */\n      0x00\n        /* \"#utility.yul\":7492:7494   */\n      0x60\n        /* \"#utility.yul\":7481:7490   */\n      dup3\n        /* \"#utility.yul\":7477:7495   */\n      add\n        /* \"#utility.yul\":7469:7495   */\n      swap1\n      pop\n        /* \"#utility.yul\":7505:7576   */\n      tag_329\n        /* \"#utility.yul\":7573:7574   */\n      0x00\n        /* \"#utility.yul\":7562:7571   */\n      dup4\n        /* \"#utility.yul\":7558:7575   */\n      add\n        /* \"#utility.yul\":7549:7555   */\n      dup7\n        /* \"#utility.yul\":7505:7576   */\n      tag_234\n      jump\t// in\n    tag_329:\n        /* \"#utility.yul\":7586:7658   */\n      tag_330\n        /* \"#utility.yul\":7654:7656   */\n      0x20\n        /* \"#utility.yul\":7643:7652   */\n      dup4\n        /* \"#utility.yul\":7639:7657   */\n      add\n        /* \"#utility.yul\":7630:7636   */\n      dup6\n        /* \"#utility.yul\":7586:7658   */\n      tag_234\n      jump\t// in\n    tag_330:\n        /* \"#utility.yul\":7668:7740   */\n      tag_331\n        /* \"#utility.yul\":7736:7738   */\n      0x40\n        /* \"#utility.yul\":7725:7734   */\n      dup4\n        /* \"#utility.yul\":7721:7739   */\n      add\n        /* \"#utility.yul\":7712:7718   */\n      dup5\n        /* \"#utility.yul\":7668:7740   */\n      tag_226\n      jump\t// in\n    tag_331:\n        /* \"#utility.yul\":7305:7747   */\n      swap5\n      swap4\n      pop\n      pop\n      pop\n      pop\n      jump\t// out\n\n    auxdata: 0xa26469706673582212207671f37add904e6b4c0494d6f0ef025ff99abcb4a2a049b2031bfe5f051c685864736f6c634300081e0033\n}\n",
				"bytecode": {
					"linkReferences": {},
					"object": "608060405262093a80600655348015610016575f5ffd5b506040516118ef3803806118ef83398181016040528101906100389190610268565b3360015f819055505f73ffffffffffffffffffffffffffffffffffffffff168173ffffffffffffffffffffffffffffffffffffffff16036100b0575f6040517f1e4fbdf70000000000000000000000000000000000000000000000000000000081526004016100a791906102b5565b60405180910390fd5b6100bf8161014760201b60201c565b508160025f6101000a81548173ffffffffffffffffffffffffffffffffffffffff021916908373ffffffffffffffffffffffffffffffffffffffff1602179055508060035f6101000a81548173ffffffffffffffffffffffffffffffffffffffff021916908373ffffffffffffffffffffffffffffffffffffffff16021790555050506102ce565b5f60015f9054906101000a900473ffffffffffffffffffffffffffffffffffffffff1690508160015f6101000a81548173ffffffffffffffffffffffffffffffffffffffff021916908373ffffffffffffffffffffffffffffffffffffffff1602179055508173ffffffffffffffffffffffffffffffffffffffff168173ffffffffffffffffffffffffffffffffffffffff167f8be0079c531659141344cd1fd0a4f28419497f9722a3daafe3b4186f6b6457e060405160405180910390a35050565b5f5ffd5b5f73ffffffffffffffffffffffffffffffffffffffff82169050919050565b5f6102378261020e565b9050919050565b6102478161022d565b8114610251575f5ffd5b50565b5f815190506102628161023e565b92915050565b5f5f6040838503121561027e5761027d61020a565b5b5f61028b85828601610254565b925050602061029c85828601610254565b9150509250929050565b6102af8161022d565b82525050565b5f6020820190506102c85f8301846102a6565b92915050565b611614806102db5f395ff3fe608060405234801561000f575f5ffd5b506004361061011e575f3560e01c80637b0a47ee116100ab578063c8f33c911161006f578063c8f33c91146102e0578063d1af0c7d146102fe578063df136d651461031c578063ebe2b12b1461033a578063f2fde38b146103585761011e565b80637b0a47ee1461024e5780638b8763471461026c5780638da5cb5b1461029c578063a694fc3a146102ba578063b88a802f146102d65761011e565b8063386a9525116100f2578063386a9525146101bc5780633c6b16ab146101da57806370a08231146101f6578063715018a61461022657806372f702f3146102305761011e565b80628cc262146101225780630700037d1461015257806318160ddd146101825780632e1a7d4d146101a0575b5f5ffd5b61013c60048036038101906101379190611224565b610374565b6040516101499190611267565b60405180910390f35b61016c60048036038101906101679190611224565b61046f565b6040516101799190611267565b60405180910390f35b61018a610484565b6040516101979190611267565b60405180910390f35b6101ba60048036038101906101b591906112aa565b61048d565b005b6101c46106c7565b6040516101d19190611267565b60405180910390f35b6101f460048036038101906101ef91906112aa565b6106cd565b005b610210600480360381019061020b9190611224565b610839565b60405161021d9190611267565b60405180910390f35b61022e61087f565b005b610238610892565b6040516102459190611330565b60405180910390f35b6102566108b7565b6040516102639190611267565b60405180910390f35b61028660048036038101906102819190611224565b6108bd565b6040516102939190611267565b60405180910390f35b6102a46108d2565b6040516102b19190611358565b60405180910390f35b6102d460048036038101906102cf91906112aa565b6108fa565b005b6102de610b36565b005b6102e8610d4f565b6040516102f59190611267565b60405180910390f35b610306610d55565b6040516103139190611330565b60405180910390f35b610324610d7a565b6040516103319190611267565b60405180910390f35b610342610d80565b60405161034f9190611267565b60405180910390f35b610372600480360381019061036d9190611224565b610d86565b005b5f600a5f8373ffffffffffffffffffffffffffffffffffffffff1673ffffffffffffffffffffffffffffffffffffffff1681526020019081526020015f2054670de0b6b3a764000060095f8573ffffffffffffffffffffffffffffffffffffffff1673ffffffffffffffffffffffffffffffffffffffff1681526020019081526020015f2054610402610e0a565b61040c919061139e565b600c5f8673ffffffffffffffffffffffffffffffffffffffff1673ffffffffffffffffffffffffffffffffffffffff1681526020019081526020015f205461045491906113d1565b61045e919061143f565b610468919061146f565b9050919050565b600a602052805f5260405f205f915090505481565b5f600b54905090565b610495610e73565b3361049e610e0a565b6008819055506104ac610eb7565b6007819055505f73ffffffffffffffffffffffffffffffffffffffff168173ffffffffffffffffffffffffffffffffffffffff1614610574576104ee81610374565b600a5f8373ffffffffffffffffffffffffffffffffffffffff1673ffffffffffffffffffffffffffffffffffffffff1681526020019081526020015f208190555060085460095f8373ffffffffffffffffffffffffffffffffffffffff1673ffffffffffffffffffffffffffffffffffffffff1681526020019081526020015f20819055505b5f82116105b6576040517f08c379a00000000000000000000000000000000000000000000000000000000081526004016105ad906114fc565b60405180910390fd5b81600b5f8282546105c7919061139e565b9250508190555081600c5f3373ffffffffffffffffffffffffffffffffffffffff1673ffffffffffffffffffffffffffffffffffffffff1681526020019081526020015f205f82825461061a919061139e565b9250508190555061066d338360025f9054906101000a900473ffffffffffffffffffffffffffffffffffffffff1673ffffffffffffffffffffffffffffffffffffffff16610ed09092919063ffffffff16565b3373ffffffffffffffffffffffffffffffffffffffff167f7084f5476618d8e60b11ef0d7d3f06914655adb8793e28ff7f018d4c76d505d5836040516106b39190611267565b60405180910390a2506106c4610f4f565b50565b60065481565b6106d5610f58565b5f6106de610e0a565b6008819055506106ec610eb7565b6007819055505f73ffffffffffffffffffffffffffffffffffffffff168173ffffffffffffffffffffffffffffffffffffffff16146107b45761072e81610374565b600a5f8373ffffffffffffffffffffffffffffffffffffffff1673ffffffffffffffffffffffffffffffffffffffff1681526020019081526020015f208190555060085460095f8373ffffffffffffffffffffffffffffffffffffffff1673ffffffffffffffffffffffffffffffffffffffff1681526020019081526020015f20819055505b60045442106107d657600654826107cb919061143f565b60058190555061081a565b5f426004546107e5919061139e565b90505f600554826107f691906113d1565b90506006548185610807919061146f565b610811919061143f565b60058190555050505b426007819055506006544261082f919061146f565b6004819055505050565b5f600c5f8373ffffffffffffffffffffffffffffffffffffffff1673ffffffffffffffffffffffffffffffffffffffff1681526020019081526020015f20549050919050565b610887610f58565b6108905f610fdf565b565b60025f9054906101000a900473ffffffffffffffffffffffffffffffffffffffff1681565b60055481565b6009602052805f5260405f205f915090505481565b5f60015f9054906101000a900473ffffffffffffffffffffffffffffffffffffffff16905090565b610902610e73565b3361090b610e0a565b600881905550610919610eb7565b6007819055505f73ffffffffffffffffffffffffffffffffffffffff168173ffffffffffffffffffffffffffffffffffffffff16146109e15761095b81610374565b600a5f8373ffffffffffffffffffffffffffffffffffffffff1673ffffffffffffffffffffffffffffffffffffffff1681526020019081526020015f208190555060085460095f8373ffffffffffffffffffffffffffffffffffffffff1673ffffffffffffffffffffffffffffffffffffffff1681526020019081526020015f20819055505b5f8211610a23576040517f08c379a0000000000000000000000000000000000000000000000000000000008152600401610a1a90611564565b60405180910390fd5b81600b5f828254610a34919061146f565b9250508190555081600c5f3373ffffffffffffffffffffffffffffffffffffffff1673ffffffffffffffffffffffffffffffffffffffff1681526020019081526020015f205f828254610a87919061146f565b92505081905550610adc33308460025f9054906101000a900473ffffffffffffffffffffffffffffffffffffffff1673ffffffffffffffffffffffffffffffffffffffff166110a2909392919063ffffffff16565b3373ffffffffffffffffffffffffffffffffffffffff167f9e71bc8eea02a63969f509818f2dafb9254532904319f9dbda79b67bd34a5f3d83604051610b229190611267565b60405180910390a250610b33610f4f565b50565b610b3e610e73565b33610b47610e0a565b600881905550610b55610eb7565b6007819055505f73ffffffffffffffffffffffffffffffffffffffff168173ffffffffffffffffffffffffffffffffffffffff1614610c1d57610b9781610374565b600a5f8373ffffffffffffffffffffffffffffffffffffffff1673ffffffffffffffffffffffffffffffffffffffff1681526020019081526020015f208190555060085460095f8373ffffffffffffffffffffffffffffffffffffffff1673ffffffffffffffffffffffffffffffffffffffff1681526020019081526020015f20819055505b5f600a5f3373ffffffffffffffffffffffffffffffffffffffff1673ffffffffffffffffffffffffffffffffffffffff1681526020019081526020015f205490505f811115610d43575f600a5f3373ffffffffffffffffffffffffffffffffffffffff1673ffffffffffffffffffffffffffffffffffffffff1681526020019081526020015f2081905550610cf4338260035f9054906101000a900473ffffffffffffffffffffffffffffffffffffffff1673ffffffffffffffffffffffffffffffffffffffff16610ed09092919063ffffffff16565b3373ffffffffffffffffffffffffffffffffffffffff167fe2403640ba68fed3a2f88b7557551d1993f84b99bb10ff833f0cf8db0c5e048682604051610d3a9190611267565b60405180910390a25b5050610d4d610f4f565b565b60075481565b60035f9054906101000a900473ffffffffffffffffffffffffffffffffffffffff1681565b60085481565b60045481565b610d8e610f58565b5f73ffffffffffffffffffffffffffffffffffffffff168173ffffffffffffffffffffffffffffffffffffffff1603610dfe575f6040517f1e4fbdf7000000000000000000000000000000000000000000000000000000008152600401610df59190611358565b60405180910390fd5b610e0781610fdf565b50565b5f5f600b5403610e1e576008549050610e70565b600b54670de0b6b3a7640000600754610e35610eb7565b610e3f919061139e565b600554610e4c91906113d1565b610e5691906113d1565b610e60919061143f565b600854610e6d919061146f565b90505b90565b60025f5403610eae576040517f3ee5aeb500000000000000000000000000000000000000000000000000000000815260040160405180910390fd5b60025f81905550565b5f6004544210610ec957600454610ecb565b425b905090565b610f4a838473ffffffffffffffffffffffffffffffffffffffff1663a9059cbb8585604051602401610f03929190611582565b604051602081830303815290604052915060e01b6020820180517bffffffffffffffffffffffffffffffffffffffffffffffffffffffff8381831617835250505050611124565b505050565b60015f81905550565b610f606111bf565b73ffffffffffffffffffffffffffffffffffffffff16610f7e6108d2565b73ffffffffffffffffffffffffffffffffffffffff1614610fdd57610fa16111bf565b6040517f118cdaa7000000000000000000000000000000000000000000000000000000008152600401610fd49190611358565b60405180910390fd5b565b5f60015f9054906101000a900473ffffffffffffffffffffffffffffffffffffffff1690508160015f6101000a81548173ffffffffffffffffffffffffffffffffffffffff021916908373ffffffffffffffffffffffffffffffffffffffff1602179055508173ffffffffffffffffffffffffffffffffffffffff168173ffffffffffffffffffffffffffffffffffffffff167f8be0079c531659141344cd1fd0a4f28419497f9722a3daafe3b4186f6b6457e060405160405180910390a35050565b61111e848573ffffffffffffffffffffffffffffffffffffffff166323b872dd8686866040516024016110d7939291906115a9565b604051602081830303815290604052915060e01b6020820180517bffffffffffffffffffffffffffffffffffffffffffffffffffffffff8381831617835250505050611124565b50505050565b5f5f60205f8451602086015f885af180611143576040513d5f823e3d81fd5b3d92505f519150505f821461115c576001811415611177565b5f8473ffffffffffffffffffffffffffffffffffffffff163b145b156111b957836040517f5274afe70000000000000000000000000000000000000000000000000000000081526004016111b09190611358565b60405180910390fd5b50505050565b5f33905090565b5f5ffd5b5f73ffffffffffffffffffffffffffffffffffffffff82169050919050565b5f6111f3826111ca565b9050919050565b611203816111e9565b811461120d575f5ffd5b50565b5f8135905061121e816111fa565b92915050565b5f60208284031215611239576112386111c6565b5b5f61124684828501611210565b91505092915050565b5f819050919050565b6112618161124f565b82525050565b5f60208201905061127a5f830184611258565b92915050565b6112898161124f565b8114611293575f5ffd5b50565b5f813590506112a481611280565b92915050565b5f602082840312156112bf576112be6111c6565b5b5f6112cc84828501611296565b91505092915050565b5f819050919050565b5f6112f86112f36112ee846111ca565b6112d5565b6111ca565b9050919050565b5f611309826112de565b9050919050565b5f61131a826112ff565b9050919050565b61132a81611310565b82525050565b5f6020820190506113435f830184611321565b92915050565b611352816111e9565b82525050565b5f60208201905061136b5f830184611349565b92915050565b7f4e487b71000000000000000000000000000000000000000000000000000000005f52601160045260245ffd5b5f6113a88261124f565b91506113b38361124f565b92508282039050818111156113cb576113ca611371565b5b92915050565b5f6113db8261124f565b91506113e68361124f565b92508282026113f48161124f565b9150828204841483151761140b5761140a611371565b5b5092915050565b7f4e487b71000000000000000000000000000000000000000000000000000000005f52601260045260245ffd5b5f6114498261124f565b91506114548361124f565b92508261146457611463611412565b5b828204905092915050565b5f6114798261124f565b91506114848361124f565b925082820190508082111561149c5761149b611371565b5b92915050565b5f82825260208201905092915050565b7f43616e6e6f7420776974686472617720300000000000000000000000000000005f82015250565b5f6114e66011836114a2565b91506114f1826114b2565b602082019050919050565b5f6020820190508181035f830152611513816114da565b9050919050565b7f43616e6e6f74207374616b6520300000000000000000000000000000000000005f82015250565b5f61154e600e836114a2565b91506115598261151a565b602082019050919050565b5f6020820190508181035f83015261157b81611542565b9050919050565b5f6040820190506115955f830185611349565b6115a26020830184611258565b9392505050565b5f6060820190506115bc5f830186611349565b6115c96020830185611349565b6115d66040830184611258565b94935050505056fea26469706673582212207671f37add904e6b4c0494d6f0ef025ff99abcb4a2a049b2031bfe5f051c685864736f6c634300081e0033",
					"opcodes": "PUSH1 0x80 PUSH1 0x40 MSTORE PUSH3 0x93A80 PUSH1 0x6 SSTORE CALLVALUE DUP1 ISZERO PUSH2 0x16 JUMPI PUSH0 PUSH0 REVERT JUMPDEST POP PUSH1 0x40 MLOAD PUSH2 0x18EF CODESIZE SUB DUP1 PUSH2 0x18EF DUP4 CODECOPY DUP2 DUP2 ADD PUSH1 0x40 MSTORE DUP2 ADD SWAP1 PUSH2 0x38 SWAP2 SWAP1 PUSH2 0x268 JUMP JUMPDEST CALLER PUSH1 0x1 PUSH0 DUP2 SWAP1 SSTORE POP PUSH0 PUSH20 0xFFFFFFFFFFFFFFFFFFFFFFFFFFFFFFFFFFFFFFFF AND DUP2 PUSH20 0xFFFFFFFFFFFFFFFFFFFFFFFFFFFFFFFFFFFFFFFF AND SUB PUSH2 0xB0 JUMPI PUSH0 PUSH1 0x40 MLOAD PUSH32 0x1E4FBDF700000000000000000000000000000000000000000000000000000000 DUP2 MSTORE PUSH1 0x4 ADD PUSH2 0xA7 SWAP2 SWAP1 PUSH2 0x2B5 JUMP JUMPDEST PUSH1 0x40 MLOAD DUP1 SWAP2 SUB SWAP1 REVERT JUMPDEST PUSH2 0xBF DUP2 PUSH2 0x147 PUSH1 0x20 SHL PUSH1 0x20 SHR JUMP JUMPDEST POP DUP2 PUSH1 0x2 PUSH0 PUSH2 0x100 EXP DUP2 SLOAD DUP2 PUSH20 0xFFFFFFFFFFFFFFFFFFFFFFFFFFFFFFFFFFFFFFFF MUL NOT AND SWAP1 DUP4 PUSH20 0xFFFFFFFFFFFFFFFFFFFFFFFFFFFFFFFFFFFFFFFF AND MUL OR SWAP1 SSTORE POP DUP1 PUSH1 0x3 PUSH0 PUSH2 0x100 EXP DUP2 SLOAD DUP2 PUSH20 0xFFFFFFFFFFFFFFFFFFFFFFFFFFFFFFFFFFFFFFFF MUL NOT AND SWAP1 DUP4 PUSH20 0xFFFFFFFFFFFFFFFFFFFFFFFFFFFFFFFFFFFFFFFF AND MUL OR SWAP1 SSTORE POP POP POP PUSH2 0x2CE JUMP JUMPDEST PUSH0 PUSH1 0x1 PUSH0 SWAP1 SLOAD SWAP1 PUSH2 0x100 EXP SWAP1 DIV PUSH20 0xFFFFFFFFFFFFFFFFFFFFFFFFFFFFFFFFFFFFFFFF AND SWAP1 POP DUP2 PUSH1 0x1 PUSH0 PUSH2 0x100 EXP DUP2 SLOAD DUP2 PUSH20 0xFFFFFFFFFFFFFFFFFFFFFFFFFFFFFFFFFFFFFFFF MUL NOT AND SWAP1 DUP4 PUSH20 0xFFFFFFFFFFFFFFFFFFFFFFFFFFFFFFFFFFFFFFFF AND MUL OR SWAP1 SSTORE POP DUP2 PUSH20 0xFFFFFFFFFFFFFFFFFFFFFFFFFFFFFFFFFFFFFFFF AND DUP2 PUSH20 0xFFFFFFFFFFFFFFFFFFFFFFFFFFFFFFFFFFFFFFFF AND PUSH32 0x8BE0079C531659141344CD1FD0A4F28419497F9722A3DAAFE3B4186F6B6457E0 PUSH1 0x40 MLOAD PUSH1 0x40 MLOAD DUP1 SWAP2 SUB SWAP1 LOG3 POP POP JUMP JUMPDEST PUSH0 PUSH0 REVERT JUMPDEST PUSH0 PUSH20 0xFFFFFFFFFFFFFFFFFFFFFFFFFFFFFFFFFFFFFFFF DUP3 AND SWAP1 POP SWAP2 SWAP1 POP JUMP JUMPDEST PUSH0 PUSH2 0x237 DUP3 PUSH2 0x20E JUMP JUMPDEST SWAP1 POP SWAP2 SWAP1 POP JUMP JUMPDEST PUSH2 0x247 DUP2 PUSH2 0x22D JUMP JUMPDEST DUP2 EQ PUSH2 0x251 JUMPI PUSH0 PUSH0 REVERT JUMPDEST POP JUMP JUMPDEST PUSH0 DUP2 MLOAD SWAP1 POP PUSH2 0x262 DUP2 PUSH2 0x23E JUMP JUMPDEST SWAP3 SWAP2 POP POP JUMP JUMPDEST PUSH0 PUSH0 PUSH1 0x40 DUP4 DUP6 SUB SLT ISZERO PUSH2 0x27E JUMPI PUSH2 0x27D PUSH2 0x20A JUMP JUMPDEST JUMPDEST PUSH0 PUSH2 0x28B DUP6 DUP3 DUP7 ADD PUSH2 0x254 JUMP JUMPDEST SWAP3 POP POP PUSH1 0x20 PUSH2 0x29C DUP6 DUP3 DUP7 ADD PUSH2 0x254 JUMP JUMPDEST SWAP2 POP POP SWAP3 POP SWAP3 SWAP1 POP JUMP JUMPDEST PUSH2 0x2AF DUP2 PUSH2 0x22D JUMP JUMPDEST DUP3 MSTORE POP POP JUMP JUMPDEST PUSH0 PUSH1 0x20 DUP3 ADD SWAP1 POP PUSH2 0x2C8 PUSH0 DUP4 ADD DUP5 PUSH2 0x2A6 JUMP JUMPDEST SWAP3 SWAP2 POP POP JUMP JUMPDEST PUSH2 0x1614 DUP1 PUSH2 0x2DB PUSH0 CODECOPY PUSH0 RETURN INVALID PUSH1 0x80 PUSH1 0x40 MSTORE CALLVALUE DUP1 ISZERO PUSH2 0xF JUMPI PUSH0 PUSH0 REVERT JUMPDEST POP PUSH1 0x4 CALLDATASIZE LT PUSH2 0x11E JUMPI PUSH0 CALLDATALOAD PUSH1 0xE0 SHR DUP1 PUSH4 0x7B0A47EE GT PUSH2 0xAB JUMPI DUP1 PUSH4 0xC8F33C91 GT PUSH2 0x6F JUMPI DUP1 PUSH4 0xC8F33C91 EQ PUSH2 0x2E0 JUMPI DUP1 PUSH4 0xD1AF0C7D EQ PUSH2 0x2FE JUMPI DUP1 PUSH4 0xDF136D65 EQ PUSH2 0x31C JUMPI DUP1 PUSH4 0xEBE2B12B EQ PUSH2 0x33A JUMPI DUP1 PUSH4 0xF2FDE38B EQ PUSH2 0x358 JUMPI PUSH2 0x11E JUMP JUMPDEST DUP1 PUSH4 0x7B0A47EE EQ PUSH2 0x24E JUMPI DUP1 PUSH4 0x8B876347 EQ PUSH2 0x26C JUMPI DUP1 PUSH4 0x8DA5CB5B EQ PUSH2 0x29C JUMPI DUP1 PUSH4 0xA694FC3A EQ PUSH2 0x2BA JUMPI DUP1 PUSH4 0xB88A802F EQ PUSH2 0x2D6 JUMPI PUSH2 0x11E JUMP JUMPDEST DUP1 PUSH4 0x386A9525 GT PUSH2 0xF2 JUMPI DUP1 PUSH4 0x386A9525 EQ PUSH2 0x1BC JUMPI DUP1 PUSH4 0x3C6B16AB EQ PUSH2 0x1DA JUMPI DUP1 PUSH4 0x70A08231 EQ PUSH2 0x1F6 JUMPI DUP1 PUSH4 0x715018A6 EQ PUSH2 0x226 JUMPI DUP1 PUSH4 0x72F702F3 EQ PUSH2 0x230 JUMPI PUSH2 0x11E JUMP JUMPDEST DUP1 PUSH3 0x8CC262 EQ PUSH2 0x122 JUMPI DUP1 PUSH4 0x700037D EQ PUSH2 0x152 JUMPI DUP1 PUSH4 0x18160DDD EQ PUSH2 0x182 JUMPI DUP1 PUSH4 0x2E1A7D4D EQ PUSH2 0x1A0 JUMPI JUMPDEST PUSH0 PUSH0 REVERT JUMPDEST PUSH2 0x13C PUSH1 0x4 DUP1 CALLDATASIZE SUB DUP2 ADD SWAP1 PUSH2 0x137 SWAP2 SWAP1 PUSH2 0x1224 JUMP JUMPDEST PUSH2 0x374 JUMP JUMPDEST PUSH1 0x40 MLOAD PUSH2 0x149 SWAP2 SWAP1 PUSH2 0x1267 JUMP JUMPDEST PUSH1 0x40 MLOAD DUP1 SWAP2 SUB SWAP1 RETURN JUMPDEST PUSH2 0x16C PUSH1 0x4 DUP1 CALLDATASIZE SUB DUP2 ADD SWAP1 PUSH2 0x167 SWAP2 SWAP1 PUSH2 0x1224 JUMP JUMPDEST PUSH2 0x46F JUMP JUMPDEST PUSH1 0x40 MLOAD PUSH2 0x179 SWAP2 SWAP1 PUSH2 0x1267 JUMP JUMPDEST PUSH1 0x40 MLOAD DUP1 SWAP2 SUB SWAP1 RETURN JUMPDEST PUSH2 0x18A PUSH2 0x484 JUMP JUMPDEST PUSH1 0x40 MLOAD PUSH2 0x197 SWAP2 SWAP1 PUSH2 0x1267 JUMP JUMPDEST PUSH1 0x40 MLOAD DUP1 SWAP2 SUB SWAP1 RETURN JUMPDEST PUSH2 0x1BA PUSH1 0x4 DUP1 CALLDATASIZE SUB DUP2 ADD SWAP1 PUSH2 0x1B5 SWAP2 SWAP1 PUSH2 0x12AA JUMP JUMPDEST PUSH2 0x48D JUMP JUMPDEST STOP JUMPDEST PUSH2 0x1C4 PUSH2 0x6C7 JUMP JUMPDEST PUSH1 0x40 MLOAD PUSH2 0x1D1 SWAP2 SWAP1 PUSH2 0x1267 JUMP JUMPDEST PUSH1 0x40 MLOAD DUP1 SWAP2 SUB SWAP1 RETURN JUMPDEST PUSH2 0x1F4 PUSH1 0x4 DUP1 CALLDATASIZE SUB DUP2 ADD SWAP1 PUSH2 0x1EF SWAP2 SWAP1 PUSH2 0x12AA JUMP JUMPDEST PUSH2 0x6CD JUMP JUMPDEST STOP JUMPDEST PUSH2 0x210 PUSH1 0x4 DUP1 CALLDATASIZE SUB DUP2 ADD SWAP1 PUSH2 0x20B SWAP2 SWAP1 PUSH2 0x1224 JUMP JUMPDEST PUSH2 0x839 JUMP JUMPDEST PUSH1 0x40 MLOAD PUSH2 0x21D SWAP2 SWAP1 PUSH2 0x1267 JUMP JUMPDEST PUSH1 0x40 MLOAD DUP1 SWAP2 SUB SWAP1 RETURN JUMPDEST PUSH2 0x22E PUSH2 0x87F JUMP JUMPDEST STOP JUMPDEST PUSH2 0x238 PUSH2 0x892 JUMP JUMPDEST PUSH1 0x40 MLOAD PUSH2 0x245 SWAP2 SWAP1 PUSH2 0x1330 JUMP JUMPDEST PUSH1 0x40 MLOAD DUP1 SWAP2 SUB SWAP1 RETURN JUMPDEST PUSH2 0x256 PUSH2 0x8B7 JUMP JUMPDEST PUSH1 0x40 MLOAD PUSH2 0x263 SWAP2 SWAP1 PUSH2 0x1267 JUMP JUMPDEST PUSH1 0x40 MLOAD DUP1 SWAP2 SUB SWAP1 RETURN JUMPDEST PUSH2 0x286 PUSH1 0x4 DUP1 CALLDATASIZE SUB DUP2 ADD SWAP1 PUSH2 0x281 SWAP2 SWAP1 PUSH2 0x1224 JUMP JUMPDEST PUSH2 0x8BD JUMP JUMPDEST PUSH1 0x40 MLOAD PUSH2 0x293 SWAP2 SWAP1 PUSH2 0x1267 JUMP JUMPDEST PUSH1 0x40 MLOAD DUP1 SWAP2 SUB SWAP1 RETURN JUMPDEST PUSH2 0x2A4 PUSH2 0x8D2 JUMP JUMPDEST PUSH1 0x40 MLOAD PUSH2 0x2B1 SWAP2 SWAP1 PUSH2 0x1358 JUMP JUMPDEST PUSH1 0x40 MLOAD DUP1 SWAP2 SUB SWAP1 RETURN JUMPDEST PUSH2 0x2D4 PUSH1 0x4 DUP1 CALLDATASIZE SUB DUP2 ADD SWAP1 PUSH2 0x2CF SWAP2 SWAP1 PUSH2 0x12AA JUMP JUMPDEST PUSH2 0x8FA JUMP JUMPDEST STOP JUMPDEST PUSH2 0x2DE PUSH2 0xB36 JUMP JUMPDEST STOP JUMPDEST PUSH2 0x2E8 PUSH2 0xD4F JUMP JUMPDEST PUSH1 0x40 MLOAD PUSH2 0x2F5 SWAP2 SWAP1 PUSH2 0x1267 JUMP JUMPDEST PUSH1 0x40 MLOAD DUP1 SWAP2 SUB SWAP1 RETURN JUMPDEST PUSH2 0x306 PUSH2 0xD55 JUMP JUMPDEST PUSH1 0x40 MLOAD PUSH2 0x313 SWAP2 SWAP1 PUSH2 0x1330 JUMP JUMPDEST PUSH1 0x40 MLOAD DUP1 SWAP2 SUB SWAP1 RETURN JUMPDEST PUSH2 0x324 PUSH2 0xD7A JUMP JUMPDEST PUSH1 0x40 MLOAD PUSH2 0x331 SWAP2 SWAP1 PUSH2 0x1267 JUMP JUMPDEST PUSH1 0x40 MLOAD DUP1 SWAP2 SUB SWAP1 RETURN JUMPDEST PUSH2 0x342 PUSH2 0xD80 JUMP JUMPDEST PUSH1 0x40 MLOAD PUSH2 0x34F SWAP2 SWAP1 PUSH2 0x1267 JUMP JUMPDEST PUSH1 0x40 MLOAD DUP1 SWAP2 SUB SWAP1 RETURN JUMPDEST PUSH2 0x372 PUSH1 0x4 DUP1 CALLDATASIZE SUB DUP2 ADD SWAP1 PUSH2 0x36D SWAP2 SWAP1 PUSH2 0x1224 JUMP JUMPDEST PUSH2 0xD86 JUMP JUMPDEST STOP JUMPDEST PUSH0 PUSH1 0xA PUSH0 DUP4 PUSH20 0xFFFFFFFFFFFFFFFFFFFFFFFFFFFFFFFFFFFFFFFF AND PUSH20 0xFFFFFFFFFFFFFFFFFFFFFFFFFFFFFFFFFFFFFFFF AND DUP2 MSTORE PUSH1 0x20 ADD SWAP1 DUP2 MSTORE PUSH1 0x20 ADD PUSH0 KECCAK256 SLOAD PUSH8 0xDE0B6B3A7640000 PUSH1 0x9 PUSH0 DUP6 PUSH20 0xFFFFFFFFFFFFFFFFFFFFFFFFFFFFFFFFFFFFFFFF AND PUSH20 0xFFFFFFFFFFFFFFFFFFFFFFFFFFFFFFFFFFFFFFFF AND DUP2 MSTORE PUSH1 0x20 ADD SWAP1 DUP2 MSTORE PUSH1 0x20 ADD PUSH0 KECCAK256 SLOAD PUSH2 0x402 PUSH2 0xE0A JUMP JUMPDEST PUSH2 0x40C SWAP2 SWAP1 PUSH2 0x139E JUMP JUMPDEST PUSH1 0xC PUSH0 DUP7 PUSH20 0xFFFFFFFFFFFFFFFFFFFFFFFFFFFFFFFFFFFFFFFF AND PUSH20 0xFFFFFFFFFFFFFFFFFFFFFFFFFFFFFFFFFFFFFFFF AND DUP2 MSTORE PUSH1 0x20 ADD SWAP1 DUP2 MSTORE PUSH1 0x20 ADD PUSH0 KECCAK256 SLOAD PUSH2 0x454 SWAP2 SWAP1 PUSH2 0x13D1 JUMP JUMPDEST PUSH2 0x45E SWAP2 SWAP1 PUSH2 0x143F JUMP JUMPDEST PUSH2 0x468 SWAP2 SWAP1 PUSH2 0x146F JUMP JUMPDEST SWAP1 POP SWAP2 SWAP1 POP JUMP JUMPDEST PUSH1 0xA PUSH1 0x20 MSTORE DUP1 PUSH0 MSTORE PUSH1 0x40 PUSH0 KECCAK256 PUSH0 SWAP2 POP SWAP1 POP SLOAD DUP2 JUMP JUMPDEST PUSH0 PUSH1 0xB SLOAD SWAP1 POP SWAP1 JUMP JUMPDEST PUSH2 0x495 PUSH2 0xE73 JUMP JUMPDEST CALLER PUSH2 0x49E PUSH2 0xE0A JUMP JUMPDEST PUSH1 0x8 DUP2 SWAP1 SSTORE POP PUSH2 0x4AC PUSH2 0xEB7 JUMP JUMPDEST PUSH1 0x7 DUP2 SWAP1 SSTORE POP PUSH0 PUSH20 0xFFFFFFFFFFFFFFFFFFFFFFFFFFFFFFFFFFFFFFFF AND DUP2 PUSH20 0xFFFFFFFFFFFFFFFFFFFFFFFFFFFFFFFFFFFFFFFF AND EQ PUSH2 0x574 JUMPI PUSH2 0x4EE DUP2 PUSH2 0x374 JUMP JUMPDEST PUSH1 0xA PUSH0 DUP4 PUSH20 0xFFFFFFFFFFFFFFFFFFFFFFFFFFFFFFFFFFFFFFFF AND PUSH20 0xFFFFFFFFFFFFFFFFFFFFFFFFFFFFFFFFFFFFFFFF AND DUP2 MSTORE PUSH1 0x20 ADD SWAP1 DUP2 MSTORE PUSH1 0x20 ADD PUSH0 KECCAK256 DUP2 SWAP1 SSTORE POP PUSH1 0x8 SLOAD PUSH1 0x9 PUSH0 DUP4 PUSH20 0xFFFFFFFFFFFFFFFFFFFFFFFFFFFFFFFFFFFFFFFF AND PUSH20 0xFFFFFFFFFFFFFFFFFFFFFFFFFFFFFFFFFFFFFFFF AND DUP2 MSTORE PUSH1 0x20 ADD SWAP1 DUP2 MSTORE PUSH1 0x20 ADD PUSH0 KECCAK256 DUP2 SWAP1 SSTORE POP JUMPDEST PUSH0 DUP3 GT PUSH2 0x5B6 JUMPI PUSH1 0x40 MLOAD PUSH32 0x8C379A000000000000000000000000000000000000000000000000000000000 DUP2 MSTORE PUSH1 0x4 ADD PUSH2 0x5AD SWAP1 PUSH2 0x14FC JUMP JUMPDEST PUSH1 0x40 MLOAD DUP1 SWAP2 SUB SWAP1 REVERT JUMPDEST DUP2 PUSH1 0xB PUSH0 DUP3 DUP3 SLOAD PUSH2 0x5C7 SWAP2 SWAP1 PUSH2 0x139E JUMP JUMPDEST SWAP3 POP POP DUP2 SWAP1 SSTORE POP DUP2 PUSH1 0xC PUSH0 CALLER PUSH20 0xFFFFFFFFFFFFFFFFFFFFFFFFFFFFFFFFFFFFFFFF AND PUSH20 0xFFFFFFFFFFFFFFFFFFFFFFFFFFFFFFFFFFFFFFFF AND DUP2 MSTORE PUSH1 0x20 ADD SWAP1 DUP2 MSTORE PUSH1 0x20 ADD PUSH0 KECCAK256 PUSH0 DUP3 DUP3 SLOAD PUSH2 0x61A SWAP2 SWAP1 PUSH2 0x139E JUMP JUMPDEST SWAP3 POP POP DUP2 SWAP1 SSTORE POP PUSH2 0x66D CALLER DUP4 PUSH1 0x2 PUSH0 SWAP1 SLOAD SWAP1 PUSH2 0x100 EXP SWAP1 DIV PUSH20 0xFFFFFFFFFFFFFFFFFFFFFFFFFFFFFFFFFFFFFFFF AND PUSH20 0xFFFFFFFFFFFFFFFFFFFFFFFFFFFFFFFFFFFFFFFF AND PUSH2 0xED0 SWAP1 SWAP3 SWAP2 SWAP1 PUSH4 0xFFFFFFFF AND JUMP JUMPDEST CALLER PUSH20 0xFFFFFFFFFFFFFFFFFFFFFFFFFFFFFFFFFFFFFFFF AND PUSH32 0x7084F5476618D8E60B11EF0D7D3F06914655ADB8793E28FF7F018D4C76D505D5 DUP4 PUSH1 0x40 MLOAD PUSH2 0x6B3 SWAP2 SWAP1 PUSH2 0x1267 JUMP JUMPDEST PUSH1 0x40 MLOAD DUP1 SWAP2 SUB SWAP1 LOG2 POP PUSH2 0x6C4 PUSH2 0xF4F JUMP JUMPDEST POP JUMP JUMPDEST PUSH1 0x6 SLOAD DUP2 JUMP JUMPDEST PUSH2 0x6D5 PUSH2 0xF58 JUMP JUMPDEST PUSH0 PUSH2 0x6DE PUSH2 0xE0A JUMP JUMPDEST PUSH1 0x8 DUP2 SWAP1 SSTORE POP PUSH2 0x6EC PUSH2 0xEB7 JUMP JUMPDEST PUSH1 0x7 DUP2 SWAP1 SSTORE POP PUSH0 PUSH20 0xFFFFFFFFFFFFFFFFFFFFFFFFFFFFFFFFFFFFFFFF AND DUP2 PUSH20 0xFFFFFFFFFFFFFFFFFFFFFFFFFFFFFFFFFFFFFFFF AND EQ PUSH2 0x7B4 JUMPI PUSH2 0x72E DUP2 PUSH2 0x374 JUMP JUMPDEST PUSH1 0xA PUSH0 DUP4 PUSH20 0xFFFFFFFFFFFFFFFFFFFFFFFFFFFFFFFFFFFFFFFF AND PUSH20 0xFFFFFFFFFFFFFFFFFFFFFFFFFFFFFFFFFFFFFFFF AND DUP2 MSTORE PUSH1 0x20 ADD SWAP1 DUP2 MSTORE PUSH1 0x20 ADD PUSH0 KECCAK256 DUP2 SWAP1 SSTORE POP PUSH1 0x8 SLOAD PUSH1 0x9 PUSH0 DUP4 PUSH20 0xFFFFFFFFFFFFFFFFFFFFFFFFFFFFFFFFFFFFFFFF AND PUSH20 0xFFFFFFFFFFFFFFFFFFFFFFFFFFFFFFFFFFFFFFFF AND DUP2 MSTORE PUSH1 0x20 ADD SWAP1 DUP2 MSTORE PUSH1 0x20 ADD PUSH0 KECCAK256 DUP2 SWAP1 SSTORE POP JUMPDEST PUSH1 0x4 SLOAD TIMESTAMP LT PUSH2 0x7D6 JUMPI PUSH1 0x6 SLOAD DUP3 PUSH2 0x7CB SWAP2 SWAP1 PUSH2 0x143F JUMP JUMPDEST PUSH1 0x5 DUP2 SWAP1 SSTORE POP PUSH2 0x81A JUMP JUMPDEST PUSH0 TIMESTAMP PUSH1 0x4 SLOAD PUSH2 0x7E5 SWAP2 SWAP1 PUSH2 0x139E JUMP JUMPDEST SWAP1 POP PUSH0 PUSH1 0x5 SLOAD DUP3 PUSH2 0x7F6 SWAP2 SWAP1 PUSH2 0x13D1 JUMP JUMPDEST SWAP1 POP PUSH1 0x6 SLOAD DUP2 DUP6 PUSH2 0x807 SWAP2 SWAP1 PUSH2 0x146F JUMP JUMPDEST PUSH2 0x811 SWAP2 SWAP1 PUSH2 0x143F JUMP JUMPDEST PUSH1 0x5 DUP2 SWAP1 SSTORE POP POP POP JUMPDEST TIMESTAMP PUSH1 0x7 DUP2 SWAP1 SSTORE POP PUSH1 0x6 SLOAD TIMESTAMP PUSH2 0x82F SWAP2 SWAP1 PUSH2 0x146F JUMP JUMPDEST PUSH1 0x4 DUP2 SWAP1 SSTORE POP POP POP JUMP JUMPDEST PUSH0 PUSH1 0xC PUSH0 DUP4 PUSH20 0xFFFFFFFFFFFFFFFFFFFFFFFFFFFFFFFFFFFFFFFF AND PUSH20 0xFFFFFFFFFFFFFFFFFFFFFFFFFFFFFFFFFFFFFFFF AND DUP2 MSTORE PUSH1 0x20 ADD SWAP1 DUP2 MSTORE PUSH1 0x20 ADD PUSH0 KECCAK256 SLOAD SWAP1 POP SWAP2 SWAP1 POP JUMP JUMPDEST PUSH2 0x887 PUSH2 0xF58 JUMP JUMPDEST PUSH2 0x890 PUSH0 PUSH2 0xFDF JUMP JUMPDEST JUMP JUMPDEST PUSH1 0x2 PUSH0 SWAP1 SLOAD SWAP1 PUSH2 0x100 EXP SWAP1 DIV PUSH20 0xFFFFFFFFFFFFFFFFFFFFFFFFFFFFFFFFFFFFFFFF AND DUP2 JUMP JUMPDEST PUSH1 0x5 SLOAD DUP2 JUMP JUMPDEST PUSH1 0x9 PUSH1 0x20 MSTORE DUP1 PUSH0 MSTORE PUSH1 0x40 PUSH0 KECCAK256 PUSH0 SWAP2 POP SWAP1 POP SLOAD DUP2 JUMP JUMPDEST PUSH0 PUSH1 0x1 PUSH0 SWAP1 SLOAD SWAP1 PUSH2 0x100 EXP SWAP1 DIV PUSH20 0xFFFFFFFFFFFFFFFFFFFFFFFFFFFFFFFFFFFFFFFF AND SWAP1 POP SWAP1 JUMP JUMPDEST PUSH2 0x902 PUSH2 0xE73 JUMP JUMPDEST CALLER PUSH2 0x90B PUSH2 0xE0A JUMP JUMPDEST PUSH1 0x8 DUP2 SWAP1 SSTORE POP PUSH2 0x919 PUSH2 0xEB7 JUMP JUMPDEST PUSH1 0x7 DUP2 SWAP1 SSTORE POP PUSH0 PUSH20 0xFFFFFFFFFFFFFFFFFFFFFFFFFFFFFFFFFFFFFFFF AND DUP2 PUSH20 0xFFFFFFFFFFFFFFFFFFFFFFFFFFFFFFFFFFFFFFFF AND EQ PUSH2 0x9E1 JUMPI PUSH2 0x95B DUP2 PUSH2 0x374 JUMP JUMPDEST PUSH1 0xA PUSH0 DUP4 PUSH20 0xFFFFFFFFFFFFFFFFFFFFFFFFFFFFFFFFFFFFFFFF AND PUSH20 0xFFFFFFFFFFFFFFFFFFFFFFFFFFFFFFFFFFFFFFFF AND DUP2 MSTORE PUSH1 0x20 ADD SWAP1 DUP2 MSTORE PUSH1 0x20 ADD PUSH0 KECCAK256 DUP2 SWAP1 SSTORE POP PUSH1 0x8 SLOAD PUSH1 0x9 PUSH0 DUP4 PUSH20 0xFFFFFFFFFFFFFFFFFFFFFFFFFFFFFFFFFFFFFFFF AND PUSH20 0xFFFFFFFFFFFFFFFFFFFFFFFFFFFFFFFFFFFFFFFF AND DUP2 MSTORE PUSH1 0x20 ADD SWAP1 DUP2 MSTORE PUSH1 0x20 ADD PUSH0 KECCAK256 DUP2 SWAP1 SSTORE POP JUMPDEST PUSH0 DUP3 GT PUSH2 0xA23 JUMPI PUSH1 0x40 MLOAD PUSH32 0x8C379A000000000000000000000000000000000000000000000000000000000 DUP2 MSTORE PUSH1 0x4 ADD PUSH2 0xA1A SWAP1 PUSH2 0x1564 JUMP JUMPDEST PUSH1 0x40 MLOAD DUP1 SWAP2 SUB SWAP1 REVERT JUMPDEST DUP2 PUSH1 0xB PUSH0 DUP3 DUP3 SLOAD PUSH2 0xA34 SWAP2 SWAP1 PUSH2 0x146F JUMP JUMPDEST SWAP3 POP POP DUP2 SWAP1 SSTORE POP DUP2 PUSH1 0xC PUSH0 CALLER PUSH20 0xFFFFFFFFFFFFFFFFFFFFFFFFFFFFFFFFFFFFFFFF AND PUSH20 0xFFFFFFFFFFFFFFFFFFFFFFFFFFFFFFFFFFFFFFFF AND DUP2 MSTORE PUSH1 0x20 ADD SWAP1 DUP2 MSTORE PUSH1 0x20 ADD PUSH0 KECCAK256 PUSH0 DUP3 DUP3 SLOAD PUSH2 0xA87 SWAP2 SWAP1 PUSH2 0x146F JUMP JUMPDEST SWAP3 POP POP DUP2 SWAP1 SSTORE POP PUSH2 0xADC CALLER ADDRESS DUP5 PUSH1 0x2 PUSH0 SWAP1 SLOAD SWAP1 PUSH2 0x100 EXP SWAP1 DIV PUSH20 0xFFFFFFFFFFFFFFFFFFFFFFFFFFFFFFFFFFFFFFFF AND PUSH20 0xFFFFFFFFFFFFFFFFFFFFFFFFFFFFFFFFFFFFFFFF AND PUSH2 0x10A2 SWAP1 SWAP4 SWAP3 SWAP2 SWAP1 PUSH4 0xFFFFFFFF AND JUMP JUMPDEST CALLER PUSH20 0xFFFFFFFFFFFFFFFFFFFFFFFFFFFFFFFFFFFFFFFF AND PUSH32 0x9E71BC8EEA02A63969F509818F2DAFB9254532904319F9DBDA79B67BD34A5F3D DUP4 PUSH1 0x40 MLOAD PUSH2 0xB22 SWAP2 SWAP1 PUSH2 0x1267 JUMP JUMPDEST PUSH1 0x40 MLOAD DUP1 SWAP2 SUB SWAP1 LOG2 POP PUSH2 0xB33 PUSH2 0xF4F JUMP JUMPDEST POP JUMP JUMPDEST PUSH2 0xB3E PUSH2 0xE73 JUMP JUMPDEST CALLER PUSH2 0xB47 PUSH2 0xE0A JUMP JUMPDEST PUSH1 0x8 DUP2 SWAP1 SSTORE POP PUSH2 0xB55 PUSH2 0xEB7 JUMP JUMPDEST PUSH1 0x7 DUP2 SWAP1 SSTORE POP PUSH0 PUSH20 0xFFFFFFFFFFFFFFFFFFFFFFFFFFFFFFFFFFFFFFFF AND DUP2 PUSH20 0xFFFFFFFFFFFFFFFFFFFFFFFFFFFFFFFFFFFFFFFF AND EQ PUSH2 0xC1D JUMPI PUSH2 0xB97 DUP2 PUSH2 0x374 JUMP JUMPDEST PUSH1 0xA PUSH0 DUP4 PUSH20 0xFFFFFFFFFFFFFFFFFFFFFFFFFFFFFFFFFFFFFFFF AND PUSH20 0xFFFFFFFFFFFFFFFFFFFFFFFFFFFFFFFFFFFFFFFF AND DUP2 MSTORE PUSH1 0x20 ADD SWAP1 DUP2 MSTORE PUSH1 0x20 ADD PUSH0 KECCAK256 DUP2 SWAP1 SSTORE POP PUSH1 0x8 SLOAD PUSH1 0x9 PUSH0 DUP4 PUSH20 0xFFFFFFFFFFFFFFFFFFFFFFFFFFFFFFFFFFFFFFFF AND PUSH20 0xFFFFFFFFFFFFFFFFFFFFFFFFFFFFFFFFFFFFFFFF AND DUP2 MSTORE PUSH1 0x20 ADD SWAP1 DUP2 MSTORE PUSH1 0x20 ADD PUSH0 KECCAK256 DUP2 SWAP1 SSTORE POP JUMPDEST PUSH0 PUSH1 0xA PUSH0 CALLER PUSH20 0xFFFFFFFFFFFFFFFFFFFFFFFFFFFFFFFFFFFFFFFF AND PUSH20 0xFFFFFFFFFFFFFFFFFFFFFFFFFFFFFFFFFFFFFFFF AND DUP2 MSTORE PUSH1 0x20 ADD SWAP1 DUP2 MSTORE PUSH1 0x20 ADD PUSH0 KECCAK256 SLOAD SWAP1 POP PUSH0 DUP2 GT ISZERO PUSH2 0xD43 JUMPI PUSH0 PUSH1 0xA PUSH0 CALLER PUSH20 0xFFFFFFFFFFFFFFFFFFFFFFFFFFFFFFFFFFFFFFFF AND PUSH20 0xFFFFFFFFFFFFFFFFFFFFFFFFFFFFFFFFFFFFFFFF AND DUP2 MSTORE PUSH1 0x20 ADD SWAP1 DUP2 MSTORE PUSH1 0x20 ADD PUSH0 KECCAK256 DUP2 SWAP1 SSTORE POP PUSH2 0xCF4 CALLER DUP3 PUSH1 0x3 PUSH0 SWAP1 SLOAD SWAP1 PUSH2 0x100 EXP SWAP1 DIV PUSH20 0xFFFFFFFFFFFFFFFFFFFFFFFFFFFFFFFFFFFFFFFF AND PUSH20 0xFFFFFFFFFFFFFFFFFFFFFFFFFFFFFFFFFFFFFFFF AND PUSH2 0xED0 SWAP1 SWAP3 SWAP2 SWAP1 PUSH4 0xFFFFFFFF AND JUMP JUMPDEST CALLER PUSH20 0xFFFFFFFFFFFFFFFFFFFFFFFFFFFFFFFFFFFFFFFF AND PUSH32 0xE2403640BA68FED3A2F88B7557551D1993F84B99BB10FF833F0CF8DB0C5E0486 DUP3 PUSH1 0x40 MLOAD PUSH2 0xD3A SWAP2 SWAP1 PUSH2 0x1267 JUMP JUMPDEST PUSH1 0x40 MLOAD DUP1 SWAP2 SUB SWAP1 LOG2 JUMPDEST POP POP PUSH2 0xD4D PUSH2 0xF4F JUMP JUMPDEST JUMP JUMPDEST PUSH1 0x7 SLOAD DUP2 JUMP JUMPDEST PUSH1 0x3 PUSH0 SWAP1 SLOAD SWAP1 PUSH2 0x100 EXP SWAP1 DIV PUSH20 0xFFFFFFFFFFFFFFFFFFFFFFFFFFFFFFFFFFFFFFFF AND DUP2 JUMP JUMPDEST PUSH1 0x8 SLOAD DUP2 JUMP JUMPDEST PUSH1 0x4 SLOAD DUP2 JUMP JUMPDEST PUSH2 0xD8E PUSH2 0xF58 JUMP JUMPDEST PUSH0 PUSH20 0xFFFFFFFFFFFFFFFFFFFFFFFFFFFFFFFFFFFFFFFF AND DUP2 PUSH20 0xFFFFFFFFFFFFFFFFFFFFFFFFFFFFFFFFFFFFFFFF AND SUB PUSH2 0xDFE JUMPI PUSH0 PUSH1 0x40 MLOAD PUSH32 0x1E4FBDF700000000000000000000000000000000000000000000000000000000 DUP2 MSTORE PUSH1 0x4 ADD PUSH2 0xDF5 SWAP2 SWAP1 PUSH2 0x1358 JUMP JUMPDEST PUSH1 0x40 MLOAD DUP1 SWAP2 SUB SWAP1 REVERT JUMPDEST PUSH2 0xE07 DUP2 PUSH2 0xFDF JUMP JUMPDEST POP JUMP JUMPDEST PUSH0 PUSH0 PUSH1 0xB SLOAD SUB PUSH2 0xE1E JUMPI PUSH1 0x8 SLOAD SWAP1 POP PUSH2 0xE70 JUMP JUMPDEST PUSH1 0xB SLOAD PUSH8 0xDE0B6B3A7640000 PUSH1 0x7 SLOAD PUSH2 0xE35 PUSH2 0xEB7 JUMP JUMPDEST PUSH2 0xE3F SWAP2 SWAP1 PUSH2 0x139E JUMP JUMPDEST PUSH1 0x5 SLOAD PUSH2 0xE4C SWAP2 SWAP1 PUSH2 0x13D1 JUMP JUMPDEST PUSH2 0xE56 SWAP2 SWAP1 PUSH2 0x13D1 JUMP JUMPDEST PUSH2 0xE60 SWAP2 SWAP1 PUSH2 0x143F JUMP JUMPDEST PUSH1 0x8 SLOAD PUSH2 0xE6D SWAP2 SWAP1 PUSH2 0x146F JUMP JUMPDEST SWAP1 POP JUMPDEST SWAP1 JUMP JUMPDEST PUSH1 0x2 PUSH0 SLOAD SUB PUSH2 0xEAE JUMPI PUSH1 0x40 MLOAD PUSH32 0x3EE5AEB500000000000000000000000000000000000000000000000000000000 DUP2 MSTORE PUSH1 0x4 ADD PUSH1 0x40 MLOAD DUP1 SWAP2 SUB SWAP1 REVERT JUMPDEST PUSH1 0x2 PUSH0 DUP2 SWAP1 SSTORE POP JUMP JUMPDEST PUSH0 PUSH1 0x4 SLOAD TIMESTAMP LT PUSH2 0xEC9 JUMPI PUSH1 0x4 SLOAD PUSH2 0xECB JUMP JUMPDEST TIMESTAMP JUMPDEST SWAP1 POP SWAP1 JUMP JUMPDEST PUSH2 0xF4A DUP4 DUP5 PUSH20 0xFFFFFFFFFFFFFFFFFFFFFFFFFFFFFFFFFFFFFFFF AND PUSH4 0xA9059CBB DUP6 DUP6 PUSH1 0x40 MLOAD PUSH1 0x24 ADD PUSH2 0xF03 SWAP3 SWAP2 SWAP1 PUSH2 0x1582 JUMP JUMPDEST PUSH1 0x40 MLOAD PUSH1 0x20 DUP2 DUP4 SUB SUB DUP2 MSTORE SWAP1 PUSH1 0x40 MSTORE SWAP2 POP PUSH1 0xE0 SHL PUSH1 0x20 DUP3 ADD DUP1 MLOAD PUSH28 0xFFFFFFFFFFFFFFFFFFFFFFFFFFFFFFFFFFFFFFFFFFFFFFFFFFFFFFFF DUP4 DUP2 DUP4 AND OR DUP4 MSTORE POP POP POP POP PUSH2 0x1124 JUMP JUMPDEST POP POP POP JUMP JUMPDEST PUSH1 0x1 PUSH0 DUP2 SWAP1 SSTORE POP JUMP JUMPDEST PUSH2 0xF60 PUSH2 0x11BF JUMP JUMPDEST PUSH20 0xFFFFFFFFFFFFFFFFFFFFFFFFFFFFFFFFFFFFFFFF AND PUSH2 0xF7E PUSH2 0x8D2 JUMP JUMPDEST PUSH20 0xFFFFFFFFFFFFFFFFFFFFFFFFFFFFFFFFFFFFFFFF AND EQ PUSH2 0xFDD JUMPI PUSH2 0xFA1 PUSH2 0x11BF JUMP JUMPDEST PUSH1 0x40 MLOAD PUSH32 0x118CDAA700000000000000000000000000000000000000000000000000000000 DUP2 MSTORE PUSH1 0x4 ADD PUSH2 0xFD4 SWAP2 SWAP1 PUSH2 0x1358 JUMP JUMPDEST PUSH1 0x40 MLOAD DUP1 SWAP2 SUB SWAP1 REVERT JUMPDEST JUMP JUMPDEST PUSH0 PUSH1 0x1 PUSH0 SWAP1 SLOAD SWAP1 PUSH2 0x100 EXP SWAP1 DIV PUSH20 0xFFFFFFFFFFFFFFFFFFFFFFFFFFFFFFFFFFFFFFFF AND SWAP1 POP DUP2 PUSH1 0x1 PUSH0 PUSH2 0x100 EXP DUP2 SLOAD DUP2 PUSH20 0xFFFFFFFFFFFFFFFFFFFFFFFFFFFFFFFFFFFFFFFF MUL NOT AND SWAP1 DUP4 PUSH20 0xFFFFFFFFFFFFFFFFFFFFFFFFFFFFFFFFFFFFFFFF AND MUL OR SWAP1 SSTORE POP DUP2 PUSH20 0xFFFFFFFFFFFFFFFFFFFFFFFFFFFFFFFFFFFFFFFF AND DUP2 PUSH20 0xFFFFFFFFFFFFFFFFFFFFFFFFFFFFFFFFFFFFFFFF AND PUSH32 0x8BE0079C531659141344CD1FD0A4F28419497F9722A3DAAFE3B4186F6B6457E0 PUSH1 0x40 MLOAD PUSH1 0x40 MLOAD DUP1 SWAP2 SUB SWAP1 LOG3 POP POP JUMP JUMPDEST PUSH2 0x111E DUP5 DUP6 PUSH20 0xFFFFFFFFFFFFFFFFFFFFFFFFFFFFFFFFFFFFFFFF AND PUSH4 0x23B872DD DUP7 DUP7 DUP7 PUSH1 0x40 MLOAD PUSH1 0x24 ADD PUSH2 0x10D7 SWAP4 SWAP3 SWAP2 SWAP1 PUSH2 0x15A9 JUMP JUMPDEST PUSH1 0x40 MLOAD PUSH1 0x20 DUP2 DUP4 SUB SUB DUP2 MSTORE SWAP1 PUSH1 0x40 MSTORE SWAP2 POP PUSH1 0xE0 SHL PUSH1 0x20 DUP3 ADD DUP1 MLOAD PUSH28 0xFFFFFFFFFFFFFFFFFFFFFFFFFFFFFFFFFFFFFFFFFFFFFFFFFFFFFFFF DUP4 DUP2 DUP4 AND OR DUP4 MSTORE POP POP POP POP PUSH2 0x1124 JUMP JUMPDEST POP POP POP POP JUMP JUMPDEST PUSH0 PUSH0 PUSH1 0x20 PUSH0 DUP5 MLOAD PUSH1 0x20 DUP7 ADD PUSH0 DUP9 GAS CALL DUP1 PUSH2 0x1143 JUMPI PUSH1 0x40 MLOAD RETURNDATASIZE PUSH0 DUP3 RETURNDATACOPY RETURNDATASIZE DUP2 REVERT JUMPDEST RETURNDATASIZE SWAP3 POP PUSH0 MLOAD SWAP2 POP POP PUSH0 DUP3 EQ PUSH2 0x115C JUMPI PUSH1 0x1 DUP2 EQ ISZERO PUSH2 0x1177 JUMP JUMPDEST PUSH0 DUP5 PUSH20 0xFFFFFFFFFFFFFFFFFFFFFFFFFFFFFFFFFFFFFFFF AND EXTCODESIZE EQ JUMPDEST ISZERO PUSH2 0x11B9 JUMPI DUP4 PUSH1 0x40 MLOAD PUSH32 0x5274AFE700000000000000000000000000000000000000000000000000000000 DUP2 MSTORE PUSH1 0x4 ADD PUSH2 0x11B0 SWAP2 SWAP1 PUSH2 0x1358 JUMP JUMPDEST PUSH1 0x40 MLOAD DUP1 SWAP2 SUB SWAP1 REVERT JUMPDEST POP POP POP POP JUMP JUMPDEST PUSH0 CALLER SWAP1 POP SWAP1 JUMP JUMPDEST PUSH0 PUSH0 REVERT JUMPDEST PUSH0 PUSH20 0xFFFFFFFFFFFFFFFFFFFFFFFFFFFFFFFFFFFFFFFF DUP3 AND SWAP1 POP SWAP2 SWAP1 POP JUMP JUMPDEST PUSH0 PUSH2 0x11F3 DUP3 PUSH2 0x11CA JUMP JUMPDEST SWAP1 POP SWAP2 SWAP1 POP JUMP JUMPDEST PUSH2 0x1203 DUP2 PUSH2 0x11E9 JUMP JUMPDEST DUP2 EQ PUSH2 0x120D JUMPI PUSH0 PUSH0 REVERT JUMPDEST POP JUMP JUMPDEST PUSH0 DUP2 CALLDATALOAD SWAP1 POP PUSH2 0x121E DUP2 PUSH2 0x11FA JUMP JUMPDEST SWAP3 SWAP2 POP POP JUMP JUMPDEST PUSH0 PUSH1 0x20 DUP3 DUP5 SUB SLT ISZERO PUSH2 0x1239 JUMPI PUSH2 0x1238 PUSH2 0x11C6 JUMP JUMPDEST JUMPDEST PUSH0 PUSH2 0x1246 DUP5 DUP3 DUP6 ADD PUSH2 0x1210 JUMP JUMPDEST SWAP2 POP POP SWAP3 SWAP2 POP POP JUMP JUMPDEST PUSH0 DUP2 SWAP1 POP SWAP2 SWAP1 POP JUMP JUMPDEST PUSH2 0x1261 DUP2 PUSH2 0x124F JUMP JUMPDEST DUP3 MSTORE POP POP JUMP JUMPDEST PUSH0 PUSH1 0x20 DUP3 ADD SWAP1 POP PUSH2 0x127A PUSH0 DUP4 ADD DUP5 PUSH2 0x1258 JUMP JUMPDEST SWAP3 SWAP2 POP POP JUMP JUMPDEST PUSH2 0x1289 DUP2 PUSH2 0x124F JUMP JUMPDEST DUP2 EQ PUSH2 0x1293 JUMPI PUSH0 PUSH0 REVERT JUMPDEST POP JUMP JUMPDEST PUSH0 DUP2 CALLDATALOAD SWAP1 POP PUSH2 0x12A4 DUP2 PUSH2 0x1280 JUMP JUMPDEST SWAP3 SWAP2 POP POP JUMP JUMPDEST PUSH0 PUSH1 0x20 DUP3 DUP5 SUB SLT ISZERO PUSH2 0x12BF JUMPI PUSH2 0x12BE PUSH2 0x11C6 JUMP JUMPDEST JUMPDEST PUSH0 PUSH2 0x12CC DUP5 DUP3 DUP6 ADD PUSH2 0x1296 JUMP JUMPDEST SWAP2 POP POP SWAP3 SWAP2 POP POP JUMP JUMPDEST PUSH0 DUP2 SWAP1 POP SWAP2 SWAP1 POP JUMP JUMPDEST PUSH0 PUSH2 0x12F8 PUSH2 0x12F3 PUSH2 0x12EE DUP5 PUSH2 0x11CA JUMP JUMPDEST PUSH2 0x12D5 JUMP JUMPDEST PUSH2 0x11CA JUMP JUMPDEST SWAP1 POP SWAP2 SWAP1 POP JUMP JUMPDEST PUSH0 PUSH2 0x1309 DUP3 PUSH2 0x12DE JUMP JUMPDEST SWAP1 POP SWAP2 SWAP1 POP JUMP JUMPDEST PUSH0 PUSH2 0x131A DUP3 PUSH2 0x12FF JUMP JUMPDEST SWAP1 POP SWAP2 SWAP1 POP JUMP JUMPDEST PUSH2 0x132A DUP2 PUSH2 0x1310 JUMP JUMPDEST DUP3 MSTORE POP POP JUMP JUMPDEST PUSH0 PUSH1 0x20 DUP3 ADD SWAP1 POP PUSH2 0x1343 PUSH0 DUP4 ADD DUP5 PUSH2 0x1321 JUMP JUMPDEST SWAP3 SWAP2 POP POP JUMP JUMPDEST PUSH2 0x1352 DUP2 PUSH2 0x11E9 JUMP JUMPDEST DUP3 MSTORE POP POP JUMP JUMPDEST PUSH0 PUSH1 0x20 DUP3 ADD SWAP1 POP PUSH2 0x136B PUSH0 DUP4 ADD DUP5 PUSH2 0x1349 JUMP JUMPDEST SWAP3 SWAP2 POP POP JUMP JUMPDEST PUSH32 0x4E487B7100000000000000000000000000000000000000000000000000000000 PUSH0 MSTORE PUSH1 0x11 PUSH1 0x4 MSTORE PUSH1 0x24 PUSH0 REVERT JUMPDEST PUSH0 PUSH2 0x13A8 DUP3 PUSH2 0x124F JUMP JUMPDEST SWAP2 POP PUSH2 0x13B3 DUP4 PUSH2 0x124F JUMP JUMPDEST SWAP3 POP DUP3 DUP3 SUB SWAP1 POP DUP2 DUP2 GT ISZERO PUSH2 0x13CB JUMPI PUSH2 0x13CA PUSH2 0x1371 JUMP JUMPDEST JUMPDEST SWAP3 SWAP2 POP POP JUMP JUMPDEST PUSH0 PUSH2 0x13DB DUP3 PUSH2 0x124F JUMP JUMPDEST SWAP2 POP PUSH2 0x13E6 DUP4 PUSH2 0x124F JUMP JUMPDEST SWAP3 POP DUP3 DUP3 MUL PUSH2 0x13F4 DUP2 PUSH2 0x124F JUMP JUMPDEST SWAP2 POP DUP3 DUP3 DIV DUP5 EQ DUP4 ISZERO OR PUSH2 0x140B JUMPI PUSH2 0x140A PUSH2 0x1371 JUMP JUMPDEST JUMPDEST POP SWAP3 SWAP2 POP POP JUMP JUMPDEST PUSH32 0x4E487B7100000000000000000000000000000000000000000000000000000000 PUSH0 MSTORE PUSH1 0x12 PUSH1 0x4 MSTORE PUSH1 0x24 PUSH0 REVERT JUMPDEST PUSH0 PUSH2 0x1449 DUP3 PUSH2 0x124F JUMP JUMPDEST SWAP2 POP PUSH2 0x1454 DUP4 PUSH2 0x124F JUMP JUMPDEST SWAP3 POP DUP3 PUSH2 0x1464 JUMPI PUSH2 0x1463 PUSH2 0x1412 JUMP JUMPDEST JUMPDEST DUP3 DUP3 DIV SWAP1 POP SWAP3 SWAP2 POP POP JUMP JUMPDEST PUSH0 PUSH2 0x1479 DUP3 PUSH2 0x124F JUMP JUMPDEST SWAP2 POP PUSH2 0x1484 DUP4 PUSH2 0x124F JUMP JUMPDEST SWAP3 POP DUP3 DUP3 ADD SWAP1 POP DUP1 DUP3 GT ISZERO PUSH2 0x149C JUMPI PUSH2 0x149B PUSH2 0x1371 JUMP JUMPDEST JUMPDEST SWAP3 SWAP2 POP POP JUMP JUMPDEST PUSH0 DUP3 DUP3 MSTORE PUSH1 0x20 DUP3 ADD SWAP1 POP SWAP3 SWAP2 POP POP JUMP JUMPDEST PUSH32 0x43616E6E6F742077697468647261772030000000000000000000000000000000 PUSH0 DUP3 ADD MSTORE POP JUMP JUMPDEST PUSH0 PUSH2 0x14E6 PUSH1 0x11 DUP4 PUSH2 0x14A2 JUMP JUMPDEST SWAP2 POP PUSH2 0x14F1 DUP3 PUSH2 0x14B2 JUMP JUMPDEST PUSH1 0x20 DUP3 ADD SWAP1 POP SWAP2 SWAP1 POP JUMP JUMPDEST PUSH0 PUSH1 0x20 DUP3 ADD SWAP1 POP DUP2 DUP2 SUB PUSH0 DUP4 ADD MSTORE PUSH2 0x1513 DUP2 PUSH2 0x14DA JUMP JUMPDEST SWAP1 POP SWAP2 SWAP1 POP JUMP JUMPDEST PUSH32 0x43616E6E6F74207374616B652030000000000000000000000000000000000000 PUSH0 DUP3 ADD MSTORE POP JUMP JUMPDEST PUSH0 PUSH2 0x154E PUSH1 0xE DUP4 PUSH2 0x14A2 JUMP JUMPDEST SWAP2 POP PUSH2 0x1559 DUP3 PUSH2 0x151A JUMP JUMPDEST PUSH1 0x20 DUP3 ADD SWAP1 POP SWAP2 SWAP1 POP JUMP JUMPDEST PUSH0 PUSH1 0x20 DUP3 ADD SWAP1 POP DUP2 DUP2 SUB PUSH0 DUP4 ADD MSTORE PUSH2 0x157B DUP2 PUSH2 0x1542 JUMP JUMPDEST SWAP1 POP SWAP2 SWAP1 POP JUMP JUMPDEST PUSH0 PUSH1 0x40 DUP3 ADD SWAP1 POP PUSH2 0x1595 PUSH0 DUP4 ADD DUP6 PUSH2 0x1349 JUMP JUMPDEST PUSH2 0x15A2 PUSH1 0x20 DUP4 ADD DUP5 PUSH2 0x1258 JUMP JUMPDEST SWAP4 SWAP3 POP POP POP JUMP JUMPDEST PUSH0 PUSH1 0x60 DUP3 ADD SWAP1 POP PUSH2 0x15BC PUSH0 DUP4 ADD DUP7 PUSH2 0x1349 JUMP JUMPDEST PUSH2 0x15C9 PUSH1 0x20 DUP4 ADD DUP6 PUSH2 0x1349 JUMP JUMPDEST PUSH2 0x15D6 PUSH1 0x40 DUP4 ADD DUP5 PUSH2 0x1258 JUMP JUMPDEST SWAP5 SWAP4 POP POP POP POP JUMP INVALID LOG2 PUSH5 0x6970667358 0x22 SLT KECCAK256 PUSH23 0x71F37ADD904E6B4C0494D6F0EF025FF99ABCB4A2A049B2 SUB SHL INVALID PUSH0 SDIV SHR PUSH9 0x5864736F6C63430008 0x1E STOP CALLER "
				},
				"gasEstimates": {
					"creation": {
						"codeDepositCost": "1130400",
						"executionCost": "infinite",
						"totalCost": "infinite"
					},
					"external": {
						"balanceOf(address)": "2896",
						"claimReward()": "infinite",
						"earned(address)": "infinite",
						"lastUpdateTime()": "2447",
						"notifyRewardAmount(uint256)": "infinite",
						"owner()": "2582",
						"periodFinish()": "2513",
						"renounceOwnership()": "infinite",
						"rewardPerTokenStored()": "2491",
						"rewardRate()": "2448",
						"rewards(address)": "2848",
						"rewardsDuration()": "2448",
						"rewardsToken()": "infinite",
						"stake(uint256)": "infinite",
						"stakingToken()": "infinite",
						"totalSupply()": "2500",
						"transferOwnership(address)": "infinite",
						"userRewardPerTokenPaid(address)": "2847",
						"withdraw(uint256)": "infinite"
					},
					"internal": {
						"lastTimeRewardApplicable()": "4255",
						"rewardPerToken()": "infinite"
					}
				},
				"methodIdentifiers": {
					"balanceOf(address)": "70a08231",
					"claimReward()": "b88a802f",
					"earned(address)": "008cc262",
					"lastUpdateTime()": "c8f33c91",
					"notifyRewardAmount(uint256)": "3c6b16ab",
					"owner()": "8da5cb5b",
					"periodFinish()": "ebe2b12b",
					"renounceOwnership()": "715018a6",
					"rewardPerTokenStored()": "df136d65",
					"rewardRate()": "7b0a47ee",
					"rewards(address)": "0700037d",
					"rewardsDuration()": "386a9525",
					"rewardsToken()": "d1af0c7d",
					"stake(uint256)": "a694fc3a",
					"stakingToken()": "72f702f3",
					"totalSupply()": "18160ddd",
					"transferOwnership(address)": "f2fde38b",
					"userRewardPerTokenPaid(address)": "8b876347",
					"withdraw(uint256)": "2e1a7d4d"
				}
			},
			"storageLayout": {
				"storage": [
					{
						"astId": 636,
						"contract": "contract/StakingRewards_flattened.sol:StakingRewards",
						"label": "_status",
						"offset": 0,
						"slot": "0",
						"type": "t_uint256"
					},
					{
						"astId": 729,
						"contract": "contract/StakingRewards_flattened.sol:StakingRewards",
						"label": "_owner",
						"offset": 0,
						"slot": "1",
						"type": "t_address"
					},
					{
						"astId": 881,
						"contract": "contract/StakingRewards_flattened.sol:StakingRewards",
						"label": "stakingToken",
						"offset": 0,
						"slot": "2",
						"type": "t_contract(IERC20)77"
					},
					{
						"astId": 884,
						"contract": "contract/StakingRewards_flattened.sol:StakingRewards",
						"label": "rewardsToken",
						"offset": 0,
						"slot": "3",
						"type": "t_contract(IERC20)77"
					},
					{
						"astId": 886,
						"contract": "contract/StakingRewards_flattened.sol:StakingRewards",
						"label": "periodFinish",
						"offset": 0,
						"slot": "4",
						"type": "t_uint256"
					},
					{
						"astId": 888,
						"contract": "contract/StakingRewards_flattened.sol:StakingRewards",
						"label": "rewardRate",
						"offset": 0,
						"slot": "5",
						"type": "t_uint256"
					},
					{
						"astId": 891,
						"contract": "contract/StakingRewards_flattened.sol:StakingRewards",
						"label": "rewardsDuration",
						"offset": 0,
						"slot": "6",
						"type": "t_uint256"
					},
					{
						"astId": 893,
						"contract": "contract/StakingRewards_flattened.sol:StakingRewards",
						"label": "lastUpdateTime",
						"offset": 0,
						"slot": "7",
						"type": "t_uint256"
					},
					{
						"astId": 895,
						"contract": "contract/StakingRewards_flattened.sol:StakingRewards",
						"label": "rewardPerTokenStored",
						"offset": 0,
						"slot": "8",
						"type": "t_uint256"
					},
					{
						"astId": 899,
						"contract": "contract/StakingRewards_flattened.sol:StakingRewards",
						"label": "userRewardPerTokenPaid",
						"offset": 0,
						"slot": "9",
						"type": "t_mapping(t_address,t_uint256)"
					},
					{
						"astId": 903,
						"contract": "contract/StakingRewards_flattened.sol:StakingRewards",
						"label": "rewards",
						"offset": 0,
						"slot": "10",
						"type": "t_mapping(t_address,t_uint256)"
					},
					{
						"astId": 905,
						"contract": "contract/StakingRewards_flattened.sol:StakingRewards",
						"label": "_totalSupply",
						"offset": 0,
						"slot": "11",
						"type": "t_uint256"
					},
					{
						"astId": 909,
						"contract": "contract/StakingRewards_flattened.sol:StakingRewards",
						"label": "_balances",
						"offset": 0,
						"slot": "12",
						"type": "t_mapping(t_address,t_uint256)"
					}
				],
				"types": {
					"t_address": {
						"encoding": "inplace",
						"label": "address",
						"numberOfBytes": "20"
					},
					"t_contract(IERC20)77": {
						"encoding": "inplace",
						"label": "contract IERC20",
						"numberOfBytes": "20"
					},
					"t_mapping(t_address,t_uint256)": {
						"encoding": "mapping",
						"key": "t_address",
						"label": "mapping(address => uint256)",
						"numberOfBytes": "32",
						"value": "t_uint256"
					},
					"t_uint256": {
						"encoding": "inplace",
						"label": "uint256",
						"numberOfBytes": "32"
					}
				}
			},
			"userdoc": {
				"kind": "user",
				"methods": {},
				"version": 1
			}
		}
	}
}