{
	"contract/SpotExchange.sol": {
		"SpotExchange": {
			"abi": [
				{
					"inputs": [
						{
							"internalType": "address",
							"name": "_vaultAddress",
							"type": "address"
						},
						{
							"internalType": "address",
							"name": "_feeWallet",
							"type": "address"
						}
					],
					"stateMutability": "nonpayable",
					"type": "constructor"
				},
				{
					"anonymous": false,
					"inputs": [
						{
							"indexed": true,
							"internalType": "address",
							"name": "tokenA",
							"type": "address"
						},
						{
							"indexed": true,
							"internalType": "address",
							"name": "tokenB",
							"type": "address"
						},
						{
							"indexed": false,
							"internalType": "uint256",
							"name": "newPrice",
							"type": "uint256"
						}
					],
					"name": "PriceUpdated",
					"type": "event"
				},
				{
					"anonymous": false,
					"inputs": [
						{
							"indexed": true,
							"internalType": "address",
							"name": "user",
							"type": "address"
						},
						{
							"indexed": true,
							"internalType": "address",
							"name": "tokenFrom",
							"type": "address"
						},
						{
							"indexed": true,
							"internalType": "address",
							"name": "tokenTo",
							"type": "address"
						},
						{
							"indexed": false,
							"internalType": "uint256",
							"name": "amountFrom",
							"type": "uint256"
						},
						{
							"indexed": false,
							"internalType": "uint256",
							"name": "amountTo",
							"type": "uint256"
						}
					],
					"name": "TradeExecuted",
					"type": "event"
				},
				{
					"inputs": [],
					"name": "assetVault",
					"outputs": [
						{
							"internalType": "contract AssetVault",
							"name": "",
							"type": "address"
						}
					],
					"stateMutability": "view",
					"type": "function"
				},
				{
					"inputs": [
						{
							"internalType": "address",
							"name": "_tokenFrom",
							"type": "address"
						},
						{
							"internalType": "address",
							"name": "_tokenTo",
							"type": "address"
						},
						{
							"internalType": "uint256",
							"name": "_amountFrom",
							"type": "uint256"
						}
					],
					"name": "executeTrade",
					"outputs": [],
					"stateMutability": "nonpayable",
					"type": "function"
				},
				{
					"inputs": [],
					"name": "feeBps",
					"outputs": [
						{
							"internalType": "uint256",
							"name": "",
							"type": "uint256"
						}
					],
					"stateMutability": "view",
					"type": "function"
				},
				{
					"inputs": [],
					"name": "feeWallet",
					"outputs": [
						{
							"internalType": "address",
							"name": "",
							"type": "address"
						}
					],
					"stateMutability": "view",
					"type": "function"
				},
				{
					"inputs": [
						{
							"internalType": "address",
							"name": "",
							"type": "address"
						},
						{
							"internalType": "address",
							"name": "",
							"type": "address"
						}
					],
					"name": "prices",
					"outputs": [
						{
							"internalType": "uint256",
							"name": "",
							"type": "uint256"
						}
					],
					"stateMutability": "view",
					"type": "function"
				},
				{
					"inputs": [
						{
							"internalType": "address",
							"name": "_tokenA",
							"type": "address"
						},
						{
							"internalType": "address",
							"name": "_tokenB",
							"type": "address"
						},
						{
							"internalType": "uint256",
							"name": "_price",
							"type": "uint256"
						}
					],
					"name": "setPrice",
					"outputs": [],
					"stateMutability": "nonpayable",
					"type": "function"
				}
			],
			"devdoc": {
				"details": "Handles the logic for executing spot trades. It is authorized to move funds within the AssetVault.",
				"kind": "dev",
				"methods": {
					"executeTrade(address,address,uint256)": {
						"details": "Executes a spot trade.",
						"params": {
							"_amountFrom": "The amount of tokenFrom the user wants to sell.",
							"_tokenFrom": "The token the user is selling.",
							"_tokenTo": "The token the user is buying."
						}
					}
				},
				"title": "SpotExchange",
				"version": 1
			},
			"evm": {
				"assembly": "    /* \"contract/SpotExchange.sol\":237:2871  contract SpotExchange {... */\n  mstore(0x40, 0x80)\n    /* \"contract/SpotExchange.sol\":524:526  10 */\n  0x0a\n    /* \"contract/SpotExchange.sol\":500:526  uint256 public feeBps = 10 */\n  0x03\n  sstore\n    /* \"contract/SpotExchange.sol\":849:994  constructor(address _vaultAddress, address _feeWallet) {... */\n  callvalue\n  dup1\n  iszero\n  tag_1\n  jumpi\n  revert(0x00, 0x00)\ntag_1:\n  pop\n  mload(0x40)\n  sub(codesize, bytecodeSize)\n  dup1\n  bytecodeSize\n  dup4\n  codecopy\n  dup2\n  dup2\n  add\n  0x40\n  mstore\n  dup2\n  add\n  swap1\n  tag_2\n  swap2\n  swap1\n  tag_3\n  jump\t// in\ntag_2:\n    /* \"contract/SpotExchange.sol\":939:952  _vaultAddress */\n  dup2\n    /* \"contract/SpotExchange.sol\":915:925  assetVault */\n  0x00\n  0x00\n    /* \"contract/SpotExchange.sol\":915:953  assetVault = AssetVault(_vaultAddress) */\n  0x0100\n  exp\n  dup2\n  sload\n  dup2\n  0xffffffffffffffffffffffffffffffffffffffff\n  mul\n  not\n  and\n  swap1\n  dup4\n  0xffffffffffffffffffffffffffffffffffffffff\n  and\n  mul\n  or\n  swap1\n  sstore\n  pop\n    /* \"contract/SpotExchange.sol\":976:986  _feeWallet */\n  dup1\n    /* \"contract/SpotExchange.sol\":964:973  feeWallet */\n  0x01\n  0x00\n    /* \"contract/SpotExchange.sol\":964:986  feeWallet = _feeWallet */\n  0x0100\n  exp\n  dup2\n  sload\n  dup2\n  0xffffffffffffffffffffffffffffffffffffffff\n  mul\n  not\n  and\n  swap1\n  dup4\n  0xffffffffffffffffffffffffffffffffffffffff\n  and\n  mul\n  or\n  swap1\n  sstore\n  pop\n    /* \"contract/SpotExchange.sol\":849:994  constructor(address _vaultAddress, address _feeWallet) {... */\n  pop\n  pop\n    /* \"contract/SpotExchange.sol\":237:2871  contract SpotExchange {... */\n  jump(tag_6)\n    /* \"#utility.yul\":88:205   */\ntag_8:\n    /* \"#utility.yul\":197:198   */\n  0x00\n    /* \"#utility.yul\":194:195   */\n  0x00\n    /* \"#utility.yul\":187:199   */\n  revert\n    /* \"#utility.yul\":334:460   */\ntag_10:\n    /* \"#utility.yul\":371:378   */\n  0x00\n    /* \"#utility.yul\":411:453   */\n  0xffffffffffffffffffffffffffffffffffffffff\n    /* \"#utility.yul\":404:409   */\n  dup3\n    /* \"#utility.yul\":400:454   */\n  and\n    /* \"#utility.yul\":389:454   */\n  swap1\n  pop\n    /* \"#utility.yul\":334:460   */\n  swap2\n  swap1\n  pop\n  jump\t// out\n    /* \"#utility.yul\":466:562   */\ntag_11:\n    /* \"#utility.yul\":503:510   */\n  0x00\n    /* \"#utility.yul\":532:556   */\n  tag_20\n    /* \"#utility.yul\":550:555   */\n  dup3\n    /* \"#utility.yul\":532:556   */\n  tag_10\n  jump\t// in\ntag_20:\n    /* \"#utility.yul\":521:556   */\n  swap1\n  pop\n    /* \"#utility.yul\":466:562   */\n  swap2\n  swap1\n  pop\n  jump\t// out\n    /* \"#utility.yul\":568:690   */\ntag_12:\n    /* \"#utility.yul\":641:665   */\n  tag_22\n    /* \"#utility.yul\":659:664   */\n  dup2\n    /* \"#utility.yul\":641:665   */\n  tag_11\n  jump\t// in\ntag_22:\n    /* \"#utility.yul\":634:639   */\n  dup2\n    /* \"#utility.yul\":631:666   */\n  eq\n    /* \"#utility.yul\":621:684   */\n  tag_23\n  jumpi\n    /* \"#utility.yul\":680:681   */\n  0x00\n    /* \"#utility.yul\":677:678   */\n  0x00\n    /* \"#utility.yul\":670:682   */\n  revert\n    /* \"#utility.yul\":621:684   */\ntag_23:\n    /* \"#utility.yul\":568:690   */\n  pop\n  jump\t// out\n    /* \"#utility.yul\":696:839   */\ntag_13:\n    /* \"#utility.yul\":753:758   */\n  0x00\n    /* \"#utility.yul\":784:790   */\n  dup2\n    /* \"#utility.yul\":778:791   */\n  mload\n    /* \"#utility.yul\":769:791   */\n  swap1\n  pop\n    /* \"#utility.yul\":800:833   */\n  tag_25\n    /* \"#utility.yul\":827:832   */\n  dup2\n    /* \"#utility.yul\":800:833   */\n  tag_12\n  jump\t// in\ntag_25:\n    /* \"#utility.yul\":696:839   */\n  swap3\n  swap2\n  pop\n  pop\n  jump\t// out\n    /* \"#utility.yul\":845:1352   */\ntag_3:\n    /* \"#utility.yul\":924:930   */\n  0x00\n    /* \"#utility.yul\":932:938   */\n  0x00\n    /* \"#utility.yul\":981:983   */\n  0x40\n    /* \"#utility.yul\":969:978   */\n  dup4\n    /* \"#utility.yul\":960:967   */\n  dup6\n    /* \"#utility.yul\":956:979   */\n  sub\n    /* \"#utility.yul\":952:984   */\n  slt\n    /* \"#utility.yul\":949:1068   */\n  iszero\n  tag_27\n  jumpi\n    /* \"#utility.yul\":987:1066   */\n  tag_28\n  tag_8\n  jump\t// in\ntag_28:\n    /* \"#utility.yul\":949:1068   */\ntag_27:\n    /* \"#utility.yul\":1107:1108   */\n  0x00\n    /* \"#utility.yul\":1132:1196   */\n  tag_29\n    /* \"#utility.yul\":1188:1195   */\n  dup6\n    /* \"#utility.yul\":1179:1185   */\n  dup3\n    /* \"#utility.yul\":1168:1177   */\n  dup7\n    /* \"#utility.yul\":1164:1186   */\n  add\n    /* \"#utility.yul\":1132:1196   */\n  tag_13\n  jump\t// in\ntag_29:\n    /* \"#utility.yul\":1122:1196   */\n  swap3\n  pop\n    /* \"#utility.yul\":1078:1206   */\n  pop\n    /* \"#utility.yul\":1245:1247   */\n  0x20\n    /* \"#utility.yul\":1271:1335   */\n  tag_30\n    /* \"#utility.yul\":1327:1334   */\n  dup6\n    /* \"#utility.yul\":1318:1324   */\n  dup3\n    /* \"#utility.yul\":1307:1316   */\n  dup7\n    /* \"#utility.yul\":1303:1325   */\n  add\n    /* \"#utility.yul\":1271:1335   */\n  tag_13\n  jump\t// in\ntag_30:\n    /* \"#utility.yul\":1261:1335   */\n  swap2\n  pop\n    /* \"#utility.yul\":1216:1345   */\n  pop\n    /* \"#utility.yul\":845:1352   */\n  swap3\n  pop\n  swap3\n  swap1\n  pop\n  jump\t// out\n    /* \"contract/SpotExchange.sol\":237:2871  contract SpotExchange {... */\ntag_6:\n  dataSize(sub_0)\n  dup1\n  dataOffset(sub_0)\n  0x00\n  codecopy\n  0x00\n  return\nstop\n\nsub_0: assembly {\n        /* \"contract/SpotExchange.sol\":237:2871  contract SpotExchange {... */\n      mstore(0x40, 0x80)\n      callvalue\n      dup1\n      iszero\n      tag_1\n      jumpi\n      revert(0x00, 0x00)\n    tag_1:\n      pop\n      jumpi(tag_2, lt(calldatasize, 0x04))\n      shr(0xe0, calldataload(0x00))\n      dup1\n      0x1f312404\n      eq\n      tag_3\n      jumpi\n      dup1\n      0x24a9d853\n      eq\n      tag_4\n      jumpi\n      dup1\n      0x6c61033c\n      eq\n      tag_5\n      jumpi\n      dup1\n      0x792eb791\n      eq\n      tag_6\n      jumpi\n      dup1\n      0xf25f4b56\n      eq\n      tag_7\n      jumpi\n      dup1\n      0xf61ebc36\n      eq\n      tag_8\n      jumpi\n    tag_2:\n      revert(0x00, 0x00)\n        /* \"contract/SpotExchange.sol\":431:492  mapping(address => mapping(address => uint256)) public prices */\n    tag_3:\n      tag_9\n      0x04\n      dup1\n      calldatasize\n      sub\n      dup2\n      add\n      swap1\n      tag_10\n      swap2\n      swap1\n      tag_11\n      jump\t// in\n    tag_10:\n      tag_12\n      jump\t// in\n    tag_9:\n      mload(0x40)\n      tag_13\n      swap2\n      swap1\n      tag_14\n      jump\t// in\n    tag_13:\n      mload(0x40)\n      dup1\n      swap2\n      sub\n      swap1\n      return\n        /* \"contract/SpotExchange.sol\":500:526  uint256 public feeBps = 10 */\n    tag_4:\n      tag_15\n      tag_16\n      jump\t// in\n    tag_15:\n      mload(0x40)\n      tag_17\n      swap2\n      swap1\n      tag_14\n      jump\t// in\n    tag_17:\n      mload(0x40)\n      dup1\n      swap2\n      sub\n      swap1\n      return\n        /* \"contract/SpotExchange.sol\":1242:2420  function executeTrade(address _tokenFrom, address _tokenTo, uint256 _amountFrom) external {... */\n    tag_5:\n      tag_18\n      0x04\n      dup1\n      calldatasize\n      sub\n      dup2\n      add\n      swap1\n      tag_19\n      swap2\n      swap1\n      tag_20\n      jump\t// in\n    tag_19:\n      tag_21\n      jump\t// in\n    tag_18:\n      stop\n        /* \"contract/SpotExchange.sol\":2525:2868  function setPrice(address _tokenA, address _tokenB, uint256 _price) external {... */\n    tag_6:\n      tag_22\n      0x04\n      dup1\n      calldatasize\n      sub\n      dup2\n      add\n      swap1\n      tag_23\n      swap2\n      swap1\n      tag_20\n      jump\t// in\n    tag_23:\n      tag_24\n      jump\t// in\n    tag_22:\n      stop\n        /* \"contract/SpotExchange.sol\":301:325  address public feeWallet */\n    tag_7:\n      tag_25\n      tag_26\n      jump\t// in\n    tag_25:\n      mload(0x40)\n      tag_27\n      swap2\n      swap1\n      tag_28\n      jump\t// in\n    tag_27:\n      mload(0x40)\n      dup1\n      swap2\n      sub\n      swap1\n      return\n        /* \"contract/SpotExchange.sol\":266:294  AssetVault public assetVault */\n    tag_8:\n      tag_29\n      tag_30\n      jump\t// in\n    tag_29:\n      mload(0x40)\n      tag_31\n      swap2\n      swap1\n      tag_32\n      jump\t// in\n    tag_31:\n      mload(0x40)\n      dup1\n      swap2\n      sub\n      swap1\n      return\n        /* \"contract/SpotExchange.sol\":431:492  mapping(address => mapping(address => uint256)) public prices */\n    tag_12:\n      mstore(0x20, 0x02)\n      dup2\n      0x00\n      mstore\n      mstore(0x20, keccak256(0x00, 0x40))\n      dup1\n      0x00\n      mstore\n      keccak256(0x00, 0x40)\n      0x00\n      swap2\n      pop\n      swap2\n      pop\n      pop\n      sload\n      dup2\n      jump\t// out\n        /* \"contract/SpotExchange.sol\":500:526  uint256 public feeBps = 10 */\n    tag_16:\n      sload(0x03)\n      dup2\n      jump\t// out\n        /* \"contract/SpotExchange.sol\":1242:2420  function executeTrade(address _tokenFrom, address _tokenTo, uint256 _amountFrom) external {... */\n    tag_21:\n        /* \"contract/SpotExchange.sol\":1365:1366  0 */\n      0x00\n        /* \"contract/SpotExchange.sol\":1351:1362  _amountFrom */\n      dup2\n        /* \"contract/SpotExchange.sol\":1351:1366  _amountFrom > 0 */\n      gt\n        /* \"contract/SpotExchange.sol\":1343:1389  require(_amountFrom > 0, \"Amount must be > 0\") */\n      tag_34\n      jumpi\n      mload(0x40)\n      0x08c379a000000000000000000000000000000000000000000000000000000000\n      dup2\n      mstore\n      0x04\n      add\n      tag_35\n      swap1\n      tag_36\n      jump\t// in\n    tag_35:\n      mload(0x40)\n      dup1\n      swap2\n      sub\n      swap1\n      revert\n    tag_34:\n        /* \"contract/SpotExchange.sol\":1400:1413  uint256 price */\n      0x00\n        /* \"contract/SpotExchange.sol\":1416:1422  prices */\n      0x02\n        /* \"contract/SpotExchange.sol\":1416:1434  prices[_tokenFrom] */\n      0x00\n        /* \"contract/SpotExchange.sol\":1423:1433  _tokenFrom */\n      dup6\n        /* \"contract/SpotExchange.sol\":1416:1434  prices[_tokenFrom] */\n      0xffffffffffffffffffffffffffffffffffffffff\n      and\n      0xffffffffffffffffffffffffffffffffffffffff\n      and\n      dup2\n      mstore\n      0x20\n      add\n      swap1\n      dup2\n      mstore\n      0x20\n      add\n      0x00\n      keccak256\n        /* \"contract/SpotExchange.sol\":1416:1444  prices[_tokenFrom][_tokenTo] */\n      0x00\n        /* \"contract/SpotExchange.sol\":1435:1443  _tokenTo */\n      dup5\n        /* \"contract/SpotExchange.sol\":1416:1444  prices[_tokenFrom][_tokenTo] */\n      0xffffffffffffffffffffffffffffffffffffffff\n      and\n      0xffffffffffffffffffffffffffffffffffffffff\n      and\n      dup2\n      mstore\n      0x20\n      add\n      swap1\n      dup2\n      mstore\n      0x20\n      add\n      0x00\n      keccak256\n      sload\n        /* \"contract/SpotExchange.sol\":1400:1444  uint256 price = prices[_tokenFrom][_tokenTo] */\n      swap1\n      pop\n        /* \"contract/SpotExchange.sol\":1471:1472  0 */\n      0x00\n        /* \"contract/SpotExchange.sol\":1463:1468  price */\n      dup2\n        /* \"contract/SpotExchange.sol\":1463:1472  price > 0 */\n      gt\n        /* \"contract/SpotExchange.sol\":1455:1504  require(price > 0, \"Price not set for this pair\") */\n      tag_37\n      jumpi\n      mload(0x40)\n      0x08c379a000000000000000000000000000000000000000000000000000000000\n      dup2\n      mstore\n      0x04\n      add\n      tag_38\n      swap1\n      tag_39\n      jump\t// in\n    tag_38:\n      mload(0x40)\n      dup1\n      swap2\n      sub\n      swap1\n      revert\n    tag_37:\n        /* \"contract/SpotExchange.sol\":1738:1754  uint256 amountTo */\n      0x00\n        /* \"contract/SpotExchange.sol\":1781:1785  1e18 */\n      0x0de0b6b3a7640000\n        /* \"contract/SpotExchange.sol\":1772:1777  price */\n      dup3\n        /* \"contract/SpotExchange.sol\":1758:1769  _amountFrom */\n      dup5\n        /* \"contract/SpotExchange.sol\":1758:1777  _amountFrom * price */\n      tag_40\n      swap2\n      swap1\n      tag_41\n      jump\t// in\n    tag_40:\n        /* \"contract/SpotExchange.sol\":1757:1785  (_amountFrom * price) / 1e18 */\n      tag_42\n      swap2\n      swap1\n      tag_43\n      jump\t// in\n    tag_42:\n        /* \"contract/SpotExchange.sol\":1738:1785  uint256 amountTo = (_amountFrom * price) / 1e18 */\n      swap1\n      pop\n        /* \"contract/SpotExchange.sol\":1839:1850  uint256 fee */\n      0x00\n        /* \"contract/SpotExchange.sol\":1875:1880  10000 */\n      0x2710\n        /* \"contract/SpotExchange.sol\":1865:1871  feeBps */\n      sload(0x03)\n        /* \"contract/SpotExchange.sol\":1854:1862  amountTo */\n      dup4\n        /* \"contract/SpotExchange.sol\":1854:1871  amountTo * feeBps */\n      tag_44\n      swap2\n      swap1\n      tag_41\n      jump\t// in\n    tag_44:\n        /* \"contract/SpotExchange.sol\":1853:1880  (amountTo * feeBps) / 10000 */\n      tag_45\n      swap2\n      swap1\n      tag_43\n      jump\t// in\n    tag_45:\n        /* \"contract/SpotExchange.sol\":1839:1880  uint256 fee = (amountTo * feeBps) / 10000 */\n      swap1\n      pop\n        /* \"contract/SpotExchange.sol\":1891:1915  uint256 amountToAfterFee */\n      0x00\n        /* \"contract/SpotExchange.sol\":1929:1932  fee */\n      dup2\n        /* \"contract/SpotExchange.sol\":1918:1926  amountTo */\n      dup4\n        /* \"contract/SpotExchange.sol\":1918:1932  amountTo - fee */\n      tag_46\n      swap2\n      swap1\n      tag_47\n      jump\t// in\n    tag_46:\n        /* \"contract/SpotExchange.sol\":1891:1932  uint256 amountToAfterFee = amountTo - fee */\n      swap1\n      pop\n        /* \"contract/SpotExchange.sol\":2070:2080  assetVault */\n      0x00\n      0x00\n      swap1\n      sload\n      swap1\n      0x0100\n      exp\n      swap1\n      div\n      0xffffffffffffffffffffffffffffffffffffffff\n      and\n        /* \"contract/SpotExchange.sol\":2070:2097  assetVault.internalTransfer */\n      0xffffffffffffffffffffffffffffffffffffffff\n      and\n      0x44a29e2a\n        /* \"contract/SpotExchange.sol\":2098:2108  _tokenFrom */\n      dup9\n        /* \"contract/SpotExchange.sol\":2110:2120  msg.sender */\n      caller\n        /* \"contract/SpotExchange.sol\":2122:2131  feeWallet */\n      0x01\n      0x00\n      swap1\n      sload\n      swap1\n      0x0100\n      exp\n      swap1\n      div\n      0xffffffffffffffffffffffffffffffffffffffff\n      and\n        /* \"contract/SpotExchange.sol\":2133:2144  _amountFrom */\n      dup10\n        /* \"contract/SpotExchange.sol\":2070:2145  assetVault.internalTransfer(_tokenFrom, msg.sender, feeWallet, _amountFrom) */\n      mload(0x40)\n      dup6\n      0xffffffff\n      and\n      0xe0\n      shl\n      dup2\n      mstore\n      0x04\n      add\n      tag_48\n      swap5\n      swap4\n      swap3\n      swap2\n      swap1\n      tag_49\n      jump\t// in\n    tag_48:\n      0x00\n      mload(0x40)\n      dup1\n      dup4\n      sub\n      dup2\n      0x00\n      dup8\n      dup1\n      extcodesize\n      iszero\n      dup1\n      iszero\n      tag_50\n      jumpi\n      revert(0x00, 0x00)\n    tag_50:\n      pop\n      gas\n      call\n      iszero\n      dup1\n      iszero\n      tag_52\n      jumpi\n      returndatacopy(0x00, 0x00, returndatasize)\n      revert(0x00, returndatasize)\n    tag_52:\n      pop\n      pop\n      pop\n      pop\n        /* \"contract/SpotExchange.sol\":2238:2248  assetVault */\n      0x00\n      0x00\n      swap1\n      sload\n      swap1\n      0x0100\n      exp\n      swap1\n      div\n      0xffffffffffffffffffffffffffffffffffffffff\n      and\n        /* \"contract/SpotExchange.sol\":2238:2265  assetVault.internalTransfer */\n      0xffffffffffffffffffffffffffffffffffffffff\n      and\n      0x44a29e2a\n        /* \"contract/SpotExchange.sol\":2266:2274  _tokenTo */\n      dup8\n        /* \"contract/SpotExchange.sol\":2276:2285  feeWallet */\n      0x01\n      0x00\n      swap1\n      sload\n      swap1\n      0x0100\n      exp\n      swap1\n      div\n      0xffffffffffffffffffffffffffffffffffffffff\n      and\n        /* \"contract/SpotExchange.sol\":2287:2297  msg.sender */\n      caller\n        /* \"contract/SpotExchange.sol\":2299:2315  amountToAfterFee */\n      dup6\n        /* \"contract/SpotExchange.sol\":2238:2316  assetVault.internalTransfer(_tokenTo, feeWallet, msg.sender, amountToAfterFee) */\n      mload(0x40)\n      dup6\n      0xffffffff\n      and\n      0xe0\n      shl\n      dup2\n      mstore\n      0x04\n      add\n      tag_53\n      swap5\n      swap4\n      swap3\n      swap2\n      swap1\n      tag_49\n      jump\t// in\n    tag_53:\n      0x00\n      mload(0x40)\n      dup1\n      dup4\n      sub\n      dup2\n      0x00\n      dup8\n      dup1\n      extcodesize\n      iszero\n      dup1\n      iszero\n      tag_54\n      jumpi\n      revert(0x00, 0x00)\n    tag_54:\n      pop\n      gas\n      call\n      iszero\n      dup1\n      iszero\n      tag_56\n      jumpi\n      returndatacopy(0x00, 0x00, returndatasize)\n      revert(0x00, returndatasize)\n    tag_56:\n      pop\n      pop\n      pop\n      pop\n        /* \"contract/SpotExchange.sol\":2372:2380  _tokenTo */\n      dup6\n        /* \"contract/SpotExchange.sol\":2334:2412  TradeExecuted(msg.sender, _tokenFrom, _tokenTo, _amountFrom, amountToAfterFee) */\n      0xffffffffffffffffffffffffffffffffffffffff\n      and\n        /* \"contract/SpotExchange.sol\":2360:2370  _tokenFrom */\n      dup8\n        /* \"contract/SpotExchange.sol\":2334:2412  TradeExecuted(msg.sender, _tokenFrom, _tokenTo, _amountFrom, amountToAfterFee) */\n      0xffffffffffffffffffffffffffffffffffffffff\n      and\n        /* \"contract/SpotExchange.sol\":2348:2358  msg.sender */\n      caller\n        /* \"contract/SpotExchange.sol\":2334:2412  TradeExecuted(msg.sender, _tokenFrom, _tokenTo, _amountFrom, amountToAfterFee) */\n      0xffffffffffffffffffffffffffffffffffffffff\n      and\n      0x3fcfb2f2e0146d5be7268f9e4cd3c4c0ce3428f68805db227b7fc378db7519ac\n        /* \"contract/SpotExchange.sol\":2382:2393  _amountFrom */\n      dup9\n        /* \"contract/SpotExchange.sol\":2395:2411  amountToAfterFee */\n      dup6\n        /* \"contract/SpotExchange.sol\":2334:2412  TradeExecuted(msg.sender, _tokenFrom, _tokenTo, _amountFrom, amountToAfterFee) */\n      mload(0x40)\n      tag_57\n      swap3\n      swap2\n      swap1\n      tag_58\n      jump\t// in\n    tag_57:\n      mload(0x40)\n      dup1\n      swap2\n      sub\n      swap1\n      log4\n        /* \"contract/SpotExchange.sol\":1332:2420  {... */\n      pop\n      pop\n      pop\n      pop\n        /* \"contract/SpotExchange.sol\":1242:2420  function executeTrade(address _tokenFrom, address _tokenTo, uint256 _amountFrom) external {... */\n      pop\n      pop\n      pop\n      jump\t// out\n        /* \"contract/SpotExchange.sol\":2525:2868  function setPrice(address _tokenA, address _tokenB, uint256 _price) external {... */\n    tag_24:\n        /* \"contract/SpotExchange.sol\":2710:2716  _price */\n      dup1\n        /* \"contract/SpotExchange.sol\":2683:2689  prices */\n      0x02\n        /* \"contract/SpotExchange.sol\":2683:2698  prices[_tokenA] */\n      0x00\n        /* \"contract/SpotExchange.sol\":2690:2697  _tokenA */\n      dup6\n        /* \"contract/SpotExchange.sol\":2683:2698  prices[_tokenA] */\n      0xffffffffffffffffffffffffffffffffffffffff\n      and\n      0xffffffffffffffffffffffffffffffffffffffff\n      and\n      dup2\n      mstore\n      0x20\n      add\n      swap1\n      dup2\n      mstore\n      0x20\n      add\n      0x00\n      keccak256\n        /* \"contract/SpotExchange.sol\":2683:2707  prices[_tokenA][_tokenB] */\n      0x00\n        /* \"contract/SpotExchange.sol\":2699:2706  _tokenB */\n      dup5\n        /* \"contract/SpotExchange.sol\":2683:2707  prices[_tokenA][_tokenB] */\n      0xffffffffffffffffffffffffffffffffffffffff\n      and\n      0xffffffffffffffffffffffffffffffffffffffff\n      and\n      dup2\n      mstore\n      0x20\n      add\n      swap1\n      dup2\n      mstore\n      0x20\n      add\n      0x00\n      keccak256\n        /* \"contract/SpotExchange.sol\":2683:2716  prices[_tokenA][_tokenB] = _price */\n      dup2\n      swap1\n      sstore\n      pop\n        /* \"contract/SpotExchange.sol\":2800:2806  _price */\n      dup1\n        /* \"contract/SpotExchange.sol\":2785:2796  1e18 * 1e18 */\n      0xc097ce7bc90715b34b9f1000000000\n        /* \"contract/SpotExchange.sol\":2784:2806  (1e18 * 1e18) / _price */\n      tag_60\n      swap2\n      swap1\n      tag_43\n      jump\t// in\n    tag_60:\n        /* \"contract/SpotExchange.sol\":2757:2763  prices */\n      0x02\n        /* \"contract/SpotExchange.sol\":2757:2772  prices[_tokenB] */\n      0x00\n        /* \"contract/SpotExchange.sol\":2764:2771  _tokenB */\n      dup5\n        /* \"contract/SpotExchange.sol\":2757:2772  prices[_tokenB] */\n      0xffffffffffffffffffffffffffffffffffffffff\n      and\n      0xffffffffffffffffffffffffffffffffffffffff\n      and\n      dup2\n      mstore\n      0x20\n      add\n      swap1\n      dup2\n      mstore\n      0x20\n      add\n      0x00\n      keccak256\n        /* \"contract/SpotExchange.sol\":2757:2781  prices[_tokenB][_tokenA] */\n      0x00\n        /* \"contract/SpotExchange.sol\":2773:2780  _tokenA */\n      dup6\n        /* \"contract/SpotExchange.sol\":2757:2781  prices[_tokenB][_tokenA] */\n      0xffffffffffffffffffffffffffffffffffffffff\n      and\n      0xffffffffffffffffffffffffffffffffffffffff\n      and\n      dup2\n      mstore\n      0x20\n      add\n      swap1\n      dup2\n      mstore\n      0x20\n      add\n      0x00\n      keccak256\n        /* \"contract/SpotExchange.sol\":2757:2806  prices[_tokenB][_tokenA] = (1e18 * 1e18) / _price */\n      dup2\n      swap1\n      sstore\n      pop\n        /* \"contract/SpotExchange.sol\":2844:2851  _tokenB */\n      dup2\n        /* \"contract/SpotExchange.sol\":2822:2860  PriceUpdated(_tokenA, _tokenB, _price) */\n      0xffffffffffffffffffffffffffffffffffffffff\n      and\n        /* \"contract/SpotExchange.sol\":2835:2842  _tokenA */\n      dup4\n        /* \"contract/SpotExchange.sol\":2822:2860  PriceUpdated(_tokenA, _tokenB, _price) */\n      0xffffffffffffffffffffffffffffffffffffffff\n      and\n      0xb71c154260e8508e211e2ace194becba2c6d7e727c3ed292fe4787458969cd10\n        /* \"contract/SpotExchange.sol\":2853:2859  _price */\n      dup4\n        /* \"contract/SpotExchange.sol\":2822:2860  PriceUpdated(_tokenA, _tokenB, _price) */\n      mload(0x40)\n      tag_61\n      swap2\n      swap1\n      tag_14\n      jump\t// in\n    tag_61:\n      mload(0x40)\n      dup1\n      swap2\n      sub\n      swap1\n      log3\n        /* \"contract/SpotExchange.sol\":2525:2868  function setPrice(address _tokenA, address _tokenB, uint256 _price) external {... */\n      pop\n      pop\n      pop\n      jump\t// out\n        /* \"contract/SpotExchange.sol\":301:325  address public feeWallet */\n    tag_26:\n      0x01\n      0x00\n      swap1\n      sload\n      swap1\n      0x0100\n      exp\n      swap1\n      div\n      0xffffffffffffffffffffffffffffffffffffffff\n      and\n      dup2\n      jump\t// out\n        /* \"contract/SpotExchange.sol\":266:294  AssetVault public assetVault */\n    tag_30:\n      0x00\n      0x00\n      swap1\n      sload\n      swap1\n      0x0100\n      exp\n      swap1\n      div\n      0xffffffffffffffffffffffffffffffffffffffff\n      and\n      dup2\n      jump\t// out\n        /* \"#utility.yul\":88:205   */\n    tag_63:\n        /* \"#utility.yul\":197:198   */\n      0x00\n        /* \"#utility.yul\":194:195   */\n      0x00\n        /* \"#utility.yul\":187:199   */\n      revert\n        /* \"#utility.yul\":334:460   */\n    tag_65:\n        /* \"#utility.yul\":371:378   */\n      0x00\n        /* \"#utility.yul\":411:453   */\n      0xffffffffffffffffffffffffffffffffffffffff\n        /* \"#utility.yul\":404:409   */\n      dup3\n        /* \"#utility.yul\":400:454   */\n      and\n        /* \"#utility.yul\":389:454   */\n      swap1\n      pop\n        /* \"#utility.yul\":334:460   */\n      swap2\n      swap1\n      pop\n      jump\t// out\n        /* \"#utility.yul\":466:562   */\n    tag_66:\n        /* \"#utility.yul\":503:510   */\n      0x00\n        /* \"#utility.yul\":532:556   */\n      tag_92\n        /* \"#utility.yul\":550:555   */\n      dup3\n        /* \"#utility.yul\":532:556   */\n      tag_65\n      jump\t// in\n    tag_92:\n        /* \"#utility.yul\":521:556   */\n      swap1\n      pop\n        /* \"#utility.yul\":466:562   */\n      swap2\n      swap1\n      pop\n      jump\t// out\n        /* \"#utility.yul\":568:690   */\n    tag_67:\n        /* \"#utility.yul\":641:665   */\n      tag_94\n        /* \"#utility.yul\":659:664   */\n      dup2\n        /* \"#utility.yul\":641:665   */\n      tag_66\n      jump\t// in\n    tag_94:\n        /* \"#utility.yul\":634:639   */\n      dup2\n        /* \"#utility.yul\":631:666   */\n      eq\n        /* \"#utility.yul\":621:684   */\n      tag_95\n      jumpi\n        /* \"#utility.yul\":680:681   */\n      0x00\n        /* \"#utility.yul\":677:678   */\n      0x00\n        /* \"#utility.yul\":670:682   */\n      revert\n        /* \"#utility.yul\":621:684   */\n    tag_95:\n        /* \"#utility.yul\":568:690   */\n      pop\n      jump\t// out\n        /* \"#utility.yul\":696:835   */\n    tag_68:\n        /* \"#utility.yul\":742:747   */\n      0x00\n        /* \"#utility.yul\":780:786   */\n      dup2\n        /* \"#utility.yul\":767:787   */\n      calldataload\n        /* \"#utility.yul\":758:787   */\n      swap1\n      pop\n        /* \"#utility.yul\":796:829   */\n      tag_97\n        /* \"#utility.yul\":823:828   */\n      dup2\n        /* \"#utility.yul\":796:829   */\n      tag_67\n      jump\t// in\n    tag_97:\n        /* \"#utility.yul\":696:835   */\n      swap3\n      swap2\n      pop\n      pop\n      jump\t// out\n        /* \"#utility.yul\":841:1315   */\n    tag_11:\n        /* \"#utility.yul\":909:915   */\n      0x00\n        /* \"#utility.yul\":917:923   */\n      0x00\n        /* \"#utility.yul\":966:968   */\n      0x40\n        /* \"#utility.yul\":954:963   */\n      dup4\n        /* \"#utility.yul\":945:952   */\n      dup6\n        /* \"#utility.yul\":941:964   */\n      sub\n        /* \"#utility.yul\":937:969   */\n      slt\n        /* \"#utility.yul\":934:1053   */\n      iszero\n      tag_99\n      jumpi\n        /* \"#utility.yul\":972:1051   */\n      tag_100\n      tag_63\n      jump\t// in\n    tag_100:\n        /* \"#utility.yul\":934:1053   */\n    tag_99:\n        /* \"#utility.yul\":1092:1093   */\n      0x00\n        /* \"#utility.yul\":1117:1170   */\n      tag_101\n        /* \"#utility.yul\":1162:1169   */\n      dup6\n        /* \"#utility.yul\":1153:1159   */\n      dup3\n        /* \"#utility.yul\":1142:1151   */\n      dup7\n        /* \"#utility.yul\":1138:1160   */\n      add\n        /* \"#utility.yul\":1117:1170   */\n      tag_68\n      jump\t// in\n    tag_101:\n        /* \"#utility.yul\":1107:1170   */\n      swap3\n      pop\n        /* \"#utility.yul\":1063:1180   */\n      pop\n        /* \"#utility.yul\":1219:1221   */\n      0x20\n        /* \"#utility.yul\":1245:1298   */\n      tag_102\n        /* \"#utility.yul\":1290:1297   */\n      dup6\n        /* \"#utility.yul\":1281:1287   */\n      dup3\n        /* \"#utility.yul\":1270:1279   */\n      dup7\n        /* \"#utility.yul\":1266:1288   */\n      add\n        /* \"#utility.yul\":1245:1298   */\n      tag_68\n      jump\t// in\n    tag_102:\n        /* \"#utility.yul\":1235:1298   */\n      swap2\n      pop\n        /* \"#utility.yul\":1190:1308   */\n      pop\n        /* \"#utility.yul\":841:1315   */\n      swap3\n      pop\n      swap3\n      swap1\n      pop\n      jump\t// out\n        /* \"#utility.yul\":1321:1398   */\n    tag_69:\n        /* \"#utility.yul\":1358:1365   */\n      0x00\n        /* \"#utility.yul\":1387:1392   */\n      dup2\n        /* \"#utility.yul\":1376:1392   */\n      swap1\n      pop\n        /* \"#utility.yul\":1321:1398   */\n      swap2\n      swap1\n      pop\n      jump\t// out\n        /* \"#utility.yul\":1404:1522   */\n    tag_70:\n        /* \"#utility.yul\":1491:1515   */\n      tag_105\n        /* \"#utility.yul\":1509:1514   */\n      dup2\n        /* \"#utility.yul\":1491:1515   */\n      tag_69\n      jump\t// in\n    tag_105:\n        /* \"#utility.yul\":1486:1489   */\n      dup3\n        /* \"#utility.yul\":1479:1516   */\n      mstore\n        /* \"#utility.yul\":1404:1522   */\n      pop\n      pop\n      jump\t// out\n        /* \"#utility.yul\":1528:1750   */\n    tag_14:\n        /* \"#utility.yul\":1621:1625   */\n      0x00\n        /* \"#utility.yul\":1659:1661   */\n      0x20\n        /* \"#utility.yul\":1648:1657   */\n      dup3\n        /* \"#utility.yul\":1644:1662   */\n      add\n        /* \"#utility.yul\":1636:1662   */\n      swap1\n      pop\n        /* \"#utility.yul\":1672:1743   */\n      tag_107\n        /* \"#utility.yul\":1740:1741   */\n      0x00\n        /* \"#utility.yul\":1729:1738   */\n      dup4\n        /* \"#utility.yul\":1725:1742   */\n      add\n        /* \"#utility.yul\":1716:1722   */\n      dup5\n        /* \"#utility.yul\":1672:1743   */\n      tag_70\n      jump\t// in\n    tag_107:\n        /* \"#utility.yul\":1528:1750   */\n      swap3\n      swap2\n      pop\n      pop\n      jump\t// out\n        /* \"#utility.yul\":1756:1878   */\n    tag_71:\n        /* \"#utility.yul\":1829:1853   */\n      tag_109\n        /* \"#utility.yul\":1847:1852   */\n      dup2\n        /* \"#utility.yul\":1829:1853   */\n      tag_69\n      jump\t// in\n    tag_109:\n        /* \"#utility.yul\":1822:1827   */\n      dup2\n        /* \"#utility.yul\":1819:1854   */\n      eq\n        /* \"#utility.yul\":1809:1872   */\n      tag_110\n      jumpi\n        /* \"#utility.yul\":1868:1869   */\n      0x00\n        /* \"#utility.yul\":1865:1866   */\n      0x00\n        /* \"#utility.yul\":1858:1870   */\n      revert\n        /* \"#utility.yul\":1809:1872   */\n    tag_110:\n        /* \"#utility.yul\":1756:1878   */\n      pop\n      jump\t// out\n        /* \"#utility.yul\":1884:2023   */\n    tag_72:\n        /* \"#utility.yul\":1930:1935   */\n      0x00\n        /* \"#utility.yul\":1968:1974   */\n      dup2\n        /* \"#utility.yul\":1955:1975   */\n      calldataload\n        /* \"#utility.yul\":1946:1975   */\n      swap1\n      pop\n        /* \"#utility.yul\":1984:2017   */\n      tag_112\n        /* \"#utility.yul\":2011:2016   */\n      dup2\n        /* \"#utility.yul\":1984:2017   */\n      tag_71\n      jump\t// in\n    tag_112:\n        /* \"#utility.yul\":1884:2023   */\n      swap3\n      swap2\n      pop\n      pop\n      jump\t// out\n        /* \"#utility.yul\":2029:2648   */\n    tag_20:\n        /* \"#utility.yul\":2106:2112   */\n      0x00\n        /* \"#utility.yul\":2114:2120   */\n      0x00\n        /* \"#utility.yul\":2122:2128   */\n      0x00\n        /* \"#utility.yul\":2171:2173   */\n      0x60\n        /* \"#utility.yul\":2159:2168   */\n      dup5\n        /* \"#utility.yul\":2150:2157   */\n      dup7\n        /* \"#utility.yul\":2146:2169   */\n      sub\n        /* \"#utility.yul\":2142:2174   */\n      slt\n        /* \"#utility.yul\":2139:2258   */\n      iszero\n      tag_114\n      jumpi\n        /* \"#utility.yul\":2177:2256   */\n      tag_115\n      tag_63\n      jump\t// in\n    tag_115:\n        /* \"#utility.yul\":2139:2258   */\n    tag_114:\n        /* \"#utility.yul\":2297:2298   */\n      0x00\n        /* \"#utility.yul\":2322:2375   */\n      tag_116\n        /* \"#utility.yul\":2367:2374   */\n      dup7\n        /* \"#utility.yul\":2358:2364   */\n      dup3\n        /* \"#utility.yul\":2347:2356   */\n      dup8\n        /* \"#utility.yul\":2343:2365   */\n      add\n        /* \"#utility.yul\":2322:2375   */\n      tag_68\n      jump\t// in\n    tag_116:\n        /* \"#utility.yul\":2312:2375   */\n      swap4\n      pop\n        /* \"#utility.yul\":2268:2385   */\n      pop\n        /* \"#utility.yul\":2424:2426   */\n      0x20\n        /* \"#utility.yul\":2450:2503   */\n      tag_117\n        /* \"#utility.yul\":2495:2502   */\n      dup7\n        /* \"#utility.yul\":2486:2492   */\n      dup3\n        /* \"#utility.yul\":2475:2484   */\n      dup8\n        /* \"#utility.yul\":2471:2493   */\n      add\n        /* \"#utility.yul\":2450:2503   */\n      tag_68\n      jump\t// in\n    tag_117:\n        /* \"#utility.yul\":2440:2503   */\n      swap3\n      pop\n        /* \"#utility.yul\":2395:2513   */\n      pop\n        /* \"#utility.yul\":2552:2554   */\n      0x40\n        /* \"#utility.yul\":2578:2631   */\n      tag_118\n        /* \"#utility.yul\":2623:2630   */\n      dup7\n        /* \"#utility.yul\":2614:2620   */\n      dup3\n        /* \"#utility.yul\":2603:2612   */\n      dup8\n        /* \"#utility.yul\":2599:2621   */\n      add\n        /* \"#utility.yul\":2578:2631   */\n      tag_72\n      jump\t// in\n    tag_118:\n        /* \"#utility.yul\":2568:2631   */\n      swap2\n      pop\n        /* \"#utility.yul\":2523:2641   */\n      pop\n        /* \"#utility.yul\":2029:2648   */\n      swap3\n      pop\n      swap3\n      pop\n      swap3\n      jump\t// out\n        /* \"#utility.yul\":2654:2772   */\n    tag_73:\n        /* \"#utility.yul\":2741:2765   */\n      tag_120\n        /* \"#utility.yul\":2759:2764   */\n      dup2\n        /* \"#utility.yul\":2741:2765   */\n      tag_66\n      jump\t// in\n    tag_120:\n        /* \"#utility.yul\":2736:2739   */\n      dup3\n        /* \"#utility.yul\":2729:2766   */\n      mstore\n        /* \"#utility.yul\":2654:2772   */\n      pop\n      pop\n      jump\t// out\n        /* \"#utility.yul\":2778:3000   */\n    tag_28:\n        /* \"#utility.yul\":2871:2875   */\n      0x00\n        /* \"#utility.yul\":2909:2911   */\n      0x20\n        /* \"#utility.yul\":2898:2907   */\n      dup3\n        /* \"#utility.yul\":2894:2912   */\n      add\n        /* \"#utility.yul\":2886:2912   */\n      swap1\n      pop\n        /* \"#utility.yul\":2922:2993   */\n      tag_122\n        /* \"#utility.yul\":2990:2991   */\n      0x00\n        /* \"#utility.yul\":2979:2988   */\n      dup4\n        /* \"#utility.yul\":2975:2992   */\n      add\n        /* \"#utility.yul\":2966:2972   */\n      dup5\n        /* \"#utility.yul\":2922:2993   */\n      tag_73\n      jump\t// in\n    tag_122:\n        /* \"#utility.yul\":2778:3000   */\n      swap3\n      swap2\n      pop\n      pop\n      jump\t// out\n        /* \"#utility.yul\":3006:3066   */\n    tag_74:\n        /* \"#utility.yul\":3034:3037   */\n      0x00\n        /* \"#utility.yul\":3055:3060   */\n      dup2\n        /* \"#utility.yul\":3048:3060   */\n      swap1\n      pop\n        /* \"#utility.yul\":3006:3066   */\n      swap2\n      swap1\n      pop\n      jump\t// out\n        /* \"#utility.yul\":3072:3214   */\n    tag_75:\n        /* \"#utility.yul\":3122:3131   */\n      0x00\n        /* \"#utility.yul\":3155:3208   */\n      tag_125\n        /* \"#utility.yul\":3173:3207   */\n      tag_126\n        /* \"#utility.yul\":3182:3206   */\n      tag_127\n        /* \"#utility.yul\":3200:3205   */\n      dup5\n        /* \"#utility.yul\":3182:3206   */\n      tag_65\n      jump\t// in\n    tag_127:\n        /* \"#utility.yul\":3173:3207   */\n      tag_74\n      jump\t// in\n    tag_126:\n        /* \"#utility.yul\":3155:3208   */\n      tag_65\n      jump\t// in\n    tag_125:\n        /* \"#utility.yul\":3142:3208   */\n      swap1\n      pop\n        /* \"#utility.yul\":3072:3214   */\n      swap2\n      swap1\n      pop\n      jump\t// out\n        /* \"#utility.yul\":3220:3346   */\n    tag_76:\n        /* \"#utility.yul\":3270:3279   */\n      0x00\n        /* \"#utility.yul\":3303:3340   */\n      tag_129\n        /* \"#utility.yul\":3334:3339   */\n      dup3\n        /* \"#utility.yul\":3303:3340   */\n      tag_75\n      jump\t// in\n    tag_129:\n        /* \"#utility.yul\":3290:3340   */\n      swap1\n      pop\n        /* \"#utility.yul\":3220:3346   */\n      swap2\n      swap1\n      pop\n      jump\t// out\n        /* \"#utility.yul\":3352:3496   */\n    tag_77:\n        /* \"#utility.yul\":3420:3429   */\n      0x00\n        /* \"#utility.yul\":3453:3490   */\n      tag_131\n        /* \"#utility.yul\":3484:3489   */\n      dup3\n        /* \"#utility.yul\":3453:3490   */\n      tag_76\n      jump\t// in\n    tag_131:\n        /* \"#utility.yul\":3440:3490   */\n      swap1\n      pop\n        /* \"#utility.yul\":3352:3496   */\n      swap2\n      swap1\n      pop\n      jump\t// out\n        /* \"#utility.yul\":3502:3669   */\n    tag_78:\n        /* \"#utility.yul\":3607:3662   */\n      tag_133\n        /* \"#utility.yul\":3656:3661   */\n      dup2\n        /* \"#utility.yul\":3607:3662   */\n      tag_77\n      jump\t// in\n    tag_133:\n        /* \"#utility.yul\":3602:3605   */\n      dup3\n        /* \"#utility.yul\":3595:3663   */\n      mstore\n        /* \"#utility.yul\":3502:3669   */\n      pop\n      pop\n      jump\t// out\n        /* \"#utility.yul\":3675:3933   */\n    tag_32:\n        /* \"#utility.yul\":3786:3790   */\n      0x00\n        /* \"#utility.yul\":3824:3826   */\n      0x20\n        /* \"#utility.yul\":3813:3822   */\n      dup3\n        /* \"#utility.yul\":3809:3827   */\n      add\n        /* \"#utility.yul\":3801:3827   */\n      swap1\n      pop\n        /* \"#utility.yul\":3837:3926   */\n      tag_135\n        /* \"#utility.yul\":3923:3924   */\n      0x00\n        /* \"#utility.yul\":3912:3921   */\n      dup4\n        /* \"#utility.yul\":3908:3925   */\n      add\n        /* \"#utility.yul\":3899:3905   */\n      dup5\n        /* \"#utility.yul\":3837:3926   */\n      tag_78\n      jump\t// in\n    tag_135:\n        /* \"#utility.yul\":3675:3933   */\n      swap3\n      swap2\n      pop\n      pop\n      jump\t// out\n        /* \"#utility.yul\":3939:4108   */\n    tag_79:\n        /* \"#utility.yul\":4023:4034   */\n      0x00\n        /* \"#utility.yul\":4057:4063   */\n      dup3\n        /* \"#utility.yul\":4052:4055   */\n      dup3\n        /* \"#utility.yul\":4045:4064   */\n      mstore\n        /* \"#utility.yul\":4097:4101   */\n      0x20\n        /* \"#utility.yul\":4092:4095   */\n      dup3\n        /* \"#utility.yul\":4088:4102   */\n      add\n        /* \"#utility.yul\":4073:4102   */\n      swap1\n      pop\n        /* \"#utility.yul\":3939:4108   */\n      swap3\n      swap2\n      pop\n      pop\n      jump\t// out\n        /* \"#utility.yul\":4114:4282   */\n    tag_80:\n        /* \"#utility.yul\":4254:4274   */\n      0x416d6f756e74206d757374206265203e20300000000000000000000000000000\n        /* \"#utility.yul\":4250:4251   */\n      0x00\n        /* \"#utility.yul\":4242:4248   */\n      dup3\n        /* \"#utility.yul\":4238:4252   */\n      add\n        /* \"#utility.yul\":4231:4275   */\n      mstore\n        /* \"#utility.yul\":4114:4282   */\n      pop\n      jump\t// out\n        /* \"#utility.yul\":4288:4654   */\n    tag_81:\n        /* \"#utility.yul\":4430:4433   */\n      0x00\n        /* \"#utility.yul\":4451:4518   */\n      tag_139\n        /* \"#utility.yul\":4515:4517   */\n      0x12\n        /* \"#utility.yul\":4510:4513   */\n      dup4\n        /* \"#utility.yul\":4451:4518   */\n      tag_79\n      jump\t// in\n    tag_139:\n        /* \"#utility.yul\":4444:4518   */\n      swap2\n      pop\n        /* \"#utility.yul\":4527:4620   */\n      tag_140\n        /* \"#utility.yul\":4616:4619   */\n      dup3\n        /* \"#utility.yul\":4527:4620   */\n      tag_80\n      jump\t// in\n    tag_140:\n        /* \"#utility.yul\":4645:4647   */\n      0x20\n        /* \"#utility.yul\":4640:4643   */\n      dup3\n        /* \"#utility.yul\":4636:4648   */\n      add\n        /* \"#utility.yul\":4629:4648   */\n      swap1\n      pop\n        /* \"#utility.yul\":4288:4654   */\n      swap2\n      swap1\n      pop\n      jump\t// out\n        /* \"#utility.yul\":4660:5079   */\n    tag_36:\n        /* \"#utility.yul\":4826:4830   */\n      0x00\n        /* \"#utility.yul\":4864:4866   */\n      0x20\n        /* \"#utility.yul\":4853:4862   */\n      dup3\n        /* \"#utility.yul\":4849:4867   */\n      add\n        /* \"#utility.yul\":4841:4867   */\n      swap1\n      pop\n        /* \"#utility.yul\":4913:4922   */\n      dup2\n        /* \"#utility.yul\":4907:4911   */\n      dup2\n        /* \"#utility.yul\":4903:4923   */\n      sub\n        /* \"#utility.yul\":4899:4900   */\n      0x00\n        /* \"#utility.yul\":4888:4897   */\n      dup4\n        /* \"#utility.yul\":4884:4901   */\n      add\n        /* \"#utility.yul\":4877:4924   */\n      mstore\n        /* \"#utility.yul\":4941:5072   */\n      tag_142\n        /* \"#utility.yul\":5067:5071   */\n      dup2\n        /* \"#utility.yul\":4941:5072   */\n      tag_81\n      jump\t// in\n    tag_142:\n        /* \"#utility.yul\":4933:5072   */\n      swap1\n      pop\n        /* \"#utility.yul\":4660:5079   */\n      swap2\n      swap1\n      pop\n      jump\t// out\n        /* \"#utility.yul\":5085:5262   */\n    tag_82:\n        /* \"#utility.yul\":5225:5254   */\n      0x5072696365206e6f742073657420666f72207468697320706169720000000000\n        /* \"#utility.yul\":5221:5222   */\n      0x00\n        /* \"#utility.yul\":5213:5219   */\n      dup3\n        /* \"#utility.yul\":5209:5223   */\n      add\n        /* \"#utility.yul\":5202:5255   */\n      mstore\n        /* \"#utility.yul\":5085:5262   */\n      pop\n      jump\t// out\n        /* \"#utility.yul\":5268:5634   */\n    tag_83:\n        /* \"#utility.yul\":5410:5413   */\n      0x00\n        /* \"#utility.yul\":5431:5498   */\n      tag_145\n        /* \"#utility.yul\":5495:5497   */\n      0x1b\n        /* \"#utility.yul\":5490:5493   */\n      dup4\n        /* \"#utility.yul\":5431:5498   */\n      tag_79\n      jump\t// in\n    tag_145:\n        /* \"#utility.yul\":5424:5498   */\n      swap2\n      pop\n        /* \"#utility.yul\":5507:5600   */\n      tag_146\n        /* \"#utility.yul\":5596:5599   */\n      dup3\n        /* \"#utility.yul\":5507:5600   */\n      tag_82\n      jump\t// in\n    tag_146:\n        /* \"#utility.yul\":5625:5627   */\n      0x20\n        /* \"#utility.yul\":5620:5623   */\n      dup3\n        /* \"#utility.yul\":5616:5628   */\n      add\n        /* \"#utility.yul\":5609:5628   */\n      swap1\n      pop\n        /* \"#utility.yul\":5268:5634   */\n      swap2\n      swap1\n      pop\n      jump\t// out\n        /* \"#utility.yul\":5640:6059   */\n    tag_39:\n        /* \"#utility.yul\":5806:5810   */\n      0x00\n        /* \"#utility.yul\":5844:5846   */\n      0x20\n        /* \"#utility.yul\":5833:5842   */\n      dup3\n        /* \"#utility.yul\":5829:5847   */\n      add\n        /* \"#utility.yul\":5821:5847   */\n      swap1\n      pop\n        /* \"#utility.yul\":5893:5902   */\n      dup2\n        /* \"#utility.yul\":5887:5891   */\n      dup2\n        /* \"#utility.yul\":5883:5903   */\n      sub\n        /* \"#utility.yul\":5879:5880   */\n      0x00\n        /* \"#utility.yul\":5868:5877   */\n      dup4\n        /* \"#utility.yul\":5864:5881   */\n      add\n        /* \"#utility.yul\":5857:5904   */\n      mstore\n        /* \"#utility.yul\":5921:6052   */\n      tag_148\n        /* \"#utility.yul\":6047:6051   */\n      dup2\n        /* \"#utility.yul\":5921:6052   */\n      tag_83\n      jump\t// in\n    tag_148:\n        /* \"#utility.yul\":5913:6052   */\n      swap1\n      pop\n        /* \"#utility.yul\":5640:6059   */\n      swap2\n      swap1\n      pop\n      jump\t// out\n        /* \"#utility.yul\":6065:6245   */\n    tag_84:\n        /* \"#utility.yul\":6113:6190   */\n      0x4e487b7100000000000000000000000000000000000000000000000000000000\n        /* \"#utility.yul\":6110:6111   */\n      0x00\n        /* \"#utility.yul\":6103:6191   */\n      mstore\n        /* \"#utility.yul\":6210:6214   */\n      0x11\n        /* \"#utility.yul\":6207:6208   */\n      0x04\n        /* \"#utility.yul\":6200:6215   */\n      mstore\n        /* \"#utility.yul\":6234:6238   */\n      0x24\n        /* \"#utility.yul\":6231:6232   */\n      0x00\n        /* \"#utility.yul\":6224:6239   */\n      revert\n        /* \"#utility.yul\":6251:6661   */\n    tag_41:\n        /* \"#utility.yul\":6291:6298   */\n      0x00\n        /* \"#utility.yul\":6314:6334   */\n      tag_151\n        /* \"#utility.yul\":6332:6333   */\n      dup3\n        /* \"#utility.yul\":6314:6334   */\n      tag_69\n      jump\t// in\n    tag_151:\n        /* \"#utility.yul\":6309:6334   */\n      swap2\n      pop\n        /* \"#utility.yul\":6348:6368   */\n      tag_152\n        /* \"#utility.yul\":6366:6367   */\n      dup4\n        /* \"#utility.yul\":6348:6368   */\n      tag_69\n      jump\t// in\n    tag_152:\n        /* \"#utility.yul\":6343:6368   */\n      swap3\n      pop\n        /* \"#utility.yul\":6403:6404   */\n      dup3\n        /* \"#utility.yul\":6400:6401   */\n      dup3\n        /* \"#utility.yul\":6396:6405   */\n      mul\n        /* \"#utility.yul\":6425:6455   */\n      tag_153\n        /* \"#utility.yul\":6443:6454   */\n      dup2\n        /* \"#utility.yul\":6425:6455   */\n      tag_69\n      jump\t// in\n    tag_153:\n        /* \"#utility.yul\":6414:6455   */\n      swap2\n      pop\n        /* \"#utility.yul\":6604:6605   */\n      dup3\n        /* \"#utility.yul\":6595:6602   */\n      dup3\n        /* \"#utility.yul\":6591:6606   */\n      div\n        /* \"#utility.yul\":6588:6589   */\n      dup5\n        /* \"#utility.yul\":6585:6607   */\n      eq\n        /* \"#utility.yul\":6565:6566   */\n      dup4\n        /* \"#utility.yul\":6558:6567   */\n      iszero\n        /* \"#utility.yul\":6538:6621   */\n      or\n        /* \"#utility.yul\":6515:6654   */\n      tag_154\n      jumpi\n        /* \"#utility.yul\":6634:6652   */\n      tag_155\n      tag_84\n      jump\t// in\n    tag_155:\n        /* \"#utility.yul\":6515:6654   */\n    tag_154:\n        /* \"#utility.yul\":6299:6661   */\n      pop\n        /* \"#utility.yul\":6251:6661   */\n      swap3\n      swap2\n      pop\n      pop\n      jump\t// out\n        /* \"#utility.yul\":6667:6847   */\n    tag_85:\n        /* \"#utility.yul\":6715:6792   */\n      0x4e487b7100000000000000000000000000000000000000000000000000000000\n        /* \"#utility.yul\":6712:6713   */\n      0x00\n        /* \"#utility.yul\":6705:6793   */\n      mstore\n        /* \"#utility.yul\":6812:6816   */\n      0x12\n        /* \"#utility.yul\":6809:6810   */\n      0x04\n        /* \"#utility.yul\":6802:6817   */\n      mstore\n        /* \"#utility.yul\":6836:6840   */\n      0x24\n        /* \"#utility.yul\":6833:6834   */\n      0x00\n        /* \"#utility.yul\":6826:6841   */\n      revert\n        /* \"#utility.yul\":6853:7038   */\n    tag_43:\n        /* \"#utility.yul\":6893:6894   */\n      0x00\n        /* \"#utility.yul\":6910:6930   */\n      tag_158\n        /* \"#utility.yul\":6928:6929   */\n      dup3\n        /* \"#utility.yul\":6910:6930   */\n      tag_69\n      jump\t// in\n    tag_158:\n        /* \"#utility.yul\":6905:6930   */\n      swap2\n      pop\n        /* \"#utility.yul\":6944:6964   */\n      tag_159\n        /* \"#utility.yul\":6962:6963   */\n      dup4\n        /* \"#utility.yul\":6944:6964   */\n      tag_69\n      jump\t// in\n    tag_159:\n        /* \"#utility.yul\":6939:6964   */\n      swap3\n      pop\n        /* \"#utility.yul\":6983:6984   */\n      dup3\n        /* \"#utility.yul\":6973:7008   */\n      tag_160\n      jumpi\n        /* \"#utility.yul\":6988:7006   */\n      tag_161\n      tag_85\n      jump\t// in\n    tag_161:\n        /* \"#utility.yul\":6973:7008   */\n    tag_160:\n        /* \"#utility.yul\":7030:7031   */\n      dup3\n        /* \"#utility.yul\":7027:7028   */\n      dup3\n        /* \"#utility.yul\":7023:7032   */\n      div\n        /* \"#utility.yul\":7018:7032   */\n      swap1\n      pop\n        /* \"#utility.yul\":6853:7038   */\n      swap3\n      swap2\n      pop\n      pop\n      jump\t// out\n        /* \"#utility.yul\":7044:7238   */\n    tag_47:\n        /* \"#utility.yul\":7084:7088   */\n      0x00\n        /* \"#utility.yul\":7104:7124   */\n      tag_163\n        /* \"#utility.yul\":7122:7123   */\n      dup3\n        /* \"#utility.yul\":7104:7124   */\n      tag_69\n      jump\t// in\n    tag_163:\n        /* \"#utility.yul\":7099:7124   */\n      swap2\n      pop\n        /* \"#utility.yul\":7138:7158   */\n      tag_164\n        /* \"#utility.yul\":7156:7157   */\n      dup4\n        /* \"#utility.yul\":7138:7158   */\n      tag_69\n      jump\t// in\n    tag_164:\n        /* \"#utility.yul\":7133:7158   */\n      swap3\n      pop\n        /* \"#utility.yul\":7182:7183   */\n      dup3\n        /* \"#utility.yul\":7179:7180   */\n      dup3\n        /* \"#utility.yul\":7175:7184   */\n      sub\n        /* \"#utility.yul\":7167:7184   */\n      swap1\n      pop\n        /* \"#utility.yul\":7206:7207   */\n      dup2\n        /* \"#utility.yul\":7200:7204   */\n      dup2\n        /* \"#utility.yul\":7197:7208   */\n      gt\n        /* \"#utility.yul\":7194:7231   */\n      iszero\n      tag_165\n      jumpi\n        /* \"#utility.yul\":7211:7229   */\n      tag_166\n      tag_84\n      jump\t// in\n    tag_166:\n        /* \"#utility.yul\":7194:7231   */\n    tag_165:\n        /* \"#utility.yul\":7044:7238   */\n      swap3\n      swap2\n      pop\n      pop\n      jump\t// out\n        /* \"#utility.yul\":7244:7797   */\n    tag_49:\n        /* \"#utility.yul\":7421:7425   */\n      0x00\n        /* \"#utility.yul\":7459:7462   */\n      0x80\n        /* \"#utility.yul\":7448:7457   */\n      dup3\n        /* \"#utility.yul\":7444:7463   */\n      add\n        /* \"#utility.yul\":7436:7463   */\n      swap1\n      pop\n        /* \"#utility.yul\":7473:7544   */\n      tag_168\n        /* \"#utility.yul\":7541:7542   */\n      0x00\n        /* \"#utility.yul\":7530:7539   */\n      dup4\n        /* \"#utility.yul\":7526:7543   */\n      add\n        /* \"#utility.yul\":7517:7523   */\n      dup8\n        /* \"#utility.yul\":7473:7544   */\n      tag_73\n      jump\t// in\n    tag_168:\n        /* \"#utility.yul\":7554:7626   */\n      tag_169\n        /* \"#utility.yul\":7622:7624   */\n      0x20\n        /* \"#utility.yul\":7611:7620   */\n      dup4\n        /* \"#utility.yul\":7607:7625   */\n      add\n        /* \"#utility.yul\":7598:7604   */\n      dup7\n        /* \"#utility.yul\":7554:7626   */\n      tag_73\n      jump\t// in\n    tag_169:\n        /* \"#utility.yul\":7636:7708   */\n      tag_170\n        /* \"#utility.yul\":7704:7706   */\n      0x40\n        /* \"#utility.yul\":7693:7702   */\n      dup4\n        /* \"#utility.yul\":7689:7707   */\n      add\n        /* \"#utility.yul\":7680:7686   */\n      dup6\n        /* \"#utility.yul\":7636:7708   */\n      tag_73\n      jump\t// in\n    tag_170:\n        /* \"#utility.yul\":7718:7790   */\n      tag_171\n        /* \"#utility.yul\":7786:7788   */\n      0x60\n        /* \"#utility.yul\":7775:7784   */\n      dup4\n        /* \"#utility.yul\":7771:7789   */\n      add\n        /* \"#utility.yul\":7762:7768   */\n      dup5\n        /* \"#utility.yul\":7718:7790   */\n      tag_70\n      jump\t// in\n    tag_171:\n        /* \"#utility.yul\":7244:7797   */\n      swap6\n      swap5\n      pop\n      pop\n      pop\n      pop\n      pop\n      jump\t// out\n        /* \"#utility.yul\":7803:8135   */\n    tag_58:\n        /* \"#utility.yul\":7924:7928   */\n      0x00\n        /* \"#utility.yul\":7962:7964   */\n      0x40\n        /* \"#utility.yul\":7951:7960   */\n      dup3\n        /* \"#utility.yul\":7947:7965   */\n      add\n        /* \"#utility.yul\":7939:7965   */\n      swap1\n      pop\n        /* \"#utility.yul\":7975:8046   */\n      tag_173\n        /* \"#utility.yul\":8043:8044   */\n      0x00\n        /* \"#utility.yul\":8032:8041   */\n      dup4\n        /* \"#utility.yul\":8028:8045   */\n      add\n        /* \"#utility.yul\":8019:8025   */\n      dup6\n        /* \"#utility.yul\":7975:8046   */\n      tag_70\n      jump\t// in\n    tag_173:\n        /* \"#utility.yul\":8056:8128   */\n      tag_174\n        /* \"#utility.yul\":8124:8126   */\n      0x20\n        /* \"#utility.yul\":8113:8122   */\n      dup4\n        /* \"#utility.yul\":8109:8127   */\n      add\n        /* \"#utility.yul\":8100:8106   */\n      dup5\n        /* \"#utility.yul\":8056:8128   */\n      tag_70\n      jump\t// in\n    tag_174:\n        /* \"#utility.yul\":7803:8135   */\n      swap4\n      swap3\n      pop\n      pop\n      pop\n      jump\t// out\n\n    auxdata: 0xa2646970667358221220270801a95819984dd8f5af9891a333b76b318816d97101ce15c9cfcb54c1b9bc64736f6c634300081e0033\n}\n",
				"bytecode": {
					"linkReferences": {},
					"object": "6080604052600a600355348015610014575f5ffd5b50604051610c09380380610c098339818101604052810190610036919061011a565b815f5f6101000a81548173ffffffffffffffffffffffffffffffffffffffff021916908373ffffffffffffffffffffffffffffffffffffffff1602179055508060015f6101000a81548173ffffffffffffffffffffffffffffffffffffffff021916908373ffffffffffffffffffffffffffffffffffffffff1602179055505050610158565b5f5ffd5b5f73ffffffffffffffffffffffffffffffffffffffff82169050919050565b5f6100e9826100c0565b9050919050565b6100f9816100df565b8114610103575f5ffd5b50565b5f81519050610114816100f0565b92915050565b5f5f604083850312156101305761012f6100bc565b5b5f61013d85828601610106565b925050602061014e85828601610106565b9150509250929050565b610aa4806101655f395ff3fe608060405234801561000f575f5ffd5b5060043610610060575f3560e01c80631f3124041461006457806324a9d853146100945780636c61033c146100b2578063792eb791146100ce578063f25f4b56146100ea578063f61ebc3614610108575b5f5ffd5b61007e600480360381019061007991906106a1565b610126565b60405161008b91906106f7565b60405180910390f35b61009c610146565b6040516100a991906106f7565b60405180910390f35b6100cc60048036038101906100c7919061073a565b61014c565b005b6100e860048036038101906100e3919061073a565b61047c565b005b6100f26105fa565b6040516100ff9190610799565b60405180910390f35b61011061061f565b60405161011d919061080d565b60405180910390f35b6002602052815f5260405f20602052805f5260405f205f91509150505481565b60035481565b5f811161018e576040517f08c379a000000000000000000000000000000000000000000000000000000000815260040161018590610880565b60405180910390fd5b5f60025f8573ffffffffffffffffffffffffffffffffffffffff1673ffffffffffffffffffffffffffffffffffffffff1681526020019081526020015f205f8473ffffffffffffffffffffffffffffffffffffffff1673ffffffffffffffffffffffffffffffffffffffff1681526020019081526020015f205490505f811161024c576040517f08c379a0000000000000000000000000000000000000000000000000000000008152600401610243906108e8565b60405180910390fd5b5f670de0b6b3a764000082846102629190610933565b61026c91906109a1565b90505f612710600354836102809190610933565b61028a91906109a1565b90505f818361029991906109d1565b90505f5f9054906101000a900473ffffffffffffffffffffffffffffffffffffffff1673ffffffffffffffffffffffffffffffffffffffff166344a29e2a883360015f9054906101000a900473ffffffffffffffffffffffffffffffffffffffff16896040518563ffffffff1660e01b815260040161031b9493929190610a04565b5f604051808303815f87803b158015610332575f5ffd5b505af1158015610344573d5f5f3e3d5ffd5b505050505f5f9054906101000a900473ffffffffffffffffffffffffffffffffffffffff1673ffffffffffffffffffffffffffffffffffffffff166344a29e2a8760015f9054906101000a900473ffffffffffffffffffffffffffffffffffffffff1633856040518563ffffffff1660e01b81526004016103c89493929190610a04565b5f604051808303815f87803b1580156103df575f5ffd5b505af11580156103f1573d5f5f3e3d5ffd5b505050508573ffffffffffffffffffffffffffffffffffffffff168773ffffffffffffffffffffffffffffffffffffffff163373ffffffffffffffffffffffffffffffffffffffff167f3fcfb2f2e0146d5be7268f9e4cd3c4c0ce3428f68805db227b7fc378db7519ac888560405161046b929190610a47565b60405180910390a450505050505050565b8060025f8573ffffffffffffffffffffffffffffffffffffffff1673ffffffffffffffffffffffffffffffffffffffff1681526020019081526020015f205f8473ffffffffffffffffffffffffffffffffffffffff1673ffffffffffffffffffffffffffffffffffffffff1681526020019081526020015f2081905550806ec097ce7bc90715b34b9f100000000061051491906109a1565b60025f8473ffffffffffffffffffffffffffffffffffffffff1673ffffffffffffffffffffffffffffffffffffffff1681526020019081526020015f205f8573ffffffffffffffffffffffffffffffffffffffff1673ffffffffffffffffffffffffffffffffffffffff1681526020019081526020015f20819055508173ffffffffffffffffffffffffffffffffffffffff168373ffffffffffffffffffffffffffffffffffffffff167fb71c154260e8508e211e2ace194becba2c6d7e727c3ed292fe4787458969cd10836040516105ed91906106f7565b60405180910390a3505050565b60015f9054906101000a900473ffffffffffffffffffffffffffffffffffffffff1681565b5f5f9054906101000a900473ffffffffffffffffffffffffffffffffffffffff1681565b5f5ffd5b5f73ffffffffffffffffffffffffffffffffffffffff82169050919050565b5f61067082610647565b9050919050565b61068081610666565b811461068a575f5ffd5b50565b5f8135905061069b81610677565b92915050565b5f5f604083850312156106b7576106b6610643565b5b5f6106c48582860161068d565b92505060206106d58582860161068d565b9150509250929050565b5f819050919050565b6106f1816106df565b82525050565b5f60208201905061070a5f8301846106e8565b92915050565b610719816106df565b8114610723575f5ffd5b50565b5f8135905061073481610710565b92915050565b5f5f5f6060848603121561075157610750610643565b5b5f61075e8682870161068d565b935050602061076f8682870161068d565b925050604061078086828701610726565b9150509250925092565b61079381610666565b82525050565b5f6020820190506107ac5f83018461078a565b92915050565b5f819050919050565b5f6107d56107d06107cb84610647565b6107b2565b610647565b9050919050565b5f6107e6826107bb565b9050919050565b5f6107f7826107dc565b9050919050565b610807816107ed565b82525050565b5f6020820190506108205f8301846107fe565b92915050565b5f82825260208201905092915050565b7f416d6f756e74206d757374206265203e203000000000000000000000000000005f82015250565b5f61086a601283610826565b915061087582610836565b602082019050919050565b5f6020820190508181035f8301526108978161085e565b9050919050565b7f5072696365206e6f742073657420666f722074686973207061697200000000005f82015250565b5f6108d2601b83610826565b91506108dd8261089e565b602082019050919050565b5f6020820190508181035f8301526108ff816108c6565b9050919050565b7f4e487b71000000000000000000000000000000000000000000000000000000005f52601160045260245ffd5b5f61093d826106df565b9150610948836106df565b9250828202610956816106df565b9150828204841483151761096d5761096c610906565b5b5092915050565b7f4e487b71000000000000000000000000000000000000000000000000000000005f52601260045260245ffd5b5f6109ab826106df565b91506109b6836106df565b9250826109c6576109c5610974565b5b828204905092915050565b5f6109db826106df565b91506109e6836106df565b92508282039050818111156109fe576109fd610906565b5b92915050565b5f608082019050610a175f83018761078a565b610a24602083018661078a565b610a31604083018561078a565b610a3e60608301846106e8565b95945050505050565b5f604082019050610a5a5f8301856106e8565b610a6760208301846106e8565b939250505056fea2646970667358221220270801a95819984dd8f5af9891a333b76b318816d97101ce15c9cfcb54c1b9bc64736f6c634300081e0033",
					"opcodes": "PUSH1 0x80 PUSH1 0x40 MSTORE PUSH1 0xA PUSH1 0x3 SSTORE CALLVALUE DUP1 ISZERO PUSH2 0x14 JUMPI PUSH0 PUSH0 REVERT JUMPDEST POP PUSH1 0x40 MLOAD PUSH2 0xC09 CODESIZE SUB DUP1 PUSH2 0xC09 DUP4 CODECOPY DUP2 DUP2 ADD PUSH1 0x40 MSTORE DUP2 ADD SWAP1 PUSH2 0x36 SWAP2 SWAP1 PUSH2 0x11A JUMP JUMPDEST DUP2 PUSH0 PUSH0 PUSH2 0x100 EXP DUP2 SLOAD DUP2 PUSH20 0xFFFFFFFFFFFFFFFFFFFFFFFFFFFFFFFFFFFFFFFF MUL NOT AND SWAP1 DUP4 PUSH20 0xFFFFFFFFFFFFFFFFFFFFFFFFFFFFFFFFFFFFFFFF AND MUL OR SWAP1 SSTORE POP DUP1 PUSH1 0x1 PUSH0 PUSH2 0x100 EXP DUP2 SLOAD DUP2 PUSH20 0xFFFFFFFFFFFFFFFFFFFFFFFFFFFFFFFFFFFFFFFF MUL NOT AND SWAP1 DUP4 PUSH20 0xFFFFFFFFFFFFFFFFFFFFFFFFFFFFFFFFFFFFFFFF AND MUL OR SWAP1 SSTORE POP POP POP PUSH2 0x158 JUMP JUMPDEST PUSH0 PUSH0 REVERT JUMPDEST PUSH0 PUSH20 0xFFFFFFFFFFFFFFFFFFFFFFFFFFFFFFFFFFFFFFFF DUP3 AND SWAP1 POP SWAP2 SWAP1 POP JUMP JUMPDEST PUSH0 PUSH2 0xE9 DUP3 PUSH2 0xC0 JUMP JUMPDEST SWAP1 POP SWAP2 SWAP1 POP JUMP JUMPDEST PUSH2 0xF9 DUP2 PUSH2 0xDF JUMP JUMPDEST DUP2 EQ PUSH2 0x103 JUMPI PUSH0 PUSH0 REVERT JUMPDEST POP JUMP JUMPDEST PUSH0 DUP2 MLOAD SWAP1 POP PUSH2 0x114 DUP2 PUSH2 0xF0 JUMP JUMPDEST SWAP3 SWAP2 POP POP JUMP JUMPDEST PUSH0 PUSH0 PUSH1 0x40 DUP4 DUP6 SUB SLT ISZERO PUSH2 0x130 JUMPI PUSH2 0x12F PUSH2 0xBC JUMP JUMPDEST JUMPDEST PUSH0 PUSH2 0x13D DUP6 DUP3 DUP7 ADD PUSH2 0x106 JUMP JUMPDEST SWAP3 POP POP PUSH1 0x20 PUSH2 0x14E DUP6 DUP3 DUP7 ADD PUSH2 0x106 JUMP JUMPDEST SWAP2 POP POP SWAP3 POP SWAP3 SWAP1 POP JUMP JUMPDEST PUSH2 0xAA4 DUP1 PUSH2 0x165 PUSH0 CODECOPY PUSH0 RETURN INVALID PUSH1 0x80 PUSH1 0x40 MSTORE CALLVALUE DUP1 ISZERO PUSH2 0xF JUMPI PUSH0 PUSH0 REVERT JUMPDEST POP PUSH1 0x4 CALLDATASIZE LT PUSH2 0x60 JUMPI PUSH0 CALLDATALOAD PUSH1 0xE0 SHR DUP1 PUSH4 0x1F312404 EQ PUSH2 0x64 JUMPI DUP1 PUSH4 0x24A9D853 EQ PUSH2 0x94 JUMPI DUP1 PUSH4 0x6C61033C EQ PUSH2 0xB2 JUMPI DUP1 PUSH4 0x792EB791 EQ PUSH2 0xCE JUMPI DUP1 PUSH4 0xF25F4B56 EQ PUSH2 0xEA JUMPI DUP1 PUSH4 0xF61EBC36 EQ PUSH2 0x108 JUMPI JUMPDEST PUSH0 PUSH0 REVERT JUMPDEST PUSH2 0x7E PUSH1 0x4 DUP1 CALLDATASIZE SUB DUP2 ADD SWAP1 PUSH2 0x79 SWAP2 SWAP1 PUSH2 0x6A1 JUMP JUMPDEST PUSH2 0x126 JUMP JUMPDEST PUSH1 0x40 MLOAD PUSH2 0x8B SWAP2 SWAP1 PUSH2 0x6F7 JUMP JUMPDEST PUSH1 0x40 MLOAD DUP1 SWAP2 SUB SWAP1 RETURN JUMPDEST PUSH2 0x9C PUSH2 0x146 JUMP JUMPDEST PUSH1 0x40 MLOAD PUSH2 0xA9 SWAP2 SWAP1 PUSH2 0x6F7 JUMP JUMPDEST PUSH1 0x40 MLOAD DUP1 SWAP2 SUB SWAP1 RETURN JUMPDEST PUSH2 0xCC PUSH1 0x4 DUP1 CALLDATASIZE SUB DUP2 ADD SWAP1 PUSH2 0xC7 SWAP2 SWAP1 PUSH2 0x73A JUMP JUMPDEST PUSH2 0x14C JUMP JUMPDEST STOP JUMPDEST PUSH2 0xE8 PUSH1 0x4 DUP1 CALLDATASIZE SUB DUP2 ADD SWAP1 PUSH2 0xE3 SWAP2 SWAP1 PUSH2 0x73A JUMP JUMPDEST PUSH2 0x47C JUMP JUMPDEST STOP JUMPDEST PUSH2 0xF2 PUSH2 0x5FA JUMP JUMPDEST PUSH1 0x40 MLOAD PUSH2 0xFF SWAP2 SWAP1 PUSH2 0x799 JUMP JUMPDEST PUSH1 0x40 MLOAD DUP1 SWAP2 SUB SWAP1 RETURN JUMPDEST PUSH2 0x110 PUSH2 0x61F JUMP JUMPDEST PUSH1 0x40 MLOAD PUSH2 0x11D SWAP2 SWAP1 PUSH2 0x80D JUMP JUMPDEST PUSH1 0x40 MLOAD DUP1 SWAP2 SUB SWAP1 RETURN JUMPDEST PUSH1 0x2 PUSH1 0x20 MSTORE DUP2 PUSH0 MSTORE PUSH1 0x40 PUSH0 KECCAK256 PUSH1 0x20 MSTORE DUP1 PUSH0 MSTORE PUSH1 0x40 PUSH0 KECCAK256 PUSH0 SWAP2 POP SWAP2 POP POP SLOAD DUP2 JUMP JUMPDEST PUSH1 0x3 SLOAD DUP2 JUMP JUMPDEST PUSH0 DUP2 GT PUSH2 0x18E JUMPI PUSH1 0x40 MLOAD PUSH32 0x8C379A000000000000000000000000000000000000000000000000000000000 DUP2 MSTORE PUSH1 0x4 ADD PUSH2 0x185 SWAP1 PUSH2 0x880 JUMP JUMPDEST PUSH1 0x40 MLOAD DUP1 SWAP2 SUB SWAP1 REVERT JUMPDEST PUSH0 PUSH1 0x2 PUSH0 DUP6 PUSH20 0xFFFFFFFFFFFFFFFFFFFFFFFFFFFFFFFFFFFFFFFF AND PUSH20 0xFFFFFFFFFFFFFFFFFFFFFFFFFFFFFFFFFFFFFFFF AND DUP2 MSTORE PUSH1 0x20 ADD SWAP1 DUP2 MSTORE PUSH1 0x20 ADD PUSH0 KECCAK256 PUSH0 DUP5 PUSH20 0xFFFFFFFFFFFFFFFFFFFFFFFFFFFFFFFFFFFFFFFF AND PUSH20 0xFFFFFFFFFFFFFFFFFFFFFFFFFFFFFFFFFFFFFFFF AND DUP2 MSTORE PUSH1 0x20 ADD SWAP1 DUP2 MSTORE PUSH1 0x20 ADD PUSH0 KECCAK256 SLOAD SWAP1 POP PUSH0 DUP2 GT PUSH2 0x24C JUMPI PUSH1 0x40 MLOAD PUSH32 0x8C379A000000000000000000000000000000000000000000000000000000000 DUP2 MSTORE PUSH1 0x4 ADD PUSH2 0x243 SWAP1 PUSH2 0x8E8 JUMP JUMPDEST PUSH1 0x40 MLOAD DUP1 SWAP2 SUB SWAP1 REVERT JUMPDEST PUSH0 PUSH8 0xDE0B6B3A7640000 DUP3 DUP5 PUSH2 0x262 SWAP2 SWAP1 PUSH2 0x933 JUMP JUMPDEST PUSH2 0x26C SWAP2 SWAP1 PUSH2 0x9A1 JUMP JUMPDEST SWAP1 POP PUSH0 PUSH2 0x2710 PUSH1 0x3 SLOAD DUP4 PUSH2 0x280 SWAP2 SWAP1 PUSH2 0x933 JUMP JUMPDEST PUSH2 0x28A SWAP2 SWAP1 PUSH2 0x9A1 JUMP JUMPDEST SWAP1 POP PUSH0 DUP2 DUP4 PUSH2 0x299 SWAP2 SWAP1 PUSH2 0x9D1 JUMP JUMPDEST SWAP1 POP PUSH0 PUSH0 SWAP1 SLOAD SWAP1 PUSH2 0x100 EXP SWAP1 DIV PUSH20 0xFFFFFFFFFFFFFFFFFFFFFFFFFFFFFFFFFFFFFFFF AND PUSH20 0xFFFFFFFFFFFFFFFFFFFFFFFFFFFFFFFFFFFFFFFF AND PUSH4 0x44A29E2A DUP9 CALLER PUSH1 0x1 PUSH0 SWAP1 SLOAD SWAP1 PUSH2 0x100 EXP SWAP1 DIV PUSH20 0xFFFFFFFFFFFFFFFFFFFFFFFFFFFFFFFFFFFFFFFF AND DUP10 PUSH1 0x40 MLOAD DUP6 PUSH4 0xFFFFFFFF AND PUSH1 0xE0 SHL DUP2 MSTORE PUSH1 0x4 ADD PUSH2 0x31B SWAP5 SWAP4 SWAP3 SWAP2 SWAP1 PUSH2 0xA04 JUMP JUMPDEST PUSH0 PUSH1 0x40 MLOAD DUP1 DUP4 SUB DUP2 PUSH0 DUP8 DUP1 EXTCODESIZE ISZERO DUP1 ISZERO PUSH2 0x332 JUMPI PUSH0 PUSH0 REVERT JUMPDEST POP GAS CALL ISZERO DUP1 ISZERO PUSH2 0x344 JUMPI RETURNDATASIZE PUSH0 PUSH0 RETURNDATACOPY RETURNDATASIZE PUSH0 REVERT JUMPDEST POP POP POP POP PUSH0 PUSH0 SWAP1 SLOAD SWAP1 PUSH2 0x100 EXP SWAP1 DIV PUSH20 0xFFFFFFFFFFFFFFFFFFFFFFFFFFFFFFFFFFFFFFFF AND PUSH20 0xFFFFFFFFFFFFFFFFFFFFFFFFFFFFFFFFFFFFFFFF AND PUSH4 0x44A29E2A DUP8 PUSH1 0x1 PUSH0 SWAP1 SLOAD SWAP1 PUSH2 0x100 EXP SWAP1 DIV PUSH20 0xFFFFFFFFFFFFFFFFFFFFFFFFFFFFFFFFFFFFFFFF AND CALLER DUP6 PUSH1 0x40 MLOAD DUP6 PUSH4 0xFFFFFFFF AND PUSH1 0xE0 SHL DUP2 MSTORE PUSH1 0x4 ADD PUSH2 0x3C8 SWAP5 SWAP4 SWAP3 SWAP2 SWAP1 PUSH2 0xA04 JUMP JUMPDEST PUSH0 PUSH1 0x40 MLOAD DUP1 DUP4 SUB DUP2 PUSH0 DUP8 DUP1 EXTCODESIZE ISZERO DUP1 ISZERO PUSH2 0x3DF JUMPI PUSH0 PUSH0 REVERT JUMPDEST POP GAS CALL ISZERO DUP1 ISZERO PUSH2 0x3F1 JUMPI RETURNDATASIZE PUSH0 PUSH0 RETURNDATACOPY RETURNDATASIZE PUSH0 REVERT JUMPDEST POP POP POP POP DUP6 PUSH20 0xFFFFFFFFFFFFFFFFFFFFFFFFFFFFFFFFFFFFFFFF AND DUP8 PUSH20 0xFFFFFFFFFFFFFFFFFFFFFFFFFFFFFFFFFFFFFFFF AND CALLER PUSH20 0xFFFFFFFFFFFFFFFFFFFFFFFFFFFFFFFFFFFFFFFF AND PUSH32 0x3FCFB2F2E0146D5BE7268F9E4CD3C4C0CE3428F68805DB227B7FC378DB7519AC DUP9 DUP6 PUSH1 0x40 MLOAD PUSH2 0x46B SWAP3 SWAP2 SWAP1 PUSH2 0xA47 JUMP JUMPDEST PUSH1 0x40 MLOAD DUP1 SWAP2 SUB SWAP1 LOG4 POP POP POP POP POP POP POP JUMP JUMPDEST DUP1 PUSH1 0x2 PUSH0 DUP6 PUSH20 0xFFFFFFFFFFFFFFFFFFFFFFFFFFFFFFFFFFFFFFFF AND PUSH20 0xFFFFFFFFFFFFFFFFFFFFFFFFFFFFFFFFFFFFFFFF AND DUP2 MSTORE PUSH1 0x20 ADD SWAP1 DUP2 MSTORE PUSH1 0x20 ADD PUSH0 KECCAK256 PUSH0 DUP5 PUSH20 0xFFFFFFFFFFFFFFFFFFFFFFFFFFFFFFFFFFFFFFFF AND PUSH20 0xFFFFFFFFFFFFFFFFFFFFFFFFFFFFFFFFFFFFFFFF AND DUP2 MSTORE PUSH1 0x20 ADD SWAP1 DUP2 MSTORE PUSH1 0x20 ADD PUSH0 KECCAK256 DUP2 SWAP1 SSTORE POP DUP1 PUSH15 0xC097CE7BC90715B34B9F1000000000 PUSH2 0x514 SWAP2 SWAP1 PUSH2 0x9A1 JUMP JUMPDEST PUSH1 0x2 PUSH0 DUP5 PUSH20 0xFFFFFFFFFFFFFFFFFFFFFFFFFFFFFFFFFFFFFFFF AND PUSH20 0xFFFFFFFFFFFFFFFFFFFFFFFFFFFFFFFFFFFFFFFF AND DUP2 MSTORE PUSH1 0x20 ADD SWAP1 DUP2 MSTORE PUSH1 0x20 ADD PUSH0 KECCAK256 PUSH0 DUP6 PUSH20 0xFFFFFFFFFFFFFFFFFFFFFFFFFFFFFFFFFFFFFFFF AND PUSH20 0xFFFFFFFFFFFFFFFFFFFFFFFFFFFFFFFFFFFFFFFF AND DUP2 MSTORE PUSH1 0x20 ADD SWAP1 DUP2 MSTORE PUSH1 0x20 ADD PUSH0 KECCAK256 DUP2 SWAP1 SSTORE POP DUP2 PUSH20 0xFFFFFFFFFFFFFFFFFFFFFFFFFFFFFFFFFFFFFFFF AND DUP4 PUSH20 0xFFFFFFFFFFFFFFFFFFFFFFFFFFFFFFFFFFFFFFFF AND PUSH32 0xB71C154260E8508E211E2ACE194BECBA2C6D7E727C3ED292FE4787458969CD10 DUP4 PUSH1 0x40 MLOAD PUSH2 0x5ED SWAP2 SWAP1 PUSH2 0x6F7 JUMP JUMPDEST PUSH1 0x40 MLOAD DUP1 SWAP2 SUB SWAP1 LOG3 POP POP POP JUMP JUMPDEST PUSH1 0x1 PUSH0 SWAP1 SLOAD SWAP1 PUSH2 0x100 EXP SWAP1 DIV PUSH20 0xFFFFFFFFFFFFFFFFFFFFFFFFFFFFFFFFFFFFFFFF AND DUP2 JUMP JUMPDEST PUSH0 PUSH0 SWAP1 SLOAD SWAP1 PUSH2 0x100 EXP SWAP1 DIV PUSH20 0xFFFFFFFFFFFFFFFFFFFFFFFFFFFFFFFFFFFFFFFF AND DUP2 JUMP JUMPDEST PUSH0 PUSH0 REVERT JUMPDEST PUSH0 PUSH20 0xFFFFFFFFFFFFFFFFFFFFFFFFFFFFFFFFFFFFFFFF DUP3 AND SWAP1 POP SWAP2 SWAP1 POP JUMP JUMPDEST PUSH0 PUSH2 0x670 DUP3 PUSH2 0x647 JUMP JUMPDEST SWAP1 POP SWAP2 SWAP1 POP JUMP JUMPDEST PUSH2 0x680 DUP2 PUSH2 0x666 JUMP JUMPDEST DUP2 EQ PUSH2 0x68A JUMPI PUSH0 PUSH0 REVERT JUMPDEST POP JUMP JUMPDEST PUSH0 DUP2 CALLDATALOAD SWAP1 POP PUSH2 0x69B DUP2 PUSH2 0x677 JUMP JUMPDEST SWAP3 SWAP2 POP POP JUMP JUMPDEST PUSH0 PUSH0 PUSH1 0x40 DUP4 DUP6 SUB SLT ISZERO PUSH2 0x6B7 JUMPI PUSH2 0x6B6 PUSH2 0x643 JUMP JUMPDEST JUMPDEST PUSH0 PUSH2 0x6C4 DUP6 DUP3 DUP7 ADD PUSH2 0x68D JUMP JUMPDEST SWAP3 POP POP PUSH1 0x20 PUSH2 0x6D5 DUP6 DUP3 DUP7 ADD PUSH2 0x68D JUMP JUMPDEST SWAP2 POP POP SWAP3 POP SWAP3 SWAP1 POP JUMP JUMPDEST PUSH0 DUP2 SWAP1 POP SWAP2 SWAP1 POP JUMP JUMPDEST PUSH2 0x6F1 DUP2 PUSH2 0x6DF JUMP JUMPDEST DUP3 MSTORE POP POP JUMP JUMPDEST PUSH0 PUSH1 0x20 DUP3 ADD SWAP1 POP PUSH2 0x70A PUSH0 DUP4 ADD DUP5 PUSH2 0x6E8 JUMP JUMPDEST SWAP3 SWAP2 POP POP JUMP JUMPDEST PUSH2 0x719 DUP2 PUSH2 0x6DF JUMP JUMPDEST DUP2 EQ PUSH2 0x723 JUMPI PUSH0 PUSH0 REVERT JUMPDEST POP JUMP JUMPDEST PUSH0 DUP2 CALLDATALOAD SWAP1 POP PUSH2 0x734 DUP2 PUSH2 0x710 JUMP JUMPDEST SWAP3 SWAP2 POP POP JUMP JUMPDEST PUSH0 PUSH0 PUSH0 PUSH1 0x60 DUP5 DUP7 SUB SLT ISZERO PUSH2 0x751 JUMPI PUSH2 0x750 PUSH2 0x643 JUMP JUMPDEST JUMPDEST PUSH0 PUSH2 0x75E DUP7 DUP3 DUP8 ADD PUSH2 0x68D JUMP JUMPDEST SWAP4 POP POP PUSH1 0x20 PUSH2 0x76F DUP7 DUP3 DUP8 ADD PUSH2 0x68D JUMP JUMPDEST SWAP3 POP POP PUSH1 0x40 PUSH2 0x780 DUP7 DUP3 DUP8 ADD PUSH2 0x726 JUMP JUMPDEST SWAP2 POP POP SWAP3 POP SWAP3 POP SWAP3 JUMP JUMPDEST PUSH2 0x793 DUP2 PUSH2 0x666 JUMP JUMPDEST DUP3 MSTORE POP POP JUMP JUMPDEST PUSH0 PUSH1 0x20 DUP3 ADD SWAP1 POP PUSH2 0x7AC PUSH0 DUP4 ADD DUP5 PUSH2 0x78A JUMP JUMPDEST SWAP3 SWAP2 POP POP JUMP JUMPDEST PUSH0 DUP2 SWAP1 POP SWAP2 SWAP1 POP JUMP JUMPDEST PUSH0 PUSH2 0x7D5 PUSH2 0x7D0 PUSH2 0x7CB DUP5 PUSH2 0x647 JUMP JUMPDEST PUSH2 0x7B2 JUMP JUMPDEST PUSH2 0x647 JUMP JUMPDEST SWAP1 POP SWAP2 SWAP1 POP JUMP JUMPDEST PUSH0 PUSH2 0x7E6 DUP3 PUSH2 0x7BB JUMP JUMPDEST SWAP1 POP SWAP2 SWAP1 POP JUMP JUMPDEST PUSH0 PUSH2 0x7F7 DUP3 PUSH2 0x7DC JUMP JUMPDEST SWAP1 POP SWAP2 SWAP1 POP JUMP JUMPDEST PUSH2 0x807 DUP2 PUSH2 0x7ED JUMP JUMPDEST DUP3 MSTORE POP POP JUMP JUMPDEST PUSH0 PUSH1 0x20 DUP3 ADD SWAP1 POP PUSH2 0x820 PUSH0 DUP4 ADD DUP5 PUSH2 0x7FE JUMP JUMPDEST SWAP3 SWAP2 POP POP JUMP JUMPDEST PUSH0 DUP3 DUP3 MSTORE PUSH1 0x20 DUP3 ADD SWAP1 POP SWAP3 SWAP2 POP POP JUMP JUMPDEST PUSH32 0x416D6F756E74206D757374206265203E20300000000000000000000000000000 PUSH0 DUP3 ADD MSTORE POP JUMP JUMPDEST PUSH0 PUSH2 0x86A PUSH1 0x12 DUP4 PUSH2 0x826 JUMP JUMPDEST SWAP2 POP PUSH2 0x875 DUP3 PUSH2 0x836 JUMP JUMPDEST PUSH1 0x20 DUP3 ADD SWAP1 POP SWAP2 SWAP1 POP JUMP JUMPDEST PUSH0 PUSH1 0x20 DUP3 ADD SWAP1 POP DUP2 DUP2 SUB PUSH0 DUP4 ADD MSTORE PUSH2 0x897 DUP2 PUSH2 0x85E JUMP JUMPDEST SWAP1 POP SWAP2 SWAP1 POP JUMP JUMPDEST PUSH32 0x5072696365206E6F742073657420666F72207468697320706169720000000000 PUSH0 DUP3 ADD MSTORE POP JUMP JUMPDEST PUSH0 PUSH2 0x8D2 PUSH1 0x1B DUP4 PUSH2 0x826 JUMP JUMPDEST SWAP2 POP PUSH2 0x8DD DUP3 PUSH2 0x89E JUMP JUMPDEST PUSH1 0x20 DUP3 ADD SWAP1 POP SWAP2 SWAP1 POP JUMP JUMPDEST PUSH0 PUSH1 0x20 DUP3 ADD SWAP1 POP DUP2 DUP2 SUB PUSH0 DUP4 ADD MSTORE PUSH2 0x8FF DUP2 PUSH2 0x8C6 JUMP JUMPDEST SWAP1 POP SWAP2 SWAP1 POP JUMP JUMPDEST PUSH32 0x4E487B7100000000000000000000000000000000000000000000000000000000 PUSH0 MSTORE PUSH1 0x11 PUSH1 0x4 MSTORE PUSH1 0x24 PUSH0 REVERT JUMPDEST PUSH0 PUSH2 0x93D DUP3 PUSH2 0x6DF JUMP JUMPDEST SWAP2 POP PUSH2 0x948 DUP4 PUSH2 0x6DF JUMP JUMPDEST SWAP3 POP DUP3 DUP3 MUL PUSH2 0x956 DUP2 PUSH2 0x6DF JUMP JUMPDEST SWAP2 POP DUP3 DUP3 DIV DUP5 EQ DUP4 ISZERO OR PUSH2 0x96D JUMPI PUSH2 0x96C PUSH2 0x906 JUMP JUMPDEST JUMPDEST POP SWAP3 SWAP2 POP POP JUMP JUMPDEST PUSH32 0x4E487B7100000000000000000000000000000000000000000000000000000000 PUSH0 MSTORE PUSH1 0x12 PUSH1 0x4 MSTORE PUSH1 0x24 PUSH0 REVERT JUMPDEST PUSH0 PUSH2 0x9AB DUP3 PUSH2 0x6DF JUMP JUMPDEST SWAP2 POP PUSH2 0x9B6 DUP4 PUSH2 0x6DF JUMP JUMPDEST SWAP3 POP DUP3 PUSH2 0x9C6 JUMPI PUSH2 0x9C5 PUSH2 0x974 JUMP JUMPDEST JUMPDEST DUP3 DUP3 DIV SWAP1 POP SWAP3 SWAP2 POP POP JUMP JUMPDEST PUSH0 PUSH2 0x9DB DUP3 PUSH2 0x6DF JUMP JUMPDEST SWAP2 POP PUSH2 0x9E6 DUP4 PUSH2 0x6DF JUMP JUMPDEST SWAP3 POP DUP3 DUP3 SUB SWAP1 POP DUP2 DUP2 GT ISZERO PUSH2 0x9FE JUMPI PUSH2 0x9FD PUSH2 0x906 JUMP JUMPDEST JUMPDEST SWAP3 SWAP2 POP POP JUMP JUMPDEST PUSH0 PUSH1 0x80 DUP3 ADD SWAP1 POP PUSH2 0xA17 PUSH0 DUP4 ADD DUP8 PUSH2 0x78A JUMP JUMPDEST PUSH2 0xA24 PUSH1 0x20 DUP4 ADD DUP7 PUSH2 0x78A JUMP JUMPDEST PUSH2 0xA31 PUSH1 0x40 DUP4 ADD DUP6 PUSH2 0x78A JUMP JUMPDEST PUSH2 0xA3E PUSH1 0x60 DUP4 ADD DUP5 PUSH2 0x6E8 JUMP JUMPDEST SWAP6 SWAP5 POP POP POP POP POP JUMP JUMPDEST PUSH0 PUSH1 0x40 DUP3 ADD SWAP1 POP PUSH2 0xA5A PUSH0 DUP4 ADD DUP6 PUSH2 0x6E8 JUMP JUMPDEST PUSH2 0xA67 PUSH1 0x20 DUP4 ADD DUP5 PUSH2 0x6E8 JUMP JUMPDEST SWAP4 SWAP3 POP POP POP JUMP INVALID LOG2 PUSH5 0x6970667358 0x22 SLT KECCAK256 0x27 ADDMOD ADD 0xA9 PC NOT SWAP9 0x4D 0xD8 CREATE2 0xAF SWAP9 SWAP2 LOG3 CALLER 0xB7 PUSH12 0x318816D97101CE15C9CFCB54 0xC1 0xB9 0xBC PUSH5 0x736F6C6343 STOP ADDMOD 0x1E STOP CALLER "
				},
				"gasEstimates": {
					"creation": {
						"codeDepositCost": "544800",
						"executionCost": "infinite",
						"totalCost": "infinite"
					},
					"external": {
						"assetVault()": "infinite",
						"executeTrade(address,address,uint256)": "infinite",
						"feeBps()": "2425",
						"feeWallet()": "2574",
						"prices(address,address)": "infinite",
						"setPrice(address,address,uint256)": "infinite"
					}
				},
				"methodIdentifiers": {
					"assetVault()": "f61ebc36",
					"executeTrade(address,address,uint256)": "6c61033c",
					"feeBps()": "24a9d853",
					"feeWallet()": "f25f4b56",
					"prices(address,address)": "1f312404",
					"setPrice(address,address,uint256)": "792eb791"
				}
			},
			"storageLayout": {
				"storage": [
					{
						"astId": 571,
						"contract": "contract/SpotExchange.sol:SpotExchange",
						"label": "assetVault",
						"offset": 0,
						"slot": "0",
						"type": "t_contract(AssetVault)564"
					},
					{
						"astId": 573,
						"contract": "contract/SpotExchange.sol:SpotExchange",
						"label": "feeWallet",
						"offset": 0,
						"slot": "1",
						"type": "t_address"
					},
					{
						"astId": 579,
						"contract": "contract/SpotExchange.sol:SpotExchange",
						"label": "prices",
						"offset": 0,
						"slot": "2",
						"type": "t_mapping(t_address,t_mapping(t_address,t_uint256))"
					},
					{
						"astId": 582,
						"contract": "contract/SpotExchange.sol:SpotExchange",
						"label": "feeBps",
						"offset": 0,
						"slot": "3",
						"type": "t_uint256"
					}
				],
				"types": {
					"t_address": {
						"encoding": "inplace",
						"label": "address",
						"numberOfBytes": "20"
					},
					"t_contract(AssetVault)564": {
						"encoding": "inplace",
						"label": "contract AssetVault",
						"numberOfBytes": "20"
					},
					"t_mapping(t_address,t_mapping(t_address,t_uint256))": {
						"encoding": "mapping",
						"key": "t_address",
						"label": "mapping(address => mapping(address => uint256))",
						"numberOfBytes": "32",
						"value": "t_mapping(t_address,t_uint256)"
					},
					"t_mapping(t_address,t_uint256)": {
						"encoding": "mapping",
						"key": "t_address",
						"label": "mapping(address => uint256)",
						"numberOfBytes": "32",
						"value": "t_uint256"
					},
					"t_uint256": {
						"encoding": "inplace",
						"label": "uint256",
						"numberOfBytes": "32"
					}
				}
			},
			"userdoc": {
				"kind": "user",
				"methods": {},
				"version": 1
			}
		}
	}
}