{
	"data": {
		"bytecode": {
			"linkReferences": {},
			"object": "608060405269021e19e0c9bab24000006001556954b40b1f852bda00000060025534801561002b575f5ffd5b50604051612680380380612680833981810160405281019061004d91906100f0565b805f5f6101000a81548173ffffffffffffffffffffffffffffffffffffffff021916908373ffffffffffffffffffffffffffffffffffffffff1602179055505061011b565b5f5ffd5b5f73ffffffffffffffffffffffffffffffffffffffff82169050919050565b5f6100bf82610096565b9050919050565b6100cf816100b5565b81146100d9575f5ffd5b50565b5f815190506100ea816100c6565b92915050565b5f6020828403121561010557610104610092565b5b5f610112848285016100dc565b91505092915050565b612558806101285f395ff3fe608060405234801561000f575f5ffd5b50600436106100a7575f3560e01c8063b58131b01161006f578063b58131b014610169578063d6159fe514610187578063da35c664146101a5578063da95691a146101c3578063fc0c546a146101f3578063fe0d94c114610211576100a7565b8063013cf08b146100ab57806315373e3d146100e157806324bc1a64146100fd5780633e4f49e61461011b578063b1610d7e1461014b575b5f5ffd5b6100c560048036038101906100c09190610de2565b61022d565b6040516100d89796959493929190610e75565b60405180910390f35b6100fb60048036038101906100f69190610f0c565b610296565b005b610105610563565b6040516101129190610f4a565b60405180910390f35b61013560048036038101906101309190610de2565b610569565b6040516101429190610fd6565b60405180910390f35b6101536105fe565b6040516101609190610f4a565b60405180910390f35b610171610604565b60405161017e9190610f4a565b60405180910390f35b61018f61060a565b60405161019c9190610f4a565b60405180910390f35b6101ad61060f565b6040516101ba9190610f4a565b60405180910390f35b6101dd60048036038101906101d89190611533565b610615565b6040516101ea9190610f4a565b60405180910390f35b6101fb61085c565b6040516102089190611691565b60405180910390f35b61022b60048036038101906102269190610de2565b610880565b005b6004602052805f5260405f205f91509050805f015490806001015f9054906101000a900473ffffffffffffffffffffffffffffffffffffffff169080600601549080600701549080600801549080600901549080600a015f9054906101000a900460ff16905087565b5f60045f8481526020019081526020015f209050600160048111156102be576102bd610f63565b5b6102c784610569565b60048111156102d9576102d8610f63565b5b14610319576040517f08c379a000000000000000000000000000000000000000000000000000000000815260040161031090611704565b60405180910390fd5b5f81600b015f3373ffffffffffffffffffffffffffffffffffffffff1673ffffffffffffffffffffffffffffffffffffffff1681526020019081526020015f209050805f015f9054906101000a900460ff16156103ab576040517f08c379a00000000000000000000000000000000000000000000000000000000081526004016103a29061176c565b60405180910390fd5b5f5f5f9054906101000a900473ffffffffffffffffffffffffffffffffffffffff1673ffffffffffffffffffffffffffffffffffffffff166370a08231336040518263ffffffff1660e01b8152600401610405919061178a565b602060405180830381865afa158015610420573d5f5f3e3d5ffd5b505050506040513d601f19601f8201168201806040525081019061044491906117b7565b9050831561047957806bffffffffffffffffffffffff16836008015f82825461046d919061180f565b925050819055506104a2565b806bffffffffffffffffffffffff16836009015f82825461049a919061180f565b925050819055505b6001825f015f6101000a81548160ff02191690831515021790555083825f0160016101000a81548160ff02191690831515021790555080825f0160026101000a8154816bffffffffffffffffffffffff02191690836bffffffffffffffffffffffff1602179055503373ffffffffffffffffffffffffffffffffffffffff167f877856338e13f63d0c36822ff0ef736b80934cd90574a3a5bc9262c39d217c4686868460405161055493929190611889565b60405180910390a25050505050565b60025481565b5f5f60045f8481526020019081526020015f20905080600a015f9054906101000a900460ff161561059e5760049150506105f9565b806006015443116105b2575f9150506105f9565b806007015443116105c75760019150506105f9565b806009015481600801541180156105e45750600254816008015410155b156105f35760029150506105f9565b60039150505b919050565b61168081565b60015481565b600181565b60035481565b5f6001545f5f9054906101000a900473ffffffffffffffffffffffffffffffffffffffff1673ffffffffffffffffffffffffffffffffffffffff166370a08231336040518263ffffffff1660e01b8152600401610672919061178a565b602060405180830381865afa15801561068d573d5f5f3e3d5ffd5b505050506040513d601f19601f820116820180604052508101906106b191906117b7565b10156106f2576040517f08c379a00000000000000000000000000000000000000000000000000000000081526004016106e990611908565b60405180910390fd5b5f600143610700919061180f565b90505f61168082610711919061180f565b905060035f81548092919061072590611926565b91905055505f60045f60035481526020019081526020015f209050600354815f018190555033816001015f6101000a81548173ffffffffffffffffffffffffffffffffffffffff021916908373ffffffffffffffffffffffffffffffffffffffff160217905550888160020190805190602001906107a4929190610b43565b50878160030190805190602001906107bd929190610bca565b50868160040190805190602001906107d6929190610c15565b50858160050190805190602001906107ef929190610c6c565b508281600601819055508181600701819055507f7d84a6263ae0d98d3329bd7b46bb4e8d6f98cd35a7adb45c274c8b7fd5ebd5e0600354338b8b8b8b89898d60405161084399989796959493929190611d3b565b60405180910390a1600354935050505095945050505050565b5f5f9054906101000a900473ffffffffffffffffffffffffffffffffffffffff1681565b5f60045f8381526020019081526020015f209050600260048111156108a8576108a7610f63565b5b6108b183610569565b60048111156108c3576108c2610f63565b5b14610903576040517f08c379a00000000000000000000000000000000000000000000000000000000081526004016108fa90611e33565b60405180910390fd5b80600a015f9054906101000a900460ff1615610954576040517f08c379a000000000000000000000000000000000000000000000000000000000815260040161094b90611e9b565b60405180910390fd5b600181600a015f6101000a81548160ff0219169083151502179055505f5f90505b8160020180549050811015610b07575f82600201828154811061099b5761099a611eb9565b5b905f5260205f20015f9054906101000a900473ffffffffffffffffffffffffffffffffffffffff1673ffffffffffffffffffffffffffffffffffffffff168360030183815481106109ef576109ee611eb9565b5b905f5260205f200154846004018481548110610a0e57610a0d611eb9565b5b905f5260205f2001604051610a239190611fdf565b6040518091039020856005018581548110610a4157610a40611eb9565b5b905f5260205f2001604051602001610a5a9291906120d2565b604051602081830303815290604052604051610a769190612129565b5f6040518083038185875af1925050503d805f8114610ab0576040519150601f19603f3d011682016040523d82523d5f602084013e610ab5565b606091505b5050905080610af9576040517f08c379a0000000000000000000000000000000000000000000000000000000008152600401610af090612189565b60405180910390fd5b508080600101915050610975565b507f712ae1383f79ac853f8d882153778e0260ef8f03b504e2866e0593e04d2b291f82604051610b379190610f4a565b60405180910390a15050565b828054828255905f5260205f20908101928215610bb9579160200282015b82811115610bb8578251825f6101000a81548173ffffffffffffffffffffffffffffffffffffffff021916908373ffffffffffffffffffffffffffffffffffffffff16021790555091602001919060010190610b61565b5b509050610bc69190610cc3565b5090565b828054828255905f5260205f20908101928215610c04579160200282015b82811115610c03578251825591602001919060010190610be8565b5b509050610c119190610cc3565b5090565b828054828255905f5260205f20908101928215610c5b579160200282015b82811115610c5a578251829081610c4a919061233e565b5091602001919060010190610c33565b5b509050610c689190610cde565b5090565b828054828255905f5260205f20908101928215610cb2579160200282015b82811115610cb1578251829081610ca19190612453565b5091602001919060010190610c8a565b5b509050610cbf9190610d01565b5090565b5b80821115610cda575f815f905550600101610cc4565b5090565b5b80821115610cfd575f8181610cf49190610d24565b50600101610cdf565b5090565b5b80821115610d20575f8181610d179190610d61565b50600101610d02565b5090565b508054610d3090611f13565b5f825580601f10610d415750610d5e565b601f0160209004905f5260205f2090810190610d5d9190610cc3565b5b50565b508054610d6d90611f13565b5f825580601f10610d7e5750610d9b565b601f0160209004905f5260205f2090810190610d9a9190610cc3565b5b50565b5f604051905090565b5f5ffd5b5f5ffd5b5f819050919050565b610dc181610daf565b8114610dcb575f5ffd5b50565b5f81359050610ddc81610db8565b92915050565b5f60208284031215610df757610df6610da7565b5b5f610e0484828501610dce565b91505092915050565b610e1681610daf565b82525050565b5f73ffffffffffffffffffffffffffffffffffffffff82169050919050565b5f610e4582610e1c565b9050919050565b610e5581610e3b565b82525050565b5f8115159050919050565b610e6f81610e5b565b82525050565b5f60e082019050610e885f83018a610e0d565b610e956020830189610e4c565b610ea26040830188610e0d565b610eaf6060830187610e0d565b610ebc6080830186610e0d565b610ec960a0830185610e0d565b610ed660c0830184610e66565b98975050505050505050565b610eeb81610e5b565b8114610ef5575f5ffd5b50565b5f81359050610f0681610ee2565b92915050565b5f5f60408385031215610f2257610f21610da7565b5b5f610f2f85828601610dce565b9250506020610f4085828601610ef8565b9150509250929050565b5f602082019050610f5d5f830184610e0d565b92915050565b7f4e487b71000000000000000000000000000000000000000000000000000000005f52602160045260245ffd5b60058110610fa157610fa0610f63565b5b50565b5f819050610fb182610f90565b919050565b5f610fc082610fa4565b9050919050565b610fd081610fb6565b82525050565b5f602082019050610fe95f830184610fc7565b92915050565b5f5ffd5b5f601f19601f8301169050919050565b7f4e487b71000000000000000000000000000000000000000000000000000000005f52604160045260245ffd5b61103982610ff3565b810181811067ffffffffffffffff8211171561105857611057611003565b5b80604052505050565b5f61106a610d9e565b90506110768282611030565b919050565b5f67ffffffffffffffff82111561109557611094611003565b5b602082029050602081019050919050565b5f5ffd5b6110b381610e3b565b81146110bd575f5ffd5b50565b5f813590506110ce816110aa565b92915050565b5f6110e66110e18461107b565b611061565b90508083825260208201905060208402830185811115611109576111086110a6565b5b835b81811015611132578061111e88826110c0565b84526020840193505060208101905061110b565b5050509392505050565b5f82601f8301126111505761114f610fef565b5b81356111608482602086016110d4565b91505092915050565b5f67ffffffffffffffff82111561118357611182611003565b5b602082029050602081019050919050565b5f6111a66111a184611169565b611061565b905080838252602082019050602084028301858111156111c9576111c86110a6565b5b835b818110156111f257806111de8882610dce565b8452602084019350506020810190506111cb565b5050509392505050565b5f82601f8301126112105761120f610fef565b5b8135611220848260208601611194565b91505092915050565b5f67ffffffffffffffff82111561124357611242611003565b5b602082029050602081019050919050565b5f5ffd5b5f67ffffffffffffffff82111561127257611271611003565b5b61127b82610ff3565b9050602081019050919050565b828183375f83830152505050565b5f6112a86112a384611258565b611061565b9050828152602081018484840111156112c4576112c3611254565b5b6112cf848285611288565b509392505050565b5f82601f8301126112eb576112ea610fef565b5b81356112fb848260208601611296565b91505092915050565b5f61131661131184611229565b611061565b90508083825260208201905060208402830185811115611339576113386110a6565b5b835b8181101561138057803567ffffffffffffffff81111561135e5761135d610fef565b5b80860161136b89826112d7565b8552602085019450505060208101905061133b565b5050509392505050565b5f82601f83011261139e5761139d610fef565b5b81356113ae848260208601611304565b91505092915050565b5f67ffffffffffffffff8211156113d1576113d0611003565b5b602082029050602081019050919050565b5f67ffffffffffffffff8211156113fc576113fb611003565b5b61140582610ff3565b9050602081019050919050565b5f61142461141f846113e2565b611061565b9050828152602081018484840111156114405761143f611254565b5b61144b848285611288565b509392505050565b5f82601f83011261146757611466610fef565b5b8135611477848260208601611412565b91505092915050565b5f61149261148d846113b7565b611061565b905080838252602082019050602084028301858111156114b5576114b46110a6565b5b835b818110156114fc57803567ffffffffffffffff8111156114da576114d9610fef565b5b8086016114e78982611453565b855260208501945050506020810190506114b7565b5050509392505050565b5f82601f83011261151a57611519610fef565b5b813561152a848260208601611480565b91505092915050565b5f5f5f5f5f60a0868803121561154c5761154b610da7565b5b5f86013567ffffffffffffffff81111561156957611568610dab565b5b6115758882890161113c565b955050602086013567ffffffffffffffff81111561159657611595610dab565b5b6115a2888289016111fc565b945050604086013567ffffffffffffffff8111156115c3576115c2610dab565b5b6115cf8882890161138a565b935050606086013567ffffffffffffffff8111156115f0576115ef610dab565b5b6115fc88828901611506565b925050608086013567ffffffffffffffff81111561161d5761161c610dab565b5b611629888289016112d7565b9150509295509295909350565b5f819050919050565b5f61165961165461164f84610e1c565b611636565b610e1c565b9050919050565b5f61166a8261163f565b9050919050565b5f61167b82611660565b9050919050565b61168b81611671565b82525050565b5f6020820190506116a45f830184611682565b92915050565b5f82825260208201905092915050565b7f566f74696e67206973206e6f74206163746976650000000000000000000000005f82015250565b5f6116ee6014836116aa565b91506116f9826116ba565b602082019050919050565b5f6020820190508181035f83015261171b816116e2565b9050919050565b7f566f74657220616c726561647920766f746564000000000000000000000000005f82015250565b5f6117566013836116aa565b915061176182611722565b602082019050919050565b5f6020820190508181035f8301526117838161174a565b9050919050565b5f60208201905061179d5f830184610e4c565b92915050565b5f815190506117b181610db8565b92915050565b5f602082840312156117cc576117cb610da7565b5b5f6117d9848285016117a3565b91505092915050565b7f4e487b71000000000000000000000000000000000000000000000000000000005f52601160045260245ffd5b5f61181982610daf565b915061182483610daf565b925082820190508082111561183c5761183b6117e2565b5b92915050565b5f6bffffffffffffffffffffffff82169050919050565b5f61187361186e61186984611842565b611636565b610daf565b9050919050565b61188381611859565b82525050565b5f60608201905061189c5f830186610e0d565b6118a96020830185610e66565b6118b6604083018461187a565b949350505050565b7f50726f706f73657220766f7465732062656c6f77207468726573686f6c6400005f82015250565b5f6118f2601e836116aa565b91506118fd826118be565b602082019050919050565b5f6020820190508181035f83015261191f816118e6565b9050919050565b5f61193082610daf565b91507fffffffffffffffffffffffffffffffffffffffffffffffffffffffffffffffff8203611962576119616117e2565b5b600182019050919050565b5f81519050919050565b5f82825260208201905092915050565b5f819050602082019050919050565b61199f81610e3b565b82525050565b5f6119b08383611996565b60208301905092915050565b5f602082019050919050565b5f6119d28261196d565b6119dc8185611977565b93506119e783611987565b805f5b83811015611a175781516119fe88826119a5565b9750611a09836119bc565b9250506001810190506119ea565b5085935050505092915050565b5f81519050919050565b5f82825260208201905092915050565b5f819050602082019050919050565b611a5681610daf565b82525050565b5f611a678383611a4d565b60208301905092915050565b5f602082019050919050565b5f611a8982611a24565b611a938185611a2e565b9350611a9e83611a3e565b805f5b83811015611ace578151611ab58882611a5c565b9750611ac083611a73565b925050600181019050611aa1565b5085935050505092915050565b5f81519050919050565b5f82825260208201905092915050565b5f819050602082019050919050565b5f81519050919050565b5f82825260208201905092915050565b8281835e5f83830152505050565b5f611b3682611b04565b611b408185611b0e565b9350611b50818560208601611b1e565b611b5981610ff3565b840191505092915050565b5f611b6f8383611b2c565b905092915050565b5f602082019050919050565b5f611b8d82611adb565b611b978185611ae5565b935083602082028501611ba985611af5565b805f5b85811015611be45784840389528151611bc58582611b64565b9450611bd083611b77565b925060208a01995050600181019050611bac565b50829750879550505050505092915050565b5f81519050919050565b5f82825260208201905092915050565b5f819050602082019050919050565b5f81519050919050565b5f82825260208201905092915050565b5f611c4382611c1f565b611c4d8185611c29565b9350611c5d818560208601611b1e565b611c6681610ff3565b840191505092915050565b5f611c7c8383611c39565b905092915050565b5f602082019050919050565b5f611c9a82611bf6565b611ca48185611c00565b935083602082028501611cb685611c10565b805f5b85811015611cf15784840389528151611cd28582611c71565b9450611cdd83611c84565b925060208a01995050600181019050611cb9565b50829750879550505050505092915050565b5f611d0d82611b04565b611d1781856116aa565b9350611d27818560208601611b1e565b611d3081610ff3565b840191505092915050565b5f61012082019050611d4f5f83018c610e0d565b611d5c602083018b610e4c565b8181036040830152611d6e818a6119c8565b90508181036060830152611d828189611a7f565b90508181036080830152611d968188611b83565b905081810360a0830152611daa8187611c90565b9050611db960c0830186610e0d565b611dc660e0830185610e0d565b818103610100830152611dd98184611d03565b90509a9950505050505050505050565b7f50726f706f73616c206e6f74207375636365737366756c0000000000000000005f82015250565b5f611e1d6017836116aa565b9150611e2882611de9565b602082019050919050565b5f6020820190508181035f830152611e4a81611e11565b9050919050565b7f50726f706f73616c20616c7265616479206578656375746564000000000000005f82015250565b5f611e856019836116aa565b9150611e9082611e51565b602082019050919050565b5f6020820190508181035f830152611eb281611e79565b9050919050565b7f4e487b71000000000000000000000000000000000000000000000000000000005f52603260045260245ffd5b7f4e487b71000000000000000000000000000000000000000000000000000000005f52602260045260245ffd5b5f6002820490506001821680611f2a57607f821691505b602082108103611f3d57611f3c611ee6565b5b50919050565b5f81905092915050565b5f819050815f5260205f209050919050565b5f8154611f6b81611f13565b611f758186611f43565b9450600182165f8114611f8f5760018114611fa457611fd6565b60ff1983168652811515820286019350611fd6565b611fad85611f4d565b5f5b83811015611fce57815481890152600182019150602081019050611faf565b838801955050505b50505092915050565b5f611fea8284611f5f565b915081905092915050565b5f7fffffffff0000000000000000000000000000000000000000000000000000000082169050919050565b5f819050919050565b61203a61203582611ff5565b612020565b82525050565b5f819050815f5260205f209050919050565b5f815461205e81611f13565b6120688186611f43565b9450600182165f81146120825760018114612097576120c9565b60ff19831686528115158202860193506120c9565b6120a085612040565b5f5b838110156120c1578154818901526001820191506020810190506120a2565b838801955050505b50505092915050565b5f6120dd8285612029565b6004820191506120ed8284612052565b91508190509392505050565b5f61210382611c1f565b61210d8185611f43565b935061211d818560208601611b1e565b80840191505092915050565b5f61213482846120f9565b915081905092915050565b7f457865637574696f6e206661696c6564000000000000000000000000000000005f82015250565b5f6121736010836116aa565b915061217e8261213f565b602082019050919050565b5f6020820190508181035f8301526121a081612167565b9050919050565b5f819050815f5260205f209050919050565b5f6020601f8301049050919050565b5f82821b905092915050565b5f600883026122037fffffffffffffffffffffffffffffffffffffffffffffffffffffffffffffffff826121c8565b61220d86836121c8565b95508019841693508086168417925050509392505050565b5f61223f61223a61223584610daf565b611636565b610daf565b9050919050565b5f819050919050565b61225883612225565b61226c61226482612246565b8484546121d4565b825550505050565b5f5f905090565b612283612274565b61228e81848461224f565b505050565b5b818110156122b1576122a65f8261227b565b600181019050612294565b5050565b601f8211156122f6576122c7816121a7565b6122d0846121b9565b810160208510156122df578190505b6122f36122eb856121b9565b830182612293565b50505b505050565b5f82821c905092915050565b5f6123165f19846008026122fb565b1980831691505092915050565b5f61232e8383612307565b9150826002028217905092915050565b61234782611b04565b67ffffffffffffffff8111156123605761235f611003565b5b61236a8254611f13565b6123758282856122b5565b5f60209050601f8311600181146123a6575f8415612394578287015190505b61239e8582612323565b865550612405565b601f1984166123b4866121a7565b5f5b828110156123db578489015182556001820191506020850194506020810190506123b6565b868310156123f857848901516123f4601f891682612307565b8355505b6001600288020188555050505b505050505050565b601f82111561244e5761241f81612040565b612428846121b9565b81016020851015612437578190505b61244b612443856121b9565b830182612293565b50505b505050565b61245c82611c1f565b67ffffffffffffffff81111561247557612474611003565b5b61247f8254611f13565b61248a82828561240d565b5f60209050601f8311600181146124bb575f84156124a9578287015190505b6124b38582612323565b86555061251a565b601f1984166124c986612040565b5f5b828110156124f0578489015182556001820191506020850194506020810190506124cb565b8683101561250d5784890151612509601f891682612307565b8355505b6001600288020188555050505b50505050505056fea26469706673582212203ca8659b13227d6f12806301d8e7a88d0b2af5fd50ee5df15f62c49283a0addf64736f6c634300081e0033",
			"opcodes": "PUSH1 0x80 PUSH1 0x40 MSTORE PUSH10 0x21E19E0C9BAB2400000 PUSH1 0x1 SSTORE PUSH10 0x54B40B1F852BDA000000 PUSH1 0x2 SSTORE CALLVALUE DUP1 ISZERO PUSH2 0x2B JUMPI PUSH0 PUSH0 REVERT JUMPDEST POP PUSH1 0x40 MLOAD PUSH2 0x2680 CODESIZE SUB DUP1 PUSH2 0x2680 DUP4 CODECOPY DUP2 DUP2 ADD PUSH1 0x40 MSTORE DUP2 ADD SWAP1 PUSH2 0x4D SWAP2 SWAP1 PUSH2 0xF0 JUMP JUMPDEST DUP1 PUSH0 PUSH0 PUSH2 0x100 EXP DUP2 SLOAD DUP2 PUSH20 0xFFFFFFFFFFFFFFFFFFFFFFFFFFFFFFFFFFFFFFFF MUL NOT AND SWAP1 DUP4 PUSH20 0xFFFFFFFFFFFFFFFFFFFFFFFFFFFFFFFFFFFFFFFF AND MUL OR SWAP1 SSTORE POP POP PUSH2 0x11B JUMP JUMPDEST PUSH0 PUSH0 REVERT JUMPDEST PUSH0 PUSH20 0xFFFFFFFFFFFFFFFFFFFFFFFFFFFFFFFFFFFFFFFF DUP3 AND SWAP1 POP SWAP2 SWAP1 POP JUMP JUMPDEST PUSH0 PUSH2 0xBF DUP3 PUSH2 0x96 JUMP JUMPDEST SWAP1 POP SWAP2 SWAP1 POP JUMP JUMPDEST PUSH2 0xCF DUP2 PUSH2 0xB5 JUMP JUMPDEST DUP2 EQ PUSH2 0xD9 JUMPI PUSH0 PUSH0 REVERT JUMPDEST POP JUMP JUMPDEST PUSH0 DUP2 MLOAD SWAP1 POP PUSH2 0xEA DUP2 PUSH2 0xC6 JUMP JUMPDEST SWAP3 SWAP2 POP POP JUMP JUMPDEST PUSH0 PUSH1 0x20 DUP3 DUP5 SUB SLT ISZERO PUSH2 0x105 JUMPI PUSH2 0x104 PUSH2 0x92 JUMP JUMPDEST JUMPDEST PUSH0 PUSH2 0x112 DUP5 DUP3 DUP6 ADD PUSH2 0xDC JUMP JUMPDEST SWAP2 POP POP SWAP3 SWAP2 POP POP JUMP JUMPDEST PUSH2 0x2558 DUP1 PUSH2 0x128 PUSH0 CODECOPY PUSH0 RETURN INVALID PUSH1 0x80 PUSH1 0x40 MSTORE CALLVALUE DUP1 ISZERO PUSH2 0xF JUMPI PUSH0 PUSH0 REVERT JUMPDEST POP PUSH1 0x4 CALLDATASIZE LT PUSH2 0xA7 JUMPI PUSH0 CALLDATALOAD PUSH1 0xE0 SHR DUP1 PUSH4 0xB58131B0 GT PUSH2 0x6F JUMPI DUP1 PUSH4 0xB58131B0 EQ PUSH2 0x169 JUMPI DUP1 PUSH4 0xD6159FE5 EQ PUSH2 0x187 JUMPI DUP1 PUSH4 0xDA35C664 EQ PUSH2 0x1A5 JUMPI DUP1 PUSH4 0xDA95691A EQ PUSH2 0x1C3 JUMPI DUP1 PUSH4 0xFC0C546A EQ PUSH2 0x1F3 JUMPI DUP1 PUSH4 0xFE0D94C1 EQ PUSH2 0x211 JUMPI PUSH2 0xA7 JUMP JUMPDEST DUP1 PUSH4 0x13CF08B EQ PUSH2 0xAB JUMPI DUP1 PUSH4 0x15373E3D EQ PUSH2 0xE1 JUMPI DUP1 PUSH4 0x24BC1A64 EQ PUSH2 0xFD JUMPI DUP1 PUSH4 0x3E4F49E6 EQ PUSH2 0x11B JUMPI DUP1 PUSH4 0xB1610D7E EQ PUSH2 0x14B JUMPI JUMPDEST PUSH0 PUSH0 REVERT JUMPDEST PUSH2 0xC5 PUSH1 0x4 DUP1 CALLDATASIZE SUB DUP2 ADD SWAP1 PUSH2 0xC0 SWAP2 SWAP1 PUSH2 0xDE2 JUMP JUMPDEST PUSH2 0x22D JUMP JUMPDEST PUSH1 0x40 MLOAD PUSH2 0xD8 SWAP8 SWAP7 SWAP6 SWAP5 SWAP4 SWAP3 SWAP2 SWAP1 PUSH2 0xE75 JUMP JUMPDEST PUSH1 0x40 MLOAD DUP1 SWAP2 SUB SWAP1 RETURN JUMPDEST PUSH2 0xFB PUSH1 0x4 DUP1 CALLDATASIZE SUB DUP2 ADD SWAP1 PUSH2 0xF6 SWAP2 SWAP1 PUSH2 0xF0C JUMP JUMPDEST PUSH2 0x296 JUMP JUMPDEST STOP JUMPDEST PUSH2 0x105 PUSH2 0x563 JUMP JUMPDEST PUSH1 0x40 MLOAD PUSH2 0x112 SWAP2 SWAP1 PUSH2 0xF4A JUMP JUMPDEST PUSH1 0x40 MLOAD DUP1 SWAP2 SUB SWAP1 RETURN JUMPDEST PUSH2 0x135 PUSH1 0x4 DUP1 CALLDATASIZE SUB DUP2 ADD SWAP1 PUSH2 0x130 SWAP2 SWAP1 PUSH2 0xDE2 JUMP JUMPDEST PUSH2 0x569 JUMP JUMPDEST PUSH1 0x40 MLOAD PUSH2 0x142 SWAP2 SWAP1 PUSH2 0xFD6 JUMP JUMPDEST PUSH1 0x40 MLOAD DUP1 SWAP2 SUB SWAP1 RETURN JUMPDEST PUSH2 0x153 PUSH2 0x5FE JUMP JUMPDEST PUSH1 0x40 MLOAD PUSH2 0x160 SWAP2 SWAP1 PUSH2 0xF4A JUMP JUMPDEST PUSH1 0x40 MLOAD DUP1 SWAP2 SUB SWAP1 RETURN JUMPDEST PUSH2 0x171 PUSH2 0x604 JUMP JUMPDEST PUSH1 0x40 MLOAD PUSH2 0x17E SWAP2 SWAP1 PUSH2 0xF4A JUMP JUMPDEST PUSH1 0x40 MLOAD DUP1 SWAP2 SUB SWAP1 RETURN JUMPDEST PUSH2 0x18F PUSH2 0x60A JUMP JUMPDEST PUSH1 0x40 MLOAD PUSH2 0x19C SWAP2 SWAP1 PUSH2 0xF4A JUMP JUMPDEST PUSH1 0x40 MLOAD DUP1 SWAP2 SUB SWAP1 RETURN JUMPDEST PUSH2 0x1AD PUSH2 0x60F JUMP JUMPDEST PUSH1 0x40 MLOAD PUSH2 0x1BA SWAP2 SWAP1 PUSH2 0xF4A JUMP JUMPDEST PUSH1 0x40 MLOAD DUP1 SWAP2 SUB SWAP1 RETURN JUMPDEST PUSH2 0x1DD PUSH1 0x4 DUP1 CALLDATASIZE SUB DUP2 ADD SWAP1 PUSH2 0x1D8 SWAP2 SWAP1 PUSH2 0x1533 JUMP JUMPDEST PUSH2 0x615 JUMP JUMPDEST PUSH1 0x40 MLOAD PUSH2 0x1EA SWAP2 SWAP1 PUSH2 0xF4A JUMP JUMPDEST PUSH1 0x40 MLOAD DUP1 SWAP2 SUB SWAP1 RETURN JUMPDEST PUSH2 0x1FB PUSH2 0x85C JUMP JUMPDEST PUSH1 0x40 MLOAD PUSH2 0x208 SWAP2 SWAP1 PUSH2 0x1691 JUMP JUMPDEST PUSH1 0x40 MLOAD DUP1 SWAP2 SUB SWAP1 RETURN JUMPDEST PUSH2 0x22B PUSH1 0x4 DUP1 CALLDATASIZE SUB DUP2 ADD SWAP1 PUSH2 0x226 SWAP2 SWAP1 PUSH2 0xDE2 JUMP JUMPDEST PUSH2 0x880 JUMP JUMPDEST STOP JUMPDEST PUSH1 0x4 PUSH1 0x20 MSTORE DUP1 PUSH0 MSTORE PUSH1 0x40 PUSH0 KECCAK256 PUSH0 SWAP2 POP SWAP1 POP DUP1 PUSH0 ADD SLOAD SWAP1 DUP1 PUSH1 0x1 ADD PUSH0 SWAP1 SLOAD SWAP1 PUSH2 0x100 EXP SWAP1 DIV PUSH20 0xFFFFFFFFFFFFFFFFFFFFFFFFFFFFFFFFFFFFFFFF AND SWAP1 DUP1 PUSH1 0x6 ADD SLOAD SWAP1 DUP1 PUSH1 0x7 ADD SLOAD SWAP1 DUP1 PUSH1 0x8 ADD SLOAD SWAP1 DUP1 PUSH1 0x9 ADD SLOAD SWAP1 DUP1 PUSH1 0xA ADD PUSH0 SWAP1 SLOAD SWAP1 PUSH2 0x100 EXP SWAP1 DIV PUSH1 0xFF AND SWAP1 POP DUP8 JUMP JUMPDEST PUSH0 PUSH1 0x4 PUSH0 DUP5 DUP2 MSTORE PUSH1 0x20 ADD SWAP1 DUP2 MSTORE PUSH1 0x20 ADD PUSH0 KECCAK256 SWAP1 POP PUSH1 0x1 PUSH1 0x4 DUP2 GT ISZERO PUSH2 0x2BE JUMPI PUSH2 0x2BD PUSH2 0xF63 JUMP JUMPDEST JUMPDEST PUSH2 0x2C7 DUP5 PUSH2 0x569 JUMP JUMPDEST PUSH1 0x4 DUP2 GT ISZERO PUSH2 0x2D9 JUMPI PUSH2 0x2D8 PUSH2 0xF63 JUMP JUMPDEST JUMPDEST EQ PUSH2 0x319 JUMPI PUSH1 0x40 MLOAD PUSH32 0x8C379A000000000000000000000000000000000000000000000000000000000 DUP2 MSTORE PUSH1 0x4 ADD PUSH2 0x310 SWAP1 PUSH2 0x1704 JUMP JUMPDEST PUSH1 0x40 MLOAD DUP1 SWAP2 SUB SWAP1 REVERT JUMPDEST PUSH0 DUP2 PUSH1 0xB ADD PUSH0 CALLER PUSH20 0xFFFFFFFFFFFFFFFFFFFFFFFFFFFFFFFFFFFFFFFF AND PUSH20 0xFFFFFFFFFFFFFFFFFFFFFFFFFFFFFFFFFFFFFFFF AND DUP2 MSTORE PUSH1 0x20 ADD SWAP1 DUP2 MSTORE PUSH1 0x20 ADD PUSH0 KECCAK256 SWAP1 POP DUP1 PUSH0 ADD PUSH0 SWAP1 SLOAD SWAP1 PUSH2 0x100 EXP SWAP1 DIV PUSH1 0xFF AND ISZERO PUSH2 0x3AB JUMPI PUSH1 0x40 MLOAD PUSH32 0x8C379A000000000000000000000000000000000000000000000000000000000 DUP2 MSTORE PUSH1 0x4 ADD PUSH2 0x3A2 SWAP1 PUSH2 0x176C JUMP JUMPDEST PUSH1 0x40 MLOAD DUP1 SWAP2 SUB SWAP1 REVERT JUMPDEST PUSH0 PUSH0 PUSH0 SWAP1 SLOAD SWAP1 PUSH2 0x100 EXP SWAP1 DIV PUSH20 0xFFFFFFFFFFFFFFFFFFFFFFFFFFFFFFFFFFFFFFFF AND PUSH20 0xFFFFFFFFFFFFFFFFFFFFFFFFFFFFFFFFFFFFFFFF AND PUSH4 0x70A08231 CALLER PUSH1 0x40 MLOAD DUP3 PUSH4 0xFFFFFFFF AND PUSH1 0xE0 SHL DUP2 MSTORE PUSH1 0x4 ADD PUSH2 0x405 SWAP2 SWAP1 PUSH2 0x178A JUMP JUMPDEST PUSH1 0x20 PUSH1 0x40 MLOAD DUP1 DUP4 SUB DUP2 DUP7 GAS STATICCALL ISZERO DUP1 ISZERO PUSH2 0x420 JUMPI RETURNDATASIZE PUSH0 PUSH0 RETURNDATACOPY RETURNDATASIZE PUSH0 REVERT JUMPDEST POP POP POP POP PUSH1 0x40 MLOAD RETURNDATASIZE PUSH1 0x1F NOT PUSH1 0x1F DUP3 ADD AND DUP3 ADD DUP1 PUSH1 0x40 MSTORE POP DUP2 ADD SWAP1 PUSH2 0x444 SWAP2 SWAP1 PUSH2 0x17B7 JUMP JUMPDEST SWAP1 POP DUP4 ISZERO PUSH2 0x479 JUMPI DUP1 PUSH12 0xFFFFFFFFFFFFFFFFFFFFFFFF AND DUP4 PUSH1 0x8 ADD PUSH0 DUP3 DUP3 SLOAD PUSH2 0x46D SWAP2 SWAP1 PUSH2 0x180F JUMP JUMPDEST SWAP3 POP POP DUP2 SWAP1 SSTORE POP PUSH2 0x4A2 JUMP JUMPDEST DUP1 PUSH12 0xFFFFFFFFFFFFFFFFFFFFFFFF AND DUP4 PUSH1 0x9 ADD PUSH0 DUP3 DUP3 SLOAD PUSH2 0x49A SWAP2 SWAP1 PUSH2 0x180F JUMP JUMPDEST SWAP3 POP POP DUP2 SWAP1 SSTORE POP JUMPDEST PUSH1 0x1 DUP3 PUSH0 ADD PUSH0 PUSH2 0x100 EXP DUP2 SLOAD DUP2 PUSH1 0xFF MUL NOT AND SWAP1 DUP4 ISZERO ISZERO MUL OR SWAP1 SSTORE POP DUP4 DUP3 PUSH0 ADD PUSH1 0x1 PUSH2 0x100 EXP DUP2 SLOAD DUP2 PUSH1 0xFF MUL NOT AND SWAP1 DUP4 ISZERO ISZERO MUL OR SWAP1 SSTORE POP DUP1 DUP3 PUSH0 ADD PUSH1 0x2 PUSH2 0x100 EXP DUP2 SLOAD DUP2 PUSH12 0xFFFFFFFFFFFFFFFFFFFFFFFF MUL NOT AND SWAP1 DUP4 PUSH12 0xFFFFFFFFFFFFFFFFFFFFFFFF AND MUL OR SWAP1 SSTORE POP CALLER PUSH20 0xFFFFFFFFFFFFFFFFFFFFFFFFFFFFFFFFFFFFFFFF AND PUSH32 0x877856338E13F63D0C36822FF0EF736B80934CD90574A3A5BC9262C39D217C46 DUP7 DUP7 DUP5 PUSH1 0x40 MLOAD PUSH2 0x554 SWAP4 SWAP3 SWAP2 SWAP1 PUSH2 0x1889 JUMP JUMPDEST PUSH1 0x40 MLOAD DUP1 SWAP2 SUB SWAP1 LOG2 POP POP POP POP POP JUMP JUMPDEST PUSH1 0x2 SLOAD DUP2 JUMP JUMPDEST PUSH0 PUSH0 PUSH1 0x4 PUSH0 DUP5 DUP2 MSTORE PUSH1 0x20 ADD SWAP1 DUP2 MSTORE PUSH1 0x20 ADD PUSH0 KECCAK256 SWAP1 POP DUP1 PUSH1 0xA ADD PUSH0 SWAP1 SLOAD SWAP1 PUSH2 0x100 EXP SWAP1 DIV PUSH1 0xFF AND ISZERO PUSH2 0x59E JUMPI PUSH1 0x4 SWAP2 POP POP PUSH2 0x5F9 JUMP JUMPDEST DUP1 PUSH1 0x6 ADD SLOAD NUMBER GT PUSH2 0x5B2 JUMPI PUSH0 SWAP2 POP POP PUSH2 0x5F9 JUMP JUMPDEST DUP1 PUSH1 0x7 ADD SLOAD NUMBER GT PUSH2 0x5C7 JUMPI PUSH1 0x1 SWAP2 POP POP PUSH2 0x5F9 JUMP JUMPDEST DUP1 PUSH1 0x9 ADD SLOAD DUP2 PUSH1 0x8 ADD SLOAD GT DUP1 ISZERO PUSH2 0x5E4 JUMPI POP PUSH1 0x2 SLOAD DUP2 PUSH1 0x8 ADD SLOAD LT ISZERO JUMPDEST ISZERO PUSH2 0x5F3 JUMPI PUSH1 0x2 SWAP2 POP POP PUSH2 0x5F9 JUMP JUMPDEST PUSH1 0x3 SWAP2 POP POP JUMPDEST SWAP2 SWAP1 POP JUMP JUMPDEST PUSH2 0x1680 DUP2 JUMP JUMPDEST PUSH1 0x1 SLOAD DUP2 JUMP JUMPDEST PUSH1 0x1 DUP2 JUMP JUMPDEST PUSH1 0x3 SLOAD DUP2 JUMP JUMPDEST PUSH0 PUSH1 0x1 SLOAD PUSH0 PUSH0 SWAP1 SLOAD SWAP1 PUSH2 0x100 EXP SWAP1 DIV PUSH20 0xFFFFFFFFFFFFFFFFFFFFFFFFFFFFFFFFFFFFFFFF AND PUSH20 0xFFFFFFFFFFFFFFFFFFFFFFFFFFFFFFFFFFFFFFFF AND PUSH4 0x70A08231 CALLER PUSH1 0x40 MLOAD DUP3 PUSH4 0xFFFFFFFF AND PUSH1 0xE0 SHL DUP2 MSTORE PUSH1 0x4 ADD PUSH2 0x672 SWAP2 SWAP1 PUSH2 0x178A JUMP JUMPDEST PUSH1 0x20 PUSH1 0x40 MLOAD DUP1 DUP4 SUB DUP2 DUP7 GAS STATICCALL ISZERO DUP1 ISZERO PUSH2 0x68D JUMPI RETURNDATASIZE PUSH0 PUSH0 RETURNDATACOPY RETURNDATASIZE PUSH0 REVERT JUMPDEST POP POP POP POP PUSH1 0x40 MLOAD RETURNDATASIZE PUSH1 0x1F NOT PUSH1 0x1F DUP3 ADD AND DUP3 ADD DUP1 PUSH1 0x40 MSTORE POP DUP2 ADD SWAP1 PUSH2 0x6B1 SWAP2 SWAP1 PUSH2 0x17B7 JUMP JUMPDEST LT ISZERO PUSH2 0x6F2 JUMPI PUSH1 0x40 MLOAD PUSH32 0x8C379A000000000000000000000000000000000000000000000000000000000 DUP2 MSTORE PUSH1 0x4 ADD PUSH2 0x6E9 SWAP1 PUSH2 0x1908 JUMP JUMPDEST PUSH1 0x40 MLOAD DUP1 SWAP2 SUB SWAP1 REVERT JUMPDEST PUSH0 PUSH1 0x1 NUMBER PUSH2 0x700 SWAP2 SWAP1 PUSH2 0x180F JUMP JUMPDEST SWAP1 POP PUSH0 PUSH2 0x1680 DUP3 PUSH2 0x711 SWAP2 SWAP1 PUSH2 0x180F JUMP JUMPDEST SWAP1 POP PUSH1 0x3 PUSH0 DUP2 SLOAD DUP1 SWAP3 SWAP2 SWAP1 PUSH2 0x725 SWAP1 PUSH2 0x1926 JUMP JUMPDEST SWAP2 SWAP1 POP SSTORE POP PUSH0 PUSH1 0x4 PUSH0 PUSH1 0x3 SLOAD DUP2 MSTORE PUSH1 0x20 ADD SWAP1 DUP2 MSTORE PUSH1 0x20 ADD PUSH0 KECCAK256 SWAP1 POP PUSH1 0x3 SLOAD DUP2 PUSH0 ADD DUP2 SWAP1 SSTORE POP CALLER DUP2 PUSH1 0x1 ADD PUSH0 PUSH2 0x100 EXP DUP2 SLOAD DUP2 PUSH20 0xFFFFFFFFFFFFFFFFFFFFFFFFFFFFFFFFFFFFFFFF MUL NOT AND SWAP1 DUP4 PUSH20 0xFFFFFFFFFFFFFFFFFFFFFFFFFFFFFFFFFFFFFFFF AND MUL OR SWAP1 SSTORE POP DUP9 DUP2 PUSH1 0x2 ADD SWAP1 DUP1 MLOAD SWAP1 PUSH1 0x20 ADD SWAP1 PUSH2 0x7A4 SWAP3 SWAP2 SWAP1 PUSH2 0xB43 JUMP JUMPDEST POP DUP8 DUP2 PUSH1 0x3 ADD SWAP1 DUP1 MLOAD SWAP1 PUSH1 0x20 ADD SWAP1 PUSH2 0x7BD SWAP3 SWAP2 SWAP1 PUSH2 0xBCA JUMP JUMPDEST POP DUP7 DUP2 PUSH1 0x4 ADD SWAP1 DUP1 MLOAD SWAP1 PUSH1 0x20 ADD SWAP1 PUSH2 0x7D6 SWAP3 SWAP2 SWAP1 PUSH2 0xC15 JUMP JUMPDEST POP DUP6 DUP2 PUSH1 0x5 ADD SWAP1 DUP1 MLOAD SWAP1 PUSH1 0x20 ADD SWAP1 PUSH2 0x7EF SWAP3 SWAP2 SWAP1 PUSH2 0xC6C JUMP JUMPDEST POP DUP3 DUP2 PUSH1 0x6 ADD DUP2 SWAP1 SSTORE POP DUP2 DUP2 PUSH1 0x7 ADD DUP2 SWAP1 SSTORE POP PUSH32 0x7D84A6263AE0D98D3329BD7B46BB4E8D6F98CD35A7ADB45C274C8B7FD5EBD5E0 PUSH1 0x3 SLOAD CALLER DUP12 DUP12 DUP12 DUP12 DUP10 DUP10 DUP14 PUSH1 0x40 MLOAD PUSH2 0x843 SWAP10 SWAP9 SWAP8 SWAP7 SWAP6 SWAP5 SWAP4 SWAP3 SWAP2 SWAP1 PUSH2 0x1D3B JUMP JUMPDEST PUSH1 0x40 MLOAD DUP1 SWAP2 SUB SWAP1 LOG1 PUSH1 0x3 SLOAD SWAP4 POP POP POP POP SWAP6 SWAP5 POP POP POP POP POP JUMP JUMPDEST PUSH0 PUSH0 SWAP1 SLOAD SWAP1 PUSH2 0x100 EXP SWAP1 DIV PUSH20 0xFFFFFFFFFFFFFFFFFFFFFFFFFFFFFFFFFFFFFFFF AND DUP2 JUMP JUMPDEST PUSH0 PUSH1 0x4 PUSH0 DUP4 DUP2 MSTORE PUSH1 0x20 ADD SWAP1 DUP2 MSTORE PUSH1 0x20 ADD PUSH0 KECCAK256 SWAP1 POP PUSH1 0x2 PUSH1 0x4 DUP2 GT ISZERO PUSH2 0x8A8 JUMPI PUSH2 0x8A7 PUSH2 0xF63 JUMP JUMPDEST JUMPDEST PUSH2 0x8B1 DUP4 PUSH2 0x569 JUMP JUMPDEST PUSH1 0x4 DUP2 GT ISZERO PUSH2 0x8C3 JUMPI PUSH2 0x8C2 PUSH2 0xF63 JUMP JUMPDEST JUMPDEST EQ PUSH2 0x903 JUMPI PUSH1 0x40 MLOAD PUSH32 0x8C379A000000000000000000000000000000000000000000000000000000000 DUP2 MSTORE PUSH1 0x4 ADD PUSH2 0x8FA SWAP1 PUSH2 0x1E33 JUMP JUMPDEST PUSH1 0x40 MLOAD DUP1 SWAP2 SUB SWAP1 REVERT JUMPDEST DUP1 PUSH1 0xA ADD PUSH0 SWAP1 SLOAD SWAP1 PUSH2 0x100 EXP SWAP1 DIV PUSH1 0xFF AND ISZERO PUSH2 0x954 JUMPI PUSH1 0x40 MLOAD PUSH32 0x8C379A000000000000000000000000000000000000000000000000000000000 DUP2 MSTORE PUSH1 0x4 ADD PUSH2 0x94B SWAP1 PUSH2 0x1E9B JUMP JUMPDEST PUSH1 0x40 MLOAD DUP1 SWAP2 SUB SWAP1 REVERT JUMPDEST PUSH1 0x1 DUP2 PUSH1 0xA ADD PUSH0 PUSH2 0x100 EXP DUP2 SLOAD DUP2 PUSH1 0xFF MUL NOT AND SWAP1 DUP4 ISZERO ISZERO MUL OR SWAP1 SSTORE POP PUSH0 PUSH0 SWAP1 POP JUMPDEST DUP2 PUSH1 0x2 ADD DUP1 SLOAD SWAP1 POP DUP2 LT ISZERO PUSH2 0xB07 JUMPI PUSH0 DUP3 PUSH1 0x2 ADD DUP3 DUP2 SLOAD DUP2 LT PUSH2 0x99B JUMPI PUSH2 0x99A PUSH2 0x1EB9 JUMP JUMPDEST JUMPDEST SWAP1 PUSH0 MSTORE PUSH1 0x20 PUSH0 KECCAK256 ADD PUSH0 SWAP1 SLOAD SWAP1 PUSH2 0x100 EXP SWAP1 DIV PUSH20 0xFFFFFFFFFFFFFFFFFFFFFFFFFFFFFFFFFFFFFFFF AND PUSH20 0xFFFFFFFFFFFFFFFFFFFFFFFFFFFFFFFFFFFFFFFF AND DUP4 PUSH1 0x3 ADD DUP4 DUP2 SLOAD DUP2 LT PUSH2 0x9EF JUMPI PUSH2 0x9EE PUSH2 0x1EB9 JUMP JUMPDEST JUMPDEST SWAP1 PUSH0 MSTORE PUSH1 0x20 PUSH0 KECCAK256 ADD SLOAD DUP5 PUSH1 0x4 ADD DUP5 DUP2 SLOAD DUP2 LT PUSH2 0xA0E JUMPI PUSH2 0xA0D PUSH2 0x1EB9 JUMP JUMPDEST JUMPDEST SWAP1 PUSH0 MSTORE PUSH1 0x20 PUSH0 KECCAK256 ADD PUSH1 0x40 MLOAD PUSH2 0xA23 SWAP2 SWAP1 PUSH2 0x1FDF JUMP JUMPDEST PUSH1 0x40 MLOAD DUP1 SWAP2 SUB SWAP1 KECCAK256 DUP6 PUSH1 0x5 ADD DUP6 DUP2 SLOAD DUP2 LT PUSH2 0xA41 JUMPI PUSH2 0xA40 PUSH2 0x1EB9 JUMP JUMPDEST JUMPDEST SWAP1 PUSH0 MSTORE PUSH1 0x20 PUSH0 KECCAK256 ADD PUSH1 0x40 MLOAD PUSH1 0x20 ADD PUSH2 0xA5A SWAP3 SWAP2 SWAP1 PUSH2 0x20D2 JUMP JUMPDEST PUSH1 0x40 MLOAD PUSH1 0x20 DUP2 DUP4 SUB SUB DUP2 MSTORE SWAP1 PUSH1 0x40 MSTORE PUSH1 0x40 MLOAD PUSH2 0xA76 SWAP2 SWAP1 PUSH2 0x2129 JUMP JUMPDEST PUSH0 PUSH1 0x40 MLOAD DUP1 DUP4 SUB DUP2 DUP6 DUP8 GAS CALL SWAP3 POP POP POP RETURNDATASIZE DUP1 PUSH0 DUP2 EQ PUSH2 0xAB0 JUMPI PUSH1 0x40 MLOAD SWAP2 POP PUSH1 0x1F NOT PUSH1 0x3F RETURNDATASIZE ADD AND DUP3 ADD PUSH1 0x40 MSTORE RETURNDATASIZE DUP3 MSTORE RETURNDATASIZE PUSH0 PUSH1 0x20 DUP5 ADD RETURNDATACOPY PUSH2 0xAB5 JUMP JUMPDEST PUSH1 0x60 SWAP2 POP JUMPDEST POP POP SWAP1 POP DUP1 PUSH2 0xAF9 JUMPI PUSH1 0x40 MLOAD PUSH32 0x8C379A000000000000000000000000000000000000000000000000000000000 DUP2 MSTORE PUSH1 0x4 ADD PUSH2 0xAF0 SWAP1 PUSH2 0x2189 JUMP JUMPDEST PUSH1 0x40 MLOAD DUP1 SWAP2 SUB SWAP1 REVERT JUMPDEST POP DUP1 DUP1 PUSH1 0x1 ADD SWAP2 POP POP PUSH2 0x975 JUMP JUMPDEST POP PUSH32 0x712AE1383F79AC853F8D882153778E0260EF8F03B504E2866E0593E04D2B291F DUP3 PUSH1 0x40 MLOAD PUSH2 0xB37 SWAP2 SWAP1 PUSH2 0xF4A JUMP JUMPDEST PUSH1 0x40 MLOAD DUP1 SWAP2 SUB SWAP1 LOG1 POP POP JUMP JUMPDEST DUP3 DUP1 SLOAD DUP3 DUP3 SSTORE SWAP1 PUSH0 MSTORE PUSH1 0x20 PUSH0 KECCAK256 SWAP1 DUP2 ADD SWAP3 DUP3 ISZERO PUSH2 0xBB9 JUMPI SWAP2 PUSH1 0x20 MUL DUP3 ADD JUMPDEST DUP3 DUP2 GT ISZERO PUSH2 0xBB8 JUMPI DUP3 MLOAD DUP3 PUSH0 PUSH2 0x100 EXP DUP2 SLOAD DUP2 PUSH20 0xFFFFFFFFFFFFFFFFFFFFFFFFFFFFFFFFFFFFFFFF MUL NOT AND SWAP1 DUP4 PUSH20 0xFFFFFFFFFFFFFFFFFFFFFFFFFFFFFFFFFFFFFFFF AND MUL OR SWAP1 SSTORE POP SWAP2 PUSH1 0x20 ADD SWAP2 SWAP1 PUSH1 0x1 ADD SWAP1 PUSH2 0xB61 JUMP JUMPDEST JUMPDEST POP SWAP1 POP PUSH2 0xBC6 SWAP2 SWAP1 PUSH2 0xCC3 JUMP JUMPDEST POP SWAP1 JUMP JUMPDEST DUP3 DUP1 SLOAD DUP3 DUP3 SSTORE SWAP1 PUSH0 MSTORE PUSH1 0x20 PUSH0 KECCAK256 SWAP1 DUP2 ADD SWAP3 DUP3 ISZERO PUSH2 0xC04 JUMPI SWAP2 PUSH1 0x20 MUL DUP3 ADD JUMPDEST DUP3 DUP2 GT ISZERO PUSH2 0xC03 JUMPI DUP3 MLOAD DUP3 SSTORE SWAP2 PUSH1 0x20 ADD SWAP2 SWAP1 PUSH1 0x1 ADD SWAP1 PUSH2 0xBE8 JUMP JUMPDEST JUMPDEST POP SWAP1 POP PUSH2 0xC11 SWAP2 SWAP1 PUSH2 0xCC3 JUMP JUMPDEST POP SWAP1 JUMP JUMPDEST DUP3 DUP1 SLOAD DUP3 DUP3 SSTORE SWAP1 PUSH0 MSTORE PUSH1 0x20 PUSH0 KECCAK256 SWAP1 DUP2 ADD SWAP3 DUP3 ISZERO PUSH2 0xC5B JUMPI SWAP2 PUSH1 0x20 MUL DUP3 ADD JUMPDEST DUP3 DUP2 GT ISZERO PUSH2 0xC5A JUMPI DUP3 MLOAD DUP3 SWAP1 DUP2 PUSH2 0xC4A SWAP2 SWAP1 PUSH2 0x233E JUMP JUMPDEST POP SWAP2 PUSH1 0x20 ADD SWAP2 SWAP1 PUSH1 0x1 ADD SWAP1 PUSH2 0xC33 JUMP JUMPDEST JUMPDEST POP SWAP1 POP PUSH2 0xC68 SWAP2 SWAP1 PUSH2 0xCDE JUMP JUMPDEST POP SWAP1 JUMP JUMPDEST DUP3 DUP1 SLOAD DUP3 DUP3 SSTORE SWAP1 PUSH0 MSTORE PUSH1 0x20 PUSH0 KECCAK256 SWAP1 DUP2 ADD SWAP3 DUP3 ISZERO PUSH2 0xCB2 JUMPI SWAP2 PUSH1 0x20 MUL DUP3 ADD JUMPDEST DUP3 DUP2 GT ISZERO PUSH2 0xCB1 JUMPI DUP3 MLOAD DUP3 SWAP1 DUP2 PUSH2 0xCA1 SWAP2 SWAP1 PUSH2 0x2453 JUMP JUMPDEST POP SWAP2 PUSH1 0x20 ADD SWAP2 SWAP1 PUSH1 0x1 ADD SWAP1 PUSH2 0xC8A JUMP JUMPDEST JUMPDEST POP SWAP1 POP PUSH2 0xCBF SWAP2 SWAP1 PUSH2 0xD01 JUMP JUMPDEST POP SWAP1 JUMP JUMPDEST JUMPDEST DUP1 DUP3 GT ISZERO PUSH2 0xCDA JUMPI PUSH0 DUP2 PUSH0 SWAP1 SSTORE POP PUSH1 0x1 ADD PUSH2 0xCC4 JUMP JUMPDEST POP SWAP1 JUMP JUMPDEST JUMPDEST DUP1 DUP3 GT ISZERO PUSH2 0xCFD JUMPI PUSH0 DUP2 DUP2 PUSH2 0xCF4 SWAP2 SWAP1 PUSH2 0xD24 JUMP JUMPDEST POP PUSH1 0x1 ADD PUSH2 0xCDF JUMP JUMPDEST POP SWAP1 JUMP JUMPDEST JUMPDEST DUP1 DUP3 GT ISZERO PUSH2 0xD20 JUMPI PUSH0 DUP2 DUP2 PUSH2 0xD17 SWAP2 SWAP1 PUSH2 0xD61 JUMP JUMPDEST POP PUSH1 0x1 ADD PUSH2 0xD02 JUMP JUMPDEST POP SWAP1 JUMP JUMPDEST POP DUP1 SLOAD PUSH2 0xD30 SWAP1 PUSH2 0x1F13 JUMP JUMPDEST PUSH0 DUP3 SSTORE DUP1 PUSH1 0x1F LT PUSH2 0xD41 JUMPI POP PUSH2 0xD5E JUMP JUMPDEST PUSH1 0x1F ADD PUSH1 0x20 SWAP1 DIV SWAP1 PUSH0 MSTORE PUSH1 0x20 PUSH0 KECCAK256 SWAP1 DUP2 ADD SWAP1 PUSH2 0xD5D SWAP2 SWAP1 PUSH2 0xCC3 JUMP JUMPDEST JUMPDEST POP JUMP JUMPDEST POP DUP1 SLOAD PUSH2 0xD6D SWAP1 PUSH2 0x1F13 JUMP JUMPDEST PUSH0 DUP3 SSTORE DUP1 PUSH1 0x1F LT PUSH2 0xD7E JUMPI POP PUSH2 0xD9B JUMP JUMPDEST PUSH1 0x1F ADD PUSH1 0x20 SWAP1 DIV SWAP1 PUSH0 MSTORE PUSH1 0x20 PUSH0 KECCAK256 SWAP1 DUP2 ADD SWAP1 PUSH2 0xD9A SWAP2 SWAP1 PUSH2 0xCC3 JUMP JUMPDEST JUMPDEST POP JUMP JUMPDEST PUSH0 PUSH1 0x40 MLOAD SWAP1 POP SWAP1 JUMP JUMPDEST PUSH0 PUSH0 REVERT JUMPDEST PUSH0 PUSH0 REVERT JUMPDEST PUSH0 DUP2 SWAP1 POP SWAP2 SWAP1 POP JUMP JUMPDEST PUSH2 0xDC1 DUP2 PUSH2 0xDAF JUMP JUMPDEST DUP2 EQ PUSH2 0xDCB JUMPI PUSH0 PUSH0 REVERT JUMPDEST POP JUMP JUMPDEST PUSH0 DUP2 CALLDATALOAD SWAP1 POP PUSH2 0xDDC DUP2 PUSH2 0xDB8 JUMP JUMPDEST SWAP3 SWAP2 POP POP JUMP JUMPDEST PUSH0 PUSH1 0x20 DUP3 DUP5 SUB SLT ISZERO PUSH2 0xDF7 JUMPI PUSH2 0xDF6 PUSH2 0xDA7 JUMP JUMPDEST JUMPDEST PUSH0 PUSH2 0xE04 DUP5 DUP3 DUP6 ADD PUSH2 0xDCE JUMP JUMPDEST SWAP2 POP POP SWAP3 SWAP2 POP POP JUMP JUMPDEST PUSH2 0xE16 DUP2 PUSH2 0xDAF JUMP JUMPDEST DUP3 MSTORE POP POP JUMP JUMPDEST PUSH0 PUSH20 0xFFFFFFFFFFFFFFFFFFFFFFFFFFFFFFFFFFFFFFFF DUP3 AND SWAP1 POP SWAP2 SWAP1 POP JUMP JUMPDEST PUSH0 PUSH2 0xE45 DUP3 PUSH2 0xE1C JUMP JUMPDEST SWAP1 POP SWAP2 SWAP1 POP JUMP JUMPDEST PUSH2 0xE55 DUP2 PUSH2 0xE3B JUMP JUMPDEST DUP3 MSTORE POP POP JUMP JUMPDEST PUSH0 DUP2 ISZERO ISZERO SWAP1 POP SWAP2 SWAP1 POP JUMP JUMPDEST PUSH2 0xE6F DUP2 PUSH2 0xE5B JUMP JUMPDEST DUP3 MSTORE POP POP JUMP JUMPDEST PUSH0 PUSH1 0xE0 DUP3 ADD SWAP1 POP PUSH2 0xE88 PUSH0 DUP4 ADD DUP11 PUSH2 0xE0D JUMP JUMPDEST PUSH2 0xE95 PUSH1 0x20 DUP4 ADD DUP10 PUSH2 0xE4C JUMP JUMPDEST PUSH2 0xEA2 PUSH1 0x40 DUP4 ADD DUP9 PUSH2 0xE0D JUMP JUMPDEST PUSH2 0xEAF PUSH1 0x60 DUP4 ADD DUP8 PUSH2 0xE0D JUMP JUMPDEST PUSH2 0xEBC PUSH1 0x80 DUP4 ADD DUP7 PUSH2 0xE0D JUMP JUMPDEST PUSH2 0xEC9 PUSH1 0xA0 DUP4 ADD DUP6 PUSH2 0xE0D JUMP JUMPDEST PUSH2 0xED6 PUSH1 0xC0 DUP4 ADD DUP5 PUSH2 0xE66 JUMP JUMPDEST SWAP9 SWAP8 POP POP POP POP POP POP POP POP JUMP JUMPDEST PUSH2 0xEEB DUP2 PUSH2 0xE5B JUMP JUMPDEST DUP2 EQ PUSH2 0xEF5 JUMPI PUSH0 PUSH0 REVERT JUMPDEST POP JUMP JUMPDEST PUSH0 DUP2 CALLDATALOAD SWAP1 POP PUSH2 0xF06 DUP2 PUSH2 0xEE2 JUMP JUMPDEST SWAP3 SWAP2 POP POP JUMP JUMPDEST PUSH0 PUSH0 PUSH1 0x40 DUP4 DUP6 SUB SLT ISZERO PUSH2 0xF22 JUMPI PUSH2 0xF21 PUSH2 0xDA7 JUMP JUMPDEST JUMPDEST PUSH0 PUSH2 0xF2F DUP6 DUP3 DUP7 ADD PUSH2 0xDCE JUMP JUMPDEST SWAP3 POP POP PUSH1 0x20 PUSH2 0xF40 DUP6 DUP3 DUP7 ADD PUSH2 0xEF8 JUMP JUMPDEST SWAP2 POP POP SWAP3 POP SWAP3 SWAP1 POP JUMP JUMPDEST PUSH0 PUSH1 0x20 DUP3 ADD SWAP1 POP PUSH2 0xF5D PUSH0 DUP4 ADD DUP5 PUSH2 0xE0D JUMP JUMPDEST SWAP3 SWAP2 POP POP JUMP JUMPDEST PUSH32 0x4E487B7100000000000000000000000000000000000000000000000000000000 PUSH0 MSTORE PUSH1 0x21 PUSH1 0x4 MSTORE PUSH1 0x24 PUSH0 REVERT JUMPDEST PUSH1 0x5 DUP2 LT PUSH2 0xFA1 JUMPI PUSH2 0xFA0 PUSH2 0xF63 JUMP JUMPDEST JUMPDEST POP JUMP JUMPDEST PUSH0 DUP2 SWAP1 POP PUSH2 0xFB1 DUP3 PUSH2 0xF90 JUMP JUMPDEST SWAP2 SWAP1 POP JUMP JUMPDEST PUSH0 PUSH2 0xFC0 DUP3 PUSH2 0xFA4 JUMP JUMPDEST SWAP1 POP SWAP2 SWAP1 POP JUMP JUMPDEST PUSH2 0xFD0 DUP2 PUSH2 0xFB6 JUMP JUMPDEST DUP3 MSTORE POP POP JUMP JUMPDEST PUSH0 PUSH1 0x20 DUP3 ADD SWAP1 POP PUSH2 0xFE9 PUSH0 DUP4 ADD DUP5 PUSH2 0xFC7 JUMP JUMPDEST SWAP3 SWAP2 POP POP JUMP JUMPDEST PUSH0 PUSH0 REVERT JUMPDEST PUSH0 PUSH1 0x1F NOT PUSH1 0x1F DUP4 ADD AND SWAP1 POP SWAP2 SWAP1 POP JUMP JUMPDEST PUSH32 0x4E487B7100000000000000000000000000000000000000000000000000000000 PUSH0 MSTORE PUSH1 0x41 PUSH1 0x4 MSTORE PUSH1 0x24 PUSH0 REVERT JUMPDEST PUSH2 0x1039 DUP3 PUSH2 0xFF3 JUMP JUMPDEST DUP2 ADD DUP2 DUP2 LT PUSH8 0xFFFFFFFFFFFFFFFF DUP3 GT OR ISZERO PUSH2 0x1058 JUMPI PUSH2 0x1057 PUSH2 0x1003 JUMP JUMPDEST JUMPDEST DUP1 PUSH1 0x40 MSTORE POP POP POP JUMP JUMPDEST PUSH0 PUSH2 0x106A PUSH2 0xD9E JUMP JUMPDEST SWAP1 POP PUSH2 0x1076 DUP3 DUP3 PUSH2 0x1030 JUMP JUMPDEST SWAP2 SWAP1 POP JUMP JUMPDEST PUSH0 PUSH8 0xFFFFFFFFFFFFFFFF DUP3 GT ISZERO PUSH2 0x1095 JUMPI PUSH2 0x1094 PUSH2 0x1003 JUMP JUMPDEST JUMPDEST PUSH1 0x20 DUP3 MUL SWAP1 POP PUSH1 0x20 DUP2 ADD SWAP1 POP SWAP2 SWAP1 POP JUMP JUMPDEST PUSH0 PUSH0 REVERT JUMPDEST PUSH2 0x10B3 DUP2 PUSH2 0xE3B JUMP JUMPDEST DUP2 EQ PUSH2 0x10BD JUMPI PUSH0 PUSH0 REVERT JUMPDEST POP JUMP JUMPDEST PUSH0 DUP2 CALLDATALOAD SWAP1 POP PUSH2 0x10CE DUP2 PUSH2 0x10AA JUMP JUMPDEST SWAP3 SWAP2 POP POP JUMP JUMPDEST PUSH0 PUSH2 0x10E6 PUSH2 0x10E1 DUP5 PUSH2 0x107B JUMP JUMPDEST PUSH2 0x1061 JUMP JUMPDEST SWAP1 POP DUP1 DUP4 DUP3 MSTORE PUSH1 0x20 DUP3 ADD SWAP1 POP PUSH1 0x20 DUP5 MUL DUP4 ADD DUP6 DUP2 GT ISZERO PUSH2 0x1109 JUMPI PUSH2 0x1108 PUSH2 0x10A6 JUMP JUMPDEST JUMPDEST DUP4 JUMPDEST DUP2 DUP2 LT ISZERO PUSH2 0x1132 JUMPI DUP1 PUSH2 0x111E DUP9 DUP3 PUSH2 0x10C0 JUMP JUMPDEST DUP5 MSTORE PUSH1 0x20 DUP5 ADD SWAP4 POP POP PUSH1 0x20 DUP2 ADD SWAP1 POP PUSH2 0x110B JUMP JUMPDEST POP POP POP SWAP4 SWAP3 POP POP POP JUMP JUMPDEST PUSH0 DUP3 PUSH1 0x1F DUP4 ADD SLT PUSH2 0x1150 JUMPI PUSH2 0x114F PUSH2 0xFEF JUMP JUMPDEST JUMPDEST DUP2 CALLDATALOAD PUSH2 0x1160 DUP5 DUP3 PUSH1 0x20 DUP7 ADD PUSH2 0x10D4 JUMP JUMPDEST SWAP2 POP POP SWAP3 SWAP2 POP POP JUMP JUMPDEST PUSH0 PUSH8 0xFFFFFFFFFFFFFFFF DUP3 GT ISZERO PUSH2 0x1183 JUMPI PUSH2 0x1182 PUSH2 0x1003 JUMP JUMPDEST JUMPDEST PUSH1 0x20 DUP3 MUL SWAP1 POP PUSH1 0x20 DUP2 ADD SWAP1 POP SWAP2 SWAP1 POP JUMP JUMPDEST PUSH0 PUSH2 0x11A6 PUSH2 0x11A1 DUP5 PUSH2 0x1169 JUMP JUMPDEST PUSH2 0x1061 JUMP JUMPDEST SWAP1 POP DUP1 DUP4 DUP3 MSTORE PUSH1 0x20 DUP3 ADD SWAP1 POP PUSH1 0x20 DUP5 MUL DUP4 ADD DUP6 DUP2 GT ISZERO PUSH2 0x11C9 JUMPI PUSH2 0x11C8 PUSH2 0x10A6 JUMP JUMPDEST JUMPDEST DUP4 JUMPDEST DUP2 DUP2 LT ISZERO PUSH2 0x11F2 JUMPI DUP1 PUSH2 0x11DE DUP9 DUP3 PUSH2 0xDCE JUMP JUMPDEST DUP5 MSTORE PUSH1 0x20 DUP5 ADD SWAP4 POP POP PUSH1 0x20 DUP2 ADD SWAP1 POP PUSH2 0x11CB JUMP JUMPDEST POP POP POP SWAP4 SWAP3 POP POP POP JUMP JUMPDEST PUSH0 DUP3 PUSH1 0x1F DUP4 ADD SLT PUSH2 0x1210 JUMPI PUSH2 0x120F PUSH2 0xFEF JUMP JUMPDEST JUMPDEST DUP2 CALLDATALOAD PUSH2 0x1220 DUP5 DUP3 PUSH1 0x20 DUP7 ADD PUSH2 0x1194 JUMP JUMPDEST SWAP2 POP POP SWAP3 SWAP2 POP POP JUMP JUMPDEST PUSH0 PUSH8 0xFFFFFFFFFFFFFFFF DUP3 GT ISZERO PUSH2 0x1243 JUMPI PUSH2 0x1242 PUSH2 0x1003 JUMP JUMPDEST JUMPDEST PUSH1 0x20 DUP3 MUL SWAP1 POP PUSH1 0x20 DUP2 ADD SWAP1 POP SWAP2 SWAP1 POP JUMP JUMPDEST PUSH0 PUSH0 REVERT JUMPDEST PUSH0 PUSH8 0xFFFFFFFFFFFFFFFF DUP3 GT ISZERO PUSH2 0x1272 JUMPI PUSH2 0x1271 PUSH2 0x1003 JUMP JUMPDEST JUMPDEST PUSH2 0x127B DUP3 PUSH2 0xFF3 JUMP JUMPDEST SWAP1 POP PUSH1 0x20 DUP2 ADD SWAP1 POP SWAP2 SWAP1 POP JUMP JUMPDEST DUP3 DUP2 DUP4 CALLDATACOPY PUSH0 DUP4 DUP4 ADD MSTORE POP POP POP JUMP JUMPDEST PUSH0 PUSH2 0x12A8 PUSH2 0x12A3 DUP5 PUSH2 0x1258 JUMP JUMPDEST PUSH2 0x1061 JUMP JUMPDEST SWAP1 POP DUP3 DUP2 MSTORE PUSH1 0x20 DUP2 ADD DUP5 DUP5 DUP5 ADD GT ISZERO PUSH2 0x12C4 JUMPI PUSH2 0x12C3 PUSH2 0x1254 JUMP JUMPDEST JUMPDEST PUSH2 0x12CF DUP5 DUP3 DUP6 PUSH2 0x1288 JUMP JUMPDEST POP SWAP4 SWAP3 POP POP POP JUMP JUMPDEST PUSH0 DUP3 PUSH1 0x1F DUP4 ADD SLT PUSH2 0x12EB JUMPI PUSH2 0x12EA PUSH2 0xFEF JUMP JUMPDEST JUMPDEST DUP2 CALLDATALOAD PUSH2 0x12FB DUP5 DUP3 PUSH1 0x20 DUP7 ADD PUSH2 0x1296 JUMP JUMPDEST SWAP2 POP POP SWAP3 SWAP2 POP POP JUMP JUMPDEST PUSH0 PUSH2 0x1316 PUSH2 0x1311 DUP5 PUSH2 0x1229 JUMP JUMPDEST PUSH2 0x1061 JUMP JUMPDEST SWAP1 POP DUP1 DUP4 DUP3 MSTORE PUSH1 0x20 DUP3 ADD SWAP1 POP PUSH1 0x20 DUP5 MUL DUP4 ADD DUP6 DUP2 GT ISZERO PUSH2 0x1339 JUMPI PUSH2 0x1338 PUSH2 0x10A6 JUMP JUMPDEST JUMPDEST DUP4 JUMPDEST DUP2 DUP2 LT ISZERO PUSH2 0x1380 JUMPI DUP1 CALLDATALOAD PUSH8 0xFFFFFFFFFFFFFFFF DUP2 GT ISZERO PUSH2 0x135E JUMPI PUSH2 0x135D PUSH2 0xFEF JUMP JUMPDEST JUMPDEST DUP1 DUP7 ADD PUSH2 0x136B DUP10 DUP3 PUSH2 0x12D7 JUMP JUMPDEST DUP6 MSTORE PUSH1 0x20 DUP6 ADD SWAP5 POP POP POP PUSH1 0x20 DUP2 ADD SWAP1 POP PUSH2 0x133B JUMP JUMPDEST POP POP POP SWAP4 SWAP3 POP POP POP JUMP JUMPDEST PUSH0 DUP3 PUSH1 0x1F DUP4 ADD SLT PUSH2 0x139E JUMPI PUSH2 0x139D PUSH2 0xFEF JUMP JUMPDEST JUMPDEST DUP2 CALLDATALOAD PUSH2 0x13AE DUP5 DUP3 PUSH1 0x20 DUP7 ADD PUSH2 0x1304 JUMP JUMPDEST SWAP2 POP POP SWAP3 SWAP2 POP POP JUMP JUMPDEST PUSH0 PUSH8 0xFFFFFFFFFFFFFFFF DUP3 GT ISZERO PUSH2 0x13D1 JUMPI PUSH2 0x13D0 PUSH2 0x1003 JUMP JUMPDEST JUMPDEST PUSH1 0x20 DUP3 MUL SWAP1 POP PUSH1 0x20 DUP2 ADD SWAP1 POP SWAP2 SWAP1 POP JUMP JUMPDEST PUSH0 PUSH8 0xFFFFFFFFFFFFFFFF DUP3 GT ISZERO PUSH2 0x13FC JUMPI PUSH2 0x13FB PUSH2 0x1003 JUMP JUMPDEST JUMPDEST PUSH2 0x1405 DUP3 PUSH2 0xFF3 JUMP JUMPDEST SWAP1 POP PUSH1 0x20 DUP2 ADD SWAP1 POP SWAP2 SWAP1 POP JUMP JUMPDEST PUSH0 PUSH2 0x1424 PUSH2 0x141F DUP5 PUSH2 0x13E2 JUMP JUMPDEST PUSH2 0x1061 JUMP JUMPDEST SWAP1 POP DUP3 DUP2 MSTORE PUSH1 0x20 DUP2 ADD DUP5 DUP5 DUP5 ADD GT ISZERO PUSH2 0x1440 JUMPI PUSH2 0x143F PUSH2 0x1254 JUMP JUMPDEST JUMPDEST PUSH2 0x144B DUP5 DUP3 DUP6 PUSH2 0x1288 JUMP JUMPDEST POP SWAP4 SWAP3 POP POP POP JUMP JUMPDEST PUSH0 DUP3 PUSH1 0x1F DUP4 ADD SLT PUSH2 0x1467 JUMPI PUSH2 0x1466 PUSH2 0xFEF JUMP JUMPDEST JUMPDEST DUP2 CALLDATALOAD PUSH2 0x1477 DUP5 DUP3 PUSH1 0x20 DUP7 ADD PUSH2 0x1412 JUMP JUMPDEST SWAP2 POP POP SWAP3 SWAP2 POP POP JUMP JUMPDEST PUSH0 PUSH2 0x1492 PUSH2 0x148D DUP5 PUSH2 0x13B7 JUMP JUMPDEST PUSH2 0x1061 JUMP JUMPDEST SWAP1 POP DUP1 DUP4 DUP3 MSTORE PUSH1 0x20 DUP3 ADD SWAP1 POP PUSH1 0x20 DUP5 MUL DUP4 ADD DUP6 DUP2 GT ISZERO PUSH2 0x14B5 JUMPI PUSH2 0x14B4 PUSH2 0x10A6 JUMP JUMPDEST JUMPDEST DUP4 JUMPDEST DUP2 DUP2 LT ISZERO PUSH2 0x14FC JUMPI DUP1 CALLDATALOAD PUSH8 0xFFFFFFFFFFFFFFFF DUP2 GT ISZERO PUSH2 0x14DA JUMPI PUSH2 0x14D9 PUSH2 0xFEF JUMP JUMPDEST JUMPDEST DUP1 DUP7 ADD PUSH2 0x14E7 DUP10 DUP3 PUSH2 0x1453 JUMP JUMPDEST DUP6 MSTORE PUSH1 0x20 DUP6 ADD SWAP5 POP POP POP PUSH1 0x20 DUP2 ADD SWAP1 POP PUSH2 0x14B7 JUMP JUMPDEST POP POP POP SWAP4 SWAP3 POP POP POP JUMP JUMPDEST PUSH0 DUP3 PUSH1 0x1F DUP4 ADD SLT PUSH2 0x151A JUMPI PUSH2 0x1519 PUSH2 0xFEF JUMP JUMPDEST JUMPDEST DUP2 CALLDATALOAD PUSH2 0x152A DUP5 DUP3 PUSH1 0x20 DUP7 ADD PUSH2 0x1480 JUMP JUMPDEST SWAP2 POP POP SWAP3 SWAP2 POP POP JUMP JUMPDEST PUSH0 PUSH0 PUSH0 PUSH0 PUSH0 PUSH1 0xA0 DUP7 DUP9 SUB SLT ISZERO PUSH2 0x154C JUMPI PUSH2 0x154B PUSH2 0xDA7 JUMP JUMPDEST JUMPDEST PUSH0 DUP7 ADD CALLDATALOAD PUSH8 0xFFFFFFFFFFFFFFFF DUP2 GT ISZERO PUSH2 0x1569 JUMPI PUSH2 0x1568 PUSH2 0xDAB JUMP JUMPDEST JUMPDEST PUSH2 0x1575 DUP9 DUP3 DUP10 ADD PUSH2 0x113C JUMP JUMPDEST SWAP6 POP POP PUSH1 0x20 DUP7 ADD CALLDATALOAD PUSH8 0xFFFFFFFFFFFFFFFF DUP2 GT ISZERO PUSH2 0x1596 JUMPI PUSH2 0x1595 PUSH2 0xDAB JUMP JUMPDEST JUMPDEST PUSH2 0x15A2 DUP9 DUP3 DUP10 ADD PUSH2 0x11FC JUMP JUMPDEST SWAP5 POP POP PUSH1 0x40 DUP7 ADD CALLDATALOAD PUSH8 0xFFFFFFFFFFFFFFFF DUP2 GT ISZERO PUSH2 0x15C3 JUMPI PUSH2 0x15C2 PUSH2 0xDAB JUMP JUMPDEST JUMPDEST PUSH2 0x15CF DUP9 DUP3 DUP10 ADD PUSH2 0x138A JUMP JUMPDEST SWAP4 POP POP PUSH1 0x60 DUP7 ADD CALLDATALOAD PUSH8 0xFFFFFFFFFFFFFFFF DUP2 GT ISZERO PUSH2 0x15F0 JUMPI PUSH2 0x15EF PUSH2 0xDAB JUMP JUMPDEST JUMPDEST PUSH2 0x15FC DUP9 DUP3 DUP10 ADD PUSH2 0x1506 JUMP JUMPDEST SWAP3 POP POP PUSH1 0x80 DUP7 ADD CALLDATALOAD PUSH8 0xFFFFFFFFFFFFFFFF DUP2 GT ISZERO PUSH2 0x161D JUMPI PUSH2 0x161C PUSH2 0xDAB JUMP JUMPDEST JUMPDEST PUSH2 0x1629 DUP9 DUP3 DUP10 ADD PUSH2 0x12D7 JUMP JUMPDEST SWAP2 POP POP SWAP3 SWAP6 POP SWAP3 SWAP6 SWAP1 SWAP4 POP JUMP JUMPDEST PUSH0 DUP2 SWAP1 POP SWAP2 SWAP1 POP JUMP JUMPDEST PUSH0 PUSH2 0x1659 PUSH2 0x1654 PUSH2 0x164F DUP5 PUSH2 0xE1C JUMP JUMPDEST PUSH2 0x1636 JUMP JUMPDEST PUSH2 0xE1C JUMP JUMPDEST SWAP1 POP SWAP2 SWAP1 POP JUMP JUMPDEST PUSH0 PUSH2 0x166A DUP3 PUSH2 0x163F JUMP JUMPDEST SWAP1 POP SWAP2 SWAP1 POP JUMP JUMPDEST PUSH0 PUSH2 0x167B DUP3 PUSH2 0x1660 JUMP JUMPDEST SWAP1 POP SWAP2 SWAP1 POP JUMP JUMPDEST PUSH2 0x168B DUP2 PUSH2 0x1671 JUMP JUMPDEST DUP3 MSTORE POP POP JUMP JUMPDEST PUSH0 PUSH1 0x20 DUP3 ADD SWAP1 POP PUSH2 0x16A4 PUSH0 DUP4 ADD DUP5 PUSH2 0x1682 JUMP JUMPDEST SWAP3 SWAP2 POP POP JUMP JUMPDEST PUSH0 DUP3 DUP3 MSTORE PUSH1 0x20 DUP3 ADD SWAP1 POP SWAP3 SWAP2 POP POP JUMP JUMPDEST PUSH32 0x566F74696E67206973206E6F7420616374697665000000000000000000000000 PUSH0 DUP3 ADD MSTORE POP JUMP JUMPDEST PUSH0 PUSH2 0x16EE PUSH1 0x14 DUP4 PUSH2 0x16AA JUMP JUMPDEST SWAP2 POP PUSH2 0x16F9 DUP3 PUSH2 0x16BA JUMP JUMPDEST PUSH1 0x20 DUP3 ADD SWAP1 POP SWAP2 SWAP1 POP JUMP JUMPDEST PUSH0 PUSH1 0x20 DUP3 ADD SWAP1 POP DUP2 DUP2 SUB PUSH0 DUP4 ADD MSTORE PUSH2 0x171B DUP2 PUSH2 0x16E2 JUMP JUMPDEST SWAP1 POP SWAP2 SWAP1 POP JUMP JUMPDEST PUSH32 0x566F74657220616C726561647920766F74656400000000000000000000000000 PUSH0 DUP3 ADD MSTORE POP JUMP JUMPDEST PUSH0 PUSH2 0x1756 PUSH1 0x13 DUP4 PUSH2 0x16AA JUMP JUMPDEST SWAP2 POP PUSH2 0x1761 DUP3 PUSH2 0x1722 JUMP JUMPDEST PUSH1 0x20 DUP3 ADD SWAP1 POP SWAP2 SWAP1 POP JUMP JUMPDEST PUSH0 PUSH1 0x20 DUP3 ADD SWAP1 POP DUP2 DUP2 SUB PUSH0 DUP4 ADD MSTORE PUSH2 0x1783 DUP2 PUSH2 0x174A JUMP JUMPDEST SWAP1 POP SWAP2 SWAP1 POP JUMP JUMPDEST PUSH0 PUSH1 0x20 DUP3 ADD SWAP1 POP PUSH2 0x179D PUSH0 DUP4 ADD DUP5 PUSH2 0xE4C JUMP JUMPDEST SWAP3 SWAP2 POP POP JUMP JUMPDEST PUSH0 DUP2 MLOAD SWAP1 POP PUSH2 0x17B1 DUP2 PUSH2 0xDB8 JUMP JUMPDEST SWAP3 SWAP2 POP POP JUMP JUMPDEST PUSH0 PUSH1 0x20 DUP3 DUP5 SUB SLT ISZERO PUSH2 0x17CC JUMPI PUSH2 0x17CB PUSH2 0xDA7 JUMP JUMPDEST JUMPDEST PUSH0 PUSH2 0x17D9 DUP5 DUP3 DUP6 ADD PUSH2 0x17A3 JUMP JUMPDEST SWAP2 POP POP SWAP3 SWAP2 POP POP JUMP JUMPDEST PUSH32 0x4E487B7100000000000000000000000000000000000000000000000000000000 PUSH0 MSTORE PUSH1 0x11 PUSH1 0x4 MSTORE PUSH1 0x24 PUSH0 REVERT JUMPDEST PUSH0 PUSH2 0x1819 DUP3 PUSH2 0xDAF JUMP JUMPDEST SWAP2 POP PUSH2 0x1824 DUP4 PUSH2 0xDAF JUMP JUMPDEST SWAP3 POP DUP3 DUP3 ADD SWAP1 POP DUP1 DUP3 GT ISZERO PUSH2 0x183C JUMPI PUSH2 0x183B PUSH2 0x17E2 JUMP JUMPDEST JUMPDEST SWAP3 SWAP2 POP POP JUMP JUMPDEST PUSH0 PUSH12 0xFFFFFFFFFFFFFFFFFFFFFFFF DUP3 AND SWAP1 POP SWAP2 SWAP1 POP JUMP JUMPDEST PUSH0 PUSH2 0x1873 PUSH2 0x186E PUSH2 0x1869 DUP5 PUSH2 0x1842 JUMP JUMPDEST PUSH2 0x1636 JUMP JUMPDEST PUSH2 0xDAF JUMP JUMPDEST SWAP1 POP SWAP2 SWAP1 POP JUMP JUMPDEST PUSH2 0x1883 DUP2 PUSH2 0x1859 JUMP JUMPDEST DUP3 MSTORE POP POP JUMP JUMPDEST PUSH0 PUSH1 0x60 DUP3 ADD SWAP1 POP PUSH2 0x189C PUSH0 DUP4 ADD DUP7 PUSH2 0xE0D JUMP JUMPDEST PUSH2 0x18A9 PUSH1 0x20 DUP4 ADD DUP6 PUSH2 0xE66 JUMP JUMPDEST PUSH2 0x18B6 PUSH1 0x40 DUP4 ADD DUP5 PUSH2 0x187A JUMP JUMPDEST SWAP5 SWAP4 POP POP POP POP JUMP JUMPDEST PUSH32 0x50726F706F73657220766F7465732062656C6F77207468726573686F6C640000 PUSH0 DUP3 ADD MSTORE POP JUMP JUMPDEST PUSH0 PUSH2 0x18F2 PUSH1 0x1E DUP4 PUSH2 0x16AA JUMP JUMPDEST SWAP2 POP PUSH2 0x18FD DUP3 PUSH2 0x18BE JUMP JUMPDEST PUSH1 0x20 DUP3 ADD SWAP1 POP SWAP2 SWAP1 POP JUMP JUMPDEST PUSH0 PUSH1 0x20 DUP3 ADD SWAP1 POP DUP2 DUP2 SUB PUSH0 DUP4 ADD MSTORE PUSH2 0x191F DUP2 PUSH2 0x18E6 JUMP JUMPDEST SWAP1 POP SWAP2 SWAP1 POP JUMP JUMPDEST PUSH0 PUSH2 0x1930 DUP3 PUSH2 0xDAF JUMP JUMPDEST SWAP2 POP PUSH32 0xFFFFFFFFFFFFFFFFFFFFFFFFFFFFFFFFFFFFFFFFFFFFFFFFFFFFFFFFFFFFFFFF DUP3 SUB PUSH2 0x1962 JUMPI PUSH2 0x1961 PUSH2 0x17E2 JUMP JUMPDEST JUMPDEST PUSH1 0x1 DUP3 ADD SWAP1 POP SWAP2 SWAP1 POP JUMP JUMPDEST PUSH0 DUP2 MLOAD SWAP1 POP SWAP2 SWAP1 POP JUMP JUMPDEST PUSH0 DUP3 DUP3 MSTORE PUSH1 0x20 DUP3 ADD SWAP1 POP SWAP3 SWAP2 POP POP JUMP JUMPDEST PUSH0 DUP2 SWAP1 POP PUSH1 0x20 DUP3 ADD SWAP1 POP SWAP2 SWAP1 POP JUMP JUMPDEST PUSH2 0x199F DUP2 PUSH2 0xE3B JUMP JUMPDEST DUP3 MSTORE POP POP JUMP JUMPDEST PUSH0 PUSH2 0x19B0 DUP4 DUP4 PUSH2 0x1996 JUMP JUMPDEST PUSH1 0x20 DUP4 ADD SWAP1 POP SWAP3 SWAP2 POP POP JUMP JUMPDEST PUSH0 PUSH1 0x20 DUP3 ADD SWAP1 POP SWAP2 SWAP1 POP JUMP JUMPDEST PUSH0 PUSH2 0x19D2 DUP3 PUSH2 0x196D JUMP JUMPDEST PUSH2 0x19DC DUP2 DUP6 PUSH2 0x1977 JUMP JUMPDEST SWAP4 POP PUSH2 0x19E7 DUP4 PUSH2 0x1987 JUMP JUMPDEST DUP1 PUSH0 JUMPDEST DUP4 DUP2 LT ISZERO PUSH2 0x1A17 JUMPI DUP2 MLOAD PUSH2 0x19FE DUP9 DUP3 PUSH2 0x19A5 JUMP JUMPDEST SWAP8 POP PUSH2 0x1A09 DUP4 PUSH2 0x19BC JUMP JUMPDEST SWAP3 POP POP PUSH1 0x1 DUP2 ADD SWAP1 POP PUSH2 0x19EA JUMP JUMPDEST POP DUP6 SWAP4 POP POP POP POP SWAP3 SWAP2 POP POP JUMP JUMPDEST PUSH0 DUP2 MLOAD SWAP1 POP SWAP2 SWAP1 POP JUMP JUMPDEST PUSH0 DUP3 DUP3 MSTORE PUSH1 0x20 DUP3 ADD SWAP1 POP SWAP3 SWAP2 POP POP JUMP JUMPDEST PUSH0 DUP2 SWAP1 POP PUSH1 0x20 DUP3 ADD SWAP1 POP SWAP2 SWAP1 POP JUMP JUMPDEST PUSH2 0x1A56 DUP2 PUSH2 0xDAF JUMP JUMPDEST DUP3 MSTORE POP POP JUMP JUMPDEST PUSH0 PUSH2 0x1A67 DUP4 DUP4 PUSH2 0x1A4D JUMP JUMPDEST PUSH1 0x20 DUP4 ADD SWAP1 POP SWAP3 SWAP2 POP POP JUMP JUMPDEST PUSH0 PUSH1 0x20 DUP3 ADD SWAP1 POP SWAP2 SWAP1 POP JUMP JUMPDEST PUSH0 PUSH2 0x1A89 DUP3 PUSH2 0x1A24 JUMP JUMPDEST PUSH2 0x1A93 DUP2 DUP6 PUSH2 0x1A2E JUMP JUMPDEST SWAP4 POP PUSH2 0x1A9E DUP4 PUSH2 0x1A3E JUMP JUMPDEST DUP1 PUSH0 JUMPDEST DUP4 DUP2 LT ISZERO PUSH2 0x1ACE JUMPI DUP2 MLOAD PUSH2 0x1AB5 DUP9 DUP3 PUSH2 0x1A5C JUMP JUMPDEST SWAP8 POP PUSH2 0x1AC0 DUP4 PUSH2 0x1A73 JUMP JUMPDEST SWAP3 POP POP PUSH1 0x1 DUP2 ADD SWAP1 POP PUSH2 0x1AA1 JUMP JUMPDEST POP DUP6 SWAP4 POP POP POP POP SWAP3 SWAP2 POP POP JUMP JUMPDEST PUSH0 DUP2 MLOAD SWAP1 POP SWAP2 SWAP1 POP JUMP JUMPDEST PUSH0 DUP3 DUP3 MSTORE PUSH1 0x20 DUP3 ADD SWAP1 POP SWAP3 SWAP2 POP POP JUMP JUMPDEST PUSH0 DUP2 SWAP1 POP PUSH1 0x20 DUP3 ADD SWAP1 POP SWAP2 SWAP1 POP JUMP JUMPDEST PUSH0 DUP2 MLOAD SWAP1 POP SWAP2 SWAP1 POP JUMP JUMPDEST PUSH0 DUP3 DUP3 MSTORE PUSH1 0x20 DUP3 ADD SWAP1 POP SWAP3 SWAP2 POP POP JUMP JUMPDEST DUP3 DUP2 DUP4 MCOPY PUSH0 DUP4 DUP4 ADD MSTORE POP POP POP JUMP JUMPDEST PUSH0 PUSH2 0x1B36 DUP3 PUSH2 0x1B04 JUMP JUMPDEST PUSH2 0x1B40 DUP2 DUP6 PUSH2 0x1B0E JUMP JUMPDEST SWAP4 POP PUSH2 0x1B50 DUP2 DUP6 PUSH1 0x20 DUP7 ADD PUSH2 0x1B1E JUMP JUMPDEST PUSH2 0x1B59 DUP2 PUSH2 0xFF3 JUMP JUMPDEST DUP5 ADD SWAP2 POP POP SWAP3 SWAP2 POP POP JUMP JUMPDEST PUSH0 PUSH2 0x1B6F DUP4 DUP4 PUSH2 0x1B2C JUMP JUMPDEST SWAP1 POP SWAP3 SWAP2 POP POP JUMP JUMPDEST PUSH0 PUSH1 0x20 DUP3 ADD SWAP1 POP SWAP2 SWAP1 POP JUMP JUMPDEST PUSH0 PUSH2 0x1B8D DUP3 PUSH2 0x1ADB JUMP JUMPDEST PUSH2 0x1B97 DUP2 DUP6 PUSH2 0x1AE5 JUMP JUMPDEST SWAP4 POP DUP4 PUSH1 0x20 DUP3 MUL DUP6 ADD PUSH2 0x1BA9 DUP6 PUSH2 0x1AF5 JUMP JUMPDEST DUP1 PUSH0 JUMPDEST DUP6 DUP2 LT ISZERO PUSH2 0x1BE4 JUMPI DUP5 DUP5 SUB DUP10 MSTORE DUP2 MLOAD PUSH2 0x1BC5 DUP6 DUP3 PUSH2 0x1B64 JUMP JUMPDEST SWAP5 POP PUSH2 0x1BD0 DUP4 PUSH2 0x1B77 JUMP JUMPDEST SWAP3 POP PUSH1 0x20 DUP11 ADD SWAP10 POP POP PUSH1 0x1 DUP2 ADD SWAP1 POP PUSH2 0x1BAC JUMP JUMPDEST POP DUP3 SWAP8 POP DUP8 SWAP6 POP POP POP POP POP POP SWAP3 SWAP2 POP POP JUMP JUMPDEST PUSH0 DUP2 MLOAD SWAP1 POP SWAP2 SWAP1 POP JUMP JUMPDEST PUSH0 DUP3 DUP3 MSTORE PUSH1 0x20 DUP3 ADD SWAP1 POP SWAP3 SWAP2 POP POP JUMP JUMPDEST PUSH0 DUP2 SWAP1 POP PUSH1 0x20 DUP3 ADD SWAP1 POP SWAP2 SWAP1 POP JUMP JUMPDEST PUSH0 DUP2 MLOAD SWAP1 POP SWAP2 SWAP1 POP JUMP JUMPDEST PUSH0 DUP3 DUP3 MSTORE PUSH1 0x20 DUP3 ADD SWAP1 POP SWAP3 SWAP2 POP POP JUMP JUMPDEST PUSH0 PUSH2 0x1C43 DUP3 PUSH2 0x1C1F JUMP JUMPDEST PUSH2 0x1C4D DUP2 DUP6 PUSH2 0x1C29 JUMP JUMPDEST SWAP4 POP PUSH2 0x1C5D DUP2 DUP6 PUSH1 0x20 DUP7 ADD PUSH2 0x1B1E JUMP JUMPDEST PUSH2 0x1C66 DUP2 PUSH2 0xFF3 JUMP JUMPDEST DUP5 ADD SWAP2 POP POP SWAP3 SWAP2 POP POP JUMP JUMPDEST PUSH0 PUSH2 0x1C7C DUP4 DUP4 PUSH2 0x1C39 JUMP JUMPDEST SWAP1 POP SWAP3 SWAP2 POP POP JUMP JUMPDEST PUSH0 PUSH1 0x20 DUP3 ADD SWAP1 POP SWAP2 SWAP1 POP JUMP JUMPDEST PUSH0 PUSH2 0x1C9A DUP3 PUSH2 0x1BF6 JUMP JUMPDEST PUSH2 0x1CA4 DUP2 DUP6 PUSH2 0x1C00 JUMP JUMPDEST SWAP4 POP DUP4 PUSH1 0x20 DUP3 MUL DUP6 ADD PUSH2 0x1CB6 DUP6 PUSH2 0x1C10 JUMP JUMPDEST DUP1 PUSH0 JUMPDEST DUP6 DUP2 LT ISZERO PUSH2 0x1CF1 JUMPI DUP5 DUP5 SUB DUP10 MSTORE DUP2 MLOAD PUSH2 0x1CD2 DUP6 DUP3 PUSH2 0x1C71 JUMP JUMPDEST SWAP5 POP PUSH2 0x1CDD DUP4 PUSH2 0x1C84 JUMP JUMPDEST SWAP3 POP PUSH1 0x20 DUP11 ADD SWAP10 POP POP PUSH1 0x1 DUP2 ADD SWAP1 POP PUSH2 0x1CB9 JUMP JUMPDEST POP DUP3 SWAP8 POP DUP8 SWAP6 POP POP POP POP POP POP SWAP3 SWAP2 POP POP JUMP JUMPDEST PUSH0 PUSH2 0x1D0D DUP3 PUSH2 0x1B04 JUMP JUMPDEST PUSH2 0x1D17 DUP2 DUP6 PUSH2 0x16AA JUMP JUMPDEST SWAP4 POP PUSH2 0x1D27 DUP2 DUP6 PUSH1 0x20 DUP7 ADD PUSH2 0x1B1E JUMP JUMPDEST PUSH2 0x1D30 DUP2 PUSH2 0xFF3 JUMP JUMPDEST DUP5 ADD SWAP2 POP POP SWAP3 SWAP2 POP POP JUMP JUMPDEST PUSH0 PUSH2 0x120 DUP3 ADD SWAP1 POP PUSH2 0x1D4F PUSH0 DUP4 ADD DUP13 PUSH2 0xE0D JUMP JUMPDEST PUSH2 0x1D5C PUSH1 0x20 DUP4 ADD DUP12 PUSH2 0xE4C JUMP JUMPDEST DUP2 DUP2 SUB PUSH1 0x40 DUP4 ADD MSTORE PUSH2 0x1D6E DUP2 DUP11 PUSH2 0x19C8 JUMP JUMPDEST SWAP1 POP DUP2 DUP2 SUB PUSH1 0x60 DUP4 ADD MSTORE PUSH2 0x1D82 DUP2 DUP10 PUSH2 0x1A7F JUMP JUMPDEST SWAP1 POP DUP2 DUP2 SUB PUSH1 0x80 DUP4 ADD MSTORE PUSH2 0x1D96 DUP2 DUP9 PUSH2 0x1B83 JUMP JUMPDEST SWAP1 POP DUP2 DUP2 SUB PUSH1 0xA0 DUP4 ADD MSTORE PUSH2 0x1DAA DUP2 DUP8 PUSH2 0x1C90 JUMP JUMPDEST SWAP1 POP PUSH2 0x1DB9 PUSH1 0xC0 DUP4 ADD DUP7 PUSH2 0xE0D JUMP JUMPDEST PUSH2 0x1DC6 PUSH1 0xE0 DUP4 ADD DUP6 PUSH2 0xE0D JUMP JUMPDEST DUP2 DUP2 SUB PUSH2 0x100 DUP4 ADD MSTORE PUSH2 0x1DD9 DUP2 DUP5 PUSH2 0x1D03 JUMP JUMPDEST SWAP1 POP SWAP11 SWAP10 POP POP POP POP POP POP POP POP POP POP JUMP JUMPDEST PUSH32 0x50726F706F73616C206E6F74207375636365737366756C000000000000000000 PUSH0 DUP3 ADD MSTORE POP JUMP JUMPDEST PUSH0 PUSH2 0x1E1D PUSH1 0x17 DUP4 PUSH2 0x16AA JUMP JUMPDEST SWAP2 POP PUSH2 0x1E28 DUP3 PUSH2 0x1DE9 JUMP JUMPDEST PUSH1 0x20 DUP3 ADD SWAP1 POP SWAP2 SWAP1 POP JUMP JUMPDEST PUSH0 PUSH1 0x20 DUP3 ADD SWAP1 POP DUP2 DUP2 SUB PUSH0 DUP4 ADD MSTORE PUSH2 0x1E4A DUP2 PUSH2 0x1E11 JUMP JUMPDEST SWAP1 POP SWAP2 SWAP1 POP JUMP JUMPDEST PUSH32 0x50726F706F73616C20616C726561647920657865637574656400000000000000 PUSH0 DUP3 ADD MSTORE POP JUMP JUMPDEST PUSH0 PUSH2 0x1E85 PUSH1 0x19 DUP4 PUSH2 0x16AA JUMP JUMPDEST SWAP2 POP PUSH2 0x1E90 DUP3 PUSH2 0x1E51 JUMP JUMPDEST PUSH1 0x20 DUP3 ADD SWAP1 POP SWAP2 SWAP1 POP JUMP JUMPDEST PUSH0 PUSH1 0x20 DUP3 ADD SWAP1 POP DUP2 DUP2 SUB PUSH0 DUP4 ADD MSTORE PUSH2 0x1EB2 DUP2 PUSH2 0x1E79 JUMP JUMPDEST SWAP1 POP SWAP2 SWAP1 POP JUMP JUMPDEST PUSH32 0x4E487B7100000000000000000000000000000000000000000000000000000000 PUSH0 MSTORE PUSH1 0x32 PUSH1 0x4 MSTORE PUSH1 0x24 PUSH0 REVERT JUMPDEST PUSH32 0x4E487B7100000000000000000000000000000000000000000000000000000000 PUSH0 MSTORE PUSH1 0x22 PUSH1 0x4 MSTORE PUSH1 0x24 PUSH0 REVERT JUMPDEST PUSH0 PUSH1 0x2 DUP3 DIV SWAP1 POP PUSH1 0x1 DUP3 AND DUP1 PUSH2 0x1F2A JUMPI PUSH1 0x7F DUP3 AND SWAP2 POP JUMPDEST PUSH1 0x20 DUP3 LT DUP2 SUB PUSH2 0x1F3D JUMPI PUSH2 0x1F3C PUSH2 0x1EE6 JUMP JUMPDEST JUMPDEST POP SWAP2 SWAP1 POP JUMP JUMPDEST PUSH0 DUP2 SWAP1 POP SWAP3 SWAP2 POP POP JUMP JUMPDEST PUSH0 DUP2 SWAP1 POP DUP2 PUSH0 MSTORE PUSH1 0x20 PUSH0 KECCAK256 SWAP1 POP SWAP2 SWAP1 POP JUMP JUMPDEST PUSH0 DUP2 SLOAD PUSH2 0x1F6B DUP2 PUSH2 0x1F13 JUMP JUMPDEST PUSH2 0x1F75 DUP2 DUP7 PUSH2 0x1F43 JUMP JUMPDEST SWAP5 POP PUSH1 0x1 DUP3 AND PUSH0 DUP2 EQ PUSH2 0x1F8F JUMPI PUSH1 0x1 DUP2 EQ PUSH2 0x1FA4 JUMPI PUSH2 0x1FD6 JUMP JUMPDEST PUSH1 0xFF NOT DUP4 AND DUP7 MSTORE DUP2 ISZERO ISZERO DUP3 MUL DUP7 ADD SWAP4 POP PUSH2 0x1FD6 JUMP JUMPDEST PUSH2 0x1FAD DUP6 PUSH2 0x1F4D JUMP JUMPDEST PUSH0 JUMPDEST DUP4 DUP2 LT ISZERO PUSH2 0x1FCE JUMPI DUP2 SLOAD DUP2 DUP10 ADD MSTORE PUSH1 0x1 DUP3 ADD SWAP2 POP PUSH1 0x20 DUP2 ADD SWAP1 POP PUSH2 0x1FAF JUMP JUMPDEST DUP4 DUP9 ADD SWAP6 POP POP POP JUMPDEST POP POP POP SWAP3 SWAP2 POP POP JUMP JUMPDEST PUSH0 PUSH2 0x1FEA DUP3 DUP5 PUSH2 0x1F5F JUMP JUMPDEST SWAP2 POP DUP2 SWAP1 POP SWAP3 SWAP2 POP POP JUMP JUMPDEST PUSH0 PUSH32 0xFFFFFFFF00000000000000000000000000000000000000000000000000000000 DUP3 AND SWAP1 POP SWAP2 SWAP1 POP JUMP JUMPDEST PUSH0 DUP2 SWAP1 POP SWAP2 SWAP1 POP JUMP JUMPDEST PUSH2 0x203A PUSH2 0x2035 DUP3 PUSH2 0x1FF5 JUMP JUMPDEST PUSH2 0x2020 JUMP JUMPDEST DUP3 MSTORE POP POP JUMP JUMPDEST PUSH0 DUP2 SWAP1 POP DUP2 PUSH0 MSTORE PUSH1 0x20 PUSH0 KECCAK256 SWAP1 POP SWAP2 SWAP1 POP JUMP JUMPDEST PUSH0 DUP2 SLOAD PUSH2 0x205E DUP2 PUSH2 0x1F13 JUMP JUMPDEST PUSH2 0x2068 DUP2 DUP7 PUSH2 0x1F43 JUMP JUMPDEST SWAP5 POP PUSH1 0x1 DUP3 AND PUSH0 DUP2 EQ PUSH2 0x2082 JUMPI PUSH1 0x1 DUP2 EQ PUSH2 0x2097 JUMPI PUSH2 0x20C9 JUMP JUMPDEST PUSH1 0xFF NOT DUP4 AND DUP7 MSTORE DUP2 ISZERO ISZERO DUP3 MUL DUP7 ADD SWAP4 POP PUSH2 0x20C9 JUMP JUMPDEST PUSH2 0x20A0 DUP6 PUSH2 0x2040 JUMP JUMPDEST PUSH0 JUMPDEST DUP4 DUP2 LT ISZERO PUSH2 0x20C1 JUMPI DUP2 SLOAD DUP2 DUP10 ADD MSTORE PUSH1 0x1 DUP3 ADD SWAP2 POP PUSH1 0x20 DUP2 ADD SWAP1 POP PUSH2 0x20A2 JUMP JUMPDEST DUP4 DUP9 ADD SWAP6 POP POP POP JUMPDEST POP POP POP SWAP3 SWAP2 POP POP JUMP JUMPDEST PUSH0 PUSH2 0x20DD DUP3 DUP6 PUSH2 0x2029 JUMP JUMPDEST PUSH1 0x4 DUP3 ADD SWAP2 POP PUSH2 0x20ED DUP3 DUP5 PUSH2 0x2052 JUMP JUMPDEST SWAP2 POP DUP2 SWAP1 POP SWAP4 SWAP3 POP POP POP JUMP JUMPDEST PUSH0 PUSH2 0x2103 DUP3 PUSH2 0x1C1F JUMP JUMPDEST PUSH2 0x210D DUP2 DUP6 PUSH2 0x1F43 JUMP JUMPDEST SWAP4 POP PUSH2 0x211D DUP2 DUP6 PUSH1 0x20 DUP7 ADD PUSH2 0x1B1E JUMP JUMPDEST DUP1 DUP5 ADD SWAP2 POP POP SWAP3 SWAP2 POP POP JUMP JUMPDEST PUSH0 PUSH2 0x2134 DUP3 DUP5 PUSH2 0x20F9 JUMP JUMPDEST SWAP2 POP DUP2 SWAP1 POP SWAP3 SWAP2 POP POP JUMP JUMPDEST PUSH32 0x457865637574696F6E206661696C656400000000000000000000000000000000 PUSH0 DUP3 ADD MSTORE POP JUMP JUMPDEST PUSH0 PUSH2 0x2173 PUSH1 0x10 DUP4 PUSH2 0x16AA JUMP JUMPDEST SWAP2 POP PUSH2 0x217E DUP3 PUSH2 0x213F JUMP JUMPDEST PUSH1 0x20 DUP3 ADD SWAP1 POP SWAP2 SWAP1 POP JUMP JUMPDEST PUSH0 PUSH1 0x20 DUP3 ADD SWAP1 POP DUP2 DUP2 SUB PUSH0 DUP4 ADD MSTORE PUSH2 0x21A0 DUP2 PUSH2 0x2167 JUMP JUMPDEST SWAP1 POP SWAP2 SWAP1 POP JUMP JUMPDEST PUSH0 DUP2 SWAP1 POP DUP2 PUSH0 MSTORE PUSH1 0x20 PUSH0 KECCAK256 SWAP1 POP SWAP2 SWAP1 POP JUMP JUMPDEST PUSH0 PUSH1 0x20 PUSH1 0x1F DUP4 ADD DIV SWAP1 POP SWAP2 SWAP1 POP JUMP JUMPDEST PUSH0 DUP3 DUP3 SHL SWAP1 POP SWAP3 SWAP2 POP POP JUMP JUMPDEST PUSH0 PUSH1 0x8 DUP4 MUL PUSH2 0x2203 PUSH32 0xFFFFFFFFFFFFFFFFFFFFFFFFFFFFFFFFFFFFFFFFFFFFFFFFFFFFFFFFFFFFFFFF DUP3 PUSH2 0x21C8 JUMP JUMPDEST PUSH2 0x220D DUP7 DUP4 PUSH2 0x21C8 JUMP JUMPDEST SWAP6 POP DUP1 NOT DUP5 AND SWAP4 POP DUP1 DUP7 AND DUP5 OR SWAP3 POP POP POP SWAP4 SWAP3 POP POP POP JUMP JUMPDEST PUSH0 PUSH2 0x223F PUSH2 0x223A PUSH2 0x2235 DUP5 PUSH2 0xDAF JUMP JUMPDEST PUSH2 0x1636 JUMP JUMPDEST PUSH2 0xDAF JUMP JUMPDEST SWAP1 POP SWAP2 SWAP1 POP JUMP JUMPDEST PUSH0 DUP2 SWAP1 POP SWAP2 SWAP1 POP JUMP JUMPDEST PUSH2 0x2258 DUP4 PUSH2 0x2225 JUMP JUMPDEST PUSH2 0x226C PUSH2 0x2264 DUP3 PUSH2 0x2246 JUMP JUMPDEST DUP5 DUP5 SLOAD PUSH2 0x21D4 JUMP JUMPDEST DUP3 SSTORE POP POP POP POP JUMP JUMPDEST PUSH0 PUSH0 SWAP1 POP SWAP1 JUMP JUMPDEST PUSH2 0x2283 PUSH2 0x2274 JUMP JUMPDEST PUSH2 0x228E DUP2 DUP5 DUP5 PUSH2 0x224F JUMP JUMPDEST POP POP POP JUMP JUMPDEST JUMPDEST DUP2 DUP2 LT ISZERO PUSH2 0x22B1 JUMPI PUSH2 0x22A6 PUSH0 DUP3 PUSH2 0x227B JUMP JUMPDEST PUSH1 0x1 DUP2 ADD SWAP1 POP PUSH2 0x2294 JUMP JUMPDEST POP POP JUMP JUMPDEST PUSH1 0x1F DUP3 GT ISZERO PUSH2 0x22F6 JUMPI PUSH2 0x22C7 DUP2 PUSH2 0x21A7 JUMP JUMPDEST PUSH2 0x22D0 DUP5 PUSH2 0x21B9 JUMP JUMPDEST DUP2 ADD PUSH1 0x20 DUP6 LT ISZERO PUSH2 0x22DF JUMPI DUP2 SWAP1 POP JUMPDEST PUSH2 0x22F3 PUSH2 0x22EB DUP6 PUSH2 0x21B9 JUMP JUMPDEST DUP4 ADD DUP3 PUSH2 0x2293 JUMP JUMPDEST POP POP JUMPDEST POP POP POP JUMP JUMPDEST PUSH0 DUP3 DUP3 SHR SWAP1 POP SWAP3 SWAP2 POP POP JUMP JUMPDEST PUSH0 PUSH2 0x2316 PUSH0 NOT DUP5 PUSH1 0x8 MUL PUSH2 0x22FB JUMP JUMPDEST NOT DUP1 DUP4 AND SWAP2 POP POP SWAP3 SWAP2 POP POP JUMP JUMPDEST PUSH0 PUSH2 0x232E DUP4 DUP4 PUSH2 0x2307 JUMP JUMPDEST SWAP2 POP DUP3 PUSH1 0x2 MUL DUP3 OR SWAP1 POP SWAP3 SWAP2 POP POP JUMP JUMPDEST PUSH2 0x2347 DUP3 PUSH2 0x1B04 JUMP JUMPDEST PUSH8 0xFFFFFFFFFFFFFFFF DUP2 GT ISZERO PUSH2 0x2360 JUMPI PUSH2 0x235F PUSH2 0x1003 JUMP JUMPDEST JUMPDEST PUSH2 0x236A DUP3 SLOAD PUSH2 0x1F13 JUMP JUMPDEST PUSH2 0x2375 DUP3 DUP3 DUP6 PUSH2 0x22B5 JUMP JUMPDEST PUSH0 PUSH1 0x20 SWAP1 POP PUSH1 0x1F DUP4 GT PUSH1 0x1 DUP2 EQ PUSH2 0x23A6 JUMPI PUSH0 DUP5 ISZERO PUSH2 0x2394 JUMPI DUP3 DUP8 ADD MLOAD SWAP1 POP JUMPDEST PUSH2 0x239E DUP6 DUP3 PUSH2 0x2323 JUMP JUMPDEST DUP7 SSTORE POP PUSH2 0x2405 JUMP JUMPDEST PUSH1 0x1F NOT DUP5 AND PUSH2 0x23B4 DUP7 PUSH2 0x21A7 JUMP JUMPDEST PUSH0 JUMPDEST DUP3 DUP2 LT ISZERO PUSH2 0x23DB JUMPI DUP5 DUP10 ADD MLOAD DUP3 SSTORE PUSH1 0x1 DUP3 ADD SWAP2 POP PUSH1 0x20 DUP6 ADD SWAP5 POP PUSH1 0x20 DUP2 ADD SWAP1 POP PUSH2 0x23B6 JUMP JUMPDEST DUP7 DUP4 LT ISZERO PUSH2 0x23F8 JUMPI DUP5 DUP10 ADD MLOAD PUSH2 0x23F4 PUSH1 0x1F DUP10 AND DUP3 PUSH2 0x2307 JUMP JUMPDEST DUP4 SSTORE POP JUMPDEST PUSH1 0x1 PUSH1 0x2 DUP9 MUL ADD DUP9 SSTORE POP POP POP JUMPDEST POP POP POP POP POP POP JUMP JUMPDEST PUSH1 0x1F DUP3 GT ISZERO PUSH2 0x244E JUMPI PUSH2 0x241F DUP2 PUSH2 0x2040 JUMP JUMPDEST PUSH2 0x2428 DUP5 PUSH2 0x21B9 JUMP JUMPDEST DUP2 ADD PUSH1 0x20 DUP6 LT ISZERO PUSH2 0x2437 JUMPI DUP2 SWAP1 POP JUMPDEST PUSH2 0x244B PUSH2 0x2443 DUP6 PUSH2 0x21B9 JUMP JUMPDEST DUP4 ADD DUP3 PUSH2 0x2293 JUMP JUMPDEST POP POP JUMPDEST POP POP POP JUMP JUMPDEST PUSH2 0x245C DUP3 PUSH2 0x1C1F JUMP JUMPDEST PUSH8 0xFFFFFFFFFFFFFFFF DUP2 GT ISZERO PUSH2 0x2475 JUMPI PUSH2 0x2474 PUSH2 0x1003 JUMP JUMPDEST JUMPDEST PUSH2 0x247F DUP3 SLOAD PUSH2 0x1F13 JUMP JUMPDEST PUSH2 0x248A DUP3 DUP3 DUP6 PUSH2 0x240D JUMP JUMPDEST PUSH0 PUSH1 0x20 SWAP1 POP PUSH1 0x1F DUP4 GT PUSH1 0x1 DUP2 EQ PUSH2 0x24BB JUMPI PUSH0 DUP5 ISZERO PUSH2 0x24A9 JUMPI DUP3 DUP8 ADD MLOAD SWAP1 POP JUMPDEST PUSH2 0x24B3 DUP6 DUP3 PUSH2 0x2323 JUMP JUMPDEST DUP7 SSTORE POP PUSH2 0x251A JUMP JUMPDEST PUSH1 0x1F NOT DUP5 AND PUSH2 0x24C9 DUP7 PUSH2 0x2040 JUMP JUMPDEST PUSH0 JUMPDEST DUP3 DUP2 LT ISZERO PUSH2 0x24F0 JUMPI DUP5 DUP10 ADD MLOAD DUP3 SSTORE PUSH1 0x1 DUP3 ADD SWAP2 POP PUSH1 0x20 DUP6 ADD SWAP5 POP PUSH1 0x20 DUP2 ADD SWAP1 POP PUSH2 0x24CB JUMP JUMPDEST DUP7 DUP4 LT ISZERO PUSH2 0x250D JUMPI DUP5 DUP10 ADD MLOAD PUSH2 0x2509 PUSH1 0x1F DUP10 AND DUP3 PUSH2 0x2307 JUMP JUMPDEST DUP4 SSTORE POP JUMPDEST PUSH1 0x1 PUSH1 0x2 DUP9 MUL ADD DUP9 SSTORE POP POP POP JUMPDEST POP POP POP POP POP POP JUMP INVALID LOG2 PUSH5 0x6970667358 0x22 SLT KECCAK256 EXTCODECOPY 0xA8 PUSH6 0x9B13227D6F12 DUP1 PUSH4 0x1D8E7A8 DUP14 SIGNEXTEND 0x2A CREATE2 REVERT POP RETURNCONTRACT 0x5D CALL PUSH0 PUSH3 0xC49283 LOG0 0xAD 0xDF PUSH5 0x736F6C6343 STOP ADDMOD 0x1E STOP CALLER "
		},
		"gasEstimates": {
			"creation": {
				"codeDepositCost": "1912000",
				"executionCost": "infinite",
				"totalCost": "infinite"
			},
			"external": {
				"VOTING_DELAY()": "347",
				"VOTING_PERIOD()": "414",
				"castVote(uint256,bool)": "16077",
				"execute(uint256)": "infinite",
				"proposalCount()": "2469",
				"proposalThreshold()": "2425",
				"proposals(uint256)": "infinite",
				"propose(address[],uint256[],string[],bytes[],string)": "infinite",
				"quorumVotes()": "2470",
				"state(uint256)": "15748",
				"token()": "infinite"
			}
		},
		"methodIdentifiers": {
			"VOTING_DELAY()": "d6159fe5",
			"VOTING_PERIOD()": "b1610d7e",
			"castVote(uint256,bool)": "15373e3d",
			"execute(uint256)": "fe0d94c1",
			"proposalCount()": "da35c664",
			"proposalThreshold()": "b58131b0",
			"proposals(uint256)": "013cf08b",
			"propose(address[],uint256[],string[],bytes[],string)": "da95691a",
			"quorumVotes()": "24bc1a64",
			"state(uint256)": "3e4f49e6",
			"token()": "fc0c546a"
		}
	},
	"abi": [
		{
			"inputs": [
				{
					"internalType": "address",
					"name": "_tokenAddress",
					"type": "address"
				}
			],
			"stateMutability": "nonpayable",
			"type": "constructor"
		},
		{
			"anonymous": false,
			"inputs": [
				{
					"indexed": false,
					"internalType": "uint256",
					"name": "id",
					"type": "uint256"
				},
				{
					"indexed": false,
					"internalType": "address",
					"name": "proposer",
					"type": "address"
				},
				{
					"indexed": false,
					"internalType": "address[]",
					"name": "targets",
					"type": "address[]"
				},
				{
					"indexed": false,
					"internalType": "uint256[]",
					"name": "values",
					"type": "uint256[]"
				},
				{
					"indexed": false,
					"internalType": "string[]",
					"name": "signatures",
					"type": "string[]"
				},
				{
					"indexed": false,
					"internalType": "bytes[]",
					"name": "calldatas",
					"type": "bytes[]"
				},
				{
					"indexed": false,
					"internalType": "uint256",
					"name": "startBlock",
					"type": "uint256"
				},
				{
					"indexed": false,
					"internalType": "uint256",
					"name": "endBlock",
					"type": "uint256"
				},
				{
					"indexed": false,
					"internalType": "string",
					"name": "description",
					"type": "string"
				}
			],
			"name": "ProposalCreated",
			"type": "event"
		},
		{
			"anonymous": false,
			"inputs": [
				{
					"indexed": false,
					"internalType": "uint256",
					"name": "id",
					"type": "uint256"
				}
			],
			"name": "ProposalExecuted",
			"type": "event"
		},
		{
			"anonymous": false,
			"inputs": [
				{
					"indexed": true,
					"internalType": "address",
					"name": "voter",
					"type": "address"
				},
				{
					"indexed": false,
					"internalType": "uint256",
					"name": "proposalId",
					"type": "uint256"
				},
				{
					"indexed": false,
					"internalType": "bool",
					"name": "support",
					"type": "bool"
				},
				{
					"indexed": false,
					"internalType": "uint256",
					"name": "votes",
					"type": "uint256"
				}
			],
			"name": "VoteCast",
			"type": "event"
		},
		{
			"inputs": [],
			"name": "VOTING_DELAY",
			"outputs": [
				{
					"internalType": "uint256",
					"name": "",
					"type": "uint256"
				}
			],
			"stateMutability": "view",
			"type": "function"
		},
		{
			"inputs": [],
			"name": "VOTING_PERIOD",
			"outputs": [
				{
					"internalType": "uint256",
					"name": "",
					"type": "uint256"
				}
			],
			"stateMutability": "view",
			"type": "function"
		},
		{
			"inputs": [
				{
					"internalType": "uint256",
					"name": "proposalId",
					"type": "uint256"
				},
				{
					"internalType": "bool",
					"name": "support",
					"type": "bool"
				}
			],
			"name": "castVote",
			"outputs": [],
			"stateMutability": "nonpayable",
			"type": "function"
		},
		{
			"inputs": [
				{
					"internalType": "uint256",
					"name": "proposalId",
					"type": "uint256"
				}
			],
			"name": "execute",
			"outputs": [],
			"stateMutability": "nonpayable",
			"type": "function"
		},
		{
			"inputs": [],
			"name": "proposalCount",
			"outputs": [
				{
					"internalType": "uint256",
					"name": "",
					"type": "uint256"
				}
			],
			"stateMutability": "view",
			"type": "function"
		},
		{
			"inputs": [],
			"name": "proposalThreshold",
			"outputs": [
				{
					"internalType": "uint256",
					"name": "",
					"type": "uint256"
				}
			],
			"stateMutability": "view",
			"type": "function"
		},
		{
			"inputs": [
				{
					"internalType": "uint256",
					"name": "",
					"type": "uint256"
				}
			],
			"name": "proposals",
			"outputs": [
				{
					"internalType": "uint256",
					"name": "id",
					"type": "uint256"
				},
				{
					"internalType": "address",
					"name": "proposer",
					"type": "address"
				},
				{
					"internalType": "uint256",
					"name": "startBlock",
					"type": "uint256"
				},
				{
					"internalType": "uint256",
					"name": "endBlock",
					"type": "uint256"
				},
				{
					"internalType": "uint256",
					"name": "forVotes",
					"type": "uint256"
				},
				{
					"internalType": "uint256",
					"name": "againstVotes",
					"type": "uint256"
				},
				{
					"internalType": "bool",
					"name": "executed",
					"type": "bool"
				}
			],
			"stateMutability": "view",
			"type": "function"
		},
		{
			"inputs": [
				{
					"internalType": "address[]",
					"name": "targets",
					"type": "address[]"
				},
				{
					"internalType": "uint256[]",
					"name": "values",
					"type": "uint256[]"
				},
				{
					"internalType": "string[]",
					"name": "signatures",
					"type": "string[]"
				},
				{
					"internalType": "bytes[]",
					"name": "calldatas",
					"type": "bytes[]"
				},
				{
					"internalType": "string",
					"name": "description",
					"type": "string"
				}
			],
			"name": "propose",
			"outputs": [
				{
					"internalType": "uint256",
					"name": "",
					"type": "uint256"
				}
			],
			"stateMutability": "nonpayable",
			"type": "function"
		},
		{
			"inputs": [],
			"name": "quorumVotes",
			"outputs": [
				{
					"internalType": "uint256",
					"name": "",
					"type": "uint256"
				}
			],
			"stateMutability": "view",
			"type": "function"
		},
		{
			"inputs": [
				{
					"internalType": "uint256",
					"name": "proposalId",
					"type": "uint256"
				}
			],
			"name": "state",
			"outputs": [
				{
					"internalType": "enum Governance.State",
					"name": "",
					"type": "uint8"
				}
			],
			"stateMutability": "view",
			"type": "function"
		},
		{
			"inputs": [],
			"name": "token",
			"outputs": [
				{
					"internalType": "contract TradeFiToken",
					"name": "",
					"type": "address"
				}
			],
			"stateMutability": "view",
			"type": "function"
		}
	]
}