{
	"data": {
		"bytecode": {
			"linkReferences": {},
			"object": "6080604052600a600355348015610014575f5ffd5b50604051610c09380380610c098339818101604052810190610036919061011a565b815f5f6101000a81548173ffffffffffffffffffffffffffffffffffffffff021916908373ffffffffffffffffffffffffffffffffffffffff1602179055508060015f6101000a81548173ffffffffffffffffffffffffffffffffffffffff021916908373ffffffffffffffffffffffffffffffffffffffff1602179055505050610158565b5f5ffd5b5f73ffffffffffffffffffffffffffffffffffffffff82169050919050565b5f6100e9826100c0565b9050919050565b6100f9816100df565b8114610103575f5ffd5b50565b5f81519050610114816100f0565b92915050565b5f5f604083850312156101305761012f6100bc565b5b5f61013d85828601610106565b925050602061014e85828601610106565b9150509250929050565b610aa4806101655f395ff3fe608060405234801561000f575f5ffd5b5060043610610060575f3560e01c80631f3124041461006457806324a9d853146100945780636c61033c146100b2578063792eb791146100ce578063f25f4b56146100ea578063f61ebc3614610108575b5f5ffd5b61007e600480360381019061007991906106a1565b610126565b60405161008b91906106f7565b60405180910390f35b61009c610146565b6040516100a991906106f7565b60405180910390f35b6100cc60048036038101906100c7919061073a565b61014c565b005b6100e860048036038101906100e3919061073a565b61047c565b005b6100f26105fa565b6040516100ff9190610799565b60405180910390f35b61011061061f565b60405161011d919061080d565b60405180910390f35b6002602052815f5260405f20602052805f5260405f205f91509150505481565b60035481565b5f811161018e576040517f08c379a000000000000000000000000000000000000000000000000000000000815260040161018590610880565b60405180910390fd5b5f60025f8573ffffffffffffffffffffffffffffffffffffffff1673ffffffffffffffffffffffffffffffffffffffff1681526020019081526020015f205f8473ffffffffffffffffffffffffffffffffffffffff1673ffffffffffffffffffffffffffffffffffffffff1681526020019081526020015f205490505f811161024c576040517f08c379a0000000000000000000000000000000000000000000000000000000008152600401610243906108e8565b60405180910390fd5b5f670de0b6b3a764000082846102629190610933565b61026c91906109a1565b90505f612710600354836102809190610933565b61028a91906109a1565b90505f818361029991906109d1565b90505f5f9054906101000a900473ffffffffffffffffffffffffffffffffffffffff1673ffffffffffffffffffffffffffffffffffffffff166344a29e2a883360015f9054906101000a900473ffffffffffffffffffffffffffffffffffffffff16896040518563ffffffff1660e01b815260040161031b9493929190610a04565b5f604051808303815f87803b158015610332575f5ffd5b505af1158015610344573d5f5f3e3d5ffd5b505050505f5f9054906101000a900473ffffffffffffffffffffffffffffffffffffffff1673ffffffffffffffffffffffffffffffffffffffff166344a29e2a8760015f9054906101000a900473ffffffffffffffffffffffffffffffffffffffff1633856040518563ffffffff1660e01b81526004016103c89493929190610a04565b5f604051808303815f87803b1580156103df575f5ffd5b505af11580156103f1573d5f5f3e3d5ffd5b505050508573ffffffffffffffffffffffffffffffffffffffff168773ffffffffffffffffffffffffffffffffffffffff163373ffffffffffffffffffffffffffffffffffffffff167f3fcfb2f2e0146d5be7268f9e4cd3c4c0ce3428f68805db227b7fc378db7519ac888560405161046b929190610a47565b60405180910390a450505050505050565b8060025f8573ffffffffffffffffffffffffffffffffffffffff1673ffffffffffffffffffffffffffffffffffffffff1681526020019081526020015f205f8473ffffffffffffffffffffffffffffffffffffffff1673ffffffffffffffffffffffffffffffffffffffff1681526020019081526020015f2081905550806ec097ce7bc90715b34b9f100000000061051491906109a1565b60025f8473ffffffffffffffffffffffffffffffffffffffff1673ffffffffffffffffffffffffffffffffffffffff1681526020019081526020015f205f8573ffffffffffffffffffffffffffffffffffffffff1673ffffffffffffffffffffffffffffffffffffffff1681526020019081526020015f20819055508173ffffffffffffffffffffffffffffffffffffffff168373ffffffffffffffffffffffffffffffffffffffff167fb71c154260e8508e211e2ace194becba2c6d7e727c3ed292fe4787458969cd10836040516105ed91906106f7565b60405180910390a3505050565b60015f9054906101000a900473ffffffffffffffffffffffffffffffffffffffff1681565b5f5f9054906101000a900473ffffffffffffffffffffffffffffffffffffffff1681565b5f5ffd5b5f73ffffffffffffffffffffffffffffffffffffffff82169050919050565b5f61067082610647565b9050919050565b61068081610666565b811461068a575f5ffd5b50565b5f8135905061069b81610677565b92915050565b5f5f604083850312156106b7576106b6610643565b5b5f6106c48582860161068d565b92505060206106d58582860161068d565b9150509250929050565b5f819050919050565b6106f1816106df565b82525050565b5f60208201905061070a5f8301846106e8565b92915050565b610719816106df565b8114610723575f5ffd5b50565b5f8135905061073481610710565b92915050565b5f5f5f6060848603121561075157610750610643565b5b5f61075e8682870161068d565b935050602061076f8682870161068d565b925050604061078086828701610726565b9150509250925092565b61079381610666565b82525050565b5f6020820190506107ac5f83018461078a565b92915050565b5f819050919050565b5f6107d56107d06107cb84610647565b6107b2565b610647565b9050919050565b5f6107e6826107bb565b9050919050565b5f6107f7826107dc565b9050919050565b610807816107ed565b82525050565b5f6020820190506108205f8301846107fe565b92915050565b5f82825260208201905092915050565b7f416d6f756e74206d757374206265203e203000000000000000000000000000005f82015250565b5f61086a601283610826565b915061087582610836565b602082019050919050565b5f6020820190508181035f8301526108978161085e565b9050919050565b7f5072696365206e6f742073657420666f722074686973207061697200000000005f82015250565b5f6108d2601b83610826565b91506108dd8261089e565b602082019050919050565b5f6020820190508181035f8301526108ff816108c6565b9050919050565b7f4e487b71000000000000000000000000000000000000000000000000000000005f52601160045260245ffd5b5f61093d826106df565b9150610948836106df565b9250828202610956816106df565b9150828204841483151761096d5761096c610906565b5b5092915050565b7f4e487b71000000000000000000000000000000000000000000000000000000005f52601260045260245ffd5b5f6109ab826106df565b91506109b6836106df565b9250826109c6576109c5610974565b5b828204905092915050565b5f6109db826106df565b91506109e6836106df565b92508282039050818111156109fe576109fd610906565b5b92915050565b5f608082019050610a175f83018761078a565b610a24602083018661078a565b610a31604083018561078a565b610a3e60608301846106e8565b95945050505050565b5f604082019050610a5a5f8301856106e8565b610a6760208301846106e8565b939250505056fea2646970667358221220362831e7775110599e4f99f7b326f24250870b69958f2b1a206fa5fe70d6769f64736f6c634300081e0033",
			"opcodes": "PUSH1 0x80 PUSH1 0x40 MSTORE PUSH1 0xA PUSH1 0x3 SSTORE CALLVALUE DUP1 ISZERO PUSH2 0x14 JUMPI PUSH0 PUSH0 REVERT JUMPDEST POP PUSH1 0x40 MLOAD PUSH2 0xC09 CODESIZE SUB DUP1 PUSH2 0xC09 DUP4 CODECOPY DUP2 DUP2 ADD PUSH1 0x40 MSTORE DUP2 ADD SWAP1 PUSH2 0x36 SWAP2 SWAP1 PUSH2 0x11A JUMP JUMPDEST DUP2 PUSH0 PUSH0 PUSH2 0x100 EXP DUP2 SLOAD DUP2 PUSH20 0xFFFFFFFFFFFFFFFFFFFFFFFFFFFFFFFFFFFFFFFF MUL NOT AND SWAP1 DUP4 PUSH20 0xFFFFFFFFFFFFFFFFFFFFFFFFFFFFFFFFFFFFFFFF AND MUL OR SWAP1 SSTORE POP DUP1 PUSH1 0x1 PUSH0 PUSH2 0x100 EXP DUP2 SLOAD DUP2 PUSH20 0xFFFFFFFFFFFFFFFFFFFFFFFFFFFFFFFFFFFFFFFF MUL NOT AND SWAP1 DUP4 PUSH20 0xFFFFFFFFFFFFFFFFFFFFFFFFFFFFFFFFFFFFFFFF AND MUL OR SWAP1 SSTORE POP POP POP PUSH2 0x158 JUMP JUMPDEST PUSH0 PUSH0 REVERT JUMPDEST PUSH0 PUSH20 0xFFFFFFFFFFFFFFFFFFFFFFFFFFFFFFFFFFFFFFFF DUP3 AND SWAP1 POP SWAP2 SWAP1 POP JUMP JUMPDEST PUSH0 PUSH2 0xE9 DUP3 PUSH2 0xC0 JUMP JUMPDEST SWAP1 POP SWAP2 SWAP1 POP JUMP JUMPDEST PUSH2 0xF9 DUP2 PUSH2 0xDF JUMP JUMPDEST DUP2 EQ PUSH2 0x103 JUMPI PUSH0 PUSH0 REVERT JUMPDEST POP JUMP JUMPDEST PUSH0 DUP2 MLOAD SWAP1 POP PUSH2 0x114 DUP2 PUSH2 0xF0 JUMP JUMPDEST SWAP3 SWAP2 POP POP JUMP JUMPDEST PUSH0 PUSH0 PUSH1 0x40 DUP4 DUP6 SUB SLT ISZERO PUSH2 0x130 JUMPI PUSH2 0x12F PUSH2 0xBC JUMP JUMPDEST JUMPDEST PUSH0 PUSH2 0x13D DUP6 DUP3 DUP7 ADD PUSH2 0x106 JUMP JUMPDEST SWAP3 POP POP PUSH1 0x20 PUSH2 0x14E DUP6 DUP3 DUP7 ADD PUSH2 0x106 JUMP JUMPDEST SWAP2 POP POP SWAP3 POP SWAP3 SWAP1 POP JUMP JUMPDEST PUSH2 0xAA4 DUP1 PUSH2 0x165 PUSH0 CODECOPY PUSH0 RETURN INVALID PUSH1 0x80 PUSH1 0x40 MSTORE CALLVALUE DUP1 ISZERO PUSH2 0xF JUMPI PUSH0 PUSH0 REVERT JUMPDEST POP PUSH1 0x4 CALLDATASIZE LT PUSH2 0x60 JUMPI PUSH0 CALLDATALOAD PUSH1 0xE0 SHR DUP1 PUSH4 0x1F312404 EQ PUSH2 0x64 JUMPI DUP1 PUSH4 0x24A9D853 EQ PUSH2 0x94 JUMPI DUP1 PUSH4 0x6C61033C EQ PUSH2 0xB2 JUMPI DUP1 PUSH4 0x792EB791 EQ PUSH2 0xCE JUMPI DUP1 PUSH4 0xF25F4B56 EQ PUSH2 0xEA JUMPI DUP1 PUSH4 0xF61EBC36 EQ PUSH2 0x108 JUMPI JUMPDEST PUSH0 PUSH0 REVERT JUMPDEST PUSH2 0x7E PUSH1 0x4 DUP1 CALLDATASIZE SUB DUP2 ADD SWAP1 PUSH2 0x79 SWAP2 SWAP1 PUSH2 0x6A1 JUMP JUMPDEST PUSH2 0x126 JUMP JUMPDEST PUSH1 0x40 MLOAD PUSH2 0x8B SWAP2 SWAP1 PUSH2 0x6F7 JUMP JUMPDEST PUSH1 0x40 MLOAD DUP1 SWAP2 SUB SWAP1 RETURN JUMPDEST PUSH2 0x9C PUSH2 0x146 JUMP JUMPDEST PUSH1 0x40 MLOAD PUSH2 0xA9 SWAP2 SWAP1 PUSH2 0x6F7 JUMP JUMPDEST PUSH1 0x40 MLOAD DUP1 SWAP2 SUB SWAP1 RETURN JUMPDEST PUSH2 0xCC PUSH1 0x4 DUP1 CALLDATASIZE SUB DUP2 ADD SWAP1 PUSH2 0xC7 SWAP2 SWAP1 PUSH2 0x73A JUMP JUMPDEST PUSH2 0x14C JUMP JUMPDEST STOP JUMPDEST PUSH2 0xE8 PUSH1 0x4 DUP1 CALLDATASIZE SUB DUP2 ADD SWAP1 PUSH2 0xE3 SWAP2 SWAP1 PUSH2 0x73A JUMP JUMPDEST PUSH2 0x47C JUMP JUMPDEST STOP JUMPDEST PUSH2 0xF2 PUSH2 0x5FA JUMP JUMPDEST PUSH1 0x40 MLOAD PUSH2 0xFF SWAP2 SWAP1 PUSH2 0x799 JUMP JUMPDEST PUSH1 0x40 MLOAD DUP1 SWAP2 SUB SWAP1 RETURN JUMPDEST PUSH2 0x110 PUSH2 0x61F JUMP JUMPDEST PUSH1 0x40 MLOAD PUSH2 0x11D SWAP2 SWAP1 PUSH2 0x80D JUMP JUMPDEST PUSH1 0x40 MLOAD DUP1 SWAP2 SUB SWAP1 RETURN JUMPDEST PUSH1 0x2 PUSH1 0x20 MSTORE DUP2 PUSH0 MSTORE PUSH1 0x40 PUSH0 KECCAK256 PUSH1 0x20 MSTORE DUP1 PUSH0 MSTORE PUSH1 0x40 PUSH0 KECCAK256 PUSH0 SWAP2 POP SWAP2 POP POP SLOAD DUP2 JUMP JUMPDEST PUSH1 0x3 SLOAD DUP2 JUMP JUMPDEST PUSH0 DUP2 GT PUSH2 0x18E JUMPI PUSH1 0x40 MLOAD PUSH32 0x8C379A000000000000000000000000000000000000000000000000000000000 DUP2 MSTORE PUSH1 0x4 ADD PUSH2 0x185 SWAP1 PUSH2 0x880 JUMP JUMPDEST PUSH1 0x40 MLOAD DUP1 SWAP2 SUB SWAP1 REVERT JUMPDEST PUSH0 PUSH1 0x2 PUSH0 DUP6 PUSH20 0xFFFFFFFFFFFFFFFFFFFFFFFFFFFFFFFFFFFFFFFF AND PUSH20 0xFFFFFFFFFFFFFFFFFFFFFFFFFFFFFFFFFFFFFFFF AND DUP2 MSTORE PUSH1 0x20 ADD SWAP1 DUP2 MSTORE PUSH1 0x20 ADD PUSH0 KECCAK256 PUSH0 DUP5 PUSH20 0xFFFFFFFFFFFFFFFFFFFFFFFFFFFFFFFFFFFFFFFF AND PUSH20 0xFFFFFFFFFFFFFFFFFFFFFFFFFFFFFFFFFFFFFFFF AND DUP2 MSTORE PUSH1 0x20 ADD SWAP1 DUP2 MSTORE PUSH1 0x20 ADD PUSH0 KECCAK256 SLOAD SWAP1 POP PUSH0 DUP2 GT PUSH2 0x24C JUMPI PUSH1 0x40 MLOAD PUSH32 0x8C379A000000000000000000000000000000000000000000000000000000000 DUP2 MSTORE PUSH1 0x4 ADD PUSH2 0x243 SWAP1 PUSH2 0x8E8 JUMP JUMPDEST PUSH1 0x40 MLOAD DUP1 SWAP2 SUB SWAP1 REVERT JUMPDEST PUSH0 PUSH8 0xDE0B6B3A7640000 DUP3 DUP5 PUSH2 0x262 SWAP2 SWAP1 PUSH2 0x933 JUMP JUMPDEST PUSH2 0x26C SWAP2 SWAP1 PUSH2 0x9A1 JUMP JUMPDEST SWAP1 POP PUSH0 PUSH2 0x2710 PUSH1 0x3 SLOAD DUP4 PUSH2 0x280 SWAP2 SWAP1 PUSH2 0x933 JUMP JUMPDEST PUSH2 0x28A SWAP2 SWAP1 PUSH2 0x9A1 JUMP JUMPDEST SWAP1 POP PUSH0 DUP2 DUP4 PUSH2 0x299 SWAP2 SWAP1 PUSH2 0x9D1 JUMP JUMPDEST SWAP1 POP PUSH0 PUSH0 SWAP1 SLOAD SWAP1 PUSH2 0x100 EXP SWAP1 DIV PUSH20 0xFFFFFFFFFFFFFFFFFFFFFFFFFFFFFFFFFFFFFFFF AND PUSH20 0xFFFFFFFFFFFFFFFFFFFFFFFFFFFFFFFFFFFFFFFF AND PUSH4 0x44A29E2A DUP9 CALLER PUSH1 0x1 PUSH0 SWAP1 SLOAD SWAP1 PUSH2 0x100 EXP SWAP1 DIV PUSH20 0xFFFFFFFFFFFFFFFFFFFFFFFFFFFFFFFFFFFFFFFF AND DUP10 PUSH1 0x40 MLOAD DUP6 PUSH4 0xFFFFFFFF AND PUSH1 0xE0 SHL DUP2 MSTORE PUSH1 0x4 ADD PUSH2 0x31B SWAP5 SWAP4 SWAP3 SWAP2 SWAP1 PUSH2 0xA04 JUMP JUMPDEST PUSH0 PUSH1 0x40 MLOAD DUP1 DUP4 SUB DUP2 PUSH0 DUP8 DUP1 EXTCODESIZE ISZERO DUP1 ISZERO PUSH2 0x332 JUMPI PUSH0 PUSH0 REVERT JUMPDEST POP GAS CALL ISZERO DUP1 ISZERO PUSH2 0x344 JUMPI RETURNDATASIZE PUSH0 PUSH0 RETURNDATACOPY RETURNDATASIZE PUSH0 REVERT JUMPDEST POP POP POP POP PUSH0 PUSH0 SWAP1 SLOAD SWAP1 PUSH2 0x100 EXP SWAP1 DIV PUSH20 0xFFFFFFFFFFFFFFFFFFFFFFFFFFFFFFFFFFFFFFFF AND PUSH20 0xFFFFFFFFFFFFFFFFFFFFFFFFFFFFFFFFFFFFFFFF AND PUSH4 0x44A29E2A DUP8 PUSH1 0x1 PUSH0 SWAP1 SLOAD SWAP1 PUSH2 0x100 EXP SWAP1 DIV PUSH20 0xFFFFFFFFFFFFFFFFFFFFFFFFFFFFFFFFFFFFFFFF AND CALLER DUP6 PUSH1 0x40 MLOAD DUP6 PUSH4 0xFFFFFFFF AND PUSH1 0xE0 SHL DUP2 MSTORE PUSH1 0x4 ADD PUSH2 0x3C8 SWAP5 SWAP4 SWAP3 SWAP2 SWAP1 PUSH2 0xA04 JUMP JUMPDEST PUSH0 PUSH1 0x40 MLOAD DUP1 DUP4 SUB DUP2 PUSH0 DUP8 DUP1 EXTCODESIZE ISZERO DUP1 ISZERO PUSH2 0x3DF JUMPI PUSH0 PUSH0 REVERT JUMPDEST POP GAS CALL ISZERO DUP1 ISZERO PUSH2 0x3F1 JUMPI RETURNDATASIZE PUSH0 PUSH0 RETURNDATACOPY RETURNDATASIZE PUSH0 REVERT JUMPDEST POP POP POP POP DUP6 PUSH20 0xFFFFFFFFFFFFFFFFFFFFFFFFFFFFFFFFFFFFFFFF AND DUP8 PUSH20 0xFFFFFFFFFFFFFFFFFFFFFFFFFFFFFFFFFFFFFFFF AND CALLER PUSH20 0xFFFFFFFFFFFFFFFFFFFFFFFFFFFFFFFFFFFFFFFF AND PUSH32 0x3FCFB2F2E0146D5BE7268F9E4CD3C4C0CE3428F68805DB227B7FC378DB7519AC DUP9 DUP6 PUSH1 0x40 MLOAD PUSH2 0x46B SWAP3 SWAP2 SWAP1 PUSH2 0xA47 JUMP JUMPDEST PUSH1 0x40 MLOAD DUP1 SWAP2 SUB SWAP1 LOG4 POP POP POP POP POP POP POP JUMP JUMPDEST DUP1 PUSH1 0x2 PUSH0 DUP6 PUSH20 0xFFFFFFFFFFFFFFFFFFFFFFFFFFFFFFFFFFFFFFFF AND PUSH20 0xFFFFFFFFFFFFFFFFFFFFFFFFFFFFFFFFFFFFFFFF AND DUP2 MSTORE PUSH1 0x20 ADD SWAP1 DUP2 MSTORE PUSH1 0x20 ADD PUSH0 KECCAK256 PUSH0 DUP5 PUSH20 0xFFFFFFFFFFFFFFFFFFFFFFFFFFFFFFFFFFFFFFFF AND PUSH20 0xFFFFFFFFFFFFFFFFFFFFFFFFFFFFFFFFFFFFFFFF AND DUP2 MSTORE PUSH1 0x20 ADD SWAP1 DUP2 MSTORE PUSH1 0x20 ADD PUSH0 KECCAK256 DUP2 SWAP1 SSTORE POP DUP1 PUSH15 0xC097CE7BC90715B34B9F1000000000 PUSH2 0x514 SWAP2 SWAP1 PUSH2 0x9A1 JUMP JUMPDEST PUSH1 0x2 PUSH0 DUP5 PUSH20 0xFFFFFFFFFFFFFFFFFFFFFFFFFFFFFFFFFFFFFFFF AND PUSH20 0xFFFFFFFFFFFFFFFFFFFFFFFFFFFFFFFFFFFFFFFF AND DUP2 MSTORE PUSH1 0x20 ADD SWAP1 DUP2 MSTORE PUSH1 0x20 ADD PUSH0 KECCAK256 PUSH0 DUP6 PUSH20 0xFFFFFFFFFFFFFFFFFFFFFFFFFFFFFFFFFFFFFFFF AND PUSH20 0xFFFFFFFFFFFFFFFFFFFFFFFFFFFFFFFFFFFFFFFF AND DUP2 MSTORE PUSH1 0x20 ADD SWAP1 DUP2 MSTORE PUSH1 0x20 ADD PUSH0 KECCAK256 DUP2 SWAP1 SSTORE POP DUP2 PUSH20 0xFFFFFFFFFFFFFFFFFFFFFFFFFFFFFFFFFFFFFFFF AND DUP4 PUSH20 0xFFFFFFFFFFFFFFFFFFFFFFFFFFFFFFFFFFFFFFFF AND PUSH32 0xB71C154260E8508E211E2ACE194BECBA2C6D7E727C3ED292FE4787458969CD10 DUP4 PUSH1 0x40 MLOAD PUSH2 0x5ED SWAP2 SWAP1 PUSH2 0x6F7 JUMP JUMPDEST PUSH1 0x40 MLOAD DUP1 SWAP2 SUB SWAP1 LOG3 POP POP POP JUMP JUMPDEST PUSH1 0x1 PUSH0 SWAP1 SLOAD SWAP1 PUSH2 0x100 EXP SWAP1 DIV PUSH20 0xFFFFFFFFFFFFFFFFFFFFFFFFFFFFFFFFFFFFFFFF AND DUP2 JUMP JUMPDEST PUSH0 PUSH0 SWAP1 SLOAD SWAP1 PUSH2 0x100 EXP SWAP1 DIV PUSH20 0xFFFFFFFFFFFFFFFFFFFFFFFFFFFFFFFFFFFFFFFF AND DUP2 JUMP JUMPDEST PUSH0 PUSH0 REVERT JUMPDEST PUSH0 PUSH20 0xFFFFFFFFFFFFFFFFFFFFFFFFFFFFFFFFFFFFFFFF DUP3 AND SWAP1 POP SWAP2 SWAP1 POP JUMP JUMPDEST PUSH0 PUSH2 0x670 DUP3 PUSH2 0x647 JUMP JUMPDEST SWAP1 POP SWAP2 SWAP1 POP JUMP JUMPDEST PUSH2 0x680 DUP2 PUSH2 0x666 JUMP JUMPDEST DUP2 EQ PUSH2 0x68A JUMPI PUSH0 PUSH0 REVERT JUMPDEST POP JUMP JUMPDEST PUSH0 DUP2 CALLDATALOAD SWAP1 POP PUSH2 0x69B DUP2 PUSH2 0x677 JUMP JUMPDEST SWAP3 SWAP2 POP POP JUMP JUMPDEST PUSH0 PUSH0 PUSH1 0x40 DUP4 DUP6 SUB SLT ISZERO PUSH2 0x6B7 JUMPI PUSH2 0x6B6 PUSH2 0x643 JUMP JUMPDEST JUMPDEST PUSH0 PUSH2 0x6C4 DUP6 DUP3 DUP7 ADD PUSH2 0x68D JUMP JUMPDEST SWAP3 POP POP PUSH1 0x20 PUSH2 0x6D5 DUP6 DUP3 DUP7 ADD PUSH2 0x68D JUMP JUMPDEST SWAP2 POP POP SWAP3 POP SWAP3 SWAP1 POP JUMP JUMPDEST PUSH0 DUP2 SWAP1 POP SWAP2 SWAP1 POP JUMP JUMPDEST PUSH2 0x6F1 DUP2 PUSH2 0x6DF JUMP JUMPDEST DUP3 MSTORE POP POP JUMP JUMPDEST PUSH0 PUSH1 0x20 DUP3 ADD SWAP1 POP PUSH2 0x70A PUSH0 DUP4 ADD DUP5 PUSH2 0x6E8 JUMP JUMPDEST SWAP3 SWAP2 POP POP JUMP JUMPDEST PUSH2 0x719 DUP2 PUSH2 0x6DF JUMP JUMPDEST DUP2 EQ PUSH2 0x723 JUMPI PUSH0 PUSH0 REVERT JUMPDEST POP JUMP JUMPDEST PUSH0 DUP2 CALLDATALOAD SWAP1 POP PUSH2 0x734 DUP2 PUSH2 0x710 JUMP JUMPDEST SWAP3 SWAP2 POP POP JUMP JUMPDEST PUSH0 PUSH0 PUSH0 PUSH1 0x60 DUP5 DUP7 SUB SLT ISZERO PUSH2 0x751 JUMPI PUSH2 0x750 PUSH2 0x643 JUMP JUMPDEST JUMPDEST PUSH0 PUSH2 0x75E DUP7 DUP3 DUP8 ADD PUSH2 0x68D JUMP JUMPDEST SWAP4 POP POP PUSH1 0x20 PUSH2 0x76F DUP7 DUP3 DUP8 ADD PUSH2 0x68D JUMP JUMPDEST SWAP3 POP POP PUSH1 0x40 PUSH2 0x780 DUP7 DUP3 DUP8 ADD PUSH2 0x726 JUMP JUMPDEST SWAP2 POP POP SWAP3 POP SWAP3 POP SWAP3 JUMP JUMPDEST PUSH2 0x793 DUP2 PUSH2 0x666 JUMP JUMPDEST DUP3 MSTORE POP POP JUMP JUMPDEST PUSH0 PUSH1 0x20 DUP3 ADD SWAP1 POP PUSH2 0x7AC PUSH0 DUP4 ADD DUP5 PUSH2 0x78A JUMP JUMPDEST SWAP3 SWAP2 POP POP JUMP JUMPDEST PUSH0 DUP2 SWAP1 POP SWAP2 SWAP1 POP JUMP JUMPDEST PUSH0 PUSH2 0x7D5 PUSH2 0x7D0 PUSH2 0x7CB DUP5 PUSH2 0x647 JUMP JUMPDEST PUSH2 0x7B2 JUMP JUMPDEST PUSH2 0x647 JUMP JUMPDEST SWAP1 POP SWAP2 SWAP1 POP JUMP JUMPDEST PUSH0 PUSH2 0x7E6 DUP3 PUSH2 0x7BB JUMP JUMPDEST SWAP1 POP SWAP2 SWAP1 POP JUMP JUMPDEST PUSH0 PUSH2 0x7F7 DUP3 PUSH2 0x7DC JUMP JUMPDEST SWAP1 POP SWAP2 SWAP1 POP JUMP JUMPDEST PUSH2 0x807 DUP2 PUSH2 0x7ED JUMP JUMPDEST DUP3 MSTORE POP POP JUMP JUMPDEST PUSH0 PUSH1 0x20 DUP3 ADD SWAP1 POP PUSH2 0x820 PUSH0 DUP4 ADD DUP5 PUSH2 0x7FE JUMP JUMPDEST SWAP3 SWAP2 POP POP JUMP JUMPDEST PUSH0 DUP3 DUP3 MSTORE PUSH1 0x20 DUP3 ADD SWAP1 POP SWAP3 SWAP2 POP POP JUMP JUMPDEST PUSH32 0x416D6F756E74206D757374206265203E20300000000000000000000000000000 PUSH0 DUP3 ADD MSTORE POP JUMP JUMPDEST PUSH0 PUSH2 0x86A PUSH1 0x12 DUP4 PUSH2 0x826 JUMP JUMPDEST SWAP2 POP PUSH2 0x875 DUP3 PUSH2 0x836 JUMP JUMPDEST PUSH1 0x20 DUP3 ADD SWAP1 POP SWAP2 SWAP1 POP JUMP JUMPDEST PUSH0 PUSH1 0x20 DUP3 ADD SWAP1 POP DUP2 DUP2 SUB PUSH0 DUP4 ADD MSTORE PUSH2 0x897 DUP2 PUSH2 0x85E JUMP JUMPDEST SWAP1 POP SWAP2 SWAP1 POP JUMP JUMPDEST PUSH32 0x5072696365206E6F742073657420666F72207468697320706169720000000000 PUSH0 DUP3 ADD MSTORE POP JUMP JUMPDEST PUSH0 PUSH2 0x8D2 PUSH1 0x1B DUP4 PUSH2 0x826 JUMP JUMPDEST SWAP2 POP PUSH2 0x8DD DUP3 PUSH2 0x89E JUMP JUMPDEST PUSH1 0x20 DUP3 ADD SWAP1 POP SWAP2 SWAP1 POP JUMP JUMPDEST PUSH0 PUSH1 0x20 DUP3 ADD SWAP1 POP DUP2 DUP2 SUB PUSH0 DUP4 ADD MSTORE PUSH2 0x8FF DUP2 PUSH2 0x8C6 JUMP JUMPDEST SWAP1 POP SWAP2 SWAP1 POP JUMP JUMPDEST PUSH32 0x4E487B7100000000000000000000000000000000000000000000000000000000 PUSH0 MSTORE PUSH1 0x11 PUSH1 0x4 MSTORE PUSH1 0x24 PUSH0 REVERT JUMPDEST PUSH0 PUSH2 0x93D DUP3 PUSH2 0x6DF JUMP JUMPDEST SWAP2 POP PUSH2 0x948 DUP4 PUSH2 0x6DF JUMP JUMPDEST SWAP3 POP DUP3 DUP3 MUL PUSH2 0x956 DUP2 PUSH2 0x6DF JUMP JUMPDEST SWAP2 POP DUP3 DUP3 DIV DUP5 EQ DUP4 ISZERO OR PUSH2 0x96D JUMPI PUSH2 0x96C PUSH2 0x906 JUMP JUMPDEST JUMPDEST POP SWAP3 SWAP2 POP POP JUMP JUMPDEST PUSH32 0x4E487B7100000000000000000000000000000000000000000000000000000000 PUSH0 MSTORE PUSH1 0x12 PUSH1 0x4 MSTORE PUSH1 0x24 PUSH0 REVERT JUMPDEST PUSH0 PUSH2 0x9AB DUP3 PUSH2 0x6DF JUMP JUMPDEST SWAP2 POP PUSH2 0x9B6 DUP4 PUSH2 0x6DF JUMP JUMPDEST SWAP3 POP DUP3 PUSH2 0x9C6 JUMPI PUSH2 0x9C5 PUSH2 0x974 JUMP JUMPDEST JUMPDEST DUP3 DUP3 DIV SWAP1 POP SWAP3 SWAP2 POP POP JUMP JUMPDEST PUSH0 PUSH2 0x9DB DUP3 PUSH2 0x6DF JUMP JUMPDEST SWAP2 POP PUSH2 0x9E6 DUP4 PUSH2 0x6DF JUMP JUMPDEST SWAP3 POP DUP3 DUP3 SUB SWAP1 POP DUP2 DUP2 GT ISZERO PUSH2 0x9FE JUMPI PUSH2 0x9FD PUSH2 0x906 JUMP JUMPDEST JUMPDEST SWAP3 SWAP2 POP POP JUMP JUMPDEST PUSH0 PUSH1 0x80 DUP3 ADD SWAP1 POP PUSH2 0xA17 PUSH0 DUP4 ADD DUP8 PUSH2 0x78A JUMP JUMPDEST PUSH2 0xA24 PUSH1 0x20 DUP4 ADD DUP7 PUSH2 0x78A JUMP JUMPDEST PUSH2 0xA31 PUSH1 0x40 DUP4 ADD DUP6 PUSH2 0x78A JUMP JUMPDEST PUSH2 0xA3E PUSH1 0x60 DUP4 ADD DUP5 PUSH2 0x6E8 JUMP JUMPDEST SWAP6 SWAP5 POP POP POP POP POP JUMP JUMPDEST PUSH0 PUSH1 0x40 DUP3 ADD SWAP1 POP PUSH2 0xA5A PUSH0 DUP4 ADD DUP6 PUSH2 0x6E8 JUMP JUMPDEST PUSH2 0xA67 PUSH1 0x20 DUP4 ADD DUP5 PUSH2 0x6E8 JUMP JUMPDEST SWAP4 SWAP3 POP POP POP JUMP INVALID LOG2 PUSH5 0x6970667358 0x22 SLT KECCAK256 CALLDATASIZE 0x28 BALANCE SWAPN 0x77 MLOAD LT MSIZE SWAP15 0x4F SWAP10 0xF7 0xB3 0x26 CALLCODE TIMESTAMP POP DUP8 SIGNEXTEND PUSH10 0x958F2B1A206FA5FE70D6 PUSH23 0x9F64736F6C634300081E00330000000000000000000000 "
		},
		"gasEstimates": {
			"creation": {
				"codeDepositCost": "544800",
				"executionCost": "infinite",
				"totalCost": "infinite"
			},
			"external": {
				"assetVault()": "infinite",
				"executeTrade(address,address,uint256)": "infinite",
				"feeBps()": "2425",
				"feeWallet()": "2574",
				"prices(address,address)": "infinite",
				"setPrice(address,address,uint256)": "infinite"
			}
		},
		"methodIdentifiers": {
			"assetVault()": "f61ebc36",
			"executeTrade(address,address,uint256)": "6c61033c",
			"feeBps()": "24a9d853",
			"feeWallet()": "f25f4b56",
			"prices(address,address)": "1f312404",
			"setPrice(address,address,uint256)": "792eb791"
		}
	},
	"abi": [
		{
			"inputs": [
				{
					"internalType": "address",
					"name": "_vaultAddress",
					"type": "address"
				},
				{
					"internalType": "address",
					"name": "_feeWallet",
					"type": "address"
				}
			],
			"stateMutability": "nonpayable",
			"type": "constructor"
		},
		{
			"anonymous": false,
			"inputs": [
				{
					"indexed": true,
					"internalType": "address",
					"name": "tokenA",
					"type": "address"
				},
				{
					"indexed": true,
					"internalType": "address",
					"name": "tokenB",
					"type": "address"
				},
				{
					"indexed": false,
					"internalType": "uint256",
					"name": "newPrice",
					"type": "uint256"
				}
			],
			"name": "PriceUpdated",
			"type": "event"
		},
		{
			"anonymous": false,
			"inputs": [
				{
					"indexed": true,
					"internalType": "address",
					"name": "user",
					"type": "address"
				},
				{
					"indexed": true,
					"internalType": "address",
					"name": "tokenFrom",
					"type": "address"
				},
				{
					"indexed": true,
					"internalType": "address",
					"name": "tokenTo",
					"type": "address"
				},
				{
					"indexed": false,
					"internalType": "uint256",
					"name": "amountFrom",
					"type": "uint256"
				},
				{
					"indexed": false,
					"internalType": "uint256",
					"name": "amountTo",
					"type": "uint256"
				}
			],
			"name": "TradeExecuted",
			"type": "event"
		},
		{
			"inputs": [],
			"name": "assetVault",
			"outputs": [
				{
					"internalType": "contract AssetVault",
					"name": "",
					"type": "address"
				}
			],
			"stateMutability": "view",
			"type": "function"
		},
		{
			"inputs": [
				{
					"internalType": "address",
					"name": "_tokenFrom",
					"type": "address"
				},
				{
					"internalType": "address",
					"name": "_tokenTo",
					"type": "address"
				},
				{
					"internalType": "uint256",
					"name": "_amountFrom",
					"type": "uint256"
				}
			],
			"name": "executeTrade",
			"outputs": [],
			"stateMutability": "nonpayable",
			"type": "function"
		},
		{
			"inputs": [],
			"name": "feeBps",
			"outputs": [
				{
					"internalType": "uint256",
					"name": "",
					"type": "uint256"
				}
			],
			"stateMutability": "view",
			"type": "function"
		},
		{
			"inputs": [],
			"name": "feeWallet",
			"outputs": [
				{
					"internalType": "address",
					"name": "",
					"type": "address"
				}
			],
			"stateMutability": "view",
			"type": "function"
		},
		{
			"inputs": [
				{
					"internalType": "address",
					"name": "",
					"type": "address"
				},
				{
					"internalType": "address",
					"name": "",
					"type": "address"
				}
			],
			"name": "prices",
			"outputs": [
				{
					"internalType": "uint256",
					"name": "",
					"type": "uint256"
				}
			],
			"stateMutability": "view",
			"type": "function"
		},
		{
			"inputs": [
				{
					"internalType": "address",
					"name": "_tokenA",
					"type": "address"
				},
				{
					"internalType": "address",
					"name": "_tokenB",
					"type": "address"
				},
				{
					"internalType": "uint256",
					"name": "_price",
					"type": "uint256"
				}
			],
			"name": "setPrice",
			"outputs": [],
			"stateMutability": "nonpayable",
			"type": "function"
		}
	]
}